:020000040800F2
:1000000000500020355F0008D95F0008E1A7000814
:10001000D95F0008D95F0008D95F00080000000020
:10002000000000000000000000000000D95F000890
:10003000D95F000800000000D95F0008D9EF000870
:10004000D95F0008D95F0008D95F0008D95F0008B0
:10005000D95F0008D95F0008D95F0008B14D0008DA
:10006000D95F0008D95F0008D95F0008D95F000890
:10007000D95F0008D95F00085DF20008D95F000869
:10008000D95F0008D95F0008D95F0008D95F000870
:10009000D95F0008D95F0008D95F0008B54D000896
:1000A000D95F0008D95F0008D95F0008415C0008EB
:1000B000995C0008A55C0008B15C000815EC00081C
:1000C000C9EF000819EC0008C5EF0008D95F000867
:1000D000D95F0008D95F00084DF50008D95F000816
:1000E000D1480008D95F0008D95F0008000000006F
:1000F0000000000000000000000000000000000000
:0C01000000000000000000005FF808F1A3
:1001100010B5054C237833B9044B13B10448AFF341
:1001200000800123237010BD88040020000000001F
:100130005C36010808B5064B1BB106480649AFF30B
:1001400000800648036813B1054B03B1984708BD0A
:10015000000000005C3601088C04002088040020A8
:100160000000000040F6D87320F00042C3F6497347
:100170009A4200B583B016DDB2F1FF4F04DB0146B1
:1001800003F020FA03B000BD694601F04BFB00F01C
:100190000302012A12D0022A09D0B2B900980199AB
:1001A00001F040FDEEE7002101F03CFDEAE7009898
:1001B000019901F037FD00F10040E3E70098019953
:1001C00002F028F900F10040DCE7012200980199D3
:1001D00002F020F9D6E700BF40F6D87320F00042C5
:1001E000C3F649739A4200B583B017DDB2F1FF4FF1
:1001F00004DB014603F0E6F903B000BD694601F0F7
:1002000011FB00F00300012815D002280BD0B8B96B
:1002100001220098019902F0FDF8EDE7002100228B
:1002200002F0F8F8E8E701220098019902F0F2F8EC
:1002300000F10040E0E70098019901F0F3FCDBE7F2
:100240000098019901F0EEFC00F10040D4E700BFF6
:100250002DE9F04F8BB01F4680468946164600F0C8
:100260002BFA854C94F90030013382468B4604D03A
:100270003046394602F05AF920B9504659460BB07B
:10028000BDE8F08F4046494602F050F9054638BBBC
:10029000304639460022002303F0E6F80028ECD06F
:1002A00094F900300895A3F1FF31CDE902894A4263
:1002B000CDE9046742EB01020121022B14BF134672
:1002C00042F001036D4A009100210020C3F6F07155
:1002D0000192CDE90601002B2AD0DDE906ABCCE77F
:1002E000404649460022002303F0BEF800282CD0E7
:1002F000304639460022002303F0B6F800285BD0D0
:10030000012200925D4A002094F900300021CDE9DD
:10031000028901920022CDE904670892CDE9060125
:1003200033B100230022C3F6F073CDE90623D4E7EE
:10033000684602F043F9002869D0089B002BCCD016
:1003400003F086FC089B0360C7E75046594602F05D
:10035000E5F8054600285FD05046594600220023A4
:1003600003F082F8002888D04046494602F0D6F8CB
:10037000002882D03046394602F0D0F800283FF4F9
:100380007CAF042200923D4A002094F90030002105
:10039000CDE9028901920022022B0892CDE904677F
:1003A000CDE9060163D0684602F008F900285ED066
:1003B000089B002B91D0C3E73046394602F0AEF8D7
:1003C00000283FF45AAF304639460022002303F09C
:1003D00055F800283FF451AF01220092274A2378B4
:1003E000CDE9028901920022CDE904670892002B31
:1003F00034D100220023CDE90623684602F0DEF85E
:100400000028D5D103F024FC21230360D0E703F0BA
:100410001FFC2123036090E74046494602F07EF826
:10042000002899D03046394602F078F8002893D059
:100430005046594602F07AF810BB012300930F4B47
:1004400000212478089000200193CDE90289CDE9AC
:100450000467002C66D1CDE90601CEE7002000211B
:10046000022BCFF6F071CDE90601CBD0C5E703F042
:10047000EFFB222303609BE70000002040360108C9
:10048000032300933A4B404694F9002049460895CF
:100490000193CDE90289CDE90467E2B94FF6FF790E
:1004A000002200234FF06048C4F2EF79CDE90689BD
:1004B00002F0E4FF00283FD194F90030022B05D070
:1004C000684602F07BF800287FF437AF03F0C0FBEA
:1004D0002223036031E74FF00009002200234FF090
:1004E0000008C7F6F079CDE9068902F0C7FF0028B9
:1004F000E2D000230022C3F6E0733046394602F012
:100500004BFD06460F4602F061F832463B4602F0CC
:10051000ABFF0028D0D100230022CFF6F073CDE945
:100520000623C9E702460B4602F060FE022CCDE925
:1005300006013FF467AF60E700230022C3F6E073D3
:100540003046394602F028FD06460F4602F03EF8D6
:1005500032463B4602F088FF0028ADD14FF6FF73CC
:100560004FF06042CCF2EF73CDE90623A4E700BF61
:100570004036010870B58AB0054600F019FF224CDC
:1005800094F900300133064603D0284602F0A4FA5D
:1005900010B930460AB070BD284602F04DFA4FF04F
:1005A0007E5103F0D5FA0028F3D001230093174BB6
:1005B000284601930023089302F09AFC024614484F
:1005C0000B46CDE90423CDE9022301F0F9FF94F9AC
:1005D0000030022BCDE906010BD0684601F0EEFF9A
:1005E00038B1089B53B9DDE9060102F097FF0646D2
:1005F000CFE703F02DFB21230360F2E703F028FB94
:10060000089B0360EFE700BF0000002044360108AC
:100610004C36010801F058B870B58AB0044601F0B4
:10062000ABFA224E96F90030013305462CD0204615
:1006300002F052FA40B32046002103F06BFA18B3DF
:10064000012300931A4B204601930023089302F0E4
:100650004FFC3478CDE90401CDE90201BCB10020A2
:10066000002102460B4602F0C1FD022CCDE9060135
:1006700011D103F0EDFA21230360089B8BB9DDE96A
:10068000060102F04BFF054628460AB070BD002265
:100690000023CDE90623684601F090FF0028ECD145
:1006A000E7E703F0D5FA089B0360E8E700000020C5
:1006B00050360108000000002DE9F04F8946194628
:1006C000824621F00044104693B0884654EA000167
:1006D0009C4602924E46554600F08780002229F043
:1006E0000047C7F6F072CDF81090974210DD07F181
:1006F000404707F580173D4302BF02954FF0000CBD
:10070000C3F6F07C77D10298614613B0BDE8F08F54
:1007100014BF4FF0000B4FF0010BBAF1000F0CBFEC
:1007200000230BF00103002BE1D19442DFDC14BF66
:100730000021012100280CBF002201F00102002A43
:10074000D5D1B9F1000F5CDB089298B900297FD1AF
:100750000023C3F6F0739C4200F0BE80B8F1804FD6
:1007600004BF5046494639D00023C3F6E07398458C
:1007700000F0F88350464946CDF804C001F0CAFEA7
:10078000DDF804C0069155B9002F14BF5B464BF04D
:100790000103002B78D1C3F6F0739F4274D0F60F9B
:1007A0000899013E314300F092800023C4F2E01327
:1007B0009C4240F3AF800023C4F2F0339C4240F3EC
:1007C00046844FF6FF73C3F6EF739F4240F3D58321
:1007D000B8F1000F54DD4CA1D1E9000102460B46EF
:1007E00002F0DAFB02908C468DE74FF0000C02918C
:1007F000C3F6F07C87E7464813B0BDE8F04F01F040
:10080000DFBE4FF6FF73C4F23F339C4277DC4FF6F6
:10081000FF73C3F6EF739C4296DD231540F213423B
:10082000934240F3AE84C3F58663033330FA03F298
:1008300012FA03F3834202BF02F00103C3F1020381
:10084000089382D00023089300283FF47FAF91E7FC
:1008500007F1404303F580132B4302BF02934FF08F
:10086000000CC3F6F07C3FF44EAF4FF6FF73C3F6B7
:10087000EF739F4240F3E383B8F1000FBFF643AF3D
:1008800000240294A4463EE7B8F1000FA8BFDDF8AB
:1008900018C0C0F25284049C002CA8BF0290BFF67E
:1008A00032AF07F14043089C03F580131C4340F02E
:1008B0007D840246044663466546614602F0B8F907
:1008C00002460B4602F092FC02908C461BE7504613
:1008D000494652464B46F1E7B8F1000FA4BFCDF8A8
:1008E00008A0CC46BFF60FAF002152460020C3F649
:1008F000F0714B4602F07AFC02908C4603E702222C
:10090000089222E7AFF300809C7500883CE4377EB4
:100910004C3601080021B7F5801F10DA069D002330
:10092000C4F2403300222946CDF804C002F034FB63
:10093000DDF804C00B4606911F466FF034013D15EB
:1009400027F07F43A5F57E7549F68E0223F47003E8
:10095000073DC0F203026D1811950025934243F044
:100960007E5444F4E00429460FDD4BF27962012104
:10097000C0F20B024FF48025934206DD0025119A48
:10098000A4F58014294601321192A94F024623464C
:10099000CDE9062307EBC107CDF804C0D7E9000174
:1009A000CDE90A0110462146DDE90A2302F040F9AB
:1009B000DDE90A23CDE90C01DDE9060102F03AF98F
:1009C0000B4600210246C3F6F071002002F00EFC37
:1009D000CDE90E01DDE90E23DDE90C0102F0DCFAC0
:1009E000631043F00053002203F50023CDE9040116
:1009F000824604928B46DDE9048900205919044699
:100A00000D4622462B464046494602F0C5FA0246AC
:100A10000B46DDE90C0102F00BF9DDE90A23CDE913
:100A20000C012046294602F003F902460B46DDE997
:100A3000060102F0FDF802460B464046494602F028
:100A4000ABFA02460B46DDE90C0102F0F1F8DDE9F4
:100A50000E2302F0A1FA52465B46CDE9060150464C
:100A6000594602F099FA04460D4622462B4602F0FA
:100A700093FA5DA3D3E90023CDE90A012046294674
:100A800002F08AFA5AA3D3E9002302F0D3F82246EF
:100A90002B4602F081FA58A3D3E9002302F0CAF8EA
:100AA00022462B4602F078FA55A3D3E9002302F040
:100AB000C1F822462B4602F06FFA53A3D3E9002374
:100AC00002F0B8F822462B4602F066FA50A3D3E9AA
:100AD000002302F0AFF802460B46DDE90A0102F0FE
:100AE0005BFA52465B4604460D464046494602F0D4
:100AF000A1F8DDE9062302F04FFA22462B4602F068
:100B000099F842464B46CDE90A014046494602F073
:100B100043FA00220023C4F20803CDE90C0102F0DD
:100B200089F8DDE90A2302F085F8049B40461C465B
:100B30001A460D4649462B4602F02EFA22462B460F
:100B4000CDE90E01DDE9060102F026FA00230022BC
:100B5000C4F20803804689462046294602F068F818
:100B6000DDE90C2302F064F802460B46DDE90A01D8
:100B700002F05EF852465B4602F00EFA02460B4661
:100B80004046494602F056F88046894642464B4662
:100B9000DDE90E0102F04EF8049C1FA3D3E9002307
:100BA00020460D4602F0F8F91DA3D3E90023CDE954
:100BB00006012046294602F0EFF9DDE90E238246C0
:100BC0008B462046294602F033F802460B46404643
:100BD000494602F02DF814A3D3E9002302F0DCF912
:100BE00028E000BFAFF30080EF4E454A287ECA3FA1
:100BF00065DBC9934A86CD3F01411DA96074D13F91
:100C00004D268F515555D53FFFAB6FDBB66DDB3FA2
:100C1000033333333333E33F000000E009C7EE3FD3
:100C2000F5015B14E02F3EBEFD033ADC09C7EE3F41
:100C3000A00B010802460B465046594601F0FAFF48
:100C4000D7E9042301F0F6FFCDE90A01119802F07B
:100C50003DF9D7E908ABDDE90A2304460D46DDE995
:100C6000060101F0E7FF52465B4601F0E3FF224632
:100C70002B4601F0DFFF2246049C2B462046A0466F
:100C8000894601F0D5FF52465B4601F0D1FFDDE910
:100C9000062301F0CDFF02460B46DDE90A0101F013
:100CA000C7FFCDE90401DDF804C0089C631E33438F
:100CB00040F0BE8100210020CBF6F071CDE90801A3
:100CC000029A4FF0000A6346614610465246E346D8
:100CD000CDF804C001F0ACFF42464B4602F05CF98F
:100CE000DDF804C0DDE9042306460F46029861469C
:100CF00002F052F902460B463046394601F09AFF9F
:100D000042464B46CDE904015046594602F044F9AB
:100D1000CDE90201DDE90223DDE9040101F08AFFEA
:100D20004FF6FF72C4F28F020F4606469742044602
:100D30000D46884640F3268107F13F4303F5E00363
:100D4000034340F00582A6A3D3E90023DDE90401B3
:100D500001F070FFDDE9022382468B4630463946BA
:100D600001F066FF02460B465046594602F0A4FBCE
:100D7000002840F0ED813C4623154FF48012A3F586
:100D80007E734FF6FF71063BC0F20F0152FA03F378
:100D900000244344C3F30A5223F07F40A2F57E7639
:100DA00020F47000073E40F480103141C2F58262A9
:100DB00023EA010502F1030A40FA0AFAB8F1000F2A
:100DC00022462B46DDE90201B8BFCAF1000A01F054
:100DD0002FFF4FEA0A5BCDE90201DDE90223DDE9DD
:100DE000040101F027FF0F4600207FA3D3E9002371
:100DF0003946044602F0D0F8DDE902233D4680463C
:100E000089462046394601F013FF02460B46DDE9CC
:100E1000040101F00DFF76A3D3E9002302F0BCF832
:100E200075A3D3E9002306460F462046294602F063
:100E3000B3F802460B463046394601F0FBFE044645
:100E40000D4622462B464046494601F0F3FE4246F7
:100E50004B4606460F4601F0EBFE02460B46204687
:100E6000294601F0E5FE32463B468046894630463B
:100E7000394602F091F862A3D3E9002304460D46F7
:100E800002F08AF860A3D3E9002301F0D1FE2246E4
:100E90002B4602F081F85EA3D3E9002301F0CAFEDD
:100EA00022462B4602F078F85BA3D3E9002301F039
:100EB000BFFE22462B4602F06FF859A3D3E9002368
:100EC00001F0B8FE22462B4602F066F802460B46B9
:100ED0003046394601F0ACFE04460D4622462B460C
:100EE0003046394602F058F800224FF08043CDE9F1
:100EF00002012046294601F09BFE02460B46DDE931
:100F0000020102F073F942464B4604460D46304654
:100F1000394602F041F842464B4601F08BFE02464C
:100F20000B462046294601F083FE32463B4601F03F
:100F30007FFE0B4600210246C3F6F071002001F04F
:100F400077FE8B440B46BBF5801FA4BF02465B4671
:100F5000C0F23681DDE9080102F01EF802908C46ED
:100F6000FFF7D1BB04980028FFF604AC5046494671
:100F700013B0BDE8F04F00F03FB9B8F1000FBFF675
:100F80007FAC28E44CF6FF3227F00044C4F2900214
:100F9000944240F3ED804FF45052C3F66F72BA188A
:100FA00002430CD1DDE902233046394601F040FE10
:100FB000DDE9042302F076FA00283FF4DDAE1AA33F
:100FC000D3E90023DDE9080101F0E6FF16A3D3E928
:100FD000002301F0E1FF02908C46FFF794BB00BFB5
:100FE000FE822B654715973C00000000432EE63F2C
:100FF000EF39FAFE422EE63F396CA80C615C20BE48
:10100000D0A4BE726937663EF16BD2C541BDBB3E0E
:101010002CDE25AF6A56113F93BDBE166CC1663FEC
:101020003E5555555555C53F59F3F8C21F6EA5019C
:1010300000230022C3F6F073CDE9082340E6B8F19F
:10104000000FBFF61DAC0CF1004CFFF75CBB4FF678
:10105000FE73C3F6EF739F428FDD0023C3F6F07378
:101060009F423FF7B5AB069D00230022C3F6F07305
:101070002946CDF804C001F0DBFD55A3D3E90023D8
:1010800004460D4601F088FF53A3D3E900238046B0
:1010900089462046294601F07FFF22462B46CDE9AE
:1010A00004012046294601F077FF00230022C3F601
:1010B000D07382468B462046294601F06DFF0246DA
:1010C0000B4647A1D1E9000101F0B2FD22462B46B3
:1010D00001F062FF0B4600210246C3F6E0710020DA
:1010E00001F0A6FD02460B465046594601F054FF5A
:1010F0003DA3D3E9002301F04FFF02460B46DDE993
:10110000040101F095FD04460D464046494622463D
:101110002B4601F08FFD42464B4600208046894613
:1011200001F086FD02460B462046294601F080FD6F
:10113000DDF804C0CDE90401B7E500210246C3F69D
:10114000F0710020069B02F051F88C46FFF7A3BB1C
:1011500027A3D3E90023DDE9080101F01DFF24A343
:10116000D3E9002301F018FF02908C46FFF7CBBAB9
:101170000023C3F6E0739C42D8BFD3467FF734AE5A
:10118000FAE5C8B9C3F58263033354FA03F212FADD
:1011900003F3A34202BF02F00103C3F10203089369
:1011A0003FF4D4AA00200890FFF7D0BA089C029020
:1011B000012C7FF4A8AA46E700210891FFF7DABACC
:1011C000524601F08DFA02460B46C3E6AFF30080AB
:1011D000000000604715F73F44DF5DF80BAE543E5A
:1011E000555555555555D53FFE822B654715F73F4B
:1011F0009C7500883CE4377E2DE9F843002637468D
:10120000C7F6F076C7F6F0770E40BE4204460D46AC
:1012100002460B4600F0AA8000297EDD0A1500F088
:101220008880A2F57E7621F07F43073ED20723F423
:10123000700343F4801362D5C20F4FF0000C02EB31
:10124000430376104200162460464FF400114518FF
:10125000D70F9D424FEA4202DEBFC5EB0303681879
:101260008C444908013C07EB4303F0D12027A046FA
:101270004FF00041984201EB08050EDB834214BF9A
:101280004FF000094FF0010995428CBF4FF0000963
:1012900009F00109B9F1000F0ED005F0004905EB86
:1012A0000108B9F1004F23D081461B1A954288BF2F
:1012B000013B521B64184846D50F49085200013FB4
:1012C00005EB4303D6D113431ED167084FEA6C03E5
:1012D0001CF0010F03F17E5318BF47F0004703F5E0
:1012E000C0033C4603EB065520462946BDE8F8837B
:1012F000B8F1000FA8BF00F10109D6DAD4E7C20F98
:10130000400002EB430397E7631C08BF0CF1010C9C
:10131000DCD004F001031C19D7E721F00046064396
:10132000E2D02A46002935D1C10A153A40050029E4
:10133000FAD011F4801329D149000133CC02FBD536
:10134000C3F10105C3F1200430FA04F45219A2F5E7
:101350007E7621439840073E21F07F43D20723F455
:10136000700343F480133FF567AFC8E72046294672
:1013700001F012FE02460B462046294601F05AFCB7
:1013800004460D4620462946BDE8F8832024012561
:101390000023D9E722462B462046294601F048FC87
:1013A00002460B4601F022FF04460D469CE700BFB3
:1013B0002DE9F04720F00045B5F17E5F0446064672
:1013C00000F0FD8000F3D580B5F17C5F10DAB5F157
:1013D000485F80F20A814FF2CA21C7F2491102F038
:1013E000F3F84FF07E5102F0B3FB002840F0C880C4
:1013F000204601F021FB01464FF07E5002F0E2F85A
:101400004FF07C5102F0E8F94EF60871C3F6110175
:10141000044602F0E1F947F60471C3F64F2102F0E9
:10142000D3F8214602F0D8F941F24611C3F624510F
:1014300002F0C8F8214602F0CFF940F6A821C3F621
:101440004E6102F0C1F8214602F0C6F94BF290015C
:10145000C3F6A66102F0B6F8214602F0BDF94AF6DD
:10146000AB21C3F62A6102F0AFF8214602F0B4F9CD
:101470004CF22E61C3F69D518146204602F0ACF934
:1014800043F26131C3F6307102F09CF8214602F05C
:10149000A3F945F22D71C4F2010102F095F821463D
:1014A00002F09AF94DF23911C4F2190102F08AF8EA
:1014B000214602F091F94FF07E5102F085F8804606
:1014C000204600F059FB49F69913C3F679739D4203
:1014D000074658DC394627F47E6502F075F8414628
:1014E00025F01F058246484602F02AFA014650467A
:1014F00002F072F929468046284602F06DF901464D
:10150000204602F05FF829460446384602F05CF8AF
:101510000146204602F014FA014602F055F8014651
:101520004BF62E50CBF23B3002F04CF801464046D1
:1015300002F048F829460446284602F045F80146DC
:1015400040F6DB70C3F6497002F03CF801462046D5
:1015500002F038F8014640F6DB70C3F6497002F03D
:1015600031F8002ED4BF00F1004404462046BDE807
:10157000F087014602F026F8014602F0E1F9044640
:101580002046BDE8F0874146484602F0D9F90146B9
:10159000384602F021F9394602F016F8014602F009
:1015A00013F84BF62E51C3F23B3102F00DF8014611
:1015B00040F6DB70C3F6C97002F004F8D1E740F6DC
:1015C000DB71C3F6C97102F007F94BF62E51CBF26D
:1015D0003B310546204602F0FFF80146284601F05F
:1015E000F3FF04462046BDE8F087014602F0F4F818
:1015F0004EF60871C3F61101054602F0EDF847F604
:101600000471C3F64F2101F0DFFF294602F0E4F830
:1016100041F24611C3F6245101F0D4FF294602F0ED
:10162000DBF840F6A821C3F64E6101F0CDFF294654
:1016300002F0D2F84BF29001C3F6A66101F0C2FFAE
:10164000294602F0C9F84AF6AB21C3F62A6101F037
:10165000BBFF294602F0C0F84CF22E61C3F69D5143
:101660000646284602F0B8F843F26131C3F63071FD
:1016700001F0A8FF294602F0AFF845F22D71C4F23F
:10168000010101F0A1FF294602F0A6F84DF239113F
:10169000C4F2190101F096FF294602F09DF84FF0BF
:1016A0007E5101F091FF0146304602F049F90146B2
:1016B000204602F091F80146204601F085FF0446DD
:1016C0002046BDE8F08700BF70B520F00045B5F1B9
:1016D000FF4F21F00046D4BF00240124B6F1FF4F94
:1016E000C8BF44F001040346002C30D1B1F17E5F45
:1016F00041D08C1704F0020444EAD07425B9022CBE
:101700002FD0032C32D070BD26B3B6F1FF4F4ED090
:10171000B5F1FF4F56D0AD1BED153C2DC4BF40F6C3
:10172000DB70C3F6C9702ADD012C55D0022C30D0F5
:10173000002CE8D04BF62E51C3F2BB3101F044FF30
:1017400040F6DB71C4F2490101F03CFF70BD01F0CD
:101750003BFF70BD002B40F6DB703ADBC3F6C9706F
:1017600070BD40F6DB70C4F2490070BD40F6DB701E
:10177000CCF2490070BDBDE8704001F02DB815F104
:101780003C0FACBF0025012515EAD17527D00020FC
:10179000CAE74BF62E51C3F2BB3101F015FF0146EB
:1017A00040F6DB70C4F2490001F00CFF70BDB5F1EA
:1017B000FF4F1BD0022CD4D0032CD7D0012C20D02B
:1017C000002070BD002B40F6DB70A8BFC3F6C970C7
:1017D00099DACBF6C97070BD00F1004070BD02F01F
:1017E000AFF801F029F900F0F7FF9DE7022C13D0C4
:1017F000032C0CD0012C40F6DB7005D0C3F64970E9
:1018000070BD4FF0004070BDCBF6497070BD4CF616
:10181000E430CCF2160070BD4CF6E430C4F2160091
:1018200070BD00BF40F6D8732DE9F04FC3F6497381
:1018300020F0004B89B09B4505460C4640F38B8059
:101840004CF6E333C4F216039B4526DC00284FF424
:101850007861C3F6C97140F34F8101F0B3FE4FF4D4
:101860007D632BF00F0BC3F6C9739B45054600F053
:10187000818044F243410126C3F2357101F0A2FE9A
:1018800001462060284601F09DFE44F24341C3F228
:10189000357101F097FE606061E04FF47863C4F247
:1018A00049339B4540F38180BBF1FF4F5BDA4FEA40
:1018B000EB59A9F18609ABEBC95B584602F052F926
:1018C00001F036FF034601465846059301F07AFEC3
:1018D0004FF0874101F080FF064602F043F901F026
:1018E00027FF014607463046069701F06BFE4FF092
:1018F000874101F071FF002103260346079302F0A0
:10190000FFF888B13846002102F0FAF803260DF1FD
:101910001808013E40B158F8047D0021013E3846C8
:1019200002F0EEF80028F6D13346914E05A8214684
:101930004A4601960226009600F050FA002D06460F
:101940000DDA22684642636802F10042226003F128
:101950000043636003E00026002308604B603046CC
:1019600009B0BDE8F08F0146002601F02BFE606053
:101970002060F4E74FF488410126C3F2357101F08D
:1019800021FE4AF20831C2F68561054601F01AFED1
:1019900001462060284601F015FE4AF20831C2F6E1
:1019A000856101F00FFE6060D9E701F045F84FF660
:1019B0008411C3F62271074601F00EFF4FF07C51EF
:1019C00001F002FE02F0CEF8064601F0B1FE4FF43F
:1019D0007861C3F6C971814601F0FEFE01463846C2
:1019E00001F0F0FD44F24341C3F2357180464846B0
:1019F00001F0F2FE1F2E824640461EDC5D4B711E3A
:101A00002BF0FF0253F821309A4216D0514601F0D4
:101A1000D9FD074620603946404601F0D3FD5146C6
:101A200001F0D0FD002D606099DA07F1004700F168
:101A3000004027607642606091E751464FEAEB5BD9
:101A400001F0C0FDC0F3C7530746C3EB0B03206092
:101A5000082BE0DD4FF488414846C3F2357101F0B0
:101A6000BBFE07464046394601F0ACFD03904046B8
:101A7000039901F0A7FD394601F0A4FD4AF20831AF
:101A8000C2F685610746484601F0A6FE394601F0D8
:101A900099FD82460398514601F094FDC0F3C75367
:101AA0000746C3EB0B0B2060BBF1190FD8BFDDF865
:101AB0000C80B0DD4FF423414846C2F6856101F049
:101AC0008BFE07460398394601F07CFD804603985B
:101AD000414601F077FD394601F074FD43F23211C1
:101AE000C2F28D410746484601F076FE394601F0C4
:101AF00069FD8246404689E701F066FD4FF47D634B
:101B00002BF00F0BC3F6C9739B45054614D044F266
:101B100043414FF0FF36C3F2357101F055FD0146E8
:101B20002060284601F04EFD44F24341C3F2357176
:101B300001F04AFD606012E74FF488414FF0FF3634
:101B4000C3F2357101F040FD4AF20831C2F68561F9
:101B5000054601F039FD01462060284601F032FDBE
:101B60004AF20831C2F6856101F02EFD6060F6E6AA
:101B7000500C0108D00B010820F000420346B2F1DE
:101B8000FF4F70B5044638D2002A34D000283EDB1F
:101B9000C415B2F5000F09D210F400023FD15B006A
:101BA00001321902FBD5C2F10102A41823F07F43D0
:101BB0007F3C23F40003E20743F400034FF08072FC
:101BC00048BF5B000026641019215B003546A81849
:101BD0009842DEBFC0EB03038518B61852085B00BD
:101BE0000139F4D113B106F001039E19761006F104
:101BF0007C5606EBC454204670BD214601F0ECFD36
:101C00000146204601F0E0FC0446204670BD014636
:101C100001F0D8FC014601F093FE0446EBE70122F7
:101C2000A418C3E72DE9F84320F00046B6F1485F59
:101C300005460F465BDA01F095FF002800F0CA80E8
:101C40002946284601F0C8FD4DF24E71CAF64751AB
:101C5000044601F0C1FD47F2F641C3F20F1101F055
:101C6000B3FC214601F0B8FD4FF27C21C3F2934151
:101C700001F0A8FC214601F0AFFD40F60151C3F28E
:101C8000D07101F0A1FC214601F0A6FD40F66131C2
:101C9000C3F6B62101F096FC214601F09DFD4AF6FF
:101CA000AB21C3F62A5101F08FFC214601F094FDCF
:101CB000804620464FF07C5101F08EFD414606469D
:101CC000204601F089FD39460446284601F084FD8E
:101CD0000146204601F076FC0146304601F072FCD8
:101CE00001464FF07E5001F06DFCBDE8F8830146DF
:101CF00001F072FD4DF24E71CAF64751044601F0F3
:101D00006BFD47F2F641C3F20F1101F05DFC214675
:101D100001F062FD4FF27C21C3F2934101F052FCCD
:101D2000214601F059FD40F60151C3F2D07101F096
:101D30004BFC214601F050FD40F66131C3F6B6215F
:101D400001F040FC214601F047FD4AF6AB21C3F605
:101D50002A5101F039FC214601F03EFD49F6991364
:101D6000C3F699639E428046A3DD0023C3F6487301
:101D70009E4227DC06F17F464FF07E50314601F04F
:101D800021FC814620464FF07C5101F025FD314673
:101D900001F018FC41460646204601F01DFD39467B
:101DA0000446284601F018FD0146204601F00AFCD1
:101DB0000146304601F006FC0146484601F002FCAF
:101DC000BDE8F8834FF000090026C3F63879C3F662
:101DD0009066D7E74FF07E50BDE8F8832DE9F04FCD
:101DE000151DD41EDDB048BF2C4607460493013BA9
:101DF000E410029324EAE474B14B0994669C0891C0
:101E000053F82430099C0793E34302EBC303029A7F
:101E10000693079BD61815D4A51A0136679A002495
:101E20000DF18008B60002EB85090020002D03DBD0
:101E300059F8040001F07CFC48F804000434013532
:101E4000B442F2D1079B002B25DB079C48A8DDF8A4
:101E500010A00DF58E7900EB840B4FEA8A08029AE8
:101E60000025002A11DB20AB002403EB8A060025A5
:101E70003859043456F8041D01F0AEFC01462846DA
:101E800001F0A2FB44450546F2D149F8045FD9456B
:101E90000AF1010AE3D1079C0CAADDF81C80013C81
:101EA0000092C2460A9402EB84030B934FEA8A0421
:101EB0005CA80319BAF1000F019453F8504C25DDCA
:101EC000019A0DF590790DF12C0809EB02054FF000
:101ED0006E51204601F080FC01F044FE01F028FC28
:101EE0004FF08741064601F077FC0146204601F09D
:101EF00069FB01F037FE55F8043D314648F8040F00
:101F0000184601F061FB4D450446E0D10699204694
:101F100000F020FE4FF07851044601F05DFC00F027
:101F20008FFD4FF0824101F057FC0146204601F041
:101F300049FB044601F016FE064601F0F9FB014696
:101F4000204601F03FFB069B002B054640F309812C
:101F50000AF1FF330CA8069C50F82320C4F10801B5
:101F6000C4F1070452FA01F0361810FA01F1521ABE
:101F70000CA942FA04FB41F82320BBF1000F30DD2D
:101F800001360024BAF1000F17DD019C0CAB1919C2
:101F9000002407E022B10124C2F5807243F8042C2A
:101FA0008B420AD053F8042B002CF3D001248B422F
:101FB000C2F1FF0243F8042CF4D1069A002A0DDD89
:101FC000012A00F0D780022A08D10AF1FF330CA9B8
:101FD00051F8232002F03F0241F82320BBF1020F09
:101FE00070D02846002101F08BFD002800F083808E
:101FF000079A0AF1FF34A2420FDC019A0CA8831859
:10200000079A00EB8200002253F8041D834242EA43
:102010000102F9D1002A40F0C5800A9C0CA850F8B2
:102020002430002B40F0BC800B9A012352F8041D91
:1020300001330029FAD053440AF101099945039369
:102040003BDC099C029AA244679C02EB090320AA8C
:1020500004EB8A0B049C013B059202EB830A4FEAD6
:102060008408019B48AAD21801925BF8040F00254E
:1020700001F05EFB029A002A4AF8040F14DB049B6D
:102080000025059A002409EB030602EB8606385961
:10209000043456F8041D01F09FFB0146284601F068
:1020A00093FA44450546F2D1039C09F10109019BCD
:1020B000A14543F8045F0193D7DDDDF80CA0F5E6F8
:1020C000680F010829464FF07E5001F07BFA054663
:1020D000002C86D006994FF07E5000F03BFD014663
:1020E000284601F06FFA00210546284601F008FD58
:1020F00000287FF47DAF0296D0460AF1FF34002815
:1021000051D1069B2846594200F024FD4FF08741EB
:10211000044601F013FD002800F072814FF06E516B
:10212000204601F059FB069A0AF10108083206928E
:1021300001F018FD01F0FCFA4FF08741054601F06F
:102140004BFB0146204601F03DFA0CAC01F00AFDC4
:102150000CAB43F82A00284601F004FD44F828009F
:1021600034E011D10AF1FF330CAA52F823304FEAC0
:10217000232B02E70AF1FF330CA850F8232002F0CA
:102180007F0240F8232029E74FF07C514FF0000BED
:1021900001F0D4FC00283FF424AF4FF0020BEFE62F
:1021A000012348E702960CA8069AA04650F824306E
:1021B000083A069253B900EB8403A04653F8041D75
:1021C00008F1FF38083A0029F8D006924FF07E5007
:1021D000069900F0BFFCB8F1000F05464DDB08F191
:1021E00001020CAB48A8019296009C19861954F87C
:1021F000040D01F09DFA294601F0EEFA4FF06E5100
:102200000346284646F8043D01F0E6FA009A944257
:102210000546ECD148ABCDF80C8003EB8809DFF81C
:10222000F0A1DDF81C800027B8F1000FC0F2DA80C1
:10223000002FC0F2D78000240026254601E0BD42D1
:102240000EDC59F8041001355AF80400043401F08A
:10225000C3FA0146304601F0B7F9A8450646EEDA62
:102260005CAC019A04EB87030137BA42A9F1040977
:1022700043F8A06CD8D1DDF80C80669C032C14D8F0
:10228000DFE804F0986868190020BBF1000F59D00E
:10229000089B00F10040089C349A9860359B02F13D
:1022A0000042226003F100436360029A02F00700DB
:1022B0005DB0BDE8F08FB8F1000FC4BF34AD05EBE1
:1022C0008804E1DD54F8049C54F804794846394602
:1022D00001F07AF906464846314601F073F90146A5
:1022E000384601F071F9AC4226606060EAD1B8F17D
:1022F000010FC9DD08F1FF3405EB840454F804999B
:10230000A7684846394601F05FF906464846314617
:1023100001F058F90146384601F056F9AC426660C2
:10232000A060EBD108F1010804F10805002004EBDE
:10233000880454F8041D01F047F9AC42F9D1BBF10F
:10234000000FA5D1089B089C9860349B2360359BA7
:102350006360AAE70020B8F1000F0BDB08F101046D
:1023600034AD002005EB840454F8041D01F02CF971
:10237000AC42F9D100F10043BBF1000F00D103469C
:10238000089C01463498236001F01CF9B8F1000F55
:1023900008DD34AC04EB880854F8041F01F014F98C
:1023A0004445F9D1BBF1000F01D000F10040089A7B
:1023B00050607AE70020B8F1000F0BDB08F1010450
:1023C00034AD002005EB840454F8041D01F0FCF842
:1023D000AC42F9D1BBF1000F01D000F10040089AE6
:1023E000106062E75CAC019A04EB870301370026BA
:1023F000BA42A9F1040943F8A06C7FF415AF3AE79B
:10240000204601F0AFFB0CA941F82A00DEE600BF30
:10241000740F01082DE9F84320F00043B3F1485F41
:1024200004460D46904603DA01F09CFB002859D083
:102430002146204601F0D0F92146064601F0CCF9AC
:102440004CF6D311C2F62E710746304601F0C4F99E
:1024500042F63471C3F2D72101F0B4F8314601F0ED
:10246000BBF94EF61B71C3F2386101F0ADF831468D
:1024700001F0B2F940F60151C3F6501101F0A2F893
:10248000314601F0A9F948F68901C3F6084101F087
:102490009BF88146B8F1000F27D028464FF07C51B9
:1024A00001F09AF949468046384601F095F901460F
:1024B000404601F087F8314601F08EF9294601F0D7
:1024C00081F84AF6AB21C3F62A610546384601F089
:1024D00083F90146284601F077F80146204601F0CD
:1024E00071F804462046BDE8F8830146304601F005
:1024F00073F94AF6AB21C3F62A6101F063F8394655
:1025000001F06AF90146204601F05EF804462046D3
:10251000BDE8F88321F00041704700BF21F0004082
:1025200000F1004000F58010C00F704750EA010232
:102530000B4610B402D1022010BC7047D0F101004C
:1025400038BF0020B1F1004F14BF002200F001029B
:10255000002AF0D14FF6FF7201F1FE44C7F6DF7298
:10256000A1F58011914204F570048CBF0021012176
:1025700094428CBF0A4641F001020AB10420DBE715
:10258000B3F5801F03F100412CBF00220122B1F5F9
:10259000801F38BF42F001020AB10320CCE713F5D7
:1025A000801FC7F6F07214BF00210121934214BFAF
:1025B0000B4641F001031840BEE700BF0020704702
:1025C00000210020C7F6F871704700BF2DE9F043E5
:1025D000C1F30A56A6F57E77CC0F073F83B0132FC1
:1025E00002460B460D4631DC002F4CDB4FF6FF75E3
:1025F000C0F20F053D4105EA0106064323D06D08F0
:10260000294051EA00020BD04FF4802123EA050350
:10261000132F0CBF4FF00042002251FA07F73B4343
:1026200019462E4B03EBC4040B46D4E90045204663
:10263000294600F0FFFA22462B46CDE90001DDE9EC
:10264000000100F0F5FA03B0BDE8F083332F07DD99
:10265000B7F5806FF7D102460B4600F0EBFAF2E7D0
:10266000A6F582664FF0FF35033EF5400542EAD0FD
:102670006D080542D4D04FF0804120EA050251FA9E
:1026800006F63243CCE721F000430343DBD021F0D0
:102690007F46124F26F470064D0C064307EBC40725
:1026A000C6F1000E02464EEA0606D7E90089360B4F
:1026B000404606F40026494646EA454300F0BAFA89
:1026C0004B464246CDE90001DDE9000100F0B0FAD9
:1026D00021F0004343EAC471B5E700BFA00F010831
:1026E00038B5C1F30A5314460D46002B33D121F0FF
:1026F000004505432ED0002343F6B0450022C4F226
:102700005033CFF6FF7500F047FCAC4243DBC1F31A
:102710000A5340F2FE72363B0D461B19934223DDED
:1027200002460B4628A1D1E9000100F06BFA26A36E
:10273000D3E9002300F030FC38BD363325F0FE45E8
:1027400025F47005002245EA03510023C3F69043A7
:1027500000F022FC38BD40F2FF72934221D01B19D9
:1027600040F2FE729342DBDC002B06DD25F0FE45D5
:1027700025F4700545EA035138BD13F1350FDCDA55
:102780004CF2503302469C420B460FDC10A1D1E9BB
:10279000000100F037FA0EA3D3E9002300F0FCFBA0
:1027A00038BD02460B4600F045FA38BD06A1D1E916
:1027B000000100F027FA04A3D3E9002300F0ECFBAA
:1027C00038BD00BFAFF300809C7500883CE4377EC5
:1027D00059F3F8C21F6EA5012DE9F04120F0004524
:1027E000B5F1A14F044606460EDBB5F1FF4F00F3ED
:1027F000A280002840F6DB74C8BFC3F6C97440F35A
:10280000DF802046BDE8F0814FF6FF73C3F6DF633B
:102810009D4200F3A580B5F1445FC0F293804FF074
:10282000FF382146204600F0D7FF0746394600F022
:10283000D3FF46F6D711C3F68541054600F0CCFF1D
:102840004DF65921C3F64B5100F0BEFE294600F06B
:10285000C3FF46F63531C3F6885100F0B5FE294670
:1028600000F0BAFF42F66E61C3F6BA5100F0ACFE5A
:10287000294600F0B1FF44F62511C3F6126100F0BD
:10288000A3FE294600F0A8FF4AF6AB21C3F6AA61D1
:1028900000F09AFE394600F09FFF4AF22121CBF664
:1028A00015510746284600F097FF4FF26B11C3F60B
:1028B0006E5100F087FE294600F08EFF48F29571B8
:1028C000C3F69D5100F07EFE294600F085FF48F6D4
:1028D0003861C3F6E35100F075FE294600F07CFF35
:1028E0004CF6CD41C3F64C6100F06CFE294600F079
:1028F00073FFB8F1FF3F014656D04E4D384600F009
:1029000063FE214600F068FF05EB8803196900F0BB
:1029100059FE214600F056FE014655F8280000F009
:1029200051FE002EB8BF00F10044FFF66AAF044626
:102930002046BDE8F081014600F046FE04462046F0
:10294000BDE8F0814FF2CA21C7F2491100F03CFE08
:102950004FF07E5101F0FCF800283FF460AF50E7E3
:1029600000F06AF84FF6FF73C3F697739D424FF677
:10297000FF73044627DCC3F62F739D4247DC0146F4
:102980004FF0000800F020FE4FF07E5100F01AFEDC
:102990004FF080410546204600F016FE01462846CD
:1029A00000F0CEFF04463CE7384600F00DFE21461D
:1029B00000F012FF0146204600F004FE044620E726
:1029C000CBF6C9741DE7C4F21B039D4215DC4FF022
:1029D0007F514FF0020800F0F5FD4FF07F510546A2
:1029E000204600F0F9FE4FF07E5100F0EDFD01466B
:1029F000284600F0A5FF044613E700202146CBF649
:102A000080704FF0030800F09BFF044609E74FF089
:102A10007E514FF0010800F0D5FD4FF07E51054684
:102A2000204600F0D1FD0146284600F089FF04460B
:102A3000F7E600BFB00F010820F00040704700BF6C
:102A40002DE9F04120F000460446F50D7F3D162D9E
:102A500019DC002D80461EDB4FF6FF77C0F27F07A2
:102A60002F41074224D04FF2CA21C7F2491100F08A
:102A7000ABFD002101F06CF8E0B1002C24DB28EA6A
:102A80000700BDE8F081B6F1FF4F11D3014600F019
:102A90009BFDBDE8F0814FF2CA21C7F2491100F059
:102AA00093FD002101F054F820B10020002C04DB3C
:102AB000BDE8F0812046BDE8F081CBF68070002EA5
:102AC00008BF2046BDE8F0814FF4000353FA05F536
:102AD00004EB0508D3E700BFD0F1010338BF0023A2
:102AE000B0F1004F08BF43F001030BB10220704763
:102AF000A0F5000300F1FF42B3F1FE4F2CBF00230D
:102B00000123B2F1FE4F38BF43F001030BB10420A3
:102B100070474FF6FE73411EC0F27F0300F1004282
:102B2000013A99428CBF002101219A428CBF0B4689
:102B300041F001030BB10320704710F5000F14BFE3
:102B400000230123B0F1FF4F14BF184643F00100EA
:102B5000704700BF30F00042034610B50C461ED04F
:102B6000B2F1FF4F1CD2B2F5000F1DD3D20D1219D6
:102B7000FE2AC8BF014638DC002A04DD23F0FF43EB
:102B800043EAC25010BD12F1160F1CDB193223F0BC
:102B9000FF434FF04C5143EAC25000F01DFE10BD00
:102BA000014600F011FD10BD4FF0984100F014FEF9
:102BB00043F6B043CFF6FF739C420FDBC0F3C7521E
:102BC0000346193AD3E74CF2503301469C420CDCE1
:102BD00044F26020C0F6A25000F020F844F26021D8
:102BE000C0F6A25100F0F8FD10BD4FF2CA20C7F2A6
:102BF000491000F013F84FF2CA21C7F2491100F052
:102C0000EBFD10BD03F0004221F0004330B40D464F
:102C1000044642EA030130BC704700BF01F00041A6
:102C200020F000400843704781F0004102E000BFFF
:102C300083F0004330B54FEA41044FEA430594EA7C
:102C4000050F08BF90EA020F1FBF54EA000C55EAB7
:102C5000020C7FEA645C7FEA655C00F0E2804FEA88
:102C60005454D4EB5555B8BF6D420CDD2C4480EA6A
:102C7000020281EA030382EA000083EA010180EA9A
:102C8000020281EA0303362D88BF30BD11F0004FE8
:102C90004FEA01314FF4801C4CEA113102D040421E
:102CA00061EB410113F0004F4FEA03334CEA133359
:102CB00002D0524263EB430394EA050F00F0A78071
:102CC000A4F10104D5F1200E0DDB02FA0EFC22FA6C
:102CD00005F2801841F1000103FA0EF2801843FA60
:102CE00005F359410EE0A5F120050EF1200E012A51
:102CF00003FA0EFC28BF4CF0020C43FA05F3C0188F
:102D000051EBE37101F0004507D54FF0000EDCF107
:102D1000000C7EEB00006EEB0101B1F5801F1BD3B0
:102D2000B1F5001F0CD349085FEA30004FEA3C0CB4
:102D300004F101044FEA445212F5800F80F09A80AA
:102D4000BCF1004F08BF5FEA500C50F1000041EBAE
:102D5000045141EA050130BD5FEA4C0C404141EBB2
:102D6000010111F4801FA4F10104E9D191F0000FD9
:102D700004BF01460020B1FA81F308BF2033A3F15C
:102D80000B03B3F120020CDA0C3208DD02F1140C53
:102D9000C2F10C0201FA0CF021FA02F10CE002F18E
:102DA0001402D8BFC2F1200C01FA02F120FA0CFC87
:102DB000DCBF41EA0C019040E41AA2BF01EB0451D0
:102DC000294330BD6FEA04041F3C1CDA0C340EDCCE
:102DD00004F11404C4F1200220FA04F001FA02F311
:102DE00040EA030021FA04F345EA030130BDC4F1CF
:102DF0000C04C4F1200220FA02F001FA04F340EAC4
:102E00000300294630BD21FA04F0294630BD94F074
:102E1000000F83F4801306BF81F480110134013D5B
:102E20004EE77FEA645C18BF7FEA655C29D094EACC
:102E3000050F08BF90EA020F05D054EA000C04BF4A
:102E40001946104630BD91EA030F1EBF0021002035
:102E500030BD5FEA545C05D14000494128BF41F0D4
:102E6000004130BD14F580043CBF01F5801130BD38
:102E700001F0004545F0FE4141F470014FF00000C3
:102E800030BD7FEA645C1ABF194610467FEA655C74
:102E90001CBF0B46024650EA013406BF52EA033516
:102EA00091EA030F41F4002130BD00BF90F0000F04
:102EB00004BF0021704730B54FF4806404F1320440
:102EC0004FF000054FF0000150E700BF90F0000FF9
:102ED00004BF0021704730B54FF4806404F1320420
:102EE00010F0004548BF40424FF000013EE700BFF0
:102EF00042004FEAE2014FEA31014FEA02701FBF80
:102F000012F07F4393F07F4F81F06051704792F051
:102F1000000F14BF93F07F4F704730B54FF46074CB
:102F200001F0004521F0004120E700BF50EA010216
:102F300008BF704730B54FF000050AE050EA0102C3
:102F400008BF704730B511F0004502D5404261EB33
:102F500041014FF4806404F132045FEA915C3FF474
:102F6000DCAE4FF003025FEADC0C18BF03325FEA0D
:102F7000DC0C18BF033202EBDC02C2F1200300FAC2
:102F800003FC20FA02F001FA03FE40EA0E0021FAE7
:102F900002F11444C1E600BF70B54FF0FF0C4CF4D1
:102FA000E06C1CEA11541DBF1CEA135594EA0C0F87
:102FB00095EA0C0F00F0DEF82C4481EA030621EAC2
:102FC0004C5123EA4C5350EA013518BF52EA0335FD
:102FD00041F4801143F4801338D0A0FB02CE4FF0AF
:102FE0000005E1FB02E506F00042E0FB03E54FF0DF
:102FF0000006E1FB03569CF0000F18BF4EF0010ED7
:10300000A4F1FF04B6F5007F64F5407404D25FEAD2
:103010004E0E6D4146EB060642EAC62141EA555185
:103020004FEAC52040EA5E504FEACE2EB4F1FD0CC7
:1030300088BFBCF5E06F1ED8BEF1004F08BF5FEA45
:10304000500E50F1000041EB045170BD06F00046F7
:1030500046EA010140EA020081EA0301B4EB5C04A4
:10306000C2BFD4EB0C0541EA045170BD41F480119C
:103070004FF0000E013C00F3AB8014F1360FDEBFC1
:10308000002001F0004170BDC4F10004203C35DA9D
:103090000C341BDC04F11404C4F1200500FA05F320
:1030A00020FA04F001FA05F240EA020001F00042C1
:1030B00021F0004110EBD37021FA04F642EB060137
:1030C0005EEA430E08BF20EAD37070BDC4F10C0461
:1030D000C4F1200500FA04F320FA05F001FA04F225
:1030E00040EA020001F0004110EBD37041F1000111
:1030F0005EEA430E08BF20EAD37070BDC4F120051C
:1031000000FA05F24EEA020E20FA04F301FA05F283
:1031100043EA020321FA04F001F0004121FA04F22B
:1031200020EA020000EBD3705EEA430E08BF20EAFB
:10313000D37070BD94F0000F0FD101F00046400035
:1031400041EB010111F4801F08BF013CF7D041EAB7
:10315000060195F0000F18BF704703F000465200BB
:1031600043EB030313F4801F08BF013DF7D043EA8C
:103170000603704794EA0C0F0CEA135518BF95EA42
:103180000C0F0CD050EA410618BF52EA4306D1D1C9
:1031900081EA030101F000414FF0000070BD50EAE8
:1031A000410606BF1046194652EA430619D094EA72
:1031B0000C0F02D150EA013613D195EA0C0F05D15C
:1031C00052EA03361CBF104619460AD181EA0301B0
:1031D00001F0004141F0FE4141F470014FF0000068
:1031E00070BD41F0FE4141F4780170BD70B54FF003
:1031F000FF0C4CF4E06C1CEA11541DBF1CEA135583
:1032000094EA0C0F95EA0C0F00F0A7F8A4EB050464
:1032100081EA030E52EA03354FEA013100F088805B
:103220004FEA03334FF0805545EA131343EA126324
:103230004FEA022245EA111545EA10654FEA0026D9
:103240000EF000419D4208BF964244F1FD0404F592
:10325000407402D25B084FEA3202B61A65EB0305EE
:103260005B084FEA32024FF480104FF4002CB6EBAB
:10327000020E75EB030E22BFB61A754640EA0C002B
:103280005B084FEA3202B6EB020E75EB030E22BF6B
:10329000B61A754640EA5C005B084FEA3202B6EBAC
:1032A000020E75EB030E22BFB61A754640EA9C006B
:1032B0005B084FEA3202B6EB020E75EB030E22BF3B
:1032C000B61A754640EADC0055EA060E18D04FEAF9
:1032D000051545EA16754FEA06164FEAC30343EA99
:1032E00052734FEAC2025FEA1C1CC0D111F4801F66
:1032F0000BD141EA00014FF000004FF0004CB6E75F
:1033000011F4801F04BF01430020B4F1FD0C88BFFD
:10331000BCF5E06F3FF6AFAEB5EB030C04BFB6EB08
:10332000020C5FEA500C50F1000041EB045170BDFB
:103330000EF0004E4EEA113114EB5C04C2BFD4EB28
:103340000C0541EA045170BD41F480114FF0000EAC
:10335000013C90E645EA060E8DE60CEA135594EA28
:103360000C0F08BF95EA0C0F3FF43BAF94EA0C0F2B
:103370000AD150EA01347FF434AF95EA0C0F7FF4A0
:1033800025AF104619462CE795EA0C0F06D152EAF4
:1033900003353FF4FDAE1046194622E750EA4106D8
:1033A00018BF52EA43067FF4C5AE50EA41047FF4E9
:1033B0000DAF52EA43057FF4EBAE12E74FF0FF3C4E
:1033C00006E000BF4FF0010C02E000BF4FF0010C1F
:1033D0004DF804CD4FEA410C7FEA6C5C4FEA430C98
:1033E00018BF7FEA6C5C1BD001B050EA410C0CBFE7
:1033F00052EA430C91EA030F02BF90EA020F002049
:10340000704710F1000F91EA030F58BF994208BFAF
:1034100090422CBFD8176FEAE37040F0010070476C
:103420004FEA410C7FEA6C5C02D150EA013C07D1C3
:103430004FEA430C7FEA6C5CD6D152EA033CD3D00E
:103440005DF8040B704700BF8446104662468C4608
:103450001946634600E000BF01B5FFF7B7FF00283B
:1034600048BF10F1000F01BD4DF808EDFFF7F4FF64
:103470000CBF012000205DF808FB00BF4DF808EDEF
:10348000FFF7EAFF34BF012000205DF808FB00BF12
:103490004DF808EDFFF7E0FF94BF012000205DF834
:1034A00008FB00BF4DF808EDFFF7CEFF94BF0120E9
:1034B00000205DF808FB00BF4DF808EDFFF7C4FFE2
:1034C00034BF012000205DF808FB00BF4FEA410235
:1034D00012F5001215D211D56FF47873B3EB625266
:1034E00012D94FEAC12343F0004343EA505311F08D
:1034F000004F23FA02F018BF404270474FF000001F
:10350000704750EA013005D111F0004008BF6FF05C
:10351000004070474FF00000704700BF4FEA410283
:10352000B2F1E04324BFB3F5001CDCF1FE5C0DD921
:1035300001F0004C4FEAC0024CEA5070B2F1004F6B
:1035400040EB830008BF20F00100704711F0804F6E
:1035500021D113F13872BCBF01F00040704741F433
:1035600080114FEA5252C2F11802C2F1200C10FA37
:103570000CF320FA02F018BF40F001004FEAC1231B
:103580004FEAD32303FA0CFC40EA0C0023FA02F3BF
:103590004FEA4303CCE77FEA625307D150EA013395
:1035A0001EBF4FF0FE4040F44000704701F0004065
:1035B00040F0FE4040F40000704700BF80F0004043
:1035C00002E000BF81F0004142001FBF5FEA4103FB
:1035D00092EA030F7FEA226C7FEA236C6AD04FEAFB
:1035E0001262D2EB1363C1BFD21841404840414040
:1035F000B8BF5B42192B88BF704710F0004F40F4F2
:10360000000020F07F4018BF404211F0004F41F40D
:10361000000121F07F4118BF494292EA030F3FD0D9
:10362000A2F1010241FA03FC10EB0C00C3F12003EC
:1036300001FA03F100F0004302D5494260EB40007B
:10364000B0F5000F13D3B0F1807F06D340084FEAE6
:10365000310102F10102FE2A51D2B1F1004F40EBDB
:10366000C25008BF20F0010040EA03007047490043
:1036700040EB000010F4000FA2F10102EDD1B0FA0E
:1036800080FCACF1080CB2EB0C0200FA0CF0AABF03
:1036900000EBC25052421843BCBFD04018437047A1
:1036A00092F0000F81F4000106BF80F400000132A7
:1036B000013BB5E74FEA41037FEA226C18BF7FEA7E
:1036C000236C21D092EA030F04D092F0000F08BFC0
:1036D0000846704790EA010F1CBF0020704712F0A7
:1036E0007F4F04D1400028BF40F00040704712F1E6
:1036F00000723CBF00F50000704700F0004343F04B
:10370000FE4040F4000070477FEA226216BF084680
:103710007FEA23630146420206BF5FEA412390EA43
:10372000010F40F4800070474FF0000304E000BF39
:1037300010F0004348BF40425FEA000C08BF7047EA
:1037400043F0964301464FF000001CE050EA0102AE
:1037500008BF70474FF000030AE000BF50EA0102C3
:1037600008BF704711F0004302D5404261EB4101B0
:103770005FEA010C02BF84460146002043F0B643D5
:1037800008BFA3F18053A3F50003BCFA8CF2083AFA
:10379000A3EBC25310DB01FA02FC634400FA02FC03
:1037A000C2F12002BCF1004F20FA02F243EB02000A
:1037B00008BF20F00100704702F1200201FA02FC6C
:1037C000C2F1200250EA4C0021FA02F243EB02005F
:1037D00008BF20EADC7070474FF0FF0C1CEAD052A3
:1037E0001EBF1CEAD15392EA0C0F93EA0C0F6FD064
:1037F0001A4480EA010C400218BF5FEA41211ED042
:103800004FF0006343EA501043EA5111A0FB01312D
:103810000CF00040B1F5000F3EBF490041EAD37102
:103820005B0040EA010062F17F02FD2A1DD8B3F17E
:10383000004F40EBC25008BF20F00100704790F0ED
:10384000000F0CF0004C08BF49024CEA502040EA3F
:1038500051207F3AC2BFD2F1FF0340EAC250704705
:1038600040F400004FF00003013A5DDC12F1190F43
:10387000DCBF00F000407047C2F10002410021FAB5
:1038800002F1C2F1200200FA02FC5FEA310040F1CD
:10389000000053EA4C0308BF20EADC70704792F046
:1038A000000F00F0004C02BF400010F4000F013A7E
:1038B000F9D040EA0C0093F0000F01F0004C02BF79
:1038C000490011F4000F013BF9D041EA0C018FE7E8
:1038D0000CEAD15392EA0C0F18BF93EA0C0F0AD0EE
:1038E00030F0004C18BF31F0004CD8D180EA010014
:1038F00000F00040704790F0000F17BF90F0004FAD
:10390000084691F0000F91F0004F14D092EA0C0F8E
:1039100001D142020FD193EA0C0F03D14B0218BF21
:10392000084608D180EA010000F0004040F0FE4067
:1039300040F40000704740F0FE4040F44000704703
:103940004FF0FF0C1CEAD0521EBF1CEAD15392EA82
:103950000C0F93EA0C0F69D0A2EB030280EA010C72
:1039600049024FEA402037D04FF0805343EA11110B
:1039700043EA10130CF000408B4238BF5B0042F169
:103980007D024FF4000C8B4224BF5B1A40EA0C000E
:10399000B3EB510F24BFA3EB510340EA5C00B3EB40
:1039A000910F24BFA3EB910340EA9C00B3EBD10F2E
:1039B00024BFA3EBD10340EADC001B0118BF5FEA80
:1039C0001C1CE0D1FD2A3FF650AF8B4240EBC250A9
:1039D00008BF20F0010070470CF0004C4CEA50206A
:1039E0007F32C2BFD2F1FF0340EAC250704740F4B9
:1039F00000004FF00003013A37E792F0000F00F0AB
:103A0000004C02BF400010F4000F013AF9D040EA28
:103A10000C0093F0000F01F0004C02BF490011F4BC
:103A2000000F013BF9D041EA0C0195E70CEAD153B4
:103A300092EA0C0F08D142027FF47DAF93EA0C0F9B
:103A40007FF470AF084676E793EA0C0F04D14B027F
:103A50003FF44CAF08466EE730F0004C18BF31F031
:103A6000004CCAD130F000427FF45CAF31F000432B
:103A70007FF43CAF5FE700BF4FF0FF3C06E000BFC4
:103A80004FF0010C02E000BF4FF0010C4DF804CDE7
:103A90004FEA40024FEA41037FEA226C18BF7FEAF7
:103AA000236C11D001B052EA530C18BF90EA010FF9
:103AB00058BFB2EB030088BFC81738BF6FEAE17088
:103AC00018BF40F0010070477FEA226C02D15FEA24
:103AD000402C05D17FEA236CE4D15FEA412CE1D090
:103AE0005DF8040B704700BF844608466146FFE757
:103AF0000FB5FFF7C9FF002848BF10F1000F0FBD39
:103B00004DF808EDFFF7F4FF0CBF012000205DF831
:103B100008FB00BF4DF808EDFFF7EAFF34BF0120B6
:103B200000205DF808FB00BF4DF808EDFFF7E0FF4F
:103B300094BF012000205DF808FB00BF4DF808EDA0
:103B4000FFF7D2FF94BF012000205DF808FB00BF03
:103B50004DF808EDFFF7C8FF34BF012000205DF8E5
:103B600008FB00BF4FEA4002B2F1FE4F0FD34FF007
:103B70009E03B3EB12620DD94FEA002343F00043DA
:103B800010F0004F23FA02F018BF404270474FF088
:103B90000000704712F1610F01D1420205D110F00F
:103BA000004008BF6FF0004070474FF000007047C2
:103BB00042000ED2B2F1FE4F0BD34FF09E03B3EB97
:103BC000126209D44FEA002343F0004323FA02F0C3
:103BD00070474FF00000704712F1610F01D14202AF
:103BE00002D14FF0FF3070474FF00000704700BF28
:103BF00000210A2200F024BB00220A2300F070BA40
:103C00002DE9F84FD2F1010538BF00251F46002BE2
:103C100008BF45F0010580468946DDF828A095B922
:103C2000164604E004F101050FD0B5420BD2741919
:103C30004046640807FB049B5946D0470028F1DA48
:103C40002646B542F3D34FF0000B5846BDE8F88F37
:103C500040F20803C2F200031868704770B50D4DBA
:103C60000D4E761BB61006D0002455F8043B0134E7
:103C70009847A642F9D1094D0FF0F0FC084E761B8B
:103C8000B61006D0002455F8043B01349847A642EC
:103C9000F9D170BD74360108743601087436010814
:103CA000783601080F2AF0B498BF034631D941EAAB
:103CB00000039B0736D10C46034615462668103D87
:103CC0001E6066685E60A6689E60E6681034DE600E
:103CD00010330F2DF2D8A2F1100402F00F0224F0DD
:103CE0000F041034032A00EB0403214411D90E46BB
:103CF0001D46144656F8047B043C032C45F8047B0F
:103D0000F8D8141F02F0030224F003040434091944
:103D10001B192AB111F8014B013A03F8014BF9D1F3
:103D2000F0BC70470346F5E710F0030F034670B48C
:103D300041D0002A3DD0CEB201E0002A39D003F8AC
:103D4000016B541E13F0030F22461D46F5D1032CC0
:103D500029D9CAB20F2C84BF2B46264642EA02223A
:103D600042EA024211D9103E1A605A609A60DA6043
:103D700010330F2EF7D8A4F1100304F00F0423F032
:103D80000F031033032C1D440DD92E462346043B4C
:103D900046F8042B032BFAD8231F04F0030423F066
:103DA00003030433ED18C9B21CB1013C05F8011B33
:103DB000FBD170BC704705461446C8E738B5830789
:103DC000044620D10368A3F1013222EA030313F071
:103DD000803F04BF0246004615D152F8043F04302C
:103DE000A3F1013525EA030313F0803FF5D00378F2
:103DF0002BB1034613F8012F0130002AFAD100F04D
:103E00007FF8204638BD2046F1E700BFC9B2F0B4C4
:103E1000002947D0820711D00378002B6ED0994239
:103E20001CBF0246104606D13AE012F8013F002BB3
:103E300064D0994234D001308307F6D1036841EA57
:103E40000127A3F1013247EA074722EA030212F0F1
:103E5000803F1CD17B40A3F1013222EA030313F01F
:103E6000803F14D1044602E012F0803F0FD154F895
:103E7000043F0430A3F1013687EA030226EA030374
:103E8000A2F1013513F0803F25EA0202ECD003785D
:103E900023B933E043780130002B2FD09942F9D178
:103EA000F0BC704783070BD00378002BF8D0024694
:103EB00003E012F8013F002BF2D001308107F8D166
:103EC00003680246A3F1013121EA030313F0803FA6
:103ED0000AD1014651F8043F0432A3F1013020EA2F
:103EE000030313F0803FF5D013781046002BD7D092
:103EF00012F8013F0130002BFAD1D1E71846CFE785
:103F000080EA0102844612F0030F4FD111F0030F33
:103F100032D14DF8044D11F0040F51F8043B0BD091
:103F2000A3F101329A4312F0803F04BF4CF8043BE6
:103F300051F8043B16D100BF51F8044BA3F10132F4
:103F40009A4312F0803FA4F101320BD14CF8043BAC
:103F5000A24312F0803F04BF51F8043B4CF8044BDD
:103F6000EAD023460CF8013B13F0FF0F4FEA33234E
:103F7000F8D15DF8044B704711F0010F06D011F82D
:103F8000012B0CF8012B002A08BF704711F0020F1B
:103F9000BFD031F8022B12F0FF0F16BF2CF8022B06
:103FA0008CF8002012F47F4FB3D1704711F8012B29
:103FB0000CF8012B002AF9D1704700BF20F0030153
:103FC00010F00300C0F1000051F8043B00F1040CB4
:103FD0004FEACC0C6FF000021CBF22FA0CF2134324
:103FE0004FF0010C4CEA0C2C4CEA0C4CA3EB0C02ED
:103FF00022EA030212EACC1204BF51F8043B043057
:10400000F4D013F0FF0F1FBF013013F47F4F0130C6
:1040100013F47F0F18BF0130704700BFF0B4002ABF
:1040200021D0124B07461E6802E0D3B1013A18D0E6
:1040300017F8013B11F8015BF0181C46407800F0BE
:104040000300012806EB050008BF03F120042B46FE
:10405000407800F00300012808BF05F12003E01AB2
:10406000E3D0F0BC70471046FBE700BF040000201F
:1040700041EA000313F0030F0B4670B414BF002590
:104080000125032A94BF002505F0010504467DB1F2
:10409000194653F8045BA5F1013626EA050616F029
:1040A000803F05D1043A44F8045B032AF0D819464E
:1040B000A2B10D78531E04F8015B224645B16BB1E5
:1040C00011F8015F013B02F8015B1446002DF6D1A7
:1040D00000221BB1013B04F8012BFBD170BC7047DF
:1040E0002DE9F04F85B01F468C4602920B46534A8D
:1040F000039016681A4601331D461478311991F859
:1041000001B01BF0080BF5D12D2C73D02B2C04BF64
:104110005478951CD7F1010338BF0023102F14BF2A
:104120001A4643F001023AB1302C73D023B108276C
:10413000302CB94601D00A27B946BBF1000F4946D9
:104140000CBF6FF0004A4FF0004ACDF804C0504653
:1041500000F0B0F950468846494600F07DF8331922
:104160000022DDF804C05B78114613F0040F1ED066
:10417000303CA74225DD814294BF0023012353EA4E
:10418000D2722DD10A1A534243EB02034445D4BFE5
:10419000002303F00103002B22D109FB014115F894
:1041A000014B012233195B7813F0040FE0D113F0B7
:1041B000030306D0012B14BF57233723E41AA74269
:1041C000D9DC531C1BD00846BBF1000F10D1029B59
:1041D0001BB152B90299C1F800C005B0BDE8F08F1B
:1041E0004FF0FF3215F8014BDCE705F1FF3CF1E73A
:1041F0004842ECE75478951C4FF0010B8AE703998D
:10420000BBF1000F0CBF6FF000404FF000402223C5
:104210000B60DCE72A78A2F17800414241EB000113
:10422000582A14BF0A4641F00102002A3FF47EAF2B
:1042300010276C78B94602357FE700BF04000020E4
:1042400030B440F20804C2F200040D4613460146A1
:104250002A46206830BC43E74A1E08BF7047C0F0BA
:104260002481884240F21681114200F01781B0FA91
:1042700080F3B1FA81F2A2EB0303C3F11F0304A29E
:1042800002EB03134FF000029F4600BFAFF3008024
:10429000B0EBC17F00BF42EB020228BFA0EBC170B0
:1042A000B0EB817F00BF42EB020228BFA0EB817020
:1042B000B0EB417F00BF42EB020228BFA0EB417090
:1042C000B0EB017F00BF42EB020228BFA0EB017000
:1042D000B0EBC16F00BF42EB020228BFA0EBC16090
:1042E000B0EB816F00BF42EB020228BFA0EB816000
:1042F000B0EB416F00BF42EB020228BFA0EB416070
:10430000B0EB016F00BF42EB020228BFA0EB0160DF
:10431000B0EBC15F00BF42EB020228BFA0EBC1506F
:10432000B0EB815F00BF42EB020228BFA0EB8150DF
:10433000B0EB415F00BF42EB020228BFA0EB41504F
:10434000B0EB015F00BF42EB020228BFA0EB0150BF
:10435000B0EBC14F00BF42EB020228BFA0EBC1404F
:10436000B0EB814F00BF42EB020228BFA0EB8140BF
:10437000B0EB414F00BF42EB020228BFA0EB41402F
:10438000B0EB014F00BF42EB020228BFA0EB01409F
:10439000B0EBC13F00BF42EB020228BFA0EBC1302F
:1043A000B0EB813F00BF42EB020228BFA0EB81309F
:1043B000B0EB413F00BF42EB020228BFA0EB41300F
:1043C000B0EB013F00BF42EB020228BFA0EB01307F
:1043D000B0EBC12F00BF42EB020228BFA0EBC1200F
:1043E000B0EB812F00BF42EB020228BFA0EB81207F
:1043F000B0EB412F00BF42EB020228BFA0EB4120EF
:10440000B0EB012F00BF42EB020228BFA0EB01205E
:10441000B0EBC11F00BF42EB020228BFA0EBC110EE
:10442000B0EB811F00BF42EB020228BFA0EB81105E
:10443000B0EB411F00BF42EB020228BFA0EB4110CE
:10444000B0EB011F00BF42EB020228BFA0EB01103E
:10445000B0EBC10F00BF42EB020228BFA0EBC100CE
:10446000B0EB810F00BF42EB020228BFA0EB81003E
:10447000B0EB410F00BF42EB020228BFA0EB4100AE
:10448000B0EB010F00BF42EB020228BFA0EB01001E
:10449000104670470CBF012000207047B1FA81F22E
:1044A000C2F11F0220FA02F0704708B14FF0FF304E
:1044B00000F00EB80029F8D02DE90340FFF7CCFE3C
:1044C000BDE8064002FB00F3A1EB0301704700BF0B
:1044D000704700BF2DE9F041047890B000340546E4
:1044E000334818BF01240BF081FB324B00260093A8
:1044F000314BB44201930CBF2346802305934FF404
:10450000807306934FF480630CBF4FF001084FF0A7
:10451000020807932023089325484FF40053694667
:1045200009930296CDF80C8004960A960BF0DCFBFA
:104530001F4801210BF0F6FB01274FF460231F48B1
:104540000BA90D930B968DF830408DF831700E96B7
:104550008DF83C800BF0B2FA184804213A46032348
:104560000BF0FDFA2CB129781448022203230BF03A
:10457000F6FA124801210BF0CEFA104801210BF097
:10458000C1FA0E480BF0D0FA0C480BF0D2FA002812
:10459000FAD10A480BF0D1FA08480BF0D3FA0028F8
:1045A000FAD1064801210BF0D1FA10B0BDE8F08134
:1045B000080002404C240140A404002000240140D3
:1045C000024B33F8100080B2704700BFA4040020F3
:1045D00070470000304B2DE9F3411B780546002B56
:1045E0003DD00024A04626462746082253203221EB
:1045F0006B460AF0C7FB9DF801209DF8003001349E
:1046000003EB02231BB29DF80320FF189DF8023034
:10461000E4B203EB02231BB2F6189DF805209DF8C7
:10462000043003EB02231BB298449DF8073013F0CB
:104630007F0318BF01231F2C8CBF002303F001034D
:10464000002BD2D1154B97FBF4F796FBF4F698FBB1
:10465000F4F82F806E80A5F804801C701AE0062202
:104660006B46532032210AF08DFB9DF801209DF806
:10467000003003EB02232B809DF803209DF80230CD
:1046800003EB02236B809DF805209DF8043003EBBB
:104690000223AB80BDE8FC81A8040020A90400200F
:1046A00008B5134B53201B782D2108227BB10AF04B
:1046B00033FC31210A2253200AF02EFC2C210C223B
:1046C00053200AF029FC53203821902209E00AF0F7
:1046D00023FC31210A2253200AF01EFC53202C21F6
:1046E0000A220AF019FC034B40F209121A8008BD95
:1046F000A80400205204002073B5002402AB064633
:104700000D4603F8014D5320214601220AF03AFBE1
:1047100078B19DF80730E52B18BF204609D13278D3
:10472000044B01201A70044B2B60044B6B60044B4C
:10473000AB607CBDA8040020A1460008D545000858
:10474000D14500082C4B70B519882C4B5A89B3F908
:104750001200891A1A89C0025143B3F91420C913EF
:104760008A1890FBF2F28A18DA61A2F57A6202FBEB
:1047700002F1B3F90460B3F90250B3F90E405543A6
:104780007243B3F90C6009134C437143091401EBF4
:1047900062320232D988921002F50042B3F9200049
:1047A0004A43B3F90030E91201EBE42101EB830144
:1047B0008140134B02311B68D20BA3EBA1014CF2D9
:1047C000503303414B4303D45B00B3FBF2F302E0ED
:1047D000B3FBF2F35B001A1252430A4940F6DE3093
:1047E00059435043091401EB204000F56C600F3031
:1047F00003EB201070BD00BFDA040020B0040020DD
:10480000D404002043E3FFFF104B07B51B781BB90E
:104810000F4B1A8801321A80032201AB7720F62150
:104820000AF0B0FA9DF805209DF80430120242EA21
:1048300003429DF806301A43064BB3F92030C3F10A
:104840000803DA40044B1A600EBD00BFAA04002022
:10485000AC040020B0040020D40400200B4B07B5AA
:104860001B781BB90A4B1A8801321A80022201AB4D
:104870007720F6210AF086FA9DF805309DF804208D
:1048800043EA0222034B1A800EBD00BFAA04002097
:10489000AC040020DA040020064B002193F820200D
:1048A000054B920134321970D2B27720F4210AF00C
:1048B00033BB00BFB0040020AA040020034B002239
:1048C0001A707720F4212E220AF026BBAA040020B9
:1048D00010B54FF480400BF081FA0128044605D151
:1048E0004FF480400BF088FA014B1C7010BD00BFE4
:1048F000AA0400202DE9F047DFF8BCA105469AF88C
:1049000000908CB00120B9F1000F40F0C480634FDB
:10491000022610234FF40058384609A94FF480446A
:104920008DF826608DF82730ADF824800BF0F8FA6A
:104930000423384609A98DF82730ADF824400BF040
:10494000EFFA0E213046C7F810800BF083FB0126EA
:10495000082307A807948DF821308DF820908DF852
:1049600022600BF0FFF928238DF828300AA80F23C6
:104970008DF829308DF82A308DF82B600BF06EF809
:1049800014200AF05AFB7720D02132460DF12F0374
:104990000AF0F8F99DF82F30414C0322552BE375AE
:1049A00022841CBF4846C7F8148074D1D1213246F6
:1049B0000DF12F0377200AF0E5F99DF82F307720CD
:1049C00003F00F021B0922766376162201ABAA219F
:1049D0000AF0D8F99DF804209DF80530304643EAE6
:1049E000022323809DF806209DF8073043EA022326
:1049F00063809DF808209DF8093043EA0223A380D4
:104A00009DF80A209DF80B3043EA0223E3809DF8CD
:104A10000C209DF80D3043EA022323819DF80E20DF
:104A20009DF80F3043EA022363819DF810209DF822
:104A3000113043EA0223A3819DF812209DF8133020
:104A400043EA0223E3819DF814209DF8153043EAE0
:104A5000022323829DF816209DF8173043EA022393
:104A600063829DF818209DF8193043EA0223A3823F
:104A700041F2941245F2E4738AF8006085E80C0074
:104A8000084BAE60EB60084B2B61084B6B61084B29
:104A9000AB61084BEB610CB0BDE8F0870010014042
:104AA000B0040020BD4800085D480008994800088F
:104AB0000948000845470008D80400203149324B16
:104AC00048891A6800020B89101A2DE9F04FA0FBE3
:104AD0000345C61703FB06558F88E20942EA456283
:104AE0003F04EB1112EB070A43F1000BCB884F8810
:104AF000A0FB034503FB0655220A42EA05628C89A6
:104B0000FF032B1212EB070843F10009A0FB04235B
:104B100004FB0633D20D42EA432202F5FA60002379
:104B2000B0F5FA6F194613DA02FB02F305214B4385
:104B3000164C59109B10A0420ADA02F55A620C3248
:104B40005243072000FB02110B20424303EB620398
:104B50000F4AB8EB030469EBE3751068A0FB04236C
:104B600000FB0533540D44EAC3245D15BAEB010282
:104B70006BEBE173A21A65EB0303D00B40EA4340F1
:104B8000BDE8F08FE4040020E004002024FAFFFFD9
:104B9000DC04002007B5772001AB002103220AF0D6
:104BA000F1F89DF805009DF80430000240EA03404A
:104BB0009DF8063018430EBD08B5FFF7EBFF08B1AE
:104BC000014B186008BD00BFDC04002008B5FFF7EA
:104BD000E1FF08B1014B186008BD00BFE0040020F0
:104BE0007720482101220AF097B977205821012225
:104BF0000AF092B908B577201E2101220AF08CF93B
:104C000041F28830BDE808400AF00CBAF7B54B4DC8
:104C1000022369464FF400568DF8023004461023F3
:104C200028468DF80330ADF800600BF079F932209A
:104C30006E610AF002FA7720A02101220DF107032C
:104C40000AF0A0F8002863D032200AF0F6F9FFF746
:104C5000D1FFFFF7CFFFFFF7CDFFFFF7CBFFFFF748
:104C6000C9FF374FA025002602227720294601AB35
:104C700002358DF804608DF805600AF083F89DF820
:104C800004209DF80530EDB243EA0223B02D27F849
:104C9000023FE9D12B490022CE89012306F47F454A
:104CA000CD81505A0232002818BF0023102AF8D1B3
:104CB00000206BBB23491A4612F0010F4FEA620035
:104CC0000BBF31F8100011F8100083EA10234340A5
:104CD000082013F4004F18BF83F4C0535B00013861
:104CE000F7D10132102AE7D106F00F021549C3F3BC
:104CF000033315439A42CD810BD009E0013CE4B265
:104D0000FFF778FF002CF9D132200AF096F9012044
:104D1000FEBD42F21C53236063600123A3600A4B73
:104D20003220E360094B2361094B6361094BA361A6
:104D3000094BE3610AF081F90A24DFE70010014022
:104D4000E2040020E4040020EB4B0008CD4B0008F7
:104D5000E14B0008B94B0008BD4A00080F4B10B5E5
:104D600019880F480BF039F90E4C18B10AF03CF9CC
:104D700020600CE00AF038F92368984207D90A4A03
:104D8000C31A3B21126893FBF1F39BB21380074BCC
:104D90001868BDE810400BF02FB800BFF8040020E1
:104DA000000C0140FC040020080500200405002040
:104DB000FFF7D4BFFFF7D2BF30B52F4B85B02F4AD6
:104DC00010B1012817D10CE04FF4807119804FF415
:104DD000007313802A4A13602A4B09221A70172283
:104DE00007E0188002231380254A1360254B072211
:104DF0001870254B1A70204B10241B882348ADF8DF
:104E00000C3003A902238DF80F408DF80E300BF003
:104E100087F81A4B1D481B8803A9ADF80C300423F2
:104E20008DF80F300BF07CF8164B154D19780120DA
:104E30000BF010F928680AF0DFFF2B688DF80940A5
:104E400001930124002301A88DF808308DF80A4051
:104E50000AF088FF0C4B0E4A1B7859B203F01F036F
:104E60009C40490942F821400AF0D6F8094B3C38E9
:104E7000186005B030BD00BF0C050020F80400200C
:104E8000040500200105002000050020000C014061
:104E900000E100E0F404002010B504460AF0BCF87C
:104EA0000B4B1A683C32904210D31860094B0A48E9
:104EB0001C600A4C21880BF096F80B200AF0B2F81F
:104EC00021880548BDE810400BF08FB810BD00BF29
:104ED000F404002008050020000C01400C0500200F
:104EE00007B5002202AB03F8012D1E200A21012282
:104EF00009F048FF30B19DF80700A0F1480358427F
:104F000040EB03000EBD13B5062204466B461E207F
:104F1000032109F037FF9DF800209DF8013043EA96
:104F2000022323809DF802209DF8033043EA0223E8
:104F300063809DF804209DF8053043EA0223A38096
:104F40001CBD0000000000002DE9F04F4FF480531D
:104F500085B0ADF80C30022303A98DF80E308346DE
:104F6000042369488DF80F300AF0DAFF32200AF086
:104F700064F8002111221E2009F0CEFF01214022F9
:104F80001E2009F0C9FF0DF1040964200AF055F84C
:104F90004846FFF7B8FF0026DFF870A1DFF8688108
:104FA0000A2734463546022101221E2009F0B4FFAB
:104FB00032200AF042F84846FFF7A5FFBDF9042069
:104FC000BDF90610BDF90830B6189142B8BF0A46BF
:104FD000ED189A42B8BF134653450C4409DBD8F884
:104FE0000C30013F83F01003C8F80C30DBD10127EF
:104FF00000E000271E200021122209F08DFFDFF8BB
:105000000CA1DFF804914FF00A08022101221E20B2
:1050100009F082FF32200AF010F801A8FFF773FFB1
:10502000BDF90420BDF90610BDF90830B61A914249
:10503000B8BF0A46ED1A9A42B8BF13465345C1EBB2
:10504000040409DBD9F80C30B8F1010883F010032F
:10505000C9F80C30D9D100E00027002170221E20B1
:1050600009F05AFF012120221E2009F055FF1E20C1
:105070000221002209F050FF642009F0DEFF57B33F
:105080003046FDF723FF02460B461BA1D1E9000184
:10509000FEF7ACF8FEF742FA20F000462046FDF796
:1050A00015FF02460B4614A1D1E90001FEF79EF858
:1050B000FEF734FA20F000442846FDF707FF0246C9
:1050C0000B460FA1D1E90001FEF790F8FEF726FA92
:1050D00020F0004003E04FF07E5004460646BBF14E
:1050E000000F05D0CBF80060CBF80440CBF80800E7
:1050F00005B0BDE8F08F00BF000000000094D24072
:1051000000000000004CD140000C014001F0FFFF06
:105110001FB5364C2378BBB97A238DF80430344B55
:1051200034481968FEF74EFA4FF07C51FEF754FBF5
:10513000FEF73EFD01AB8DF80500FF216D20022238
:1051400009F07EFE01234FE0012B37D12A4A792353
:105150008DF80430B2F900306FF463718B4209DBD3
:1051600040F28D318B4207DC0A2193FBF1F35A3375
:10517000DBB202E0002300E0B4238DF80530B2F981
:1051800002306FF46372934209DB40F28D32934236
:1051900007DC0A2293FBF2F35A33DBB202E000236E
:1051A00000E0B4238DF80630032201AB6D20FF210F
:1051B00009F046FE0D4B02221A7016E0022B14D1A4
:1051C00064238DF8043001238DF805300B4B5B7898
:1051D000003318BF01238DF806306D2001ABFF218D
:1051E000032209F02DFE002323701FBD0E050020B1
:1051F00028110020000034432C0900202A10002030
:1052000007B56B238DF804300A238DF805308DF82F
:1052100006306D20FF21032201AB09F011FE0EBD07
:1052200003885B42038043885B424380704713B529
:105230000622044601216B461C2009F0A3FD9DF8BF
:1052400001309DF800209DF8021043EA022242F34B
:105250008D02042392FBF3F222809DF8032042EAA0
:10526000012242F38D0292FBF3F262809DF804105A
:105270009DF8052042EA012242F38D0292FBF3F3EE
:10528000A3801CBD13B504230DEB030120220224CF
:105290001A488DF80730ADF804208DF806400AF062
:1052A0003FFE2A2100221C2009F036FE0E211C2080
:1052B000224609F031FE0F2103221C2009F02CFEAA
:1052C0002B2112221C2009F027FE2C211C20224613
:1052D00009F022FE2D2101221C2009F01DFE2E21A5
:1052E00000221C2009F018FE05221C202A2109F0AA
:1052F00013FE034B4FF480721A801CBD000801405E
:105300005204002037B5002502AB044603F8015DC6
:105310001C200D21012209F035FDA8B19DF80730B0
:105320002846B3F12A0218BF01221A2B0CBF002213
:1053300002F0010242B9054A01202260044A62607B
:10534000044AA260044A13703EBD00BF85520008A3
:105350002F520008215200080F05002083885B426D
:105360008380704713B50222044601AB68201B21DD
:1053700009F008FD9DF804209DF8053043EA02235A
:1053800003F54E5310334FF48C7293FBF2F3233337
:1053900023801CBD13B5062204461D216B466820E0
:1053A00009F0F0FC9DF801309DF800209DF80210F6
:1053B00043EA022212B2042392FBF3F222809DF808
:1053C000032042EA012212B292FBF3F262809DF8BE
:1053D00004109DF8052042EA012212B292FBF3F379
:1053E000A3801CBD192008B509F027FE68201521EF
:1053F000002209F091FD10B9032009F0B7FE0C4B13
:1054000016211A78682042F0180209F085FD17214C
:105410000022682009F080FD3D210122682009F06A
:105420007BFD68203E210122BDE8084009F074BDE3
:105430003804002010B50446192009F0FEFD68204C
:105440001521002209F068FD40B1054B01202360C1
:10545000044B6360044BA360044BE36010BD00BFCA
:10546000E5530008955300085D5300086553000894
:105470002A28114B13D004D80A2814D0142814D188
:105480000FE0BC2807D0B0F5807F02D062280CD195
:1054900003E0002208E0012206E0022204E00322E9
:1054A00002E0042200E005221A701A78682042F017
:1054B0001802162109F030BD38040020044B1A7878
:1054C000044B002A0CBF4FF40072FF221A80704771
:1054D0001005002052040020038842885B420280AD
:1054E0004380704783885B428380704713B50222F4
:1054F000044601AB6820412109F044FC9DF80420DA
:105500009DF8053043EA02231BB24FF4AA7293FBC5
:10551000F2F3253323801CBD13B506220446432134
:105520006B46682009F02EFC9DF801309DF80020A4
:105530009DF8021043EA022212B2042392FBF3F216
:1055400022809DF8032042EA012212B292FBF3F27C
:1055500062809DF804109DF8052042EA012212B2F3
:1055600092FBF3F3A3801CBD13B5062204463B2136
:105570006B46682009F006FC9DF801309DF800207C
:105580009DF8021043EA022212B2082392FBF3F2C2
:1055900022809DF8032042EA012212B292FBF3F22C
:1055A00062809DF804109DF8052042EA012212B2A3
:1055B00092FBF3F3A3801CBD37B504254FF40053D1
:1055C000022427480DEB0501ADF804308DF80640A4
:1055D0008DF807500AF0A4FC6B218022682009F0A6
:1055E0009BFC052009F029FD19210022682009F003
:1055F00093FC6B210322682009F08EFC6820372180
:10560000224609F089FC174BB3F852302A2B17D0E9
:1056100009D805220A2B14D0142B08BF2A4610D013
:10562000052B0DD10AE00122BC2B0AD00022B3F5D4
:10563000807F06D0622B03D1224602E0062200E0E2
:1056400003221A21682009F067FC1B211822682018
:1056500009F062FC68201C21102209F05DFC3EBDAF
:10566000000C0140780D0020F7B5064623200C46BB
:1056700009F0E3FC6820752101220DF1070309F010
:1056800081FB00284AD09DF807700020682F45D183
:1056900006216B4638460A4609F074FB9DF8033034
:1056A0009DF8055003F001035B0005F0010543EA96
:1056B00085059DF8013003F001031D4308D0012D3D
:1056C00008BF174B1AD00022022D154B0CD113E046
:1056D0000C2101220DF10703384609F053FB9DF818
:1056E000073013F00F0303D1052009F03FFD06E05A
:1056F000042B0B4B02D101221A7000E01D70094BE4
:1057000001203360084B7360084BB360084B236083
:10571000084B6360084BA360084BE360FEBD00BF0D
:1057200010050020BD54000869550008D954000830
:10573000B955000819550008E5540008ED54000853
:1057400003885B42038083885B428380704713B584
:1057500006220446A8216B46682009F013FB9DF839
:1057600001309DF800209DF8021043EA022212B297
:10577000042392FBF3F262809DF8032042EA0122A7
:1057800012B292FBF3F222809DF804109DF80520DE
:1057900042EA012212B292FBF3F3A3801CBD000087
:1057A000642008B509F049FC68202321F02209F0A3
:1057B000B3FB10B9032009F0D9FC052009F03DFC2A
:1057C000044B68201A78202142F00F02BDE80840FF
:1057D00009F0A2BB1105002013B50446192009F0F9
:1057E0002CFC68200F2101220DF1070309F0CAFAF1
:1057F0009DF807300020D32B06D1044B01202360F5
:10580000034B6360034BA3601CBD00BFA15700089E
:105810004F5700084157000836280D4B0AD002D8D0
:1058200020280DD104E04E2806D05D2808D105E0DF
:10583000002204E0402202E0802200E0C0221A7030
:105840001A78682042F00F02202109F065BB00BFE2
:105850001105002030B585B0044601A80D460AF0B8
:1058600089FF0B4B013D1A680A4B2046B2FBF3F34C
:10587000013BADF8043001A90023ADF80850ADF8A4
:105880000A30ADF806300AF0EBFD05B030BD00BFC0
:105890007004002040420F007FB5044601A80D4669
:1058A00016460AF07AFF0123ADF80830204600239F
:1058B00001A9ADF80450ADF80660ADF80A30ADF8B6
:1058C0000C300AF0E9FF7FBD2DE9F04F304B142773
:1058D000474300011C5885B01D188A4620464FF6E4
:1058E000FF719346FFF7B6FF6B6802A805F1080940
:1058F0000193AD680AF069FB019B282218468DF8D8
:105900000B2002A90222ADF808508DF80A200AF0F7
:1059100007FB99F80450002220462946FFF7BCFFF8
:10592000204601210AF041FF99F80530DFF8648034
:105930008DF80C3000238DF80D3008EB070601239D
:1059400003A88DF80E308DF80F300AF087F848F86C
:1059500007A086F80AB00C2D16D8DFE805F0071569
:1059600015150A1515150D151515100020460221DF
:1059700007E02046042104E02046082101E02046FB
:10598000102101220AF02BFF304605B0BDE8F08F50
:10599000EC1001083C050020114A124813881180C0
:1059A000C91A038089B240F68C2399420E4B02D962
:1059B00000221A707047A1F53A72073A92B240F28B
:1059C000DA50824205D81A78112A9CBF074820F87D
:1059D00012101A7801321A70054B00221A80704793
:1059E000120500203805002056060020140500206E
:1059F0006E0B0020154B142210B502FB003202F191
:105A00000803DC7864B901229980DA70104B000138
:105A10001A18117B18580222BDE81040FFF73CBF4E
:105A20009C88D980091B89B29C781182094A00019F
:105A300022F814100024DC70054B1A18117B18583A
:105A40002246FFF729FF044B1C8010BD3C050020B7
:105A5000EC100108140500206E0B002070B50D46F7
:105A6000022104460AF0E3FF012820460BD102215F
:105A70000AF0E9FF14226BB25343254A2046D65858
:105A80000AF0C8FF27E004210AF0D1FF01280ED157
:105A900001352046EDB204210AF0D5FF14226BB285
:105AA00053431B4A2046D6580AF0B7FF13E008219B
:105AB00020460AF0BCFF012811D102352046EDB284
:105AC00008210AF0C0FF14226BB25343104A20464B
:105AD000D6580AF0A5FF01462846B04770BD1021F0
