:020000040800F2
:1000000000500020ED6300089164000819AE00085C
:1000100091640008916400089164000800000000E9
:1000200000000000000000000000000091640008D3
:10003000916400080000000091640008DDFF0008E2
:1000400091640008916400089164000891640008BC
:10005000916400089164000891640008115200083E
:10006000916400089164000891640008916400089C
:100070009164000891640008650201089164000819
:10008000916400089164000891640008916400087C
:1000900091640008916400089164000815520008FA
:1000A0009164000891640008916400082D610008C3
:1000B0008961000895610008A161000829FC000819
:1000C000CDFF00082DFC0008C9FF0008916400085E
:1000D00091640008916400084D05010891640008CE
:1000E000254D00089164000891640008000000009C
:1000F0000000000000000000000000000000000000
:0C01000000000000000000005FF808F1A3
:1001100040F25013C2F200031A780AB90120187095
:10012000704700BF40F24C10C2F2000008B50368EF
:100130002BB140F20003C0F2000303B1984708BDA1
:1001400040F6D87320F00042C3F6497301469A4244
:1001500000B583B015DDB2F1FF4F03DB03F0E4FA25
:1001600003B000BD694601F0CDFB00F00302012A97
:1001700012D0022A09D0B2B90098019901F0C6FD47
:10018000EEE7002101F0C2FDEAE70098019901F0D5
:10019000BDFD00F10040E3E70098019902F0B0F9DD
:1001A00000F10040DCE700980122019902F0A8F973
:1001B000D6E700BF40F6D87320F00042C3F649737B
:1001C00001469A4200B583B016DDB2F1FF4F03DB62
:1001D00003F0AAFA03B000BD694601F093FB00F0FA
:1001E0000300012815D002280BD0B8B900980122CD
:1001F000019902F085F9EDE70021002202F080F973
:10020000E8E700980122019902F07AF900F1004034
:10021000E0E70098019901F079FDDBE7009801998A
:1002200001F074FD00F10040D4E700BF2DE9F04F6C
:100230008BB0994682468B46904600F099FA40F280
:100240000006C2F2000696F90030B3F1FF3F044603
:100250000D4604D04046494602F0DEF920B920465A
:1002600029460BB0BDE8F08F5046594602F0D4F94C
:10027000074648BB404649460022002303F086F962
:100280000028ECD096F9002049F21463C0F601036F
:100290000193A2F1FF3008974142CDE902AB41EB57
:1002A00000010023022A08BF41F00101C3F6F073E8
:1002B0000122CDE9048900920022CDE9062300291C
:1002C0002DD0DDE90645CAE75046594600220023F5
:1002D00003F05CF900282FD0404649460022002355
:1002E00003F054F9002862D096F9002049F2146313
:1002F000C0F6010301210193002000910023002199
:100300000893CDE902ABCDE90489CDE9060132B10C
:1003100000230022C3F6F073CDE90623D1E7684637
:1003200002F0C2F9002870D0089B002BC9D003F05E
:1003300041FD089B0360C4E72046294602F064F9AA
:100340000746002866D0204629460022002303F0F5
:100350001DF9002883D05046594602F055F900286F
:100360003FF47DAF4046494602F04EF900283FF485
:1003700076AF96F9002049F214630421C0F6010318
:1003800000200091019300210023022A0893CDE967
:1003900002ABCDE90489CDE9060169D0684602F0D7
:1003A00083F9002864D0089B002B8AD0BFE7404621
:1003B000494602F029F900283FF451AF404649462A
:1003C0000022002303F0ECF800283FF448AF317816
:1003D00049F21463C0F60103012201930023009245
:1003E0000893CDE902ABCDE90489002937D1002279
:1003F0000023CDE90623684602F056F90028D2D141
:1004000003F0D8FC21230360CDE703F0D3FC2123C4
:10041000036089E75046594602F0F6F8002892D06A
:100420004046494602F0F0F800288CD02046294684
:1004300002F0F2F808BB347849F21463C0F6010305
:100440000122019300920890CDE902ABCDE9048925
:10045000002C67D100200021CDE90601CBE7002266
:1004600000230229CFF6F073CDE90623C8D0C2E7F6
:1004700003F0A0FC2223036095E796F9002049F2DF
:100480001463C0F601030321019300910897CDE99D
:1004900002ABCDE90489F2B94FF6FF7550465946D3
:1004A000002200234FF06044C4F2EF75CDE9064509
:1004B00003F076F8002841D196F90030022B05D0E0
:1004C000684602F0F1F800287FF42EAF03F072FCCA
:1004D0002223036028E700255046594600220023C6
:1004E0000024C7F6F075CDE9064503F059F8002859
:1004F000E2D000230022C3F6E0734046494602F0F2
:10050000DDFD04460D4602F0D7F822462B4603F0E7
:100510003DF80028D0D100230022CFF6F073CDE9BA
:100520000623C9E70020002102460B4602F0F0FE38
:10053000022CCDE906013FF463AF5CE70023002203
:10054000C3F6E0734046494602F0B8FD04460D4646
:1005500002F0B2F822462B4603F018F80028ABD17F
:100560004FF6FF734FF06042CCF2EF73CDE90623F4
:10057000A2E700BF2DE9704F8AB004460D4600F097
:100580009FFE40F20006C2F2000696F90030B3F179
:10059000FF3F8046894631D02046294602F03CF88C
:1005A00000282BD04FF0000A4FF0000B20462946C0
:1005B00052465B4602F0F4FF00B3367849F2186306
:1005C000C0F6010301220193002300920893CDE9B4
:1005D0000445CDE90245B6B15046594652465B4600
:1005E00002F096FE022ECDE906010ED103F0E2FBE9
:1005F00021230360089B73B9DDE90689404649461B
:100600000AB0BDE8708FCDE906AB684602F04CF841
:100610000028EFD1EAE703F0CDFB089B0360EBE78E
:1006200070B58AB0064600F02BFF40F20004C2F21B
:10063000000494F90030B3F1FF3F054603D0304683
:1006400002F0D4FA10B928460AB070BD304602F064
:1006500079FA4FF07E5103F02DFB0028F3D049F2D8
:1006600020633046C0F60103019301230093002369
:10067000089302F0CFFC024649F21C60C0F601006C
:100680000B46CDE90423CDE9022302F00FF894F9DB
:100690000030022BCDE906010BD0684602F004F8C9
:1006A00038B1089B53B9DDE9060102F0E9FF0546C0
:1006B000C9E703F07FFB21230360F2E703F07AFB35
:1006C000089B0360EFE700BF01F066B870B58AB021
:1006D000064601F0C3FA40F20004C2F2000494F9A5
:1006E0000030B3F1FF3F054630D0304602F07EFACD
:1006F00000282BD03046002103F0BEFA30B349F277
:1007000028633046C0F601030193012300930023C0
:10071000089302F07FFC2478CDE90401CDE90201C1
:10072000BCB10020002102460B4602F0F1FD022C74
:10073000CDE9060111D103F03DFB21230360089BA5
:100740008BB9DDE9060102F09BFF054628460AB099
:1007500070BD00220023CDE90623684601F0A4FF06
:100760000028ECD1E7E703F025FB089B0360E8E7EE
:100770002DE9F04F23F0004588468A4655EA0201EC
:1007800091B017461E46144683469C46814600F0AB
:100790008D80002128F00040C7F6F0710290884259
:1007A000CDF810800FDD029901F1404707F5801761
:1007B00057EA09077FD10026C3F6F076384631465E
:1007C00011B0BDE8F08F14BF00220122BBF1000F71
:1007D0000CBF002302F00103002BE4D18D42E2DCC8
:1007E00014BF00200120002F0CBF002100F00101E8
:1007F0000029D8D1B8F1000F66DB079194B9002821
:1008000040F081800023C3F6F0739D4200F0B88071
:10081000BCF1804F00F0D7830023C3F6E0739C4502
:1008200000F0C083584641460192CDF800C001F067
:10083000E7FE019ADDF800C00C46B9F1000F0BD1BC
:100840000299002908BF42F00102002A72D1002358
:10085000C3F6F07399426DD04FEADA79079B09F13C
:10086000FF3953EA090300F086800023C4F2E01345
:100870009D4240F3A1800023C4F2F0339D4240F337
:1008800037844FF6FF73029EC3F6EF739E4240F328
:10089000A483BCF1000F4ADD45A1D1E90001024665
:1008A0000B4602F00BFC07460E4687E700260F4674
:1008B000C3F6F07682E749F21C60C0F6010011B081
:1008C000BDE8F04F01F0F2BE4FF6FF73C4F23F33C4
:1008D0009D4267DC4FF6FF73C3F6EF739D428CDDDC
:1008E0002B15A3F57E73073B142B40F39184C3F1C2
:1008F000340337FA03F111FA03F3BB4200F0AE847C
:10090000002107917AE7029A02F1404303F5801330
:1009100053EA090300F051834FF6FF73C3F6EF73F8
:100920009A4240F3BA83BCF1000FBFF647AF0027ED
:100930003E4643E7BCF1000FA4BF07462646C0F27F
:100940004B84049A002ABFF639AF0298079900F148
:10095000404303F58013194340F067843A46334619
:100960003846314602F0F6F902460B4602F0D0FC5A
:1009700007460E4622E7584641465A464346F1E7A7
:10098000BCF1000FA4BF5F464646BFF617AF00217B
:100990005A460020C3F6F071434602F0B9FC074600
:1009A0000E460BE702230793002C3FF428AF39E7EC
:1009B0009C7500883CE4377E029BB3F5801FA4BF82
:1009C0004FF6014CCFF6FF7C0BDA00230022C4F275
:1009D0004033214602F072FB4FF6CC3CCFF6FF7C51
:1009E0000291029949F68E02C0F2030221F07F4380
:1009F00023F470030CEB215C934243F07E5545F4E5
:100A0000E005DCBF4FF4002A4FF0000812DD4BF286
:100A10007962C0F20B029342C1BF0CF1010CA5F543
:100A200080154FF4002A4FF00008DCBF4FF4402A35
:100A30004FF0010845F6C8710246C0F601012B4689
:100A400001EBC808CDE908232946CDF800C0D8E954
:100A5000002302F07FF9D8E90023CDE90A01DDE99E
:100A6000080102F079F90B4600210246C3F6F07145
:100A7000002002F04DFCCDE90C01DDE90C23DDE99D
:100A80000A0102F01BFBCDE904016910DDE9042332
:100A9000002041F00051CDE9022301EB0A0302904E
:100AA0000022DDE902AB14461D465046594602F0CD
:100AB00005FB02460B46DDE90A0102F04BF9D8E9D5
:100AC0000023CDE90A012046294602F043F90246F7
:100AD0000B46DDE9080102F03DF902460B4650469F
:100AE000594602F0EBFA02460B46DDE90A0102F034
:100AF00031F9DDE90C2302F0E1FACDE90801DDE985
:100B0000040102460B4602F0D9FA02460B4604469F
:100B10000D4602F0D3FAA4A3D3E90023CDE90A01DC
:100B20002046294602F0CAFAA1A3D3E9002302F025
:100B300013F922462B4602F0C1FA9FA3D3E9002302
:100B400002F00AF922462B4602F0B8FA9CA3D3E938
:100B5000002302F001F922462B4602F0AFFA9AA3D5
:100B6000D3E9002302F0F8F822462B4602F0A6FA59
:100B700097A3D3E9002302F0EFF802460B46DDE924
:100B80000A0102F09BFADDE9042304460D465046B3
:100B9000594602F0E1F8DDE9082302F08FFA224617
:100BA0002B4602F0D9F852465B46CDE90A01504681
:100BB000594602F083FA00220023C4F20803CDE96B
:100BC0000E0102F0C9F8DDE90A2302F0C5F850462B
:100BD0000D4602992B460C465946224602F06EFA03
:100BE00022462B46CDE90C01DDE9080102F066FA48
:100BF00000230022C4F2080382468B462046294681
:100C000002F0A8F8DDE90E2302F0A4F802460B4634
:100C1000DDE90A0102F09EF8DDE9042302F04EFA54
:100C200002460B465046594602F096F882468B46DD
:100C300052465B46DDE90C0102F08EF8029A10463E
:100C400065A3D3E9002304460D4602F037FA64A3F6
:100C5000D3E90023CDE904012046294602F02EFA0B
:100C6000DDE90C23CDE908012046294602F072F89F
:100C700002460B465046594602F06CF85AA3D3E997
:100C8000002302F01BFA02460B46DDE9080102F0E0
:100C900063F8D8E9042302F05FF8DDF800C0CDE97D
:100CA0000801604602F0A4F9D8E908ABDDE90823A1
:100CB00004460D46DDE9040102F04EF852465B465B
:100CC00002F04AF822462B4602F046F8029B2246E2
:100CD00018462B4604460D4602F03CF852465B4649
:100CE00002F038F8DDE9042302F034F802460B463E
:100CF000DDE9080102F02EF882468B460798431E74
:100D000053EA090340F0C28100230022CBF6F073BE
:100D1000CDE902230022334638463146904602F0A0
:100D200019F822462B4602F0C9F952465B46CDE936
:100D300004013846314602F0C1F902460B46DDE9AE
:100D4000040102F009F822462B4682468B464046B3
:100D5000314602F0B3F94FF6FF76C4F28F0604462F
:100D60000D465046594622462B4601F0F5FFB1424A
:100D7000804689460F4640F3358101F13F4303F534
:100D8000E003034340F0348219A3D3E90023504623
:100D9000594629F0004601F0DFFF22462B46CDE9F7
:100DA0000401404628E000BFEF4E454A287ECA3F76
:100DB00065DBC9934A86CD3F01411DA96074D13FCF
:100DC0004D268F515555D53FFFAB6FDBB66DDB3FE1
:100DD000033333333333E33F000000E009C7EE3F12
:100DE000F5015B14E02F3EBEFD033ADC09C7EE3F80
:100DF000FE822B654715973C494601F0ABFF024642
:100E00000B46DDE9040102F0E9FB002840F0F08127
:100E10000023C3F6E0739E4200F300810022079294
:100E200094464FF00008A2A3D3E900234046494668
:100E3000CDF800C002F042F922462B46CDE904016C
:100E40004046494601F086FF02460B465046594649
:100E500001F080FF98A3D3E9002302F02FF998A3B3
:100E6000D3E9002304460D464046494602F026F9E0
:100E700002460B462046294601F06EFF06460F4605
:100E800032463B46DDE9040101F066FFDDE904235B
:100E900004460D4601F05EFF02460B4630463946D9
:100EA00001F058FF22462B468046894620462946B7
:100EB00002F004F984A3D3E9002306460F4602F0AA
:100EC000FDF883A3D3E9002301F044FF32463B46FB
:100ED00002F0F4F880A3D3E9002301F03DFF32468D
:100EE0003B4602F0EBF87EA3D3E9002301F032FF8A
:100EF00032463B4602F0E2F87BA3D3E9002301F03F
:100F00002BFF32463B4602F0D9F802460B462046FC
:100F1000294601F01FFF06460F4632463B46204653
:100F2000294602F0CBF800224FF0804382468B46E0
:100F30003046394601F00EFF02460B4650465946F0
:100F400002F0E6F942464B4606460F462046294641
:100F500002F0B4F842464B4601F0FEFE02460B4654
:100F60003046394601F0F6FE22462B4601F0F2FEED
:100F70000B4600210246C3F6F071002001F0EAFEA4
:100F8000079EDDF800C0741802462515002DC8BF65
:100F9000234640F36D81DDE9020102F08FF8074638
:100FA0000E460BE4049B002BFFF63CAC5846414632
:100FB00011B0BDE8F04F00F083B900261F46C3F61C
:100FC000F076FFF7FBBB584641465A46434602F0CF
:100FD00075F807460E46FFF7F1BBBCF1000FBFF6F0
:100FE000A6AC59E44CF6FF3321F00046C4F290035E
:100FF0009E427FF70DAF4FF45053C3F66F73CB187B
:10100000034340F0178122462B4601F0A3FE5246CF
:101010005B4602F0D9FA002840F00C8133154FF4FA
:101020008011A3F57E734FF6FF76063BC0F20F06E4
:1010300019410022C919C1F30A5021F07F4CA0F5D3
:101040007E702CF4700C07384CF4801C0641C0F103
:1010500014004CFA00FC21EA0603002F2046294622
:10106000B8BFCCF1000CCDF800C001F073FE04460F
:101070000D465046594622462B4601F06DFEDDF8DE
:1010800000C089464FEA0C510791CAE600210020B2
:10109000C3F6F071CDE902013CE6BCF1000FBFF6EA
:1010A00046AC06F10046FFF789BB00BFAFF30080F6
:1010B00000000000432EE63FEF39FAFE422EE63FE5
:1010C000396CA80C615C20BED0A4BE726937663E44
:1010D000F16BD2C541BDBB3E2CDE25AF6A56113F38
:1010E00093BDBE166CC1663F3E5555555555C53F1F
:1010F0004FF6FE730299C3F6EF7399427FF76DAF17
:101100000023029AC3F6F0739A423FF7C2AB002362
:101110000022C3F6F073214601F01CFE5CA3D3E964
:10112000002304460D4601F0C9FF5BA3D3E9002369
:1011300082468B462046294601F0C0FF22462B46B8
:10114000CDE902012046294601F0B8FF0023002224
:10115000C3F6D073CDE904012046294601F0AEFF65
:1011600002460B464EA1D1E9000101F0F3FD2246F3
:101170002B46002401F0A2FF0B4600210246C3F6D5
:10118000E071002001F0E6FD02460B46DDE90401B6
:1011900001F094FF44A3D3E9002301F08FFF02463E
:1011A0000B46DDE9020101F0D5FDCDE90201504613
:1011B000DDE90223594601F0CFFD52465B46204649
:1011C0000D4601F0C7FD02460B46DDE9020101F0C4
:1011D000C1FD82468B4691E500210246C3F6F071BF
:1011E0000020234602F094F807460E46FFF7A9BBFD
:1011F0002FA3D3E90023DDE9020101F05FFF2CA357
:10120000D3E9002301F05AFF07460E46FFF7D6BA8E
:1012100007BBC3F1140355FA03F111FA03F3AB4210
:101220002CD000210791FFF7EABA079A012A7FF430
:10123000C5AA36E720A3D3E90023DDE9020101F0C6
:101240003DFF1DA3D3E9002301F038FF07460E46FA
:10125000FFF7B4BA00200790FFF7E4BA01F00103EA
:10126000C3F102030793002C3FF4C9AAFFF7DABACF
:10127000624601F0C1FA02460B468CE601F001031A
:10128000C3F102030793FFF7BABA00BFAFF30080C0
:10129000000000604715F73F44DF5DF80BAE543E99
:1012A000555555555555D53FFE822B654715F73F8A
:1012B0009C7500883CE4377E59F3F8C21F6EA50187
:1012C0004FF0000C02462DE9F843E046C7F6F07CEB
:1012D000C7F6F07801EA0C0C0446C4450D460B46EF
:1012E0000E46074600F0B080002940F3A0800A15A2
:1012F0007ED026F07F4312F0010FA2F57E7C23F40E
:101300007003ACF1070C43F4801362D0FA0F00268F
:1013100002EB43034FEA6C0C7F00162031464FF47A
:1013200000128C18FD0F9C424FEA4707DEBFC4EB4A
:101330000303A118B6185208013805EB4303F0D196
:10134000202580464FF00042994202EB08040EDB54
:101350008B4214BF4FF000094FF00109BC428CBF13
:101360004FF0000909F00109B9F1000F0ED004F0A7
:10137000004904EB0208B9F1004F23D089465B1AFB
:10138000BC4288BF013B3F1B80184946FC0F5208F6
:101390007F00013D04EB4303D6D13B431ED14008FF
:1013A0004FEA0C52731002F17E5216F0010F18BF73
:1013B00040F0004002F5C002D518044620462946F8
:1013C000BDE8F883B8F1000FA8BF01F10109D6DA32
:1013D000D4E7FA0F7F0002EB430397E7B0F1FF3F3A
:1013E0001CBF00F001031818D9D101362846D7E7F1
:1013F000012216F4801335D17600013316F4801FD4
:10140000FAD0C3F1200137FA01F1D21A0E439F40FE
:1014100026F07F4312F0010FA2F57E7C23F47003C7
:10142000ACF1070C43F480137FF470AFD1E721F0E7
:10143000004C5CEA000CC1D0B9B9FE0A153B7F052F
:10144000002EFAD05A1CD4E701F038FE02460B46B3
:101450002046294601F080FC04460D4620462946D8
:10146000BDE8F88320210023CDE702460B4601F0BA
:1014700071FC02460B4601F04BFF04460D469DE70A
:101480002DE9F04720F00045B5F17E5F04460646A1
:1014900000F0FD8000F3D580B5F17C5F10DAB5F186
:1014A000485F80F20A814FF2CA21C7F2491102F067
:1014B0003DF94FF07E5102F0FDFB002840F0C8805E
:1014C000204601F03FFB01464FF07E5002F02CF920
:1014D0004FF07C5102F032FA4EF60871C3F611015A
:1014E000044602F02BFA47F60471C3F64F2102F0CE
:1014F0001DF9214602F022FA41F24611C3F62451A9
:1015000002F012F9214602F019FA40F6A821C3F6BA
:101510004E6102F00BF9214602F010FA4BF29001F5
:10152000C3F6A66102F000F9214602F007FA4AF676
:10153000AB21C3F62A6102F0F9F8214602F0FEF968
:101540004CF22E61C3F69D518146204602F0F6F919
:1015500043F26131C3F6307102F0E6F8214602F041
:10156000EDF945F22D71C4F2010102F0DFF82146D8
:1015700002F0E4F94DF23911C4F2190102F0D4F885
:10158000214602F0DBF94FF07E5102F0CFF88046A1
:10159000204600F063FB49F69913C3F679739D4228
:1015A000074658DC014620F47E6502F0BFF841464C
:1015B00025F01F058246484602F074FA014650465F
:1015C00002F0BCF929468046284602F0B7F90146E8
:1015D000204602F0A9F829460446384602F0A6F84B
:1015E0000146204602F05EFA014602F09FF80146ED
:1015F0004BF62E50CBF23B3002F096F801464046B7
:1016000002F092F829460446284602F08FF8014677
:1016100040F6DB70C3F6497002F086F801462046BA
:1016200002F082F8014640F6DB70C3F6497002F022
:101630007BF8002ED4BF00F1004404462046BDE8EC
:10164000F087014602F070F8014602F02BFA0446DA
:101650002046BDE8F0874146484602F023FA01469D
:10166000384602F06BF9394602F060F8014602F0A4
:101670005DF84BF62E51C3F23B3102F057F80146AC
:1016800040F6DB70C3F6C97002F04EF8D1E740F6C1
:10169000DB71C3F6C97102F051F94BF62E51CBF252
:1016A0003B310546204602F049F90146284602F042
:1016B0003DF804462046BDE8F087014602F03EF9B9
:1016C0004EF60871C3F61101054602F037F947F6E8
:1016D0000471C3F64F2102F029F8294602F02EF9D1
:1016E00041F24611C3F6245102F01EF8294602F0D9
:1016F00025F940F6A821C3F64E6102F017F82946F5
:1017000002F01CF94BF29001C3F6A66102F00CF84E
:10171000294602F013F94AF6AB21C3F62A6102F01A
:1017200005F8294602F00AF94CF22E61C3F69D51E4
:101730000646284602F002F943F26131C3F63071E1
:1017400001F0F2FF294602F0F9F845F22D71C4F2DA
:10175000010101F0EBFF294602F0F0F84DF23911DA
:10176000C4F2190101F0E0FF294602F0E7F84FF05A
:101770007E5101F0DBFF0146304602F093F901464D
:10178000204602F0DBF80146204601F0CFFF044678
:101790002046BDE8F08700BF2DE9F04120F000446D
:1017A000B4F1FF4F21F00046D4BF00270127B6F166
:1017B000FF4FC8BF47F001070346002F49D1B1F1E1
:1017C0007E5F51D08F1707F0020747EAD07754B9F0
:1017D000022F44D0032F03D140F6DB73CCF2490330
:1017E0001846BDE8F08136B3B6F1FF4F59D0B4F1D9
:1017F000FF4F20D0A41BE4153C2CC4BF40F6DB7087
:10180000C3F6C97034DD012F08BF00F10043E7D0F3
:10181000022F37D00346002FE2D04BF62E51C3F2F1
:10182000BB3101F083FF40F6DB71C4F2490101F0E6
:101830007BFF0346D4E70028BCBF40F6DB73CBF642
:10184000C973CDDB40F6DB73C3F6C9731846BDE838
:10185000F08101F06BFF03461846BDE8F08140F6C9
:10186000DB73C4F24903BBE7BDE8F04101F048B8BF
:1018700014F13C0FACBF0024012414EAD1741ED033
:101880000020C0E74BF62E51C3F2BB3101F04EFFF2
:10189000014640F6DB70C4F2490001F045FF034603
:1018A0009EE7B4F1FF4F11D0022FD8D0032F93D071
:1018B000012F08BF4FF0004392D0002390E702F0C1
:1018C000F1F801F03FF901F01BF89CE7022F04BF8B
:1018D0004CF6E433C4F2160382D0032F04BF4CF657
:1018E000E433CCF216033FF47BAF012F1CBF40F66C
:1018F000DB73C3F649737FF473AF40F6DB73CBF64B
:1019000049736DE740F6D8732DE9F04FC3F649737C
:1019100020F0004687B09E4205460C4640F38E807C
:101920004CF6E333C4F216039E4226DC002840F353
:101930004E814FF4786126F00F06C3F6C97101F0AD
:10194000F3FE4FF47D63C3F6C9739E42054600F073
:10195000848044F243410127C3F2357101F0E4FE73
:1019600001462060284601F0DFFE44F24341C3F205
:10197000357101F0D9FE606064E04FF47863C4F221
:1019800049339E4240F38480B6F1FF4F5EDA4FEA5E
:10199000E659A9F186094FEAC953F61A304602F012
:1019A00093F901F077FF034601463046039301F0B7
:1019B000BBFE4FF0874101F0C1FF064602F084F9FB
:1019C00001F068FF014607463046049701F0ACFE7F
:1019D0004FF0874101F0B2FF0021059002F042F97B
:1019E000002800F018810DF10C0A0326384600216A
:1019F0000AF10408013E02F035F940B158F8047DBF
:101A00000021013E384602F02DF90028F6D1334678
:101A1000914E504621464A4601960226009600F015
:101A200051FA002D07460DDA22684742636802F139
:101A30000042226003F10043636003E000270023BB
:101A400008604B60384607B0BDE8F08F01460027BC
:101A500001F06AFE60602060F4E74FF488410127DE
:101A6000C3F2357101F060FE4AF20831C2F68561B9
:101A7000054601F059FE01462060284601F054FE5B
:101A80004AF20831C2F6856101F04EFE6060D9E786
:101A900001F058F84FF68411C3F62271804601F028
:101AA0004DFF4FF07C5101F041FE02F00DF9074669
:101AB00001F0F0FE4FF47861C3F6C971824601F07F
:101AC0003DFF0146404601F02FFE44F24341C3F280
:101AD00035718046504601F031FF1F2F81461CDCD6
:101AE00045F6F873791EC0F6010326F0FF0253F89D
:101AF00021309A4211D04946404601F015FE014678
:101B00002060404601F010FE494601F00DFE002D18
:101B1000606097DA22687F4288E74946404601F0D4
:101B200003FEF615C0F3C7530146F31A2060082BD5
:101B3000E7DD4FF488415046C3F2357101F0FEFEF7
:101B400081464046494601F0EFFD834640465946EE
:101B500001F0EAFD494601F0E7FD4AF20831C2F61C
:101B600085618046504601F0E9FE414601F0DCFD0A
:101B700081465846494601F0D7FDC0F3C753014698
:101B8000F61A2060192ED8BFD846BADD4FF423418B
:101B90005046C2F6856101F0D1FE064658463146F0
:101BA00001F0C2FD80465846414601F0BDFD314678
:101BB00001F0BAFD43F23211C2F28D4106465046A1
:101BC00001F0BCFE314601F0AFFD814693E74FF4D2
:101BD000786126F00F06C3F6C97101F0A7FD4FF436
:101BE0007D63C3F6C9739E42054618D044F2434153
:101BF0004FF0FF37C3F2357101F098FD01462060C8
:101C0000284601F091FD44F24341C3F2357101F0E1
:101C10008DFD606016E703260DF10C0AF7E64FF420
:101C200088414FF0FF37C3F2357101F07FFD4AF272
:101C30000831C2F68561054601F078FD0146206055
:101C4000284601F071FD4AF20831C2F6856101F0C3
:101C50006DFD6060F6E600BF7860010820F000428C
:101C60000346B2F1FF4F70B504463AD2002A36D08F
:101C7000002840DBC115B2F5000F09D210F40002B4
:101C800041D15B00013213F4000FFAD00131891AFF
:101C900023F07F43A1F17F0223F4000312F0010F30
:101CA00043F4000318BF5B000026541019215B00A9
:101CB00035464FF08072A8189842DEBFC0EB030390
:101CC0008518B61852085B000139F4D113B106F03B
:101CD00001039E19E40504F17C5404EB66042046DC
:101CE00070BD014601F02AFE0146204601F01EFDAE
:101CF0000446204670BD014601F016FD014601F084
:101D0000D1FE0446EBE70022C0E700BF2DE9F8430F
:101D100020F00046B6F1485F05460F465BDA01F059
:101D2000D3FF002800F0CA802946284601F006FEAD
:101D30004DF24E71CAF64751044601F0FFFD47F2DD
:101D4000F641C3F20F1101F0F1FC214601F0F6FD5E
:101D50004FF27C21C3F2934101F0E6FC214601F0F1
:101D6000EDFD40F60151C3F2D07101F0DFFC2146D8
:101D700001F0E4FD40F66131C3F6B62101F0D4FC78
:101D8000214601F0DBFD4AF6AB21C3F62A5101F0F2
:101D9000CDFC214601F0D2FD804620464FF07C511B
:101DA00001F0CCFD41460646204601F0C7FD39460C
:101DB0000446284601F0C2FD0146204601F0B4FC6D
:101DC0000146304601F0B0FC01464FF07E5001F074
:101DD000ABFCBDE8F883014601F0B0FD4DF24E7159
:101DE000CAF64751044601F0A9FD47F2F641C3F295
:101DF0000F1101F09BFC214601F0A0FD4FF27C2168
:101E0000C3F2934101F090FC214601F097FD40F6AA
:101E10000151C3F2D07101F089FC214601F08EFD21
:101E200040F66131C3F6B62101F07EFC214601F097
:101E300085FD4AF6AB21C3F62A5101F077FC214615
:101E400001F07CFD49F69913C3F699639E428046E2
:101E5000A3DD0023C3F648739E4227DC06F17F46CC
:101E60004FF07E50314601F05FFC814620464FF036
:101E70007C5101F063FD314601F056FC41460646B7
:101E8000204601F05BFD39460446284601F056FD28
:101E90000146204601F048FC0146304601F044FC72
:101EA0000146484601F040FCBDE8F8834FF00009C8
:101EB0000026C3F63879C3F69066D7E74FF07E5018
:101EC000BDE8F8832DE9F04FDDB046F290351C46B1
:101ED0000791013B6699C0F601050193D31E48BFE7
:101EE000131D039055F82150DB1023EAE373089388
:101EF000DB430695069902EBC303019A049311EBA9
:101F000002081BD4089B33AF67999D1AA84401EBC4
:101F1000850609E03068043601F0BCFC454505F152
:101F2000010547F8040F09D0002DF3DA002004362C
:101F3000454547F8040F05F10105F5D1069A002A39
:101F4000C0F2CC82069A0CA9A1460DF12C0A05918B
:101F500001EB820B019B002BC0F25F8134A9DDF8FD
:101F60000C8001EB89070026002557F8041D013578
:101F700058F8040B01F0E2FC0146304601F0D6FBB4
:101F8000A5420646F1D14AF8046FDA4509F1010984
:101F9000E0D1069A48A9531E924601EB82015CAA41
:101FA0009B000A91D21809930B92059BBAF1000F7E
:101FB00053F82A5022DD48A903EB8A060F1F9946E1
:101FC0004FF06E51284601F0B9FC01F07DFE01F0A2
:101FD00061FC4FF08741804601F0B0FC0146284685
:101FE00001F0A2FB01F070FE414647F8040F56F8DD
:101FF000040D01F09BFB4E450546E1D104992846AE
:1020000000F032FE4FF07851054601F097FC00F0E9
:102010009DFD4FF0824101F091FC0146284601F000
:1020200083FB054601F050FE074601F033FC0146F4
:10203000284601F079FB049A002A064640F3D08036
:102040000AF1FF33C2F10801C2F107055CAA02EBF5
:10205000830353F8502C52FA01F03F1810FA01F1A3
:10206000521A43F8502C42FA05FBBBF1000F32DD47
:102070000137BAF1000F40F32F8248AB002503EB84
:102080008A0107E022B10125C2F5807243F8042CD1
:102090008B420AD053F8042B002DF3D001258B423C
:1020A000C2F1FF0243F8042CF4D1049A002A0FDD98
:1020B000012A00F09E80022A0AD10AF1FF335CAAAD
:1020C00002EB830353F8502C02F03F0243F8502CEC
:1020D000BBF1020F71D03046002101F0C3FD002892
:1020E00000F0A080069B9A450DDD48A90A9801EBF7
:1020F0008A03002253F8041D834242EA0102F9D107
:10210000002A40F0C6800B9A52F8503C002B40F059
:10211000E181099B48A9CA18012352F8041D013323
:102120000029FAD053440AF101099945029338DC99
:10213000089A0AEB04036799013B0AEB020B059A24
:1021400002EB8A0A01EB8B0B34A901EB83010091AE
:102150005BF8040F01F09EFB019B009A002B42F8F4
:10216000040F009220DB09EB040734A9DDF80C8092
:102170000026002501EB870757F8041D013558F8A4
:10218000040B01F0DBFB0146304601F0CFFAA5421B
:102190000646F1D1029A09F101094AF8046F914506
:1021A000D6DDDDF808A000E7029A09F10109002652
:1021B0004AF8046F9145CBDDF3E731464FF07E508E
:1021C00001F0B2FA0646002D85D004994FF07E50FA
:1021D00000F04AFD0146304601F0A6FA06467AE7CD
:1021E00013D15CA901EB8A0353F8543C4FEA232B2B
:1021F0003BE70AF1FF335CA901EB830353F8502C52
:1022000002F07F0243F8502C62E74FF07C5101F05E
:1022100047FD20B94FF0000B5DE70026B3E64FF015
:10222000020B25E70097002834D1049A304651422A
:1022300000F01AFD4FF08741044601F031FD0028FF
:1022400000F04F814FF06E51204601F077FB5CAB00
:1022500003EB8A0501F038FD01F01CFB0AF1010ACD
:102260005CAA4FF0874102EB8A07064601F066FB45
:102270000146204601F058FA049B0833049301F00C
:1022800023FD45F8500C304601F01EFD47F8500C78
:1022900017E00097049B0AF1FF3A5CAC083B0493FB
:1022A0004FEA8A03E21852F8502C52B948A9049A0E
:1022B000CB1853F8041D0AF1FF3A083A0029F8D068
:1022C00004924FF07E50049900F0CEFCBAF1000F5A
:1022D00005464CDB0AF10106059A48AFB600BC1969
:1022E000961954F8040D01F0D5FA294601F026FBA1
:1022F0004FF06E5146F8040D284601F01FFBBC421A
:102300000546EED10AF1FF39CDF804A0DDF818A09A
:102310004FF00008BAF1000FC0F2D880B8F1000FFA
:10232000C0F2D48005990025744F002401EB890682
:1023300001E044450DDC56F8041F013457F8040F42
:1023400001F0FCFA0146284601F0F0F9A2450546E5
:10235000EFDA5CAC09F1FF3904EB880319F1020FE5
:1023600008F1010843F8F05CD4D1DDF804A0669AC6
:10237000032A13D8DFE802F0936565180020BBF14B
:10238000000F57D0079900F10040219B209A03F1DC
:102390000043886002F100424B600A60009A02F03C
:1023A00007005DB0BDE8F08FBAF1000FE6DD20ADAB
:1023B00005EB8A0454F8048C54F8047940463946F5
:1023C00001F0B4F906464046314601F0ADF9014648
:1023D000384601F0ABF9AC4226606060EAD1BAF150
:1023E000010FCBDD0AF1FF3405EB840454F80489B6
:1023F0004046A768394601F099F9064640463146FD
:1024000001F092F90146384601F090F9AC4266605D
:10241000A060EBD10AF1010A04F10805002004EBE9
:102420008A0454F8041D01F081F9AC42F9D1BBF1E2
:10243000000FA7D1209A219B079CA06022606360B7
:10244000ACE7BAF1000F57DB0AF1010420AD002020
:1024500005EB840454F8041D01F068F9AC42F9D18D
:10246000BBF1000F34D000F1004307990B60014627
:10247000209801F059F9BAF1000F08DD20AC04EB07
:102480008A0A54F8041F01F051F95445F9D1BBF1FF
:10249000000F01D000F10040079A50607EE7BAF1CA
:1024A000000F27DB0AF1010420AD002005EB8404B6
:1024B00054F8041D01F03AF9AC42F9D1BBF1000F18
:1024C00001D000F10040079C206067E7002540E74D
:1024D0000346CAE7012325E60025E6E50CAB059394
:1024E00057E520465CA901EB8A0401F0EDFB44F8B6
:1024F000500CE6E60020E1E70020B1E79863010810
:102500002DE9F84320F00043B3F1485F04460D463F
:10251000904603DA01F0D8FB002859D02146204626
:1025200001F00CFA2146064601F008FA4CF6D311E8
:10253000C2F62E710746304601F000FA42F63471B9
:10254000C3F2D72101F0F0F8314601F0F7F94EF669
:102550001B71C3F2386101F0E9F8314601F0EEF980
:1025600040F60151C3F6501101F0DEF8314601F09A
:10257000E5F948F68901C3F6084101F0D7F881462C
:10258000B8F1000F27D028464FF07C5101F0D6F962
:1025900049468046384601F0D1F90146404601F0EF
:1025A000C3F8314601F0CAF9294601F0BDF84AF6F0
:1025B000AB21C3F62A610546384601F0BFF9014652
:1025C000284601F0B3F80146204601F0ADF8044674
:1025D0002046BDE8F8830146304601F0AFF94AF6DF
:1025E000AB21C3F62A6101F09FF8394601F0A6F944
:1025F0000146204601F09AF804462046BDE8F883DB
:1026000021F00041704700BF21F0004000F1004080
:1026100000F58010C00F704750EA010310B43CD0A1
:10262000D0F1010238BF0022B1F1004F14BF0023E6
:1026300002F00103002B30D14FF6FF73A1F580109B
:10264000C7F6DF7301F1FE44984204F570048CBFB5
:10265000002001209C428CBF034640F00103002B68
:1026600020D1B1F5801F01F100402CBF00230123D0
:10267000B0F5801F38BF43F001038BB911F5801FFF
:10268000C7F6F07314BF00200120994214BF014621
:1026900040F0010102EA010000E0022010BC704796
:1026A0000320FBE70420F9E7002070470021002009
:1026B000C7F6F871704700BF2DE9F041C1F30A5821
:1026C000A8F57E78CD0FA8F1070C82B0BCF1130FEE
:1026D00002460B4604460F460E463DDCBCF1000F99
:1026E00059DB4FF6FF71C0F20F0141FA0CF101EA1C
:1026F000030010432BD0490801EA030353EA020404
:102700000DD04FF4802327EA0106BCF1130F0CBF54
:102710004FF00044002443FA0CFC46EA0C0646F253
:10272000C8312246C0F60101334601EBC505D5E9A3
:1027300000452046294600F00FFB22462B46CDE9F6
:102740000001DDE9000100F005FB02460B461046E2
:10275000194602B0BDE8F081BCF1330F07DDBCF5CE
:10276000806FF4D100F0F8FA02460B46EFE74FF025
:10277000FF31A8F11B0821FA08F10142E7D049080E
:1027800001421FBF4FF0804320EA010443FA08F8DA
:1027900044EA0804C3E721F000410143D7D023F005
:1027A0007F4046F2C83120F47000C0F6010140EAD3
:1027B000020401EBC50160424FEA534E40EA0404B3
:1027C000D1E90067240B304604F40024394644EA7A
:1027D0004E4300F0C1FA32463B46CDE90001DDE947
:1027E000000100F0B7FA21F00041024641EAC5734A
:1027F000ADE700BF00000000F8B5C1F30A5304467E
:102800000D4616460F46002B2BD121F000470743FB
:1028100024D000230022C4F2503343F6B04700F026
:102820004DFCCFF6FF77BE4204460D4639DBC1F3BF
:102830000A5340F2FE72363B0F469B19934219DD54
:1028400022462B462AA1D1E9000100F06DFA28A307
:10285000D3E9002300F032FC04460D462046294609
:10286000F8BD40F2FF72934225D09B1940F2FE72F0
:102870009342E5DC002BC2BF27F0FE4727F4700728
:1028800047EA0355EADC13F1350F1DDA4CF25033F9
:102890009E42D5DC22462B4617A1D1E9000100F06B
:1028A00043FA15A3D3E9002300F008FC04460D46C3
:1028B00020462946F8BD02460B4600F04DFA044674
:1028C0000D4620462946F8BD363327F0FE4727F44B
:1028D0007007204647EA0355002329460022C3F625
:1028E000904300F0EBFB04460D46B7E7AFF30080E2
:1028F0009C7500883CE4377E59F3F8C21F6EA50131
:102900002DE9F04120F00045B5F1A14F04460646FF
:102910000EDBB5F1FF4F00F3A5800028C4BF40F6E1
:10292000DB74C3F6C97440F3DA802046BDE8F08159
:102930004FF6FF73C3F6DF639D4200F3A880B5F145
:10294000445FC0F296804FF0FF372146204600F0EA
:10295000F5FF0146804600F0F1FF46F6D711C3F6B9
:102960008541054600F0EAFF4DF65921C3F64B516B
:1029700000F0DCFE294600F0E1FF46F63531C3F6F3
:10298000885100F0D3FE294600F0D8FF42F66E6170
:10299000C3F6BA5100F0CAFE294600F0CFFF44F654
:1029A0002511C3F6126100F0C1FE294600F0C6FFF2
:1029B0004AF6AB21C3F6AA6100F0B8FE414600F02A
:1029C000BDFF4AF22121CBF615518046284600F082
:1029D000B5FF4FF26B11C3F66E5100F0A5FE29460C
:1029E00000F0ACFF48F29571C3F69D5100F09CFEDB
:1029F000294600F0A3FF48F63861C3F6E35100F022
:102A000093FE294600F09AFF4CF6CD41C3F64C6187
:102A100000F08AFE294600F091FFB7F1FF3F014622
:102A200051D046F2D835404600F080FEC0F6010590
:102A3000214600F083FF05EB8703196900F074FE5F
:102A4000214600F071FE014655F8270000F06CFEAB
:102A5000002EB8BF00F10044FFF667AF04462046E1
:102A6000BDE8F081014600F061FE04462046BDE865
:102A7000F0814FF2CA21C7F2491100F057FE4FF022
:102A80007E5101F017F900283FF45DAF4DE700F0EB
:102A900059F84FF6FF73C3F697739D42044623DC43
:102AA0004FF6FF73C3F62F739D4241DC01460027AA
:102AB00000F03CFE4FF07E5100F036FE4FF08041BA
:102AC0000546204623E0404600F030FE214600F057
:102AD00035FF0146204600F027FE044625E740F674
:102AE000DB74CBF6C97420E74FF6FF73C4F21B0307
:102AF0009D4214DC4FF07F51022700F015FE4FF08D
:102B00007F510546204600F019FF4FF07E5100F03E
:102B10000DFE0146284600F0C5FF044615E70020DB
:102B20002146CBF68070032700F0BCFF04460CE77B
:102B30004FF07E51012700F0F7FD4FF07E51054622
:102B40002046E4E720F00040704700BF2DE9F04147
:102B500020F0004601460446F50D7F3D162D1ADC97
:102B6000002D804620DB4FF6FF77C0F27F072F4114
:102B700007420DD04FF2CA21C7F2491100F0D6FD2D
:102B8000002101F097F8E8B1002C1FDB28EA0701CB
:102B90000846BDE8F081B6F1FF4FF9D300F0C6FD5D
:102BA00001460846BDE8F0814FF2CA21C7F249113B
:102BB00000F0BCFD002101F07DF818B1002C0EDB07
:102BC0000021E5E721460846BDE8F0814FF4000307
:102BD00053FA05F504EB050828EA0701D8E70021B8
:102BE000CBF68071002E08BF2146D1E7D0F101035A
:102BF00038BF0023B0F1004F08BF43F00103002BA2
:102C00002ED1A0F5000300F1FF42B3F1FE4F2CBF1F
:102C100000230123B2F1FE4F38BF43F00103EBB9AB
:102C20004FF6FE73411EC0F27F0300F10042013AED
:102C300099428CBF002101219A428CBF0B4641F082
:102C400001037BB910F5000F14BF00230123B0F17D
:102C5000FF4F14BF184643F001007047042070472F
:102C6000022070470320704710B50C4630F0004139
:102C70000346024625D0B1F1FF4F24D2B1F5000F33
:102C800027D3C90D0919FE2933DC0029C4BF22F05E
:102C9000FF4242EAC15314DC11F1160F38DA4CF24C
:102CA0005032944225DC44F260201946C0F6A2500E
:102CB00000F044F844F26021C0F6A25100F03EFE5C
:102CC0000346184610BD014600F030FD0346184685
:102CD00010BD4FF0984100F031FE43F6B042CFF600
:102CE000FF7294420346E5DBC0F3C751024619392F
:102CF000C8E74FF2CA201946C7F2491000F01EF883
:102D00004FF2CA21C7F2491100F018FE0346D8E776
:102D100001F1190022F0FF424FF04C5142EAC0503D
:102D200000F00CFE0346CCE710B421F0004203F0A3
:102D3000004444EA020110BC704700BF01F00041AA
:102D400020F0004041EA0000704700BF81F00041E0
:102D500002E000BF83F0004330B54FEA41044FEA80
:102D6000430594EA050F08BF90EA020F1FBF54EA1B
:102D7000000C55EA020C7FEA645C7FEA655C00F0B7
:102D8000E2804FEA5454D4EB5555B8BF6D420CDD88
:102D90002C4480EA020281EA030382EA000083EA0B
:102DA000010180EA020281EA0303362D88BF30BDAB
:102DB00011F0004F4FEA01314FF4801C4CEA113101
:102DC00002D0404261EB410113F0004F4FEA033360
:102DD0004CEA133302D0524263EB430394EA050FEB
:102DE00000F0A780A4F10104D5F1200E0DDB02FA5A
:102DF0000EFC22FA05F2801841F1000103FA0EF2EE
:102E0000801843FA05F359410EE0A5F120050EF1B3
:102E1000200E012A03FA0EFC28BF4CF0020C43FAE4
:102E200005F3C01851EBE37101F0004507D54FF0F1
:102E3000000EDCF1000C7EEB00006EEB0101B1F541
:102E4000801F1BD3B1F5001F0CD349085FEA300087
:102E50004FEA3C0C04F101044FEA445212F5800F92
:102E600080F09A80BCF1004F08BF5FEA500C50F12F
:102E7000000041EB045141EA050130BD5FEA4C0C12
:102E8000404141EB010111F4801FA4F10104E9D19B
:102E900091F0000F04BF01460020B1FA81F308BF92
:102EA0002033A3F10B03B3F120020CDA0C3208DD5E
:102EB00002F1140CC2F10C0201FA0CF021FA02F139
:102EC0000CE002F11402D8BFC2F1200C01FA02F1A9
:102ED00020FA0CFCDCBF41EA0C019040E41AA2BFCE
:102EE00001EB0451294330BD6FEA04041F3C1CDA96
:102EF0000C340EDC04F11404C4F1200220FA04F0B6
:102F000001FA02F340EA030021FA04F345EA03015F
:102F100030BDC4F10C04C4F1200220FA02F001FA21
:102F200004F340EA0300294630BD21FA04F02946A3
:102F300030BD94F0000F83F4801306BF81F480113C
:102F40000134013D4EE77FEA645C18BF7FEA655CAF
:102F500029D094EA050F08BF90EA020F05D054EA81
:102F6000000C04BF1946104630BD91EA030F1EBF86
:102F70000021002030BD5FEA545C05D1400049418A
:102F800028BF41F0004130BD14F580043CBF01F57D
:102F9000801130BD01F0004545F0FE4141F4700163
:102FA0004FF0000030BD7FEA645C1ABF194610463E
:102FB0007FEA655C1CBF0B46024650EA013406BF3F
:102FC00052EA033591EA030F41F4002130BD00BFFE
:102FD00090F0000F04BF0021704730B54FF48064BB
:102FE00004F132044FF000054FF0000150E700BF3C
:102FF00090F0000F04BF0021704730B54FF480649B
:1030000004F1320410F0004548BF40424FF0000187
:103010003EE700BF42004FEAE2014FEA31014FEACA
:1030200002701FBF12F07F4393F07F4F81F0605119
:10303000704792F0000F14BF93F07F4F704730B588
:103040004FF4607401F0004521F0004120E700BF1B
:1030500050EA010208BF704730B54FF000050AE0A2
:1030600050EA010208BF704730B511F0004502D5A3
:10307000404261EB41014FF4806404F132045FEAA5
:10308000915C3FF4DCAE4FF003025FEADC0C18BF4A
:1030900003325FEADC0C18BF033202EBDC02C2F140
:1030A000200300FA03FC20FA02F001FA03FE40EAD2
:1030B0000E0021FA02F11444C1E600BF70B54FF0D2
:1030C000FF0C4CF4E06C1CEA11541DBF1CEA1355B4
:1030D00094EA0C0F95EA0C0F00F0DEF82C4481EA1C
:1030E000030621EA4C5123EA4C5350EA013518BF3C
:1030F00052EA033541F4801143F4801338D0A0FB29
:1031000002CE4FF00005E1FB02E506F00042E0FBD5
:1031100003E54FF00006E1FB03569CF0000F18BFDB
:103120004EF0010EA4F1FF04B6F5007F64F5407483
:1031300004D25FEA4E0E6D4146EB060642EAC62116
:1031400041EA55514FEAC52040EA5E504FEACE2E83
:10315000B4F1FD0C88BFBCF5E06F1ED8BEF1004F86
:1031600008BF5FEA500E50F1000041EB045170BD02
:1031700006F0004646EA010140EA020081EA030146
:10318000B4EB5C04C2BFD4EB0C0541EA045170BD42
:1031900041F480114FF0000E013C00F3AB8014F1BC
:1031A000360FDEBF002001F0004170BDC4F1000405
:1031B000203C35DA0C341BDC04F11404C4F1200586
:1031C00000FA05F320FA04F001FA05F240EA0200E1
:1031D00001F0004221F0004110EBD37021FA04F617
:1031E00042EB06015EEA430E08BF20EAD37070BDD1
:1031F000C4F10C04C4F1200500FA04F320FA05F030
:1032000001FA04F240EA020001F0004110EBD37031
:1032100041F100015EEA430E08BF20EAD37070BDA1
:10322000C4F1200500FA05F24EEA020E20FA04F37A
:1032300001FA05F243EA020321FA04F001F0004129
:1032400021FA04F220EA020000EBD3705EEA430E9A
:1032500008BF20EAD37070BD94F0000F0FD101F0C9
:103260000046400041EB010111F4801F08BF013C02
:10327000F7D041EA060195F0000F18BF704703F040
:103280000046520043EB030313F4801F08BF013DC7
:10329000F7D043EA0603704794EA0C0F0CEA135583
:1032A00018BF95EA0C0F0CD050EA410618BF52EA3D
:1032B0004306D1D181EA030101F000414FF0000043
:1032C00070BD50EA410606BF1046194652EA430651
:1032D00019D094EA0C0F02D150EA013613D195EAC5
:1032E0000C0F05D152EA03361CBF104619460AD10D
:1032F00081EA030101F0004141F0FE4141F4700117
:103300004FF0000070BD41F0FE4141F4780170BD06
:1033100070B54FF0FF0C4CF4E06C1CEA11541DBF6B
:103320001CEA135594EA0C0F95EA0C0F00F0A7F86D
:10333000A4EB050481EA030E52EA03354FEA01319A
:1033400000F088804FEA03334FF0805545EA1313AD
:1033500043EA12634FEA022245EA111545EA106575
:103360004FEA00260EF000419D4208BF964244F10C
:10337000FD0404F5407402D25B084FEA3202B61A2B
:1033800065EB03055B084FEA32024FF480104FF4FF
:10339000002CB6EB020E75EB030E22BFB61A754673
:1033A00040EA0C005B084FEA3202B6EB020E75EB06
:1033B000030E22BFB61A754640EA5C005B084FEA6E
:1033C0003202B6EB020E75EB030E22BFB61A75463B
:1033D00040EA9C005B084FEA3202B6EB020E75EB46
:1033E000030E22BFB61A754640EADC0055EA060E07
:1033F00018D04FEA051545EA16754FEA06164FEA4A
:10340000C30343EA52734FEAC2025FEA1C1CC0D1F5
:1034100011F4801F0BD141EA00014FF000004FF082
:10342000004CB6E711F4801F04BF01430020B4F143
:10343000FD0C88BFBCF5E06F3FF6AFAEB5EB030CFB
:1034400004BFB6EB020C5FEA500C50F1000041EBF8
:10345000045170BD0EF0004E4EEA113114EB5C04C5
:10346000C2BFD4EB0C0541EA045170BD41F4801198
:103470004FF0000E013C90E645EA060E8DE60CEAA0
:10348000135594EA0C0F08BF95EA0C0F3FF43BAFBD
:1034900094EA0C0F0AD150EA01347FF434AF95EA74
:1034A0000C0F7FF425AF104619462CE795EA0C0F58
:1034B00006D152EA03353FF4FDAE1046194622E725
:1034C00050EA410618BF52EA43067FF4C5AE50EAFF
:1034D00041047FF40DAF52EA43057FF4EBAE12E7EF
:1034E0004FF0FF3C06E000BF4FF0010C02E000BFD0
:1034F0004FF0010C4DF804CD4FEA410C7FEA6C5CB3
:103500004FEA430C18BF7FEA6C5C1BD001B050EA55
:10351000410C0CBF52EA430C91EA030F02BF90EA40
:10352000020F0020704710F1000F91EA030F58BFFF
:10353000994208BF90422CBFD8176FEAE37040F061
:10354000010070474FEA410C7FEA6C5C02D150EAFF
:10355000013C07D14FEA430C7FEA6C5CD6D152EABA
:10356000033CD3D05DF8040B704700BF844610467F
:1035700062468C461946634600E000BF01B5FFF77E
:10358000B7FF002848BF10F1000F01BD4DF808ED4E
:10359000FFF7F4FF0CBF012000205DF808FB00BF1F
:1035A0004DF808EDFFF7EAFF34BF012000205DF879
:1035B00008FB00BF4DF808EDFFF7E0FF94BF0120C6
:1035C00000205DF808FB00BF4DF808EDFFF7CEFFC7
:1035D00094BF012000205DF808FB00BF4DF808ED06
:1035E000FFF7C4FF34BF012000205DF808FB00BFD7
:1035F0004FEA410212F5001215D211D56FF478731B
:10360000B3EB625212D94FEAC12343F0004343EABD
:10361000505311F0004F23FA02F018BF4042704798
:103620004FF00000704750EA013005D111F0004022
:1036300008BF6FF0004070474FF00000704700BFB8
:103640004A0011D212F5001211D20DD56FF4787321
:10365000B3EB62520ED44FEAC12343F0004343EA76
:10366000505323FA02F070474FF00000704750EAC1
:10367000013002D14FF0FF3070474FF0000070472B
:103680004FEA4102B2F1E04324BFB3F5001CDCF184
:10369000FE5C0DD901F0004C4FEAC0024CEA5070BC
:1036A000B2F1004F40EB830008BF20F001007047EB
:1036B00011F0804F21D113F13872BCBF01F00040EE
:1036C000704741F480114FEA5252C2F11802C2F120
:1036D000200C10FA0CF320FA02F018BF40F00100A1
:1036E0004FEAC1234FEAD32303FA0CFC40EA0C0053
:1036F00023FA02F34FEA4303CCE77FEA625307D190
:1037000050EA01331EBF4FF0FE4040F440007047C6
:1037100001F0004040F0FE4040F40000704700BF60
:1037200080F0004002E000BF81F0004142001FBF76
:103730005FEA410392EA030F7FEA226C7FEA236C7F
:103740006AD04FEA1262D2EB1363C1BFD218414074
:1037500048404140B8BF5B42192B88BF704710F00A
:10376000004F40F4000020F07F4018BF404211F0AD
:10377000004F41F4000121F07F4118BF494292EA15
:10378000030F3FD0A2F1010241FA03FC10EB0C0041
:10379000C3F1200301FA03F100F0004302D54942CE
:1037A00060EB4000B0F5000F13D3B0F1807F06D37B
:1037B00040084FEA310102F10102FE2A51D2B1F173
:1037C000004F40EBC25008BF20F0010040EA030068
:1037D0007047490040EB000010F4000FA2F1010215
:1037E000EDD1B0FA80FCACF1080CB2EB0C0200FA9F
:1037F0000CF0AABF00EBC25052421843BCBFD040ED
:103800001843704792F0000F81F4000106BF80F466
:1038100000000132013BB5E74FEA41037FEA226C29
:1038200018BF7FEA236C21D092EA030F04D092F0F4
:10383000000F08BF0846704790EA010F1CBF002028
:10384000704712F07F4F04D1400028BF40F0004085
:10385000704712F100723CBF00F50000704700F0A5
:10386000004343F0FE4040F4000070477FEA2262CC
:1038700016BF08467FEA23630146420206BF5FEA9D
:10388000412390EA010F40F4800070474FF000039D
:1038900004E000BF10F0004348BF40425FEA000C64
:1038A00008BF704743F0964301464FF000001CE00C
:1038B00050EA010208BF70474FF000030AE000BF62
:1038C00050EA010208BF704711F0004302D54042A0
:1038D00061EB41015FEA010C02BF84460146002012
:1038E00043F0B64308BFA3F18053A3F50003BCFA2D
:1038F0008CF2083AA3EBC25310DB01FA02FC6344DA
:1039000000FA02FCC2F12002BCF1004F20FA02F2E0
:1039100043EB020008BF20F00100704702F12002D3
:1039200001FA02FCC2F1200250EA4C0021FA02F234
:1039300043EB020008BF20EADC7070474FF0FF0C39
:103940001CEAD0521EBF1CEAD15392EA0C0F93EA34
:103950000C0F6FD01A4480EA010C400218BF5FEAD6
:1039600041211ED04FF0006343EA501043EA511149
:10397000A0FB01310CF00040B1F5000F3EBF490043
:1039800041EAD3715B0040EA010062F17F02FD2A47
:103990001DD8B3F1004F40EBC25008BF20F001002A
:1039A000704790F0000F0CF0004C08BF49024CEA41
:1039B000502040EA51207F3AC2BFD2F1FF0340EAD3
:1039C000C250704740F400004FF00003013A5DDC44
:1039D00012F1190FDCBF00F000407047C2F1000285
:1039E000410021FA02F1C2F1200200FA02FC5FEA72
:1039F000310040F1000053EA4C0308BF20EADC70BC
:103A0000704792F0000F00F0004C02BF400010F42D
:103A1000000F013AF9D040EA0C0093F0000F01F0DA
:103A2000004C02BF490011F4000F013BF9D041EAFC
:103A30000C018FE70CEAD15392EA0C0F18BF93EAFE
:103A40000C0F0AD030F0004C18BF31F0004CD8D128
:103A500080EA010000F00040704790F0000F17BFAF
:103A600090F0004F084691F0000F91F0004F14D0F5
:103A700092EA0C0F01D142020FD193EA0C0F03D14D
:103A80004B0218BF084608D180EA010000F0004050
:103A900040F0FE4040F40000704740F0FE4040F42B
:103AA000400070474FF0FF0C1CEAD0521EBF1CEACA
:103AB000D15392EA0C0F93EA0C0F69D0A2EB0302E8
:103AC00080EA010C49024FEA402037D04FF0805382
:103AD00043EA111143EA10130CF000408B4238BF47
:103AE0005B0042F17D024FF4000C8B4224BF5B1A55
:103AF00040EA0C00B3EB510F24BFA3EB510340EAA3
:103B00005C00B3EB910F24BFA3EB910340EA9C0050
:103B1000B3EBD10F24BFA3EBD10340EADC001B01C0
:103B200018BF5FEA1C1CE0D1FD2A3FF650AF8B4264
:103B300040EBC25008BF20F0010070470CF0004C71
:103B40004CEA50207F32C2BFD2F1FF0340EAC2509C
:103B5000704740F400004FF00003013A37E792F05D
:103B6000000F00F0004C02BF400010F4000F013ABB
:103B7000F9D040EA0C0093F0000F01F0004C02BFB6
:103B8000490011F4000F013BF9D041EA0C0195E71F
:103B90000CEAD15392EA0C0F08D142027FF47DAFB8
:103BA00093EA0C0F7FF470AF084676E793EA0C0FA8
:103BB00004D14B023FF44CAF08466EE730F0004CA6
:103BC00018BF31F0004CCAD130F000427FF45CAF36
:103BD00031F000437FF43CAF5FE700BF4FF0FF3CA4
:103BE00006E000BF4FF0010C02E000BF4FF0010CF7
:103BF0004DF804CD4FEA40024FEA41037FEA226CC0
:103C000018BF7FEA236C11D001B052EA530C18BFE1
:103C100090EA010F58BFB2EB030088BFC81738BF46
:103C20006FEAE17018BF40F0010070477FEA226C34
:103C300002D15FEA402C05D17FEA236CE4D15FEA30
:103C4000412CE1D05DF8040B704700BF8446084664
:103C50006146FFE70FB5FFF7C9FF002848BF10F125
:103C6000000F0FBD4DF808EDFFF7F4FF0CBF01206A
:103C700000205DF808FB00BF4DF808EDFFF7EAFFF4
:103C800034BF012000205DF808FB00BF4DF808EDAF
:103C9000FFF7E0FF94BF012000205DF808FB00BFA4
:103CA0004DF808EDFFF7D2FF94BF012000205DF82A
:103CB00008FB00BF4DF808EDFFF7C8FF34BF012037
:103CC00000205DF808FB00BF4FEA4002B2F1FE4F52
:103CD0000FD34FF09E03B3EB12620DD94FEA0023CE
:103CE00043F0004310F0004F23FA02F018BF4042A7
:103CF00070474FF00000704712F1610F01D142028E
:103D000005D110F0004008BF6FF0004070474FF041
:103D10000000704742000ED2B2F1FE4F0BD34FF0BD
:103D20009E03B3EB126209D44FEA002343F0004331
:103D300023FA02F070474FF00000704712F1610F54
:103D400001D1420202D14FF0FF3070474FF0000026
:103D5000704700BF00210A2200F09CBC00220A2309
:103D600000F0E6BB2DE9F84FD2F1010538BF002580
:103D70001F46002B08BF45F0010580468946DDF847
:103D800028A01DB100242046BDE8F88F934605EB1E
:103D90000B064046760807FB06942146D0470028CC
:103DA00005DB06F10105EED0AB45F0D8EAE7B346F6
:103DB000FAE700BF40F20803C2F200031868704738
:103DC00070B549F24C6649F24C65C0F60106C0F682
:103DD0000105761BB61006D0002455F8043B0134CB
:103DE0009847A642F9D149F2506649F24C65C0F6AF
:103DF0000106C0F60105761B15F01CFCB61006D0B6
:103E0000002455F8043B01349847A642F9D170BD0F
:103E1000032A2DE9F00109D82AB10023CC5CC4544F
:103E200001339342FAD1BDE8F00170470B46821886
:103E3000014603E02478013301F8014B11F0030F30
:103E40001C46F7D113F003055DD06E42C5F1040C9A
:103E5000ED009B594FEACC0C08E00434A7593B46CF
:103E600007FA0CF748EA070741F8047B571A23FAC8
:103E700005F8032FF1DC03E014F8013B01F8013BE6
:103E80008A42F9D8CFE753F8404C41F8404C53F8F8
:103E90003C4C41F83C4C53F8384C41F8384C53F802
:103EA000344C41F8344C53F8304C41F8304C53F812
:103EB0002C4C41F82C4C53F8284C41F8284C53F822
:103EC000244C41F8244C53F8204C41F8204C53F832
:103ED0001C4C41F81C4C53F8184C41F8184C53F842
:103EE000144C41F8144C53F8104C41F8104C53F852
:103EF0000C4C41F80C4C53F8084C41F8084C53F862
:103F0000044C41F8044C561A1D460C4640334031CF
:103F10003F2EB8DC2B460FE053F8101C44F8101C61
:103F200053F80C1C44F80C1C53F8081C44F8081CEB
:103F300053F8041C44F8041C161B21461D4610347B
:103F400010330F2EE8DC2B4602E0246841F8044BC6
:103F5000551A1C46032D03F10403F6DC90E700BF5D
:103F6000032AC9B270B408D82AB10346121803F85C
:103F7000011B9342FBD170BC70478218044601E0DC
:103F800004F8011B14F0030FFAD14FF0013303FBC7
:103F900001F31FE044F8403C44F83C3C44F8383C12
:103FA00044F8343C44F8303C44F82C3C44F8283C79
:103FB00044F8243C44F8203C44F81C3C44F8183CA9
:103FC00044F8143C44F8103C44F80C3C44F8083CD9
:103FD00044F8043C161B254640343F2EDADC2C46C0
:103FE00007E044F8103C44F80C3C44F8083C44F822
:103FF000043C161B254610340F2EF2DC01E045F878
:10400000043B541B032CFADC01E005F8011B95422C
:10401000FBD3B0E710F0030F38B5044612D10368A4
:10402000A3F1013222EA030313F0803F0AD1031DFA
:10403000184653F8042BA2F1013525EA020212F0CA
:10404000803FF5D003782BB1431C184613F8012BA1
:10405000002AFAD100F076F9204638BDC9B2F0B492
:10406000002950D010F0030F10D00378002B79D026
:10407000994246D0431C05E013F8012B002A3FD09B
:1040800091423ED013F0030F1846F5D1036841EA80
:1040900001270646A3F1013247EA074722EA030255
:1040A00012F0803F1DD187EA0303A3F1013222EA17
:1040B000030313F0803F14D1043002E012F0803F7C
:1040C0000FD1064650F8043BA3F1013587EA0302FD
:1040D00025EA0303A2F1013413F0803F24EA02022F
:1040E000ECD033783046002B3CD0994209D0731C79
:1040F00001E0914205D0184613F8012B002AF8D1AF
:104100001046F0BC704710F0030F0CD00378002B62
:10411000F7D0431C03E013F8012B002AF1D013F071
:10412000030F1846F7D102680346A2F1013121EAD4
:10413000020212F0803F0AD10430034650F8042BEB
:10414000A2F1013121EA020212F0803FF5D01A7883
:104150001846002AD5D00133184613F8012B002A3F
:10416000FAD1CEE71846CCE780EA010212F0030F3D
:104170003AD110F0030220F0030021F0030150F8BF
:1041800004CB08BF51F8043B0DD082F003024FEA84
:10419000C2026FF07F4323FA02F251F8043B4CEA6B
:1041A000020C43EA020300BFACF101329C4501BF9F
:1041B00022EA0C0212F0803F50F804CB51F8043B85
:1041C000F2D04FEA0C604FEA1C2C012828BFB0EB5C
:1041D000036F08BF1B0AF4D003F0FF034FEA10601F
:1041E000A0EB0300704700BF10F0030F0AD010F8D7
:1041F000012B11F8013B012A28BF9A42F4D0A2EB0F
:10420000030070474DF8045D4DF8044D4FF0010276
:1042100042EA022242EA024201F0030C21F00301C9
:1042200050F8044B51F8045BBCF1020F26D04BD878
:1042300024F07F4CBCEB152FA4EB020323EA04030C
:104240000DD113EAC21308BF51F8045B0AD18CEAFE
:10425000040CBCEB056F0CD150F8044BE8E74FEAB7
:1042600015255CE033F07F4352D10D784FEA146C92
:1042700055E04FEA146C05F0FF0550E04FEA044C9E
:10428000A4EB02034FEA1C4C23EA0403BCEB154FDA
:1042900017D113EAC21308BF51F8045B07D18CEAA7
:1042A000040CBCEB054F08D150F8044BE6E71B04A7
:1042B0002ED10D884FEA144C31E04FEA05454FEA04
:1042C000144C4FEA15452AE004F0FF0CBCEB156FC7
:1042D000A4EB020323EA04030DD113EAC21308BFBF
:1042E00051F8045B0AD18CEA040CBCEB052F0AD10F
:1042F00050F8044BE8E74FEA156510E014F0FF0FA3
:1043000006D051F8045B4FEA142C25F07F4506E0F7
:104310004FF000005DF8044B5DF8045B70470CF053
:10432000FF0205F0FF00012828BF904204BF4FEABA
:104330001C2C2D0AF3D0A2EB00005DF8044B5DF8B5
:10434000045B704780EA0102844612F0030F4FD1EC
:1043500011F0030F32D14DF8044D11F0040F51F854
:10436000043B0BD0A3F101329A4312F0803F04BF0B
:104370004CF8043B51F8043B16D100BF51F8044BF4
:10438000A3F101329A4312F0803FA4F101320BD124
:104390004CF8043BA24312F0803F04BF51F8043BA9
:1043A0004CF8044BEAD023460CF8013B13F0FF0F06
:1043B0004FEA3323F8D15DF8044B704711F0010F39
:1043C00006D011F8012B0CF8012B002A08BF70470A
:1043D00011F0020FBFD031F8022B12F0FF0F16BF01
:1043E0002CF8022B8CF8002012F47F4FB3D17047C9
:1043F00011F8012B0CF8012B002AF9D1704700BFEE
:1044000020F0030110F00300C0F1000051F8043B5C
:1044100000F1040C4FEACC0C6FF000021CBF22FA32
:104420000CF213434FF0010C4CEA0C2C4CEA0C4CF0
:10443000A3EB0C0222EA030212EACC1204BF51F8E9
:10444000043B0430F4D013F0FF0F1FBF013013F40E
:104450007F4F013013F47F0F18BF0130704700BF4A
:10446000F0B4002A25D040F204038718C2F20003FA
:1044700005461E6802E0D3B1BD4218D015F8013BD5
:1044800011F8014BF0181A46407800F0030001289B
:1044900006EB040008BF03F120022346407800F039
:1044A0000300012808BF04F12003D01AE3D0F0BCB8
:1044B00070471046FBE700BF41EA000313F0030F0B
:1044C0000B4670B414BF00240124032A94BF0024B7
:1044D00004F001040546D4B9BAB10E782B46013A6E
:1044E00003F8016B56B1AC1C7AB111F8015F234699
:1044F000013A04F8015C0134002DF5D12AB19A1873
:10450000002103F8011B9342FBD170BC7047194690
:1045100053F8044BA4F1013626EA040616F0803F56
:10452000DAD1043A45F8044B032A1946EFD8D3E709
:104530002DE9F04F40F20404C2F2000485B01F469A
:104540008C4626680B460390029213F8014B3219F1
:104550001D4692F801B01BF0080BF6D12D2C73D03C
:104560002B2C08BF15F8014BD7F1010338BF0023EE
:10457000102F14BF1A4643F0010232B1302C73D011
:104580001BB1302C00F083800A27B946BBF1000F25
:1045900049460CBF6FF0004A4FF0004ACDF804C006
:1045A000504600F0B3F950468846494600F080F87E
:1045B00033190022DDF804C05B78114613F0040FB4
:1045C0001ED0303CA74225DD814294BF0023012349
:1045D00053EAD2722ED10A1A534243EB02034445E6
:1045E000D4BF002303F00103002B23D109FB0141B9
:1045F00015F8014B012233195B7813F0040FE0D159
:1046000013F0030306D0012B14BF57233723E41AFA
:10461000A742D9DCB2F1FF3F1BD00846BBF1000F27
:1046200010D1029B1BB152B90299C1F800C005B06C
:10463000BDE8F08F4FF0FF3215F8014BDBE705F1D5
:10464000FF3CF1E74842ECE715F8014B4FF0010B56
:104650008AE70399BBF1000F0CBF6FF000404FF0E9
:10466000004022230B60DCE72A78A2F17800414267
:1046700041EB0001582A14BF0A4641F00102002A0A
:104680003FF47EAF10276C78B94602357EE70827E5
:10469000B9467BE730B440F20804C2F200040D468C
:1046A000134601462A46206830BC41E7000000005E
:1046B0004A1E08BF7047C0F02481884240F216812C
:1046C000114200F01781B0FA80F3B1FA81F2A2EB47
:1046D0000303C3F11F0304A202EB03134FF0000214
:1046E0009F4600BFAFF30080B0EBC17F00BF42EB3D
:1046F000020228BFA0EBC170B0EB817F00BF42EB8C
:10470000020228BFA0EB8170B0EB417F00BF42EBFB
:10471000020228BFA0EB4170B0EB017F00BF42EB6B
:10472000020228BFA0EB0170B0EBC16F00BF42EBEB
:10473000020228BFA0EBC160B0EB816F00BF42EB6B
:10474000020228BFA0EB8160B0EB416F00BF42EBDB
:10475000020228BFA0EB4160B0EB016F00BF42EB4B
:10476000020228BFA0EB0160B0EBC15F00BF42EBCB
:10477000020228BFA0EBC150B0EB815F00BF42EB4B
:10478000020228BFA0EB8150B0EB415F00BF42EBBB
:10479000020228BFA0EB4150B0EB015F00BF42EB2B
:1047A000020228BFA0EB0150B0EBC14F00BF42EBAB
:1047B000020228BFA0EBC140B0EB814F00BF42EB2B
:1047C000020228BFA0EB8140B0EB414F00BF42EB9B
:1047D000020228BFA0EB4140B0EB014F00BF42EB0B
:1047E000020228BFA0EB0140B0EBC13F00BF42EB8B
:1047F000020228BFA0EBC130B0EB813F00BF42EB0B
:10480000020228BFA0EB8130B0EB413F00BF42EB7A
:10481000020228BFA0EB4130B0EB013F00BF42EBEA
:10482000020228BFA0EB0130B0EBC12F00BF42EB6A
:10483000020228BFA0EBC120B0EB812F00BF42EBEA
:10484000020228BFA0EB8120B0EB412F00BF42EB5A
:10485000020228BFA0EB4120B0EB012F00BF42EBCA
:10486000020228BFA0EB0120B0EBC11F00BF42EB4A
:10487000020228BFA0EBC110B0EB811F00BF42EBCA
:10488000020228BFA0EB8110B0EB411F00BF42EB3A
:10489000020228BFA0EB4110B0EB011F00BF42EBAA
:1048A000020228BFA0EB0110B0EBC10F00BF42EB2A
:1048B000020228BFA0EBC100B0EB810F00BF42EBAA
:1048C000020228BFA0EB8100B0EB410F00BF42EB1A
:1048D000020228BFA0EB4100B0EB010F00BF42EB8A
:1048E000020228BFA0EB0100104670470CBF012058
:1048F00000207047B1FA81F2C2F11F0220FA02F0E3
:10490000704708B14FF0FF3000F00EB80029F8D022
:104910002DE90340FFF7CCFEBDE8064002FB00F3A3
:10492000A1EB0301704700BF704700BF2DE9F041C4
:10493000047890B0003C0546334818BF012410F0BD
:10494000C7FB324B00260093314BB44201930CBF9E
:104950002346802305934FF4807306934FF48063BE
:104960000CBF4FF001084FF0020807932023089373
:1049700025484FF40053694609930296CDF80C8000
:1049800004960A9610F024FC1F48012110F040FC08
:1049900001274FF460231F480BA90D930B968DF848
:1049A00030408DF831700E968DF83C8010F0F2FAA0
:1049B000184804213A46032310F042FB2CB1154855
:1049C00029780222032310F03BFB1248012110F04A
:1049D00011FB1048012110F003FB0E4810F014FBEE
:1049E0000C4810F016FB0028FAD10A4810F015FB0D
:1049F000084810F017FB0028FAD10648012110F0F2
:104A000015FB10B0BDE8F081080002404C240140C5
:104A10005201002000240140024B33F8100080B204
:104A2000704700BF52010020704700002D4B2DE958
:104A3000F3411B780546002B37D00024A0462646BC
:104A400027460822532032216B460BF0A3F99DF82C
:104A500001309DF800201B029B181BB2FF189DF827
:104A600003309DF802201B029B181BB2F6189DF81C
:104A700005309DF8042001341B02E4B29B181BB2E0
:104A8000202C98449DF8073002D013F07F0FD8D126
:104A9000154B97FBF4F796FBF4F698FBF4F82F8090
:104AA0006E80A5F804801C701AE006226B46532025
:104AB00032210BF06FF99DF801309DF800201B02A8
:104AC0009B182B809DF803309DF802201B029B1839
:104AD0006B809DF805309DF804201B029B18AB806D
:104AE000BDE8FC81560100205701002008B5154B98
:104AF0001B7893B12D21082253200BF00DFA3121A0
:104B00000A2253200BF008FA2C210C2253200BF020
:104B100003FA5320382190220CE02D210822532043
:104B20000BF0FAF931210A2253200BF0F5F953204A
:104B30002C210A220BF0F0F9034B40F209121A80E3
:104B400008BD00BF560100201601002073B50024E7
:104B500002AB06460D4603F8014D532021460122C3
:104B60000BF018F978B19DF80730E52B0AD13278AF
:104B7000054B01201A70054B2B60054B6B60054BF4
:104B8000AB6000E020467CBD56010020ED4A0008E5
:104B90002D4A0008294A00082C4B70B519882C4B67
:104BA0005A89B3F91200891A1A89C0025143B3F91C
:104BB0001420C9138A1890FBF2F25218DA61A2F598
:104BC0007A6202FB02F4B3F90210B3F904605143B4
:104BD0005643B3F90E50B3F90C2024136543B3F9CF
:104BE00020006243DC88B3F9003076139B0003EBAE
:104BF000E12101EBE5218140164B02311B680236B1
:104C0000A3EBA1014CF25033034106EB2242921078
:104C100002F500426243D20B4B4303D45B00B3FB6B
:104C2000F2F302E0B3FBF2F35B001A12524340F6D8
:104C3000DE315143084A5A43121402F56C620F32B6
:104C400002EB214203EB221070BD00BF8601002061
:104C50005C0100208001002043E3FFFF104B07B5FB
:104C60001B781BB90F4B1A8801321A80032201AB43
:104C70007720F6210BF08EF89DF805209DF8043082
:104C8000120242EA03429DF806301A43064BB3F97A
:104C90002030C3F10803DA40044B1A600EBD00BF98
:104CA000580100205A0100205C01002080010020F2
:104CB0000B4B07B51B781BB90A4B1A8801321A80B7
:104CC000022201AB7720F6210BF064F89DF8053045
:104CD0009DF8042043EA0222034B1A800EBD00BF58
:104CE000580100205A01002086010020064B0021B7
:104CF00093F82020054B9201343219707720F4315B
:104D000002F0FC020BF008B95C0100205801002001
:104D1000034B00221A707720F4212E320BF0FCB8DE
:104D20005801002010B54FF4804010F0D3FA01284C
:104D3000044605D14FF4804010F0DAFA014B1C70A4
:104D400010BD00BF580100202DE9F047DFF8C091E9
:104D50008CB099F800800546B8F1000F40F0C6808D
:104D6000022610234FF4005762480AA9DFF884A1F5
:104D70004FF480448DF82A608DF82B30ADF8287000
:104D800010F04AFB04235B480AA98DF82B30ADF8DC
:104D9000284010F041FB0E213046CAF8107010F088
:104DA000D1FB013E082307A807948DF821308DF828
:104DB00020808DF8226010F04FFA28238DF82430DF
:104DC00009A8193B8DF825308DF826308DF827601D
:104DD00010F0B0F814200BF032F97720D0213246D1
:104DE0000DF12F030AF0D6FF9DF82F30424C03221D
:104DF000552BE375228475D1D12132460DF12F0355
:104E000077200AF0C7FF9DF82F30772003F00F02BC
:104E10001B0922766376162201ABAA210AF0BAFF9B
:104E20009DF804209DF80530304643EA0223238094
:104E30009DF806209DF8073043EA022363809DF821
:104E400008209DF8093043EA0223A3809DF80A2038
:104E50009DF80B3043EA0223E3809DF80C209DF877
:104E60000D3043EA022323819DF80E209DF80F3078
:104E700043EA022363819DF810209DF8113043EA34
:104E80000223A3819DF812209DF8133043EA0223E8
:104E9000E3819DF814209DF8153043EA0223238214
:104EA0009DF816209DF8173043EA022363829DF88F
:104EB00018209DF8193043EA0223A38241F294138B
:104EC00089F800602B6045F2E4736B600B4BAE60B9
:104ED000EB600B4B2B610B4B6B610B4BAB610B4BCB
:104EE000EB6104E0CAF81470404600E001200CB009
:104EF000BDE8F087001001405C010020114D000862
:104F0000B14C0008ED4C00085D4C0008994B0008BE
:104F1000840100202DE9F043324E334B77891B6822
:104F20003F02DF1B3389FD17A7FB030103FB0511BC
:104F3000C209CB1142EA4162B188524263EB43039A
:104F40000904B2EB010863F10009F388A7FB030130
:104F500003FB0511020A0B1242EA01627188B6894D
:104F6000C9035218A7FB060106FB051143F1000314
:104F7000C40D44EA412404F5FA65B5F5FA6F14DA74
:104F800004FB04F1194E01EB810148108910B54270
:104F90000DDA04F55A640C3464430B2500EBC400AD
:104FA000001B6C4301EB640101E00021084618EB93
:104FB000000849EBE079521A63EBE1730C49096888
:104FC000A2FB014501FB0355600D40EAC5206915B0
:104FD00018EB000849EB01094FEAD83040EA494094
:104FE000BDE8F083900100208C01002024FAFFFF2F
:104FF0008801002007B5772001AB002103220AF0C9
:10500000C9FE9DF805009DF80430000240EA034007
:105010009DF8063018430EBD08B5FFF7EBFF08B149
:10502000014B186008BD00BF8801002008B5FFF7DC
:10503000E1FF08B1014B186008BD00BF8C010020E2
:105040007720482101220AF067BF772058210122EA
:105050000AF062BF10B577201E2101220AF05CFF22
:1050600041F28830BDE810400AF0DEBFF7B50223F8
:1050700069464FF400558DF8023004460E33484817
:105080008DF80330ADF8005010F0C6F9444B3220D3
:105090005D610AF0D4FF7720A02101220DF1070302
:1050A0000AF078FE002865D032200AF0C8FFFFF72A
:1050B000D1FFFFF7CFFFFFF7CDFFFFF7CBFFFFF7E4
:1050C000C9FF384FA025002602227720294601ABD0
:1050D00002358DF804608DF805600AF05BFE9DF8DE
:1050E00004209DF80530EDB243EA0223B02D27F8E5
:1050F000023FE8D12C490123CF8907F47F45CD81B8
:105100008A5B0236002A18BF0023102EF8D183BB19
:105110001A4612F0010F4FEA620004D011F8100095
:105120004340082004E031F8100083EA1023F8E738
:1051300013F4004F18BF83F4C0535B000138F7D15C
:105140000132102AE5D11B0B07F00F0203F00F0309
:1051500042EA05059A42CD810DD00BE0013CE4B254
:10516000FFF778FF002CF9D132200AF068FF012008
:1051700000E00020FEBD42F21C5323606360012367
:10518000A3600A4B3220E360094B2361094B636142
:10519000094BA361094BE3610AF051FF0A24DDE7E3
:1051A000001001408E010020900100204B500008AB
:1051B0002D5000084150000819500008154F0008F4
:1051C0000E4B10B50E48198810F07DF90D4C18B132
:1051D0000AF00CFF20600BE00AF008FF23689842F9
:1051E00006D9094AC31A12683B2193FBF1F31380D5
:1051F000064B1868BDE8104010F07AB8A8010020EE
:10520000000C0140A4010020B0010020AC010020EE
:10521000FFF7D6BFFFF7D4BF01287FB5044612D0F1
:1052200002D3022829D11CE0374B4FF480721A8038
:10523000364A4FF400731380354A1360354B092208
:105240001A700E3209E0304B304A18800223138066
:105250002F4A13602F4B072218702F4B01241A700E
:105260000EE04FF47A700AF0EAFE22462020322146
:1052700003AB0AF08FFD044642E001283FD800242A
:10528000214B10251B882548ADF8083002A90223C0
:105290008DF80B508DF80A3010F0BEF81B4B1F48EC
:1052A0001B8802A9ADF8083004238DF80B3010F0EC
:1052B000B3F8184B164E1978012010F043F93068F6
:1052C00010F016F833688DF8055000930F3D002359
:1052D00068468DF804308DF806500FF0BDFF0E4B78
:1052E0000F4A1B7859B203F01F039D40490942F849
:1052F00021500AF093FE0B4B3C38186000E000246C
:10530000204604B070BD00BFB4010020A8010020F9
:10531000AC010020AB010020AA010020000C0140DC
:1053200000E100E0A001002010B504460AF076FE7E
:105330000B4B1A683C32904210D31860094B0A4854
:105340001C600A4C218810F0C4F80B200AF06CFE97
:1053500005482188BDE8104010F0BDB810BD00BF61
:10536000A0010020B0010020000C0140B401002089
:1053700013B5022204463221202001AB0AF00AFDB7
:1053800050B19DF805209DF8043043EA02231BB27A
:105390003A2293FBF2F301E04FF0FF3323801CBD70
:1053A00007B5002202AB03F8012D1E200A210132AD
:1053B0000AF0F0FC30B19DF80700A0F14803584214
:1053C00040EB03000EBD13B5062204466B461E20BB
:1053D00003210AF0DFFC9DF800209DF8013043EA2C
:1053E000022323809DF802209DF8033043EA022324
:1053F00063809DF804209DF8053043EA0223A380D2
:105400001CBD0000000000002DE9F0434FF4805364
:1054100085B0ADF80C30022303A98DF80E30044698
:10542000DB1869488DF80F300FF0F6FF32200AF0D4
:1054300006FE002111221E200AF06EFD01214022ED
:105440001E200AF069FD64200AF0F9FD01A8FFF7AB
:10545000BAFF00264FF00A083546374602210122DE
:105460001E200AF059FD32200AF0E9FD01A8FFF7DD
:10547000AAFFBDF90420BDF90610BDF90830B61821
:105480009142B8BF0A46FF189A42B8BF134613F5B7
:10549000805F0D440ADD4C4BB8F10108DA6882F0F8
:1054A0001002DA60DAD14FF0010801E04FF0000895
:1054B0001E20002112220AF02FFD4FF000090221C8
:1054C00001221E200AF028FD32200AF0B8FD01A8B2
:1054D000FFF779FFBDF90420BDF90610BDF90830CA
:1054E000B61A9142B8BF0A46FF1A9A42B8BF13468D
:1054F00013F5805FC1EB05050ADD334B09F10109A6
:10550000DA68B9F10A0F82F01002DA60D7D101E04F
:105510004FF00008002170221E200AF0FDFC01213E
:1055200020221E200AF0F8FC1E20022100220AF090
:10553000F3FC64200AF083FDB8F1000F30D0304650
:10554000FEF7A8F9FDF766FD02460B461AA1D1E960
:105550000001FDF7DDFEFEF793F820F00046284637
:10556000FEF798F9FDF756FD02460B4612A1D1E968
:105570000001FDF7CDFEFEF783F820F00045384628
:10558000FEF788F9FDF746FD02460B460CA1D1E96E
:105590000001FDF7BDFEFEF773F820F0004003E0C8
:1055A0004FF07E500546064614B126606560A06047
:1055B00005B0BDE8F08300BF000008F7FF93D240BC
:1055C0000000880B004CD140000C0140AFF300807C
:1055D00030B5374C85B023782546BBB97A338DF882
:1055E0000430344B34481968FEF79EF84FF07C5174
:1055F000FEF7A4F9FEF78EFB01AB8DF80500FF2145
:105600006D2002220AF020FC01234DE0012B34D151
:105610002A4A78338DF80430B2F900306FF46371A0
:105620008B4208DB40F28D318B4206DC0A2193FB72
:10563000F1F35A3302E0002300E0B4238DF8053083
:10564000B2F902306FF46372934208DB40F28D329C
:10565000934206DC0A2293FBF2F35A3302E0002362
:1056600000E0B4238DF806306D2001ABFF2103224A
:105670000AF0EAFB02232B7017E0022B15D16233EC
:105680008DF80430633B8DF805300D4B6D205B7851
:10569000FF21002B14BF012300238DF806300322C5
:1056A00001AB0AF0D1FB0023237005B030BD00BF71
:1056B000B6010020C013002000003443B8050020CC
:1056C000C212002007B56B238DF80430613B8DF8C2
:1056D00005308DF806306D20FF21032201AB0AF062
:1056E000B3FB0EBD03885B42038043885B4243806B
:1056F000704713B50622044601211C206B460AF0B0
:1057000049FB9DF800209DF8013043EA02231BB2BB
:105710009B1048BF03339B109DF8022023809DF807
:10572000033043EA02231BB29B1048BF03339B1094
:1057300063809DF804209DF8053043EA02231BB2E4
:105740009B1048BF03339B10A3801CBD13B50423DB
:105750000DEB0301202202241A488DF80730ADF822
:1057600004208DF806400FF057FE2A2100221C204D
:105770000AF0D2FB0E211C2022460AF0CDFB0F219D
:1057800003221C200AF0C8FB2B2112221C200AF045
:10579000C3FB2C211C2022460AF0BEFB2D21012236
:1057A0001C200AF0B9FB2E2100221C200AF0B4FBB9
:1057B00005221C202A210AF0AFFB034B4FF4807214
:1057C0001A801CBD000801401601002037B50025D5
:1057D00002AB044603F8015D1C200D2101220AF0F2
:1057E000D9FA80B19DF807302A2B01D01A2B09D1A4
:1057F000054A01202260054A6260054AA260054A06
:10580000137000E028463EBD4D570008F3560008CF
:10581000E5560008B701002083885B42838070470B
:1058200013B50222044601AB68201B210AF0B2FA2C
:105830009DF804209DF8053043EA022303F54E53FA
:1058400010334FF48C7293FBF2F3233323801CBD8F
:1058500013B5062204461D2168206B460AF09AFA09
:105860009DF800209DF8013043EA02231BB2002B73
:10587000B8BF03339B109DF8022023809DF80330AE
:1058800043EA02231BB2002BB8BF03339B10638093
:105890009DF804209DF8053043EA02231BB2002B3B
:1058A000B8BF03339B10A3801CBD0000192010B5A6
:1058B0000AF0C5FB6820152100220AF02DFB10B963
:1058C00003300AF055FC0C4B16211A78682042F080
:1058D00018020AF021FB1721002268200AF01CFBA5
:1058E0003D21012268200AF017FB68203E21012299
:1058F000BDE810400AF010BBFC00002010B50446C3
:1059000019200AF09CFB6820152100220AF004FBF4
:1059100040B1054B01202360044B6360044BA3603E
:10592000044BE36010BD00BFAD580008515800089B
:1059300019580008215800082A28114B13D004D800
:105940000A2814D0142814D10FE0BC2807D0B0F5D1
:10595000807F02D062280CD103E0002208E00122FF
:1059600006E0022204E0032202E0042200E0052215
:105970001A701A786820162142F018020AF0CCBA80
:10598000FC000020044B1A78044B0AB1FF2201E00E
:105990004FF400721A807047B801002016010020F1
:1059A000038842885B4202804380704783885B4261
:1059B0008380704713B50222044601AB6820412161
:1059C0000AF0E8F99DF804209DF8053043EA022327
:1059D0001BB24FF4AA7293FBF2F3253323801CBD54
:1059E00013B506220446432168206B460AF0D2F91B
:1059F0009DF800209DF8013043EA02231BB2002BE2
:105A0000B8BF03339B109DF8022023809DF803301C
:105A100043EA02231BB2002BB8BF03339B10638001
:105A20009DF804209DF8053043EA02231BB2002BA9
:105A3000B8BF03339B10A3801CBD13B506220446D8
:105A40003B2168206B460AF0A5F99DF800209DF8DF
:105A5000013043EA02231BB2002BB8BF0733DB102F
:105A60009DF8022023809DF8033043EA02231BB2F5
:105A7000002BB8BF0733DB1063809DF804209DF82E
:105A8000053043EA02231BB2002BB8BF0733DB10FB
:105A9000A3801CBD37B504254FF4005302242948C8
:105AA0000DEB0501ADF804308DF806408DF8075078
:105AB0000FF0B2FC6B21802268200AF02DFA05203D
:105AC0000AF0BDFA1921002268200AF025FA6B219C
:105AD000032268200AF020FA6820372122460AF0C3
