:020000040800F2
:1000000000500020BD2B00086D2C00086975000809
:100010006D2C00086D2C00086D2C000800000000FD
:100020000000000000000000000000006D2C00082F
:100030006D2C0008000000006D2C00081DC6000893
:100040006D2C00086D2C00086D2C00086D2C00082C
:100050006D2C00086D2C00086D2C00083D1A00085E
:100060006D2C00086D2C00086D2C00086D2C00080C
:100070006D2C00086D2C00089DC800086D2C000830
:100080006D2C00086D2C00086D2C00086D2C0008EC
:100090006D2C00086D2C00086D2C0008411A00081A
:1000A0006D2C00086D2C00086D2C00081529000827
:1000B0006D29000879290008852900083DC200083B
:1000C0000DC6000841C2000809C600086D2C0008D2
:1000D0006D2C00086D2C000881CB00086D2C0008E9
:1000E000611500086D2C00086D2C00080000000050
:1000F0000000000000000000000000000000000000
:0C01000000000000000000005FF808F1A3
:1001100010B5054C237833B9044810B10448AFF347
:1001200000800121217010BD880400200000000023
:100130001C95010808B5064B1BB106480649AFF3EC
:1001400000800648016811B1054A02B1904708BD18
:10015000000000001C9501088C040020840400208D
:100160000000000081F0004102E000BF83F0004386
:1001700030B54FEA41044FEA430594EA050F08BF42
:1001800090EA020F1FBF54EA000C55EA020C7FEA06
:10019000645C7FEA655C00F0E2804FEA5454D4EB83
:1001A0005555B8BF6D420CDD2C4480EA020281EA4D
:1001B000030382EA000083EA010180EA020281EA85
:1001C0000303362D88BF30BD11F0004F4FEA0131D7
:1001D0004FF4801C4CEA113102D0404261EB4101E6
:1001E00013F0004F4FEA03334CEA133302D052426C
:1001F00063EB430394EA050F00F0A780A4F1010428
:10020000D5F1200E0DDB02FA0EFC22FA05F2801861
:1002100041F1000103FA0EF2801843FA05F3594147
:100220000EE0A5F120050EF1200E012A03FA0EFCC6
:1002300028BF4CF0020C43FA05F3C01851EBE371F0
:1002400001F0004507D54FF0000EDCF1000C7EEB0D
:1002500000006EEB0101B1F5801F1BD3B1F5001F4B
:100260000CD349085FEA30004FEA3C0C04F101046A
:100270004FEA445212F5800F80F09A80BCF1004F93
:1002800008BF5FEA500C50F1000041EB045141EA15
:10029000050130BD5FEA4C0C404141EB010111F416
:1002A000801FA4F10104E9D191F0000F04BF0146C1
:1002B0000020B1FA81F308BF2033A3F10B03B3F19F
:1002C00020020CDA0C3208DD02F1140CC2F10C022F
:1002D00001FA0CF021FA02F10CE002F11402D8BF8D
:1002E000C2F1200C01FA02F120FA0CFCDCBF41EA59
:1002F0000C019040E41AA2BF01EB0451294330BD28
:100300006FEA04041F3C1CDA0C340EDC04F1140404
:10031000C4F1200220FA04F001FA02F340EA0300DB
:1003200021FA04F345EA030130BDC4F10C04C4F121
:10033000200220FA02F001FA04F340EA0300294601
:1003400030BD21FA04F0294630BD94F0000F83F44B
:10035000801306BF81F480110134013D4EE77FEA2E
:10036000645C18BF7FEA655C29D094EA050F08BF7A
:1003700090EA020F05D054EA000C04BF194610465B
:1003800030BD91EA030F1EBF0021002030BD5FEA9F
:10039000545C05D14000494128BF41F0004130BDC7
:1003A00014F580043CBF01F5801130BD01F000451B
:1003B00045F0FE4141F470014FF0000030BD7FEA8E
:1003C000645C1ABF194610467FEA655C1CBF0B4689
:1003D000024650EA013406BF52EA033591EA030FA0
:1003E00041F4002130BD00BF90F0000F04BF002198
:1003F000704730B54FF4806404F132044FF00005CB
:100400004FF0000150E700BF90F0000F04BF002143
:10041000704730B54FF4806404F1320410F00045A9
:1004200048BF40424FF000013EE700BF42004FEAA4
:10043000E2014FEA31014FEA02701FBF12F07F4321
:1004400093F07F4F81F06051704792F0000F14BF1E
:1004500093F07F4F704730B54FF4607401F0004562
:1004600021F0004120E700BF50EA010208BF7047B9
:1004700030B54FF000050AE050EA010208BF7047AE
:1004800030B511F0004502D5404261EB41014FF417
:10049000806404F132045FEA915C3FF4DCAE4FF01B
:1004A00003025FEADC0C18BF03325FEADC0C18BF02
:1004B000033202EBDC02C2F1200300FA03FC20FA53
:1004C00002F001FA03FE40EA0E0021FA02F11444A0
:1004D000C1E600BF70B54FF0FF0C4CF4E06C1CEAB5
:1004E00011541DBF1CEA135594EA0C0F95EA0C0F2A
:1004F00000F0DEF82C4481EA030621EA4C5123EA9D
:100500004C5350EA013518BF52EA033541F48011CB
:1005100043F4801338D0A0FB02CE4FF00005E1FB7E
:1005200002E506F00042E0FB03E54FF00006E1FBC8
:1005300003569CF0000F18BF4EF0010EA4F1FF040B
:10054000B6F5007F64F5407404D25FEA4E0E6D414B
:1005500046EB060642EAC62141EA55514FEAC5205C
:1005600040EA5E504FEACE2EB4F1FD0C88BFBCF5D8
:10057000E06F1ED8BEF1004F08BF5FEA500E50F189
:10058000000041EB045170BD06F0004646EA01014F
:1005900040EA020081EA0301B4EB5C04C2BFD4EB81
:1005A0000C0541EA045170BD41F480114FF0000E7A
:1005B000013C00F3AB8014F1360FDEBF002001F0E8
:1005C000004170BDC4F10004203C35DA0C341BDC62
:1005D00004F11404C4F1200500FA05F320FA04F034
:1005E00001FA05F240EA020001F0004221F0004168
:1005F00010EBD37021FA04F642EB06015EEA430EDB
:1006000008BF20EAD37070BDC4F10C04C4F120050A
:1006100000FA04F320FA05F001FA04F240EA0200BD
:1006200001F0004110EBD37041F100015EEA430E8E
:1006300008BF20EAD37070BDC4F1200500FA05F2AE
:100640004EEA020E20FA04F301FA05F243EA02032D
:1006500021FA04F001F0004121FA04F220EA02003C
:1006600000EBD3705EEA430E08BF20EAD37070BD82
:1006700094F0000F0FD101F00046400041EB010162
:1006800011F4801F08BF013CF7D041EA060195F044
:10069000000F18BF704703F00046520043EB0303FE
:1006A00013F4801F08BF013DF7D043EA06037047EB
:1006B00094EA0C0F0CEA135518BF95EA0C0F0CD0F6
:1006C00050EA410618BF52EA4306D1D181EA03013C
:1006D00001F000414FF0000070BD50EA410606BF36
:1006E0001046194652EA430619D094EA0C0F02D17B
:1006F00050EA013613D195EA0C0F05D152EA0336C0
:100700001CBF104619460AD181EA030101F00041DD
:1007100041F0FE4141F470014FF0000070BD41F026
:10072000FE4141F4780170BD70B54FF0FF0C4CF400
:10073000E06C1CEA11541DBF1CEA135594EA0C0F1F
:1007400095EA0C0F00F0A7F8A4EB050481EA030E6C
:1007500052EA03354FEA013100F088804FEA033353
:100760004FF0805545EA131343EA12634FEA022221
:1007700045EA111545EA10654FEA00260EF00041E2
:100780009D4208BF964244F1FD0404F5407402D234
:100790005B084FEA3202B61A65EB03055B084FEAC5
:1007A00032024FF480104FF4002CB6EB020E75EBC2
:1007B000030E22BFB61A754640EA0C005B084FEAEA
:1007C0003202B6EB020E75EB030E22BFB61A754667
:1007D00040EA5C005B084FEA3202B6EB020E75EBB2
:1007E000030E22BFB61A754640EA9C005B084FEA2A
:1007F0003202B6EB020E75EB030E22BFB61A754637
:1008000040EADC0055EA060E18D04FEA051545EA25
:1008100016754FEA06164FEAC30343EA52734FEACE
:10082000C2025FEA1C1CC0D111F4801F0BD141EA47
:1008300000014FF000004FF0004CB6E711F4801FAC
:1008400004BF01430020B4F1FD0C88BFBCF5E06F8C
:100850003FF6AFAEB5EB030C04BFB6EB020C5FEA9C
:10086000500C50F1000041EB045170BD0EF0004EF1
:100870004EEA113114EB5C04C2BFD4EB0C0541EA23
:10088000045170BD41F480114FF0000E013C90E620
:1008900045EA060E8DE60CEA135594EA0C0F08BFE4
:1008A00095EA0C0F3FF43BAF94EA0C0F0AD150EAE3
:1008B00001347FF434AF95EA0C0F7FF425AF104676
:1008C00019462CE795EA0C0F06D152EA03353FF49E
:1008D000FDAE1046194622E750EA410618BF52EA1B
:1008E00043067FF4C5AE50EA41047FF40DAF52EAEF
:1008F00043057FF4EBAE12E74FF0FF3C06E000BF8C
:100900004FF0010C02E000BF4FF0010C4DF804CD98
:100910004FEA410C7FEA6C5C4FEA430C18BF7FEA58
:100920006C5C1BD001B050EA410C0CBF52EA430C86
:1009300091EA030F02BF90EA020F0020704710F106
:10094000000F91EA030F58BF994208BF90422CBF95
:10095000D8176FEAE37040F0010070474FEA410C8E
:100960007FEA6C5C02D150EA013C07D14FEA430CAC
:100970007FEA6C5CD6D152EA033CD3D05DF8040B1D
:10098000704700BF8446104662468C46194663464F
:1009900000E000BF01B5FFF7B7FF002848BF10F126
:1009A000000F01BD4DF808EDFFF7F4FF0CBF01206B
:1009B00000205DF808FB00BF4DF808EDFFF7EAFFE7
:1009C00034BF012000205DF808FB00BF4DF808EDA2
:1009D000FFF7E0FF94BF012000205DF808FB00BF97
:1009E0004DF808EDFFF7CEFF94BF012000205DF821
:1009F00008FB00BF4DF808EDFFF7C4FF34BF01202E
:100A000000205DF808FB00BF4FEA410212F500121A
:100A100015D211D56FF47873B3EB625212D94FEA45
:100A2000C12343F0004343EA505311F0004F23FA2F
:100A300002F018BF404270474FF00000704750EA84
:100A4000013005D111F0004008BF6FF00040704741
:100A50004FF00000704700BF4A0011D212F500129B
:100A600011D20DD56FF47873B3EB62520ED44FEA06
:100A7000C12343F0004343EA505323FA02F0704786
:100A80004FF00000704750EA013002D14FF0FF30C4
:100A900070474FF0000070474FEA4102B2F1E04367
:100AA00024BFB3F5001CDCF1FE5C0DD901F0004C55
:100AB0004FEAC0024CEA5070B2F1004F40EB8300A5
:100AC00008BF20F00100704711F0804F21D113F1D1
:100AD0003872BCBF01F00040704741F480114FEA0A
:100AE0005252C2F11802C2F1200C10FA0CF320FA93
:100AF00002F018BF40F001004FEAC1234FEAD323B0
:100B000003FA0CFC40EA0C0023FA02F34FEA430319
:100B1000CCE77FEA625307D150EA01331EBF4FF0A2
:100B2000FE4040F44000704701F0004040F0FE40BD
:100B300040F40000704700BF80F0004002E000BFBA
:100B400081F0004142001FBF5FEA410392EA030FB8
:100B50007FEA226C7FEA236C6AD04FEA1262D2EB02
:100B60001363C1BFD218414048404140B8BF5B4207
:100B7000192B88BF704710F0004F40F4000020F0A0
:100B80007F4018BF404211F0004F41F4000121F0B6
:100B90007F4118BF494292EA030F3FD0A2F1010200
:100BA00041FA03FC10EB0C00C3F1200301FA03F13E
:100BB00000F0004302D5494260EB4000B0F5000F61
:100BC00013D3B0F1807F06D340084FEA310102F120
:100BD0000102FE2A51D2B1F1004F40EBC25008BFD2
:100BE00020F0010040EA03007047490040EB00009C
:100BF00010F4000FA2F10102EDD1B0FA80FCACF1CB
:100C0000080CB2EB0C0200FA0CF0AABF00EBC250C9
:100C100052421843BCBFD0401843704792F0000FB7
:100C200081F4000106BF80F400000132013BB5E70A
:100C30004FEA41037FEA226C18BF7FEA236C21D080
:100C400092EA030F04D092F0000F08BF08467047E5
:100C500090EA010F1CBF0020704712F07F4F04D1B3
:100C6000400028BF40F00040704712F100723CBFC6
:100C700000F50000704700F0004343F0FE4040F4F0
:100C8000000070477FEA226216BF08467FEA2363AE
:100C90000146420206BF5FEA412390EA010F40F499
:100CA000800070474FF0000304E000BF10F00043E5
:100CB00048BF40425FEA000C08BF704743F09643CC
:100CC00001464FF000001CE050EA010208BF7047E7
:100CD0004FF000030AE000BF50EA010208BF70476E
:100CE00011F0004302D5404261EB41015FEA010C83
:100CF00002BF84460146002043F0B64308BFA3F17B
:100D00008053A3F50003BCFA8CF2083AA3EBC2535C
:100D100010DB01FA02FC634400FA02FCC2F120027B
:100D2000BCF1004F20FA02F243EB020008BF20F0B2
:100D30000100704702F1200201FA02FCC2F1200218
:100D400050EA4C0021FA02F243EB020008BF20EA0D
:100D5000DC7070474FF0FF0C1CEAD0521EBF1CEA3B
:100D6000D15392EA0C0F93EA0C0F6FD01A4480EA29
:100D7000010C400218BF5FEA41211ED04FF0006312
:100D800043EA501043EA5111A0FB01310CF000403E
:100D9000B1F5000F3EBF490041EAD3715B0040EA64
:100DA000010062F17F02FD2A1DD8B3F1004F40EB34
:100DB000C25008BF20F00100704790F0000F0CF007
:100DC000004C08BF49024CEA502040EA51207F3ACB
:100DD000C2BFD2F1FF0340EAC250704740F40000A6
:100DE0004FF00003013A5DDC12F1190FDCBF00F097
:100DF00000407047C2F10002410021FA02F1C2F145
:100E0000200200FA02FC5FEA310040F1000053EAE0
:100E10004C0308BF20EADC70704792F0000F00F02E
:100E2000004C02BF400010F4000F013AF9D040EA34
:100E30000C0093F0000F01F0004C02BF490011F4C8
:100E4000000F013BF9D041EA0C018FE70CEAD153C6
:100E500092EA0C0F18BF93EA0C0F0AD030F0004C46
:100E600018BF31F0004CD8D180EA010000F00040FA
:100E7000704790F0000F17BF90F0004F084691F0B8
:100E8000000F91F0004F14D092EA0C0F01D14202F2
:100E90000FD193EA0C0F03D14B0218BF084608D1BB
:100EA00080EA010000F0004040F0FE4040F4000005
:100EB000704740F0FE4040F4400070474FF0FF0C98
:100EC0001CEAD0521EBF1CEAD15392EA0C0F93EADF
:100ED0000C0F69D0A2EB030280EA010C49024FEA31
:100EE000402037D04FF0805343EA111143EA1013EA
:100EF0000CF000408B4238BF5B0042F17D024FF4A2
:100F0000000C8B4224BF5B1A40EA0C00B3EB510F7C
:100F100024BFA3EB510340EA5C00B3EB910F24BF65
:100F2000A3EB910340EA9C00B3EBD10F24BFA3EBEA
:100F3000D10340EADC001B0118BF5FEA1C1CE0D1B2
:100F4000FD2A3FF650AF8B4240EBC25008BF20F065
:100F5000010070470CF0004C4CEA50207F32C2BFB9
:100F6000D2F1FF0340EAC250704740F400004FF056
:100F70000003013A37E792F0000F00F0004C02BF87
:100F8000400010F4000F013AF9D040EA0C0093F051
:100F9000000F01F0004C02BF490011F4000F013BAB
:100FA000F9D041EA0C0195E70CEAD15392EA0C0F13
:100FB00008D142027FF47DAF93EA0C0F7FF470AF4B
:100FC000084676E793EA0C0F04D14B023FF44CAF8E
:100FD00008466EE730F0004C18BF31F0004CCAD123
:100FE00030F000427FF45CAF31F000437FF43CAF5F
:100FF0005FE700BF4FF0FF3C06E000BF4FF0010C81
:1010000002E000BF4FF0010C4DF804CD4FEA400262
:101010004FEA41037FEA226C18BF7FEA236C11D0AC
:1010200001B052EA530C18BF90EA010F58BFB2EB5F
:10103000030088BFC81738BF6FEAE17018BF40F0DF
:10104000010070477FEA226C02D15FEA402C05D193
:101050007FEA236CE4D15FEA412CE1D05DF8040B18
:10106000704700BF844608466146FFE70FB5FFF7AB
:10107000C9FF002848BF10F1000F0FBD4DF808ED63
:10108000FFF7F4FF0CBF012000205DF808FB00BF54
:101090004DF808EDFFF7EAFF34BF012000205DF8AE
:1010A00008FB00BF4DF808EDFFF7E0FF94BF0120FB
:1010B00000205DF808FB00BF4DF808EDFFF7D2FFF8
:1010C00094BF012000205DF808FB00BF4DF808ED3B
:1010D000FFF7C8FF34BF012000205DF808FB00BF08
:1010E0004FEA4002B2F1FE4F0FD34FF09E03B3EB35
:1010F00012620DD94FEA002343F0004310F0004F75
:1011000023FA02F018BF404270474FF000007047CA
:1011100012F1610F01D1420205D110F0004008BF69
:101120006FF0004070474FF00000704742000ED251
:10113000B2F1FE4F0BD34FF09E03B3EB126209D412
:101140004FEA002343F0004323FA02F070474FF0C8
:101150000000704712F1610F01D1420202D14FF03D
:10116000FF3070474FF00000704700BF2DE9F0419D
:10117000057890B000350646334818BF012510F0B9
:1011800009F900243148A542314B0CBF214680218A
:1011900006904FF400500CBF4FF001084FF00208CA
:1011A0004FF4807205930A9120234FF480670E90CC
:1011B00005A925480B920D930C970794CDF8208034
:1011C00009940F9410F05EF91F48012110F07AF98C
:1011D0004FF46021012702911E48694600948DF862
:1011E00004508DF8057003948DF8108010F034F8D9
:1011F000184804213A46032310F07FF82DB1154812
:1012000031780222032310F078F81248012110F0FF
:1012100050F81048012110F043F80E4810F052F831
:101220000C4810F054F80028FAD10A4810F053F88E
:10123000084810F055F80028FAD10648012110F0AE
:1012400053F810B0BDE8F08108000240A40400206B
:101250004C24014000240140024B33F8100080B2BE
:10126000704700BFA4040020704700002E4B2DE9FA
:10127000F34105461878002838D000242646274632
:10128000A0463221082253206B460BF08BF89DF8C4
:1012900001109DF80000013400EB01239DF80310BC
:1012A0009DF802001AB200EB01239DF805109DF88D
:1012B0000400E4B290441AB200EB01239DF8071039
:1012C000BF18202C1AB2164401F07F0001D000286C
:1012D000D7D1164B98FBF4F897FBF4F796FBF4F68E
:1012E000A5F800806F80AE801C701AE032210622C3
:1012F0006B4653200BF056F89DF801209DF8001026
:101300009DF8030001EB02239DF802202B8002EBE5
:1013100000219DF804309DF80500698003EB002250
:10132000AA80BDE8FC8100BFA8040020A904002019
:1013300008B5134B53201B782D2108227BB10BF0ED
:1013400003F931210A2253200BF0FEF82C210C2244
:1013500053200BF0F9F853203821902209E00BF0CC
:10136000F3F831210A2253200BF0EEF853202C2100
:101370000A220BF0E9F8034840F20912028008BD86
:10138000A80400201A00002073B5002402AB064612
:101390000D4603F8014D5320214601220BF002F8BF
:1013A00078B19DF80730E52B0AD132780548064917
:1013B0000270064B064A29606B60AA60012000E0BB
:1013C00020467CBDA8040020311300086D120008DF
:1013D000691200082C4B70B519882C4B5A891C894E
:1013E000881A6043B3F91260B3F91420C513F102EF
:1013F000A81891FBF0F42D19A5F57A6202FB02F60C
:10140000DD613113B3F90250B3F904605543B3F908
:101410000E407243B3F90C604C437143091401EB65
:101420006232911C8A10D98802F50042B3F920007B
:101430004A43B3F90030E91201EBE42101EB8303E5
:1014400003FA00F3991C124BD20B1B68A3EBA1010A
:101450004CF2503343FA00F34B4303D45900B1FB31
:10146000F2F302E0B3FBF2F043001A1252430949CF
:1014700040F6DE30594350430A1402EB204000F698
:10148000CF6103EB211070BDDA040020B00400200E
:10149000D404002043E3FFFF104B07B5187818B9B8
:1014A0000F490A88531C0B80F621032201AB7720D9
:1014B0000AF078FF9DF805109DF804000A0209491A
:1014C00042EA00409DF80630B1F920201843C2F1ED
:1014D000080320FA03F0044908600EBDAA040020A6
:1014E000AC040020B0040020D40400200B4B07B54E
:1014F000187818B90A490A88531C0B80F621022271
:1015000001AB77200AF04EFF9DF804009DF805100E
:10151000044B41EA00221A800EBD00BFAA0400203D
:10152000AC040020DA040020064B074893F8202082
:10153000002192013432017002F0FC027720F42184
:101540000BF002B8B0040020AA040020034B0022D4
:101550001A707720F4212E220AF0F6BFAA04002088
:1015600010B54FF4804010F009F80128044605D169
:101570004FF4804010F012F8014B1C7010BD00BFFA
:10158000AA0400202DE9F047DFF8BCA18CB09AF83E
:1015900000800546B8F1000F40F0C480634F10236F
:1015A00002264FF40059384602A98DF80B308DF809
:1015B0000A60ADF8089010F07FF804204FF48044E2
:1015C0008DF80B0002A93846ADF8084010F074F809
:1015D00030460E21C7F8109010F002F901260821BC
:1015E00004A88DF8151004948DF814808DF81660F9
:1015F0000FF088FF0F23282203A88DF80C208DF808
:101600000D308DF80E308DF80F600FF0F1FD1420C5
:101610000BF035F8D021772032460DF107030AF0A0
:10162000C1FE9DF80700424C03215528E075218436
:1016300074D1D12132460DF1070377200AF0B2FEB2
:101640009DF80730AA2103F00F0218092276607670
:10165000162206AB77200AF0A5FE9DF818109DF81B
:1016600019309DF81A0043EA01229DF81B102280D0
:1016700041EA00239DF81C209DF81D00638040EA8C
:1016800002219DF81F309DF81E20A18043EA022010
:101690009DF820109DF82120E08042EA01239DF86A
:1016A00022009DF82310238141EA00229DF8253075
:1016B0009DF82400628143EA00219DF826209DF8D0
:1016C0002700A18140EA02239DF828109DF82920D7
:1016D000E38142EA01209DF82B309DF82A102082F8
:1016E00043EA01229DF82C009DF82D10628241EA08
:1016F0000023A38241F2941245F2E4738AF8006059
:1017000085E80C000B4A0C48EA600C490C4B0D4A6A
:10171000AE6028616961AB61EA6103E0C7F81490CB
:10172000404600E001200CB0BDE8F0870010014009
:10173000B00400204D150008ED140008291500081C
:1017400099140008D5130008D8040020F0B52E4FD6
:101750002E4B7E89196830023A890E1A86FB0201E7
:10176000B7F804C0C50945EA4160CB117A88F98809
:101770004FEA0C44041943F100054FEAC23C86FBD2
:101780000123BF89100A86FB076740EA03621B1228
:1017900012EB0C0043F10001F60D46EA472303F576
:1017A000FA62B2F5FA6F14DA03FB03F60527774302
:1017B000DFF860C07E10BF1062450CDA03F6AC5350
:1017C0005B43072202FB03660B22534307EB6307CD
:1017D00001E000273E460E4BA41B65EBE675D3F8EF
:1017E00000C0C21B61EBE773ACFB02010CFB0311F1
:1017F000400D40EAC1224B15121B63EB0503D20BCF
:1018000042EA4340F0BD00BFE4040020E0040020B1
:10181000DC04002024FAFFFF07B50021032201ABFE
:1018200077200AF0BFFD9DF805009DF80430010205
:101830009DF8062041EA034010430EBD08B5FFF7AE
:10184000EBFF08B1014B186008BD00BFDC040020AD
:1018500008B5FFF7E1FF08B1014B186008BD00BFF4
:10186000E00400207720482101220AF06DBE772095
:10187000582101220AF068BE08B577201E210122F6
:101880000AF062FE41F28830BDE808400AF0ECBE82
:10189000F0B54D4D85B004461020022303A94FF446
:1018A00000568DF80F0028468DF80E30ADF80C600C
:1018B0000FF002FF32206E610AF0E1FE7720A021D6
:1018C00001220DF107030AF06DFD00287AD03220C5
:1018D0000AF0D5FEFFF7D0FFFFF7CEFFFFF7CCFFF2
:1018E000FFF7CAFFFFF7C8FF384FA025002629469B
:1018F0000222772002AB02358DF808608DF809606E
:101900000AF050FD9DF808209DF80910EDB241EA5B
:101910000223B02D27F8023FE8D12D4A0123D189B7
:1019200001F47F45D58101F00F0032462849515A14
:101930000232002918BF0023102AF7D113BB1A4620
:1019400012F0010F22494FEA620604D011F8161076
:101950004B40082104E031F8161083EA1123F8E720
:1019600013F4004F18BF83F4C0535B000139F7D163
:101970000132102AE4D11649C3F3033305439842D8
:10198000CD8101D000201DE0124942F21C500122FD
:1019900020606060A260E1600F4B1048104A11495E
:1019A00060612361A261E16132200AF068FE0A24CD
:1019B000013CFFF761FF14F0FF04F9D132200AF077
:1019C0005EFE012005B0F0BD00100140E2040020E1
:1019D000E40400206F18000851180008651800087A
:1019E0003D1800084D1700080F4B10B50F48198817
:1019F0000FF0BAFE0E4C18B10AF018FE20600CE091
:101A00000AF014FE2168884207D90A4A401A3B238B
:101A1000126890FBF3F188B21080074A1068BDE8A5
:101A200010400FF0BBBD00BFF8040020000C0140C7
:101A3000FC0400200805002004050020FFF7D4BFA7
:101A4000FFF7D2BF01287FB504461DD00DD3022871
:101A500028D14FF47A700AF012FE2246202032215B
:101A600002AB0AF09FFC044660E0324B3249334D32
:101A7000334C4FF4007009264FF4807226701A80A0
:101A800008802860172609E02A4A2C4910802C4D2E
:101A90002948022303800B602C700726294C2670EE
:101AA000012403E001284FF000043FD8214A02201E
:101AB000138810258DF8060001A92348ADF80430DD
:101AC0008DF807500FF0F8FD1B4904220E881E48C0
:101AD0000DEB02018DF80720ADF804600FF0ECFD6E
:101AE000174B164E197801200FF07AFE30680FF070
:101AF00055FD3068002102908DF80D5002A8012597
:101B00008DF80C108DF80E500FF0FCFC0D4A137878
:101B100003F01F0205FA02F558B20C4B410943F8D5
:101B200021500AF09BFD0A493C380860204604B069
:101B300070BD00BF0C050020F80400200405002043
:101B40000105002000050020000C014000E100E03C
:101B5000F404002010B504460AF080FD0B4B196810
:101B60003C31884210D3186009480460094C0A4887
:101B700021880FF0FFFD0B200AF076FD0648218832
:101B8000BDE810400FF0F8BD10BD00BFF404002008
:101B9000080500200C050020000C014013B50222AE
:101BA00004463221202001AB0AF0FCFB58B19DF81D
:101BB00005209DF8040040EA02210BB23A2293FB73
:101BC000F2F083B201E04FF6FF7323801CBD07B52E
:101BD000002202AB03F8012D1E200A2101220AF087
:101BE000E1FB30B19DF80700B0F14803594251EBD9
:101BF00003000EBD13B50622044603216B461E20CA
:101C00000AF0D0FB9DF800209DF801309DF80210ED
:101C100043EA02209DF80320208042EA01239DF838
:101C200004009DF80510638041EA0022A2801CBDDB
:101C30002DE9F043042185B0054602204FF480537E
:101C40008DF806008DF8071069486944ADF8043036
:101C50000FF032FD32200AF012FD002111221E2069
:101C60000AF072FC012140221E200AF06DFC642063
:101C70000AF005FD02A8FFF7BDFF00244FF00A0897
:101C800027462646012202211E200AF05DFC322052
:101C90000AF0F5FC02A8FFF7ADFFBDF90820BDF979
:101CA0000A00BDF90C30A4189042B8BF0246F618DD
:101CB0009A42B8BF134613F5805F07440ADD4C49CA
:101CC000B8F10108CA6882F01000C860DAD14FF09C
:101CD000010801E04FF000081E20002112220AF046
:101CE00033FC4FF00A09022101221E200AF02CFCCD
:101CF00032200AF0C4FC02A8FFF77CFFBDF90820DF
:101D0000BDF90A10BDF90C30A41A9142B8BF0A46B9
:101D1000F61A9A42B8BF134613F5805FC1EB070766
:101D200008DD3348B9F10109C26882F01001C160D1
:101D3000D9D101E04FF00008002170221E200AF0E6
:101D400003FC012120221E200AF0FEFB1E2002219E
:101D500000220AF0F9FB64200AF091FCB8F1000FB0
:101D600030D02046FEF7A2FFFEF760FB02460B468E
:101D70001BA1D1E90001FEF7D7FCFEF78DFE20F094
:101D800000443846FEF792FFFEF750FB02460B4632
:101D900013A1D1E90001FEF7C7FCFEF77DFE20F09C
:101DA00000473046FEF782FFFEF740FB0B46024637
:101DB0000DA1D1E90001FEF7B7FCFEF76DFE20F0A2
:101DC000004303E04FF07E531F461C4615B12C60C4
:101DD0006F60AB6005B0BDE8F08300BFAFF300807B
:101DE000000008F7FF93D2400000880B004CD14060
:101DF000000C0140AFF300801FB5374C2378BBB90E
:101E000036497A23096836488DF80430FEF798FE83
:101E10004FF07C51FEF79EFFFFF788F9FF218DF808
:101E2000050002226D2001AB0AF01EFB012150E0EB
:101E3000012B37D12B486FF46371B0F90030792250
:101E40008B428DF8042009DB40F28D32934207DC8F
:101E50000A2193FBF1F25A32D3B202E0002300E0F0
:101E6000B423B0F902008DF805306FF46373984223
:101E700009DB40F28D31884207DC0A2390FBF3F046
:101E80005A30C2B202E0002200E0B4228DF80620EF
:101E9000FF2103226D2001AB0AF0E6FA0E4A02216F
:101EA000117017E0022B15D10F4A642053788DF87A
:101EB00004000121002B14BF012000208DF8051023
:101EC0008DF80600FF216D20032201AB0AF0CCFA49
:101ED000002121701FBD00BF0E050020101700203B
:101EE000000034438C0900201216002007B56B2334
:101EF0000A208DF804308DF805008DF80600FF21CA
:101F00006D20032201AB0AF0AFFA0EBD03884288B0
:101F10005942534201804380704713B5062204465C
:101F200001216B461C200AF03DFA9DF800209DF827
:101F3000013043EA022040F38D01042391FBF3F2C8
:101F40009DF802009DF80310228041EA002242F32E
:101F50008D0090FBF3F19DF805209DF80400618051
:101F600042EA002141F38D0090FBF3F3A3801CBDF6
:101F700013B50421202302248DF807101A48694460
:101F8000ADF804308DF806400FF096FB2A210022B0
:101F90001C200AF0D9FA0E211C2022460AF0D4FA9D
:101FA0000F2103221C200AF0CFFA2B2112221C2021
:101FB0000AF0CAFA2C211C2022460AF0C5FA2D216B
:101FC00001221C200AF0C0FA2E2100221C200AF057
:101FD000BBFA05221C202A210AF0B6FA03484FF466
:101FE000807202801CBD00BF000801401A00002062
:101FF00037B5002502AB044603F8015D1C200D2116
:1020000001220AF0CFF980B19DF807302A2B01D0C8
:102010001A2B09D1054A064822600649064A606023
:10202000A1601370012000E028463EBD711F00082A
:102030001B1F00080D1F00080F0500208388594250
:102040008180704713B5022204461B2101AB682032
:102050000AF0A8F99DF804209DF8053043EA022013
:1020600000F54E5110314FF48C7291FBF2F3233393
:1020700023801CBD13B5062204461D216B46682033
:102080000AF090F99DF800209DF8013043EA022003
:1020900001B2042391FBF3F29DF802009DF80310B6
:1020A000228041EA002210B290FBF3F19DF8052056
:1020B0009DF80400618042EA002108B290FBF3F32E
:1020C000A3801CBD08B519200AF0D9FA6820152193
:1020D00000220AF039FA10B903200AF067FB0C4B12
:1020E00016211A78682042F018020AF02DFA1721FA
:1020F000002268200AF028FA3D21012268200AF017
:1021000023FA68203E210122BDE808400AF01CBAEB
:102110000000002010B5044619200AF0B0FA68202B
:10212000152100220AF010FA40B10548054B064976
:10213000064A60602360A160E260012010BD00BF1C
:1021400075200008C52000083D2000084520000833
:102150002A28104B13D005D80A2812D0142812D1DF
:1021600004220FE0BC2808D0B0F5807F03D062289D
:1021700009D1022206E0002204E0012202E003224B
:1021800000E005221A701B786820162143F018021F
:102190000AF0DAB900000020044B05481A780AB1A9
:1021A000FF2101E04FF4007101807047100500200D
:1021B0001A000020038842885942028041807047FB
:1021C000838859428180704713B502220446412119
:1021D00001AB68200AF0E6F89DF804209DF8053070
:1021E00043EA022001B24FF4AA7291FBF2F32533C5
:1021F00023801CBD13B50622044643216B4668208C
:102200000AF0D0F89DF800209DF8013043EA022042
:1022100001B2042391FBF3F29DF802009DF8031034
:10222000228041EA002210B290FBF3F19DF80520D4
:102230009DF80400618042EA002108B290FBF3F3AC
:10224000A3801CBD13B5062204463B216B466820C3
:102250000AF0A8F89DF800209DF8013043EA02201A
:1022600001B2082391FBF3F29DF802009DF80310E0
:10227000228041EA002210B290FBF3F19DF8052084
:102280009DF80400618042EA002108B290FBF3F35C
:10229000A3801CBD37B504254FF400530224284801
:1022A0000DEB0501ADF804308DF806408DF80750B0
:1022B0000FF002FA6B21802268200AF045F9052010
:1022C0000AF0DDF91921002268200AF03DF96B219E
:1022D000032268200AF038F93721682022460AF0E4
:1022E00033F91848B0F862102A2917D007D80A29FC
:1022F00012D014290ED0052910D1062211E0BC29D4
:102300000ED0B1F5807F03D0622907D1224608E0C4
:10231000002206E02A4604E0052202E0032200E053
:1023200001221A2168200AF00FF91B2118226820C7
:102330000AF00AF968201C2110220AF005F93EBDB6
:10234000000C014048130020F0B5064685B023205C
:102350000C460AF094F96820752101220DF107035B
:102360000AF020F800284BD09DF80770682F46D15E
:1023700006210A4602AB38460AF014F89DF80B30E5
:102380009DF80D5003F0010105F001004A0042EAFA
:1023900080059DF8090000F001031D4308D0012DC0
:1023A00001D118481AE0022D0ED10023154813E080
:1023B0000C21012238460DF1070309F0F3FF9DF8C7
:1023C000071011F00F0203D105200AF0EFF906E023
:1023D000042A0C4802D10123037000E005700A4969
:1023E0000A4A0B4831607260B0600A4B0A480B49D8
:1023F0000B4AE06023606160A260012000E00020E1
:1024000005B0F0BD10050020992100084522000804
:10241000B521000895220008C9210008F52100080F
:10242000C121000803888288594253420180838079
:10243000704713B506220446A8216B46682009F0B0
:10244000B1FF9DF800209DF8013043EA022001B25F
:10245000042391FBF3F29DF802009DF803106280C3
:1024600041EA002210B290FBF3F19DF805209DF89F
:102470000400218042EA002108B290FBF3F3A3801C
:102480001CBD000008B564200AF0F9F8682023217B
:10249000F0220AF059F810B903200AF087F9052054
:1024A0000AF0EDF8044B68201A78202142F00F0260
:1024B000BDE808400AF048B81105002013B50446ED
:1024C00019200AF0DCF868200F2101220DF1070322
:1024D00009F068FF9DF80730D32B07D10448054960
:1024E000054A20606160A260012000E000201CBD60
:1024F00085240008332400082524000836280C4BC6
:102500000AD003D820280BD1002208E04E2805D09D
:102510005D2805D1C02202E0402200E080221A702E
:102520001B786820202143F00F020AF00DB800BF8D
:102530001105002030B585B0044601A80D460FF006
:1025400077FC0B4B0B481A68013DB2FBF0F14B1EB8
:102550000022204601A9ADF80850ADF80430ADF8CE
:102560000A20ADF806200FF01BFB05B030BD00BF00
:102570003800002040420F007FB5044601A80D46F8
:1025800016460FF068FC00200123ADF80A00ADF8F4
:102590000C0001A92046ADF80450ADF80660ADF876
:1025A00008300FF0D7FC7FBD154B142210B502FB8D
:1025B000003202F10803DC7864B999800121D970F6
:1025C000104B00011A18117B18580222BDE8104068
:1025D000FFF7D2BF9C88D980091B89B29C781182F1
:1025E000094A000122F814100024DC70054B224631
:1025F0001918097B1858FFF7BFFF044A148010BD53
:102600003C050020F45E010816050020E20B0020C6
:1026100070B50D46022104460FF045FD0128204605
:102620000BD102210FF04AFD6BB214225343234811
:10263000C65820460FF02AFD3CE004210FF033FD80
:1026400001280ED1013520460421EDB20FF036FDF0
:1026500068B214214843194E365820460FF019FD30
:1026600028E0082120460FF01EFD01280ED1A91CEC
:10267000CDB2204608210FF021FD6EB214235E4337
:102680000E4A204696590FF007FD13E01021204610
:102690000FF009FD012810D103352046EDB21021BD
:1026A0000FF00CFD6BB2142253430448C658204669
:1026B0000FF0F5FC01462846B04770BD3C050020F0
:1026C000114A124813881180C91A89B240F68C2227
:1026D000914203800E4B02D9002018707047A1F27E
:1026E000EF2080B240F2DA52904205D81B78112BCD
:1026F0009CBF084A22F813100549074B0878421C72
:102700000A7000211980704714050020120500206E
:102710005606002016050020E20B00202DE9F04FA0
:10272000464BDFF81C81142505FB003507460001E8
:1027300058F8004087B008EB00062046FFF7FAFE85
:10274000D6F804B001A806F1080AB6680FF004F83C
:1027500018218DF807104FF0020901A95846ADF86D
:1027600004608DF806900EF0A7FF02A89AF80460A6
:102770000FF067FB7022ADF80820012300204FF412
:102780007A714FF48072ADF80A30ADF80C00ADF8F4
:102790000E10ADF81090ADF814200C2E2BD8DFE8F9
:1027A00006F0072A2A2A102A2A2A192A2A2A220067
:1027B000204602A90FF03EFA204608210FF076FBD2
:1027C00019E0204602A90FF079FA204608210FF0FF
:1027D00075FB10E0204602A90FF0B4FA204608214C
:1027E0000FF076FB07E0204602A90FF0EDFA204635
:1027F00008210FF075FB08EB0717BB7B1BB12046C8
:1028000001210FF03CFB204601210FF02CFB0C2E88
:1028100010D8DFE806F0070F0F0F090F0F0F0B0F8F
:102820000F0F0D00343404E0383402E03C3400E093
:1028300040346C60284607B0BDE8F08F3C050020AE
:10284000F45E01082DE9F04F304B4FF0140808FBFF
:1028500000F800011C5885B01D188A4620464FF626
:10286000FF719346FFF766FE696805F1080702A845
:10287000AD6801910EF070FF02232822019802A991
:102880008DF80A30ADF808508DF80B200EF014FFCB
:102890003D79002220462946FFF76EFEDFF8709052
:1028A000204601210FF0DFFA79790123002209EB9C
:1028B000080603A88DF80C108DF80D208DF80E3049
:1028C0008DF80F300EF094FC49F808A086F80AB095
:1028D0000C2D16D8DFE805F0071515150A15151586
:1028E0000D15151510002046022107E02046042191
:1028F00004E02046082101E02046102101220FF0CB
:10290000CCFA304605B0BDE8F08F00BFF45E010898
:102910003C050020022110B512480FF0C4FB01282D
:1029200010480BD102210FF0C9FB0F48D0F8A0408E
:102930000C480FF0ABFB0146082010E010210FF00F
:10294000B2FB01280CD1102106480FF0B7FB064B53
:102950000448D3F8B4400FF0A2FB01460920A04779
:1029600010BD00BF002C01403C0500204FF080400E
:102970000021FFF74DBE000001480421FFF748BECB
:102980000004004001480A21FFF742BE0008004051
:102990002DE9F0410446437A6278002B14BF0220EF
:1029A000002002B101304049002551F820707A5DC5
:1029B000FF2A02F00F0002F0F00371D0A17811B1EC
:1029C000811E012969D9A17A09B1814265D0E178D6
:1029D00009B1042861D0217909B105285DD0A17918
:1029E00011B1011F012958D9617911B1811F012944
:1029F00053D912F0300F03D02278002A08BF0023E9
:102A0000E17931B1627A22B9A0F10801012998BFB8
:102A10008023227A2AB1617A19B9021F032A98BF4A
:102A2000802303F01001CAB23AB120490022FFF717
:102A300009FF1F4B082119702FE003F02001CAB2D3
:102A400042B11B4E1B493278FFF7FCFE3078421C26
:102A5000327022E003F04001CAB25AB1A28916498D
:102A6000164E91FBF2F399B296F80080FFF756FEEE
:102A7000134B0CE01B0610D5E3890F49114E91FB57
:102A8000F3F291B296F80080FFF748FE0E4B43F840
:102A9000280008F1010886F8008001350E2D86D146
:102AA0000020BDE8F08100BFD45F0108C126000806
:102AB00054060020A925000840420F0055060020BA
:102AC000580600205706002088060020044B1A787C
:102AD000824204D9034B53F82000426811807047AA
:102AE0005506002058060020044B1A78824204D96B
:102AF000034B53F8200042681180704757060020AE
:102B000088060020014B33F810007047160500209E
:102B100037B50E4B0E4C93F8760118B1012803D14E
:102B2000802100E04021218002258DF80650094DCA
:102B300022881023284601A9ADF804208DF807301B
:102B40000EF0BAFD208868613EBD00BF481300202A
:102B5000A80600200008014018B91248124B01884D
:102B60001DE0124B12491A78501CC2B2B1F87A011A
:102B70001A70904214D10F4800221A700378012273
:102B8000591C0170C3F3440002FA00F30A49054AD4
:102B9000086811880342044B01D0196170475961DC
:102BA000704700BFA806002000080140AA060020C8
:102BB00048130020AB060020140000201D481E49C9
:102BC000026800608A4200F01F80002100F004B813
:102BD0001A4B5B584350043119481A4B42189A4219
:102BE000FFF4F6AF184A00F003B8002342F8043BA4
:102BF000164B9A42FFF4F9AF0EF024FA12F0FCFBE8
:102C000004F018FBFFF7FEBF114E12483060124867
:102C1000016821F070610160410201600F4C1820D1
:102C200020600F490F4808600F48D0F800D0406876
:102C300000470000F04F0020EFBEADDE40950108D8
:102C4000000000208404002088040020C42A002002
:102C5000181002400900000004000140140C01405B
:102C6000000C01404434434400F0FF1FFFF7FEBF57
:102C7000F8B5194C06462378274683B909F0EEFCCF
:102C8000164D2A683232904209D3154801224FF47A
:102C900080512270416109F0E1FC2860F8BD38786C
:102CA000C0B109F0DBFC0D4C21687318984211D3B8
:102CB00009480B4B00224FF480510270196109F052
:102CC000CDFC2060074802780AB1511E0170064B06
:102CD00001201870F8BD00BFAE060020B406002029
:102CE00000080140920A0020AF06002037B58DF899
:102CF000051021498DF807300B788DF8040002A8E3
:102D00008DF80620C21812F8044C0D46443CE0B27F
:102D10000A282CD81949022B31F8104003D814B1D5
:102D20002046FFF7A5FF2B78022B0BD9144D2D68F9
:102D300009F094FC021B954204D20F49114B00206C
:102D400008701870104802780146012A00D094B922
:102D5000094B1878022801D8421C1A7000230B7006
:102D60000A4A0B494FF480500B70106103E0322483
:102D7000022BD5D9D7E73EBDAC060020F45F010891
:102D8000B4060020920A0020AF060020000801408F
:102D9000AE06002070B53E4B0446DA7A3D4802B1DB
:102DA000012202704FF4007001F0C4FBD0B13A4D23
:102DB0003A4995F8E6000B88052101FB00F29342A1
:102DC0000DDD374E374A76783EB195F8E75001264B
:102DD000401941438B42167001DD022111700BB97D
:102DE000304A1370102001F085FB60B128482E4B4B
:102DF000C17909B9027A22B12948C17A09B90122F7
:102E000000E000221A70274B1878022802D14C20CB
:102E10004E211EE0012807D14D2153204C220B46A4
:102E2000BDE87040FFF762BF1F490A78012A03D14D
:102E3000532001464E2206E0164B1878012804D193
:102E40005320014602464D23EAE7042C03D15320C8
:102E50004D210A460AE0022C03D1532001464D229F
:102E600004E0012C04D153204D214E224423D7E706
:102E70000E490B7823B13220BDE87040FFF7F8BE51
:102E80000B4A0C494FF480501370086170BD00BFAD
:102E9000AE160020B006002048130020E20B0020F0
:102EA00012160020AD060020B1060020920A002074
:102EB000AE0600200008014070B50646B6FBF2F4ED
:102EC0000846154614B12046FFF7F6FF05FB1464CB
:102ED000024B195D00F8011B70BD00BF5461010871
:102EE0002DE9F047027803460130202AFAD0092A5A
:102EF000F8D02D2A03D103460026614F04E02B2A87
:102F0000604F08BF0346002698460024002543462C
:102F100018F8010BA0F130095FFA89F1092913D8DB
:102F20000022594B20462946FDF7D4FA044648466C
:102F30000D46FDF769FA02460B4620462946FDF785
:102F400017F904460D46E2E72E2822D1DFF8389122
:102F5000C2464FF0000853461AF8010B3038C2B28F
:102F6000092A16D8FDF750FA42464B46FDF7DCFB1E
:102F700002460B4620462946FDF7FAF80022044691
:102F80000D4640464946404BFDF7A4FA8046894627
:102F9000E1E71878652801D0452858D159782D29BE
:102FA00003D102334FF0010906E02B2901D0013390
:102FB00000E002334FF00009013B4FF0000813F826
:102FC000012F303AD0B2092803D80A2101FB082882
:102FD000F5E72C4BB8F59A7F28BF4FF49A7800227A
:102FE000B8F1310F0BD91046194621A3D3E90023BC
:102FF000FDF770FAA8F1320802460B46F0E7C24628
:10300000B8F1070F0BD9104619461BA3D3E90023CB
:10301000FDF760FAA8F1080802460B46F0E70AF04F
:103020000708B8F1000F0AD0104619460022164BC7
:10303000FDF750FA08F1FF3802460B46F1E7B9F107
:10304000000F06D020462946FDF76EFB05E00D4B2C
:10305000002220462946FDF73DFA02460B4630463F
:103060003946FDF737FAFDF717FDBDE8F08700BFD9
:103070009A647EC50E1B514A0000000084D7974118
:103080000000F0BF0000F03F00002440AFF30080DC
:10309000F8B502790669C468052A45D8DFE802F068
:1030A00003030E0E1A2583681A785118A14203DB18
:1030B000B142B4BF0C4634461C70F8BD8368B3F906
:1030C00000205018A04203DBB042B4BF044634468F
:1030D0001C80F8BD836818680918A14203DBB1425F
:1030E000B4BF0C4634461C60F8BD87680846FDF73F
:1030F000DDFD0E49FDF7E2FE3968FDF723FD0546CB
:103100002046FDF7D3FD044621462846FDF7C0FFC3
:1031100040B93046FDF7CAFD044621462846FDF772
:10312000D5FF00B125463D60F8BD00BF00007A44E0
:10313000014809F0A7BC00BF7961010810B5074834
:1031400009F0A0FC0024064B06481A19E158526801
:103150000C3409F07DFEA82CF5D110BDC461010826
:1031600098600108DA61010838B509F077FA204C57
:10317000204B4FF47A71B0FBF1F11A781E48237896
:1031800009F066FE01F0D0F905461C481C490268AA
:103190001C48B2FBF1F109F05BFE00241A4B53F816
:1031A000241051B1012000FA04F0284202D017483F
:1031B00009F04EFE0134E4B2F0E7012001F09AF983
:1031C00038B1134A134B1178134853F8211009F002
:1031D0003FFE124809F056FC1148048809F018FA1D
:1031E000024610482146BDE8384009F031BE00BF14
:1031F000180000206C160020E26101083800002051
:1032000040420F0020620108D47001083E620108AC
:10321000380C00204061010842620108176701086C
:103220007C0B00204C620108F8B5074612F062FCE6
:1032300010F0FF0F07D11D4A1D4853791D4A591E32
:1032400052F821102BE0C6B21B493846324612F024
:1032500081FC044670B9194809F014FC154951F86D
:10326000241029B11648013409F0F2FDE4B2F5E763
:10327000144805E000240F4B53F8245025B9124898
:10328000BDE8F84009F0FEBB38462946324612F048
:1032900061FC013438B90548294644710B48BDE842
:1032A000F84009F0D5BDE4B2E5E700BF48130020BF
:1032B0006D6201084C600108A86F01088162010875
:1032C0003E6201081767010894620108AC620108B8
:1032D00038B50C680546204612F00CFC02462868FA
:1032E0002146BDE8384012F035BC00002DE9F04120
:1032F0005048002588B08DF8075009F0A9FD012637
:10330000A8462F46F4B22046214601220DF10703BC
:1033100009F048F8002846D11C2C0FD18DF8070081
:103320000D21012220460DF1070309F03BF89DF81D
:1033300007002A2837D01A2809D134E0202C16D1CA
:1033400020463221022202AB09F02CF858BB322071
:10335000013609F094F97F2ED4D11DB9364809F011
:1033600077FD64E03548294609F072FD5FE0772C6F
:1033700008D12046A02101220DF1070309F012F81F
:103380000746E3E7682CE2D18DF807000F21012200
:103390000DF10703204609F005F89DF80730D32BFF
:1033A000D5D14FF00108264809F052FD0F2C02D864
:1033B000244809F04DFD2448314609F049FD3C2CD4
:1033C00003A819D0014607D81E2C11D0202C11D0EB
:1033D0001C2C21D11D4921E0642C0FD003D8532C83
:1033E0001AD11B491AE0682C0AD0772C14D10EE0B0
:1033F000184913E0184911E018490FE018490DE089
:10340000B8F1000F01D0174908E0174906E00FB1E5
:10341000164903E0164901E00846164912F00CFB74
:103420000135154803A909F013FDEDB28FE708B087
:10343000BDE8F081BE62010860630108776301089E
:10344000906301089A660108E1620108E4620108DC
:1034500007630108EC620108F562010802630108D4
:103460000F630108166301081F6301082F63010839
:10347000366301083D6301084B6301087FB50446CC
:1034800012F038FB082824D100231E49E25C0868AA
:1034900085186E7806F00301022908BF203AE2542D
:1034A0000133082BF1D10025665D1748314612F033
:1034B00057F928B101356019314612F051F918B1A8
:1034C000124809F0DFFA1CE0082DEDD1204600F08B
:1034D00039FF0F4809F0D6FA00230E4A04A99818BC
:1034E00090F8C4208818084A995C0133082B00F82A
:1034F0000C1CF2D100208DF80C0001A9064809F03F
:10350000A7FC7FBD54000020B47E0108A76301081A
:10351000C763010848130020DD6101082DE9F0416F
:10352000054612F0E7FA044601F0DAF9064694B9C6
:103530002A4809F0A7FA2A4951F8241049B1012272
:1035400002FA04F2324202D0264809F081FC01342A
:10355000F1E7254821E028462449224612F0FAFAEC
:1035600058B9234809F08EFA224C54F8041F002958
:10357000EFD0214809F06CFCF7E72B782D2B04D114
:103580000135013C4FF0010801E04FF00008002632
:10359000134850F8267027B91848BDE8F04109F0E3
:1035A00071BA28463946224612F0D4FAA0B9012051
:1035B00000FA06F0B8F1000F03D001F089F91048C5
:1035C00002E000F0C1FF0F4809F05CFA0E483946EE
:1035D000BDE8F04109F03CBC0136D9E7DC630108E5
:1035E0000C6001083E62010817670108A86F010816
:1035F000EF630108086001085A63010806640108C6
:10360000206401082A640108DD61010810B50C4836
:1036100009F038FA002130220A4811F0E5FF0A4883
:1036200000240A4B04700A481C6009F02BFA0A2097
:1036300009F025F82046BDE8104009F0DBB800BFCE
:1036400033640108BA060020AC0C0020F806002004
:103650005764010808B5084809F014FA012000F081
:103660007BFF064809F00EFA0A2009F008F800204E
:10367000BDE8084009F0BEB8666401085964010855
:1036800008B50C2008F0FBFFFE2009F0E7F90C203C
:1036900008F0F5FF802009F0E1F90C20BDE80840B2
:1036A00008F0EDBF08B50C2008F0E9FFFE2009F096
:1036B000D5F90C2008F0E3FF012009F0CFF9BDE8AF
:1036C0000840FFF7DDBF000008B50C2008F0D7FF69
:1036D000FE2009F0C3F90C2008F0D1FFC02009F04A
:1036E000BDF90C2008F0CBFF094809F0B1FB0C2014
:1036F00008F0C5FFFE2009F0B1F90C2008F0BFFF6B
:10370000C02009F0ABF90C20BDE8084008F0B7BFB5
:103710008164010808B50C2008F0B1FFFE2009F013
:103720009DF90C2008F0ABFF082009F097F90C2058
:10373000BDE8084008F0A3BF08B5094809F0A2F9A0
:10374000002000F08BFE074809F09CF90A2008F0E1
:1037500096FF054B00201870BDE8084009F04AB8F4
:103760009164010857640108AC0C002038B5054687
:1037700012F0C0F9C0B268B904461249124801EB10
:103780008402D2F884202146013409F061FB0F2C19
:10379000F3D138BD284611F0DDFD0E2804460BDCC0
:1037A0002021284611F0DCFF11F0D4FD054B03EB7E
:1037B0008404C4F8840038BD04480F21BDE83840B3
:1037C00009F046BB481300209B640108A764010868
:1037D000931E222B88BF0A22031E10B50C4603DA63
:1037E0002D2001F8010B5842FFF766FB0021017004
:1037F000204610BD30B587B005460C4603A8002111
:103800000C2211F0F1FE28460021FDF75FFC20B1EB
:1038100028462949FDF796F903E028462649FDF791
:103820008FF92649FDF796FAFDF75AFC054685EA19
:10383000E570A0EBE5700A226946FFF7C9FF002D8D
:1038400001DB202300E02D2368468DF80C3012F0B8
:1038500051F9012807D130228DF80D208DF80E2066
:103860008DF80F200CE0022805D130218DF80D10C5
:103870008DF80E1004E0032802D130208DF80D00E1
:10388000694603A811F046FF03A812F033F9C51EDC
:10389000EDB22A4603A9204612F0CAF90023635567
:1038A0002046074911F036FF03A92046491911F0B7
:1038B00031FF204607B030BD6F12033A00007A4452
:1038C000D566010837B5037904460D46052B34D873
:1038D000DFE803F003060A0D1114816809782DE072
:1038E000806890F9001029E08368198826E08268D2
:1038F000B2F9001022E0816809681FE0806869461B
:103900000068FFF777FF0146114809F0A1FAF5B109
:10391000E068FDF7CBF96946FFF76CFF01460D48FB
:1039200009F096FA2069FDF7C1F96946FFF762FFD1
:103930000146084809F08CFA09E00021064809F020
:1039400087FA25B10548E168226909F081FA3EBD90
:103950004962010848620108D1640108CD64010888
:103960002DE9F047074612F0C5F8054620B10128B9
:1039700019D13B782A2B16D13B4809F083F8002453
:1039800018266643394F3A48F15909F061FAB819D7
:103990002946FFF797FF0134364809F073F8932C56
:1039A000EED1BDE8F08738463D2111F0D9FE002860
:1039B00057D0441C204611F0CDFC81462046FFF72D
:1039C0008FFA0025064618246C43DFF8A0A054F8AF
:1039D0000A80404612F08EF841460246384612F000
:1039E000B9F8002835D15444E068FDF75FF9014685
:1039F0003046FDF761FB002829D02069FDF756F914
:103A000001463046FDF74EFB002820D02279052ADA
:103A10000CBF30464846052A0FD8DFE802F0030302
:103A20000606090CA168087007E0A268108004E08F
:103A3000A368186001E0A168086041460E4809F0DB
:103A400007FA20460021BDE8F047FFF73BBF0B48CF
:103A500003E00135932DB6D10948BDE8F04709F0E0
:103A600011B8BDE8F08700BFD4640108EC7001080C
:103A7000C465010817670108E9640108F4640108D6
:103A8000196501082DE9F0435B4885B009F0E0F9BC
:103A90005A4C5B495B4809F0DBF95B48FFF766FE6F
:103AA00062795A4B511E5A4853F8211009F0D0F947
:103AB000D4F890010021FDF7E1FA00285AD1002541
:103AC000D4F8906100213046FDF7D8FA00284DD196
:103AD000013550482946D4F89491D4F89881D4F807
:103AE0009C7109F0B5F930460021FDF7D1FA10B10B
:103AF000494809F0ADF969463046FFF77BFE0146BB
:103B0000464809F0A5F948460021FDF7C1FA10B171
:103B1000414809F09DF969464846FFF76BFE0146AA
:103B20003E4809F095F940460021FDF7B1FA10B181
:103B3000394809F08DF969464046FFF75BFE0146BA
:103B4000364809F085F938460021FDF7A1FA10B191
:103B5000314809F07DF969463846FFF74BFE0146CA
:103B60002F4809F075F910340C2DA9D12D48691C86
:103B700009F06EF900F0B4FE2B4C064654F8041F11
:103B800019B12A4809F064F9F8E70D46284850F8B9
:103B9000251049B1012202FA05F2324202D025482D
:103BA00009F056F90135F1E7144B234ACE1896F87F
:103BB000C4408B5C04A801310519082905F8103CA4
:103BC000F2D100241D4869468DF8084009F040F9FB
:103BD000182565431A4E1B48A95909F039F90021E7
:103BE0007019FFF76FFE0134174808F04BFF932C54
:103BF000EED105B0BDE8F08336650108481300201A
:103C00007961010867650108536701084C60010884
:103C100077650108826501088F640108496201081F
:103C2000DD6101088A650108086001089C650108DA
:103C30000C600108AA650108B47E0108B765010897
:103C4000EC700108C0650108176701082DE9F04311
:103C500089B0044611F04EFFC6B2002E6FD17748EE
:103C600008F010FF764CD4F890010021FDF706FA19
:103C700058BB01367348314609F0EAF8D4F8900190
:103C800004A9FFF7B7FD01466F4809F0E1F8D4F841
:103C9000940104A9FFF7AEFD01466B4809F0D8F87E
:103CA000D4F8980104A9FFF7A5FD0146664809F07C
:103CB000CFF8D4F89C0104A9FFF79CFD01466348A6
:103CC00009F0C6F810340C2ECDD10025604CA84662
:103CD0002F464FF000091034B14514DA284654F845
:103CE000101CFCF72FFF54F80C1C05464046FCF74F
:103CF00029FF54F8081C80463846FCF723FF09F1D9
:103D000001090746E7E753480195CDF80880039776
:103D100008F0B8FE002401ABE158043421F0004063
:103D20004D49FDF7D3F94D4B4D4A002814BF1046BD
:103D3000184608F0A7FE0C2CEDD14A4866E0204654
:103D40004949042211F006FF0546204605BB202103
:103D500011F006FD00286ED0461C304611F0CAFE58
:103D60002C460746414850F824500DB940484DE0D4
:103D700030462946FAB211F0EDFE38B9204603F07C
:103D800049FC3C48294609F063F84CE00134E9E776
:103D900011F0E0FA461E0B2E074648DC2046202193
:103DA00011F0DEFC054650B1451C2846FFF798F897
:103DB000234B012403EB0717C7F8800100E00446FA
:103DC0002846202111F0CCFC054648B1451C284668
:103DD000FFF786F81A49013401EB0612C2F8940184
:103DE0002846202111F0BCFC054648B1451C284658
:103DF000FFF776F8124B013403EB0611C1F8980176
:103E00002846202111F0ACFC18B91B4808F03AFEF6
:103E100011E00130FFF764F8094A032C02EB0616A3
:103E2000C6F89C01F1D11548FFF710FF03E01448D4
:103E30000C2109F00DF809B0BDE8F083D265010846
:103E400048130020FD65010803660108DD610108D3
:103E5000DC140020076601080AD7233CCE65010860
:103E6000CA65010817670108166601084C60010859
:103E7000946201081B6601082E6601085367010859
:103E800068660108F8B5A84B1D78002D40F07E81CA
:103E90004FF4165007F0D3F9FFF73CFCFE2008F072
:103EA000DDFD0C2008F0EBFB0C2008F0D7FD0C200A
:103EB00008F0E5FB7C2008F0D1FD0C2008F0DFFBCA
:103EC0009D2008F0CBFDFFF7EDFB984808F0C0FF00
:103ED000FFF7FAFB964808F0BBFF4FF4FA6008F0D2
:103EE000CEFB944EFFF7DEFB934C944A94489549E1
:103EF000157005700D7025703580FFF7C1FB338894
:103F000018246343904F9148F95808F0A1FFFFF738
:103F1000DBFB3088294604FB00742046FFF7D2FC07
:103F2000874D2978002940F0E38008F07FFB0546A3
:103F300007F00EFE08B104F0CFF9854B1868291A76
:103F40000029EDDB05F59C422032824D1A60EB68BA
:103F500083F01000E860E968082081F00802EA6058
:103F600000F0E8FA08B904F0B7F904F003FA7A4D62
:103F70007A49B5F8DE30B1F90600984216DAB1F99F
:103F80000400B5F8E020904206DDB1F902509542F8
:103F900002DD6B4901250D70984207DA6F48B0F9D0
:103FA0000250954202DD664A0221117064496C4D4F
:103FB0000A78002028703ABB6848B0F9021099428C
:103FC00001DA01222A702D783DB96348B0F8E0206B
:103FD000914202DD624D022129706148027832B9B6
:103FE0005E4DB5F90010994201DA032303700078A1
:103FF00050B95A4A5849B2F90050B1F8E0309D42E0
:1040000002DD574804220270554D564B2978187826
:104010004A4A8842484D0CD12878431CD8B26328BC
:10402000287003D963232B70082500E01125157033
:1040300002E0002313702B70424D4A4A3F4B11702F
:1040400029781B78481CC2B245499A424FF00000BB
:1040500038BF08702A7028BF28700D786A1E032A9E
:104060003FF65EAFDFE802F002112F37314A1388C6
:104070005E1CB3B2344D932B08BF0023182404FBFD
:104080000351087D0028F3D00DE02A4E3388002B21
:1040900008BF93235C1E2C4DA3B2182404FB0351CC
:1040A000087D0028F3D0234E3380FFF7FBFA3388D6
:1040B00026486343E95808F0CBFEFFF705FB32883A
:1040C00004FB025411E0082B204614BF4FF0FF31CF
:1040D0006FF0040105E0082B204601D0012100E02B
:1040E0000521FEF7D5FFFFF7EFFA2046002115E77F
:1040F0004FF4FA7008F0C3FAFFF7D4FA1A4808F040
:10410000A7FEFFF7E1FA2A78012A31D0022A3DD131
:10411000164808F09DFE4FF47A7008F0B0FA0020BF
:1041200000F09CF92BE000BFAC0C00209066010869
:104130009C660108EC060020F5060020B806002069
:10414000EE060020B9060020EC7001084962010863
:10415000F0060020000C014048130020D816002073
:10416000F4060020EA060020AA660108C6660108D7
:10417000074808F06DFE4FF47A7008F080FAFFF7F8
:10418000C9FA0020BDE8F84008F034BBF8BD00BF14
:10419000BA660108F0B55E4B87B01A783AB90120CB
:1041A00018705C4808F06EFC5B4808F06BFC08F087
:1041B0002BFC002800F0AA8008F040FC0928574991
:1041C00001D03F2846D100250F68554C2E462FB10F
:1041D000544821683A4611F0BDFC10B9254606B98D
:1041E000264651480C348442F1D38EB130682C6895
:1041F0003B46C15CE25C8A4208D14A491AB9202098
:10420000C854013302E0CA540133F2E7434C23603F
:10421000424A116819B1AE4201D13C4610E0434810
:1042200008F030FCAE4207D856F80C0B08F02AFC18
:10423000092008F013FCF5E7374808F023FC0024B8
:10424000364B18688442B2D2364A105D08F006FC3C
:104250000134F5E70B68EBB9042803D13148FFF7C7
:10426000D5F953E00C2801D131489BE77F2802D1D2
:104270009DE72F2B9BD81F2899D97E2897D80BB95B
:10428000202894D02749254AC8540133136008F0E8
:10429000E5FB8CE70C28E7D00A2801D00D282CD1AB
:1042A0001E4D244808F0EEFB1E4C286822490023CE
:1042B00023540493009103A819490E220C2303945C
:1042C00011F04CF8054638B1006811F013FC421C9F
:1042D000AB68A018984702E0184808F0D3FB00210B
:1042E0003022104811F080F9094A0C491378002057
:1042F0000860002B7FF458AF08E07F28B9D1581E22
:10430000084A0860002111540D484EE707B0F0BD7F
:10431000AC0C0020D76601081A670108F8060020D7
:1043200098600108BA060020406101081F67010873
:104330002467010817670108D13200082F670108B8
:104340005067010870B50546441E14F8011F61B19D
:10435000064E304611F004FA0028F6D0861B0448B9
:10436000631B811981F8C430EFE770BDB47E01088A
:10437000481300202DE9F047344C354920464FF4CE
:10438000157211F083F894F82E5094F82D00002344
:1043900003FB03F11939694301F6C4165E43464332
:1043A00040F6C4122B4F96FBF2F127F8131001339D
:1043B000062BEDD1254C0A2794F82F0094F8306095
:1043C0004743B4F8EC50B4F8EE90C0F164084242B0
:1043D0005FFA88F8C6F1640CC5EB090994B20023B2
:1043E00022B2002A04DCB8BF014602DB012100E052
:1043F000414602FB02FA49430AFB06FE9EFBF1F12D
:10440000614451434FF00A0A91FBFAF2B9180AB21B
:1044100002FB09F14FF47A7291FBF2F10E4A69182E
:10442000995202335444162BA4B2D9D10748B0F89C
:104430001211B0F81421914204D3B0F816218A4227
:1044400028BF0A46A0F81221BDE8F08748130020D3
:1044500000FC01080417002030160020214A38B55E
:1044600022231370EF2382F85032054600234FF4C5
:104470001570BE215080117182F851321A461949C7
:10448000585C0133B3F5157F82EA0002F7D181F859
:1044900051220DF089F834200DF09AF812480DF0F1
:1044A000EDF804280AD00DF08BF8FFF763FF95B103
:1044B0000F201421012203F0DBFB0CE00A4C0B4A15
:1044C0002046A1580DF0B0F80428ECD10849043476
:1044D0008C42F4D1E7E700F0C9FBBDE8384000F0BA
:1044E00033BD00BF4813002000FC01084817FE1729
:1044F00054FE0108034B196808420CBF002001203C
:10450000704700BFFC060020024B1A681043186079
:10451000704700BFFC060020024B1A6822EA000028
:1045200018607047FC060020014B1868704700BFF8
:10453000FC060020034B996808420CBF00200120B4
:10454000704700BF48130020024B9A6810439860E0
:10455000704700BF481300202DE9F04FCF4B87B0C4
:104560001A78222A14D15988B1F5157F10D11A79F9
:10457000BE2A0DD193F85012EF2909D1002213F869
:10458000011B4A40C6498B42F9D1002A00F07F81C5
:10459000C44C03AD206861684FF4157203C5207ADE
:1045A000C14C00212870204611F01EF82226032756
:1045B000012026706771FFF7C7FF4FF48040FFF7B7
:1045C000C3FF4FF48060FFF7BFFF46222D216274C6
:1045D000A27503AAE17684F8281003CAC4F856002D
:1045E00010782823232532270A264FF014094FF08C
:1045F0001E084FF0640EE3732374E5745023002506
:10460000C4F85A1084F85E006B212A2084F812E066
:1046100084F8263084F82930E37584F82DE084F896
:104620002E3040F6B83284F8199084F8238084F84C
:104630001A9084F8248084F81C80657784F82750C9
:104640002775A57784F8159084F81F9084F820606A
:1046500084F82A7084F82F70A4F84E10A4F8620031
:104660009248A281924A20679248E266924AA067E5
:1046700092486267924A84F83831A066202321204C
:104680004FF4C871E26784F881306E222B2384F8DE
:10469000C2004FF0020A8B48A4F8641084F8C020CE
:1046A00084F8C13084F8505084F85FA084F860E04A
:1046B00084F84C61A57384F8805084F8C35001914C
:1046C000FFF740FE052184F8DA104FF00F0B40F29F
:1046D0004C43042184F8D61084F8D76084F8D8B00D
:1046E00084F8D970A4F8DE3084F8E2504FF4876380
:1046F00084F8F05040F26C70A4F8EC30019BA4F800
:10470000E0004FF47A7140F29E7040F2DC52A4F85F
:10471000EE00A4F8F2104FF47F704FF4FA61A4F8A1
:10472000F4304FF0FF3C0123A4F8DC2084F8103172
:10473000A4F81221A4F81401A4F81611A4F8180181
:10474000A4F81A21A4F81C11A4F81E01A4F8202131
:10475000A4F8221184F8243184F8263184F8273112
:10476000A4F8E450A4F8F67084F825C184F8286110
:1047700084F8296184F82A31A4F82C01A4F83201C4
:104780005148A4F83021C4F83C010620A4F8362191
:1047900084F84D014FF416429620A4F82E11A4F887
:1047A0003411C4F85C214FF07E51484AA4F85001FE
:1047B000A4F86A014FF4AF70C4F84011A4F86C017A
:1047C00019214FF49660C4F8442184F8581100224E
:1047D000C821A4F8E8004FF4E13084F8393184F8B6
:1047E000683184F86731C4F8482184F84E51A4F840
:1047F00052A184F859B1C4F85421A4F86011A4F866
:104800006E9184F8625184F8635184F8648184F86D
:10481000657184F8665184F8E66084F8E71084F8DE
:10482000EA50C4F8700140F21450C4F87C014FF40F
:10483000E16084F8753184F87631C4F8800108238A
:10484000643084F8EB5084F88E5184F88F5184F8EA
:10485000745184F8773184F87851C4F88401A4F84D
:104860007A3184F8885184F88951A4F88A1184F83F
:104870008C5184F88D8161191035C02DC1F89021BB
:10488000F9D1002007B0BDE8F04FFFF7E7BD0028E1
:104890007FF47EAE07B0BDE8F08F00BF00FC0108DA
:1048A00054FE0108A85E010848130020D7A3703FFA
:1048B000F6287C3F6666663F9A99993E0314140079
:1048C0003333333FBD7E0108EC51383FCDCC4C3FF4
:1048D000024B9A6822EA0000986070474813002053
:1048E000014B9868704700BF48130020000000008B
:1048F000174B10B51868FCF7D9F91649FCF7DEFA22
:10490000FBF794FD10A3D3E90023FBF7E3FD00229E
:10491000114BFBF709FFFCF7BFF820F000400DF04A
:1049200067FC00210446FCF7A9FB0C4908B90C60A0
:1049300001E00B4A0A600B4C0B4809682060FCF749
:10494000BDFA606010BD00BF182D4454FB21094022
:104950004C0700208096184B008066401C08002001
:104960007DC3E43A84080020B04A663FAFF300807C
:1049700010B5044614F8013B63B10B4890F83911A7
:10498000012902D1062007F07AFE14F8010C08F084
:10499000D1F8EFE708F0E8F80028FBD01E20BDE8CA
:1049A000104007F06CBE00BF4813002010B504464D
:1049B000002003460C49CA5CA2B12E2A05D101335E
:1049C000DBB27CB1C91800220A55074A0A21D25C21
:1049D0004843A2F13001092901D830388018013349
:1049E000DBB2E7E710BD00BF74080020154B70B5BF
:1049F00018680021FCF742FB08B1FFF779FF124964
:104A00004868D0B10E68C6B1104A5368ABB115689A
:104A10009DB1C01AFCF74AF90D49FCF79BF9094A08
:104A20000C4C1168FCF796F96060701BFCF73EF9BE
:104A30000749FCF78FF9206070BD064900204860E7
:104A4000086070BD1C080020C8160020C016002099
:104A5000014A8E3F940800202DE9F843144B0C4680
:104A60001D688F680646134928469046FCF76AF889
:104A700001462846FCF722FA616881463046FCF779
:104A80005FF82946FCF71AFA3946FCF759F801464F
:104A90004846FCF75FF901463846FCF753F8666074
:104AA0002061A060D8F80810FCF754F9BDE8F8833D
:104AB000140800200361023C2DE9F0411C46036804
:104AC00006460D461746002B4FD02A480268002A9A
:104AD0004BD00968002948D04368002B45D0264AAE
:104AE00000211068FCF7CAFA08B1FFF701FFDFF8F0
:104AF00084803668D8F80010701AFCF7D7F8D8F818
:104B000004302D680646E81AFCF7D0F81A4A1168F6
:104B1000FCF720F9314605463046FCF71BF92946DB
:104B200080462846FCF716F901464046FCF70AF88D
:104B30000DF0FCFD1149FCF70DF9FCF7F7FA2946D9
:104B4000386006F100400DF0EFFD0D49FCF702F969
:104B50000C49FBF7F7FFFCF7C3FA0028BCBF00F5D0
:104B60000C40A0302060BDE8F0810020386020605B
:104B7000BDE8F081C01600201C080020014A8E3FCD
:104B8000A00CB34500A00C46F8B50368284C294D8D
:104B900023600868284E6060FFF7AAFE211D2046AA
:104BA0002B463246FFF788FFFFF720FF2968234A8C
:104BB000234B244D11601960B5F96A01FCF776F8B2
:104BC000214C22492060224B224C002008800246C2
:104BD00018602080204890F90010022905D0032990
:104BE00006D0012923D11D4B00E01D4B1A70F8BDE2
:104BF0003068FCF757F80646B5F96C01FCF756F833
:104C000001463046FCF75AF91649FCF7A3F8164F4F
:104C100000213F680546FCF731FA40B97842FCF7BD
:104C200045F82946FCF74AF9FCF75AFA2080F8BD06
:104C3000C816002054080020E8070020DC070020E8
:104C40006008002048130020900800206207002020
:104C50000C16002010160020610A002058080020C1
:104C6000081600209A99993FB815002070B5314C6C
:104C7000314DE07CFCF716F83049FCF71FF928604D
:104C8000607FFCF70FF82D49FCF718F9686094F87D
:104C90002700FCF707F82A49FCF710F9294E94F889
:104CA0004E31A860EE60207D274D93B9FBF7FAFFE7
:104CB0002649FCF703F92860A07FFBF7F3FF2049A2
:104CC000FCF7FCF8686094F82800FBF7EBFF1B4941
:104CD00011E0FBF7E7FF1E49FCF7F0F82860A07F22
:104CE000FBF7E0FF1549FCF7E9F8686094F8280045
:104CF000FBF7D8FF1249FCF7E1F8EE60A8600D4D14
:104D0000144C687DFBF7CEFF1149FCF7D7F8206003
:104D1000E87FFBF7C7FF0949FCF7D0F8606095F81A
:104D20002900FBF7BFFF0649FCF7C8F8E660A06062
:104D300070BD00BF48130020A80700200000C84233
:104D400000007A440000FA44040800200000A0405B
:104D5000000020416C070020F8B50446FFF786FFED
:104D6000524B00224FF4FA601A7007F088FC07F0EB
:104D70005DFC4F4E86194D48057807461DB907F072
:104D800055FCB04206D9397800297DD01020FFF7B4
:104D9000BBFB79E0474920462A4607F07DFE46499D
:104DA00091F83971012F03D069D3032F67D831E00F
:104DB000424BE85807F0BCFEC82007F060FCB4F591
:104DC000164F0DD004D8B4F5964F0ED13C480AE0EA
:104DD000B4F5614F06D0B4F5E13F06D1394802E0A1
:104DE000394800E03948FFF7C3FD0435142DDFD101
:104DF000204607F09DFEC82007F041FC0025062054
:104E000007F03DFC3248405D013507F093FEB82DB8
:104E1000F5D134E0294AA85807F08AFEC82007F0E7
:104E20002EFC04352B48FFF7A3FD142DF2D14FF4CF
:104E3000614007F07DFEC82007F021FC2648FFF7FF
:104E400097FDC82007F01BFC2448FFF791FDC82000
:104E500007F015FC2248FFF78BFDC82007F00FFC78
:104E60002048FFF785FDC82007F009FC1E48FFF722
:104E70007FFDC82007F003FC1C48FFF779FD4FF4C5
:104E80007A7007F0FCFB76E70B4B642093F858210F
:104E900017495043088093F85901FBF703FF154960
:104EA000FBF758FF144B1860F8BD00BF7A0A0020CA
:104EB00080969800695D000848130020C87E0108AC
:104EC000947F0108FA7F0108B67F0108D87F0108A6
:104ED000DC7E01081D800108318001084A8001083C
:104EE0005C8001086C8001087C8001088C800108CE
:104EF000E40700200AD7233CE007002010B50C4C43
:104F0000E37A9BB10B48017804290FD9FFF7F0FC35
:104F1000094A0A4B1068516818605960084B1868B4
:104F2000FCF7DEF8074A10800120207310BD00BF97
:104F300012160020D31600204C070020A4160020D3
:104F400010170020D607002038B50022104615495A
:104F5000002353501449154D535014214143144C10
:104F60005351144D13516B506C18134D6360A36073
:104F70006B506C18114D01306360A36004326C18E3
:104F800002286B506360A360E1D10D4BB3F96A0155
:104F9000FBF78CFE0B490C4B08600C490020188075
:104FA000087038BD94080020481600202416002000
:104FB000A40B0020800700202407002024080020E4
:104FC00048130020900800206207002008160020E7
:104FD000044B1A7A22B9D879003018BF01207047E3
:104FE000012070471216002010B50B490446FCF74B
:104FF0006DF820B120460949FBF7A2FDF5E72046F0
:105000000749FCF745F828B120460449FBF79AFD0B
:105010000446F4E7204610BD00A08C4600A00C47D3
:1050200000A08CC680EAE073A3EBE0738B4206DB42
:105030000028CCBFC1EB0000081800B27047002068
:1050400070470000000000002DE9F04FA34A8BB02C
:10505000D37A002B00F0C685A1480178042940F2DC
:10506000C185547804B91473157B15B90CB1FFF7D9
:1050700045FF9C4E4FF07E5134682046FCF708F8FF
:1050800008B94FF07E54984A984B14601868002174
:10509000FBF7F4FF08B1FFF72BFC954D95482E6800
:1050A00001688C1B29606DD0934B0022B4F5C87F3A
:1050B0001A7067D2A4F15100012726281F7007D962
:1050C0002046FBF7EFFD01468C48FBF7F7FE00E0BA
:1050D0008B48A4F1B501262998BF8A48E73C262CC5
:1050E00098BF4FF081408849FBF734FE874C884ECB
:1050F0006368D6F804A00546C3EB0A00FBF7D6FDAB
:105100002946FBF727FE794A1168FBF723FE37682B
:1051100083462068381AFBF7C9FD2946FBF71AFEBB
:105120007C498146D1F83C61276031464FF07E5082
:10513000FBF706FD784D074629683046FBF70AFE67
:10514000394680464846FBF705FE01464046FBF7D8
:10515000F9FCDFF8D0814FF0000969682860C4F8D5
:1051600004A0C8F800903046FBF7F4FD3946044629
:105170005846FBF7EFFD01462046FBF7E3FCC8F875
:105180000490686007F06AFA5A4B5B491A68801A03
:10519000B0F5FA7F01D900260E700D78002D50D0A1
:1051A0005C4F4FF07E50D7F844814E4E4146FBF79E
:1051B000C7FCD6F80090824600245748574D275820
:1051C00061594046FBF7C6FD514606463846FBF797
:1051D000C1FD01463046FBF7B5FC4946285138462B
:1051E000FBF7B8FD4E4B4F4EE158FBF7B3FDA1590D
:1051F000FBF7A8FC4649A05107466058FBF756FD4F
:105200003946FBF79FFCFBF76BFF474A105104340C
:10521000082CD2D128686D680146FBF79BFD294612
:1052200004462846FBF796FD01462046FBF78AFC1C
:10523000FBF7FCF80DF0D4F9FBF70EFC3B4B1880A4
:1052400016E03A4CFFF780FE2580314D364E2B6834
:105250002E4C32483049334A6D6833602360002356
:1052600003600B6013607560656043604B60536062
:105270002A4D2F4C2868FBF733FF20806868FBF726
:105280002FFF164A60802948137B0188A180294C92
:105290001BB9294A238013800FE0284806AA011D64
:1052A00007ABFFF709FC06996420079BB1FBF0F2FE
:1052B000214993FBF0F022800880FFF789FE002847
:1052C00000F0CF841E4D95F90050012D3AD0C0F268
:1052D000C884032D00F3C584BCE200BF1216002071
:1052E000D316002084090020140800201C08002088
:1052F0000407002018080020DC08002000007A4481
:10530000000020410000A040014A8E3F6C080020B0
:105310004C070020481300209C1500201007002097
:105320008408002008070020C01600205C08002028
:1053300052160020A0160020AC160020A416002053
:10534000610A0020894E0021D6F854412046FBF71F
:1053500095FE002878D1864E86483570864D0168C6
:105360002F688F42C0F08880844A07F5C33356887F
:10537000A03303601EB9B2F900503DB97CE037B2EA
:1053800017F5E17F06DBB7F5E17F05DC30B2FBF70F
:105390008DFC02E07A4800E07A482146FBF7DAFC0F
:1053A00083467648B0F9000010F5E17F05DBB0F5E3
:1053B000E17F04DCFBF77AFC02E0714800E0714811
:1053C0002146FBF7C7FC704C70492768704C0646B5
:1053D00060680D68FBF76AFC394682463046FBF789
:1053E000B9FC294681465846FBF7B4FC01464846BD
:1053F000DFF8BC91FBF7A6FBD9F80410FBF7AAFC79
:1054000001465046FBF79EFBFBF76AFE6060206892
:10541000FBF74CFC394680465846FBF79BFC294677
:1054200007463046FBF796FC01463846FBF788FBFB
:10543000D9F80010FBF78EFC01464046FBF782FBD3
:10544000FBF74EFE206017E096F8DA704B4D3946B8
:10545000B5F90200FFF7E6FD002840F0C683B5F974
:1054600000003946FFF7DEFD002840F0BE83404DC6
:105470002F78002F00F0C383FFF7B8FA3B4B93F867
:105480004E61002E40F02181394DB1462C780394B5
:105490003446404F0021E7593846FBF7EFFD00281E
:1054A00045D1039A002A42D1304AB2F85201FBF7A3
:1054B000F9FB3946FBF702FD00210546FBF706FE26
:1054C00010B905F1004000E028460DF02FF93249EF
:1054D000D1F800B05946FBF7DBFDE8B928460021BA
:1054E000FBF7F4FD10B905F1004000E028460DF08F
:1054F0001DF94FF07E51FBF7E9FD58B92846002110
:10550000FBF7E4FD08B905F1004528460DF00EF95A
:10551000834601E04FF07E5B2048B0F90000FBF7C6
:10552000C5FB01465846FBF715FC80460EE01B49BB
:10553000B1F90000FBF7BAFB8046039830B1184B75
:10554000184DE0582968FBF705FC00E000203946BB
:10555000FBF7F6FA14490546FBF79AFD50BB2846BF
:105560001249FBF7B3FD30B3104D24E0481300207F
:10557000580800204C0800208C0A002064160020E7
:105580000000E1C30000E143601600200416002083
:10559000C816002010070020E0070020E4070020C4
:1055A00094080020A807002000007AC400007A4474
:1055B00084080020984D994A994B1168E550284677
:1055C0000192FBF7C7FB4FF0140A0AFB09FA954951
:1055D000019B049001EB0A00059059682846FBF7EF
:1055E000B9FB914A1168FBF7B5FB8E4951F80A10D7
:1055F000FBF7A8FA019B8346DA6802F1004C61468A
:10560000CDF808C00192FBF743FD0199DDF808C011
:1056100030B95846FBF75AFD019B10B19B4600E09C
:10562000E3468048594640F80AB00498FBF78AFAE6
:105630007E4A059910512846784AFFF70DFA002155
:1056400005463846FBF742FD4FF0010A20B13846C7
:105650007749FBF71DFD03E038467649FBF736FD39
:1056600000B982465FFA8AF75FB928467249FBF7AC
:105670000FFD40B928467149FBF728FD20B16F4D59
:1056800002E0002500E06C4D684F2846E159FBF729
:1056900059FA08F1004A51460546FBF7F9FC30B9C2
:1056A00028464146FBF712FD10B1454600E055463D
:1056B0005C49634B70583D510434F0501436082C4B
:1056C00009F101097FF4E5AECBE200252C462E4618
:1056D0005C4A5D4854F802805C4927580968404696
:1056E000FBF738FB3946FBF72BFADFF830A14C4BC0
:1056F000DAF80010E0508346FBF72CFB4FF0140C57
:105700000CFB06F9474A039002EB0900049041465E
:105710005846FBF717FADAF80410FBF71BFB42496F
:105720000968FBF717FB3F4B53F80910FBF70AFA20
:10573000DAF80CA083460AF1004C6146CDF808C0A7
:10574000FBF7A6FCDDF808C030B958465146FBF718
:10575000BDFC10B1D34600E0E346324A039842F85C
:1057600009B05946FBF7EEF930492C4A085140463A
:105770000499FFF771F930498046FBF789FC38B985
:1057800040462E49FBF7A2FC20B1DFF8B08001E0D3
:10579000DFF8A48038460021FBF798FC4FF00109A0
:1057A00020B138462249FBF773FC03E03846214913
:1057B000FBF78CFC00B981465FFA89F70FB14FF017
:1057C00000081A4B4046E158FBF7BCF90746204851
:1057D000B0F90090C9F10000FBF768FA8046414635
:1057E0003846FBF755FC40B94846FBF75FFA804660
:1057F00041463846FBF76AFC00B1474609490B4A67
:1058000068580F4B0136A750E85004341435022E67
:105810007FF45EAF25E200BF00007AC404080020D8
:1058200058070020240700201408002048160020F4
:1058300000004842000048C20000FAC40000FA44D8
:10584000240800209408002010070020A80700204A
:10585000E40700208448854F854E864C011D3A465A
:10586000854BFFF729F9FFF7C1F8B6F86C6120788E
:1058700033B23A6810B90321B2FBF1F27F4D934283
:1058800038BF1A4694B22F6820B2FBF70FFA394698
:10589000FBF71CFC60B17A4C7A492068FBF75AFA96
:1058A00001463846FBF74EF92860FBF719FC84B235
:1058B0006F4821B2B0F86A910FFA89F3994205DB7B
:1058C00036B2B142A8BF31461FFA81F96A4A6E4D1D
:1058D00014682F680126E51B2846FBF7E7F9FFF758
:1058E00083FB00210746FBF7F1FB20B138466749EF
:1058F000FBF7CEFB03E038466549FBF7E7FB00B951
:105900000646F0B2002838D02846FAF77DFD52A3AB
:10591000D3E90023FAF7DEFD51A3D3E90023FAF718
:1059200003FFFBF7B9F80CF097FC504B05461868DD
:10593000FBF7B8F901462846FBF70CFAFBF7D0FB5A
:10594000544E554A07B2B742108004DB40F6B836D1
:10595000B742B8BF3E46A71948F6A044A74203DDA8
:10596000A7F50C47A03FF7E7002F03DA07F50C4730
:10597000A037F9E749490F6001E048490C60474802
:10598000002607683446C7F50C502830FAF73CFD6E
:1059900031A3D3E90023FAF79DFD31A3D3E9002316
:1059A000FAF7C2FEFBF778F805460CF021FC0990E7
:1059B00028460CF051FCB04608900FFA89F0FBF72E
:1059C00075F908ABE158FBF7C5F9354AA158FBF763
:1059D000B7F834490546FBF75BFB30B92846324936
:1059E000FBF774FB10B1304D00E02E4D2F4B3049CA
:1059F0002846655019680193FBF7ACF94FF0140A7B
:105A00000AFB08FA039001992A48496800EB0A0248
:105A100028460492FBF79EF9194B1968FBF79AF98F
:105A2000244A52F80A10FBF78DF801998346CB6897
:105A300003F1004C6146CDF808C00193FBF728FB49
:105A4000019ADDF808C0B8BB11465846FBF73EFB8B
:105A5000019990B38B4630E0182D4454FB21094046
:105A6000000000000094D140C8160020E807002084
:105A70004813002008160020540800209008002039
:105A8000140800200000C8426008002000A08C45D7
:105A900000A08CC548F4FFFF62070020DC0700204F
:105AA0001007002000007AC400007A446C07002030
:105AB0005807002024080020E3466B48594640F868
:105AC0000AB00398FBF73EF8684A824604992846D4
:105AD000FEF7C2FF01465046FBF734F8644B05461B
