:020000040800F2
:1000000000500020CD6100087D62000855AD000859
:100010007D6200087D6200087D620008000000002B
:100020000000000000000000000000007D620008E9
:100030007D620008000000007D620008BD04010828
:100040007D6200087D6200087D6200087D62000814
:100050007D6200087D6200087D620008A14F0008F3
:100060007D6200087D6200087D6200087D620008F4
:100070007D6200087D620008410701087D6200087A
:100080007D6200087D6200087D6200087D620008D4
:100090007D6200087D6200087D620008A54F0008AF
:1000A0007D6200087D6200087D6200080D5F000827
:1000B000655F0008715F00087D5F0008E5000108CA
:1000C000AD040108E9000108A90401087D620008E7
:1000D0007D6200087D620008250A01087D62000833
:1000E000B14A00087D6200087D620008000000003F
:1000F0000000000000000000000000000000000000
:0C01000000000000000000005FF808F1A3
:1001100008B540F24010074BC2F200001B1A062B34
:1001200000D808BD40F20003C0F20003002BF8D055
:100130009847F6E74301002008B540F2401040F22E
:100140004013C2F20000C2F200031B1A9B1003EB23
:10015000D373591000D108BD40F20002C0F2000272
:10016000002AF8D09047F6E710B540F24014C2F2EA
:100170000004237873B9FFF7CBFF40F20003C0F20D
:1001800000032BB145F28C40C0F60100AFF30080B4
:100190000123237010BD00BF08B540F20003C0F278
:1001A00000034BB145F28C4040F24411C0F601000F
:1001B000C2F20001AFF3008040F24010C2F2000032
:1001C00003682BB140F20003C0F2000303B198476B
:1001D000BDE80840FFF7B0BF40F6D87320F00042FA
:1001E000C3F6497301469A4200B583B015DDB2F1FA
:1001F000FF4F03DB03F04CFA03B000BD694601F08A
:100200008BFB00F003020098012A10D0022A08D0CC
:100210009AB9019901F07AFDEEE7002101F076FD2F
:10022000EAE7019901F072FD00F10040E4E701996D
:1002300002F074F900F10040DEE70122019902F0BA
:100240006DF9D9E740F6D87320F00042C3F6497340
:1002500001469A4200B583B016DDB2F1FF4F03DBD1
:1002600003F016FA03B000BD694601F055FB00F03B
:100270000300012815D002280BD0B8B9009801223C
:10028000019902F04BF9EDE70021002202F046F956
:10029000E8E700980122019902F040F900F10040DE
:1002A000E0E70098019901F031FDDBE70098019942
:1002B00001F02CFD00F10040D4E700BF2DE9F04F24
:1002C0008BB01F4680468946164600F08DFA40F2F4
:1002D000000BC2F2000B9BF90030013304460D46BF
:1002E00004D03046394602F0A3F920B92046294609
:1002F0000BB0BDE8F08F4046494602F099F98246BE
:1003000020BB304639460022002303F0F3F80028D2
:10031000ECD09BF9001045F26C430122C0F60103BA
:100320008DE80C0000220023B1F1FF3F18BF022925
:10033000C3F6F073CDF820A0CDE90289CDE90467BA
:10034000CDE906232DD1DDE90645CFE740464946F4
:100350000022002303F0CEF800282FD03046394683
:100360000022002303F0C6F8002861D09BF900208A
:1003700045F26C43C0F60103012100208DE80A001C
:10038000CDE90289002300210893CDE90467CDE976
:10039000060132B100230022C3F6F073CDE9062333
:1003A000D1E7684602F06CF9002870D0089B002B5A
:1003B000C9D003F0B1FC089B0360C4E7204629467E
:1003C00002F030F98246002866D0204629460022F5
:1003D000002303F08FF8002888D04046494602F0F9
:1003E00021F9002882D03046394602F01BF9002856
:1003F0003FF47CAF9BF9002045F26C430421C0F62A
:10040000010300208DE80A0000230021022A08933E
:10041000CDE90289CDE90467CDE9060169D06846D6
:1004200002F02EF9002864D0089B002B8BD0C0E787
:100430003046394602F0F6F800283FF457AF304610
:1004400039460022002303F05FF800283FF44EAF46
:100450009BF8001045F26C43C0F601030122CDE980
:1004600002898DE80C000023CDE90467002208937F
:100470000023002936D1CDE90623684602F000F9B1
:100480000028D1D103F048FC21230360CCE703F01E
:1004900043FC2123036089E74046494602F0C2F845
:1004A000002892D03046394602F0BCF800288CD0A3
:1004B0002046294602F0BCF800BB9BF8004045F2FC
:1004C0006C43C0F601030122089000218DE80C0066
:1004D0000020CDE90289CDE90467002C63D1CDE984
:1004E0000601CAE70229CFF6F073CDE90623C9D089
:1004F000C3E703F011FC2223036095E79BF900108A
:1005000045F26C420320C0F60102CDF820A08DE830
:1005100005004046CDE90289CDE90467E9B94FF607
:10052000FF754946002200234FF06044C4F2EF7586
:10053000CDE9064502F0E8FF00283ED19BF90030E6
:10054000022B05D0684602F09BF800287FF42EAFFE
:1005500003F0E2FB2223036028E70025494600223E
:1005600000230024C7F6F075CDE9064502F0CCFF64
:100570000028E3D000230022C3F6E073304639465A
:1005800002F050FD04460D4602F082F822462B464A
:1005900002F0B0FF0028D1D100230022CFF6F07383
:1005A000CDE90623CAE702460B4602F065FE022C9F
:1005B000CDE906013FF466AF5FE700230022C3F6F2
:1005C000E0733046394602F02DFD04460D4602F038
:1005D0005FF822462B4602F08DFF0028AED14FF681
:1005E000FF734FF06042CCF2EF73CDE90623A5E72D
:1005F0002DE9F0478AB004460D4600F095FE40F222
:10060000000AC2F2000A9AF90030013306460F468A
:100610000FD02046294602F00BF850B14FF00008E9
:100620004FF000092046294642464B4602F06CFF37
:1006300020B9304639460AB0BDE8F0879AF8006024
:1006400045F27043C0F601030122CDE904458DE86F
:100650000C000023CDE90245089356B9CDE906897F
:10066000684602F00DF870B1089B8BB9DDE90667AA
:10067000DFE74046494642464B4602F0FDFD022E6A
:10068000CDE90601ECD103F047FB21230360EBE742
:1006900003F042FB089B0360E8E700BF70B58AB037
:1006A000064600F007FF40F20004C2F2000494F98D
:1006B00000300133054603D0304602F06FFA10B91E
:1006C00028460AB070BD304602F01CFA4FF07E5149
:1006D00003F0A4FA0028F3D045F278433046C0F680
:1006E00001030193012300930023089302F046FCC9
:1006F000024645F27440C0F601000B46CDE90423E2
:10070000CDE9022301F0BEFF94F90030022BCDE9C0
:1007100006010BD0684601F0B3FF38B1089B53B90E
:10072000DDE9060102F060FF0546C9E703F0F4FACF
:1007300021230360F2E703F0EFFA089B0360EFE781
:1007400001F044B870B58AB0054601F08BFA40F26A
:100750000004C2F2000494F900300133064608D0C8
:10076000284602F01BFA20B12846002103F038FA8F
:1007700010B930460AB070BD45F280432846C0F635
:1007800001030193012300930023089302F0F6FB79
:100790002478CDE90401CDE902017CB900220023CF
:1007A000CDE90623684601F06BFF88B1089BA3B929
:1007B000DDE9060102F018FF0646DAE70020002115
:1007C00002460B4602F058FD022CCDE90601E9D1A4
:1007D00003F0A2FA21230360E8E703F09DFA089BE7
:1007E0000360E5E7000000002DE9F04F91B023F031
:1007F00000478B460D46049157EA02019146824616
:100800001E4604469446804600F08E8000212BF060
:100810000040C7F6F0710290884211DD029901F1A3
:10082000404909F5801959EA080840F082800026FD
:10083000C146C3F6F0764846314611B0BDE8F08FA8
:1008400014BF002001200690BAF1000F0CBF002059
:1008500000F001000028E1D18F42DFDC14BF00204E
:100860000120002A0CBF002100F001010029D5D190
:10087000049A5C461D46002A64DB0E91BCF1000F11
:1008800014D1002840F082800023C3F6F0739F4209
:1008900000F0B880B5F1804F04BF504659463CD0B7
:1008A0000023C3F6E0739D4200F0C08350465946D2
:1008B00001F0B4FE8C46B8F1000F0BD1069B0299F3
:1008C000002908BF43F00103002B76D1C3F6F07373
:1008D000994272D0049B0E994FEAD37808F1FF3801
:1008E00051EA080100F089800023C4F2E0139F421E
:1008F00040F3A6800023C4F2F0339F4240F33084DB
:100900004FF6FF73029AC3F6EF739A4240F39E8349
:10091000002D4EDD48A1D1E9000102460B4602F050
:1009200081FB81460E4686E700268946C3F6F076AF
:1009300081E745F27440C0F6010011B0BDE8F04F08
:1009400001F0A0BE4FF6FF73C4F23F339F426ADC52
:100950004FF6FF73C3F6EF739F428EDD3B1540F2F7
:100960001342934240F38B84C3F5866303332CFA1E
:1009700003F202FA03F3634502BF02F00103C3F17D
:1009800002030E933FF47AAF002176E7029A02F158
:10099000404303F5801353EA080300F051834FF6F8
:1009A000FF73C3F6EF739A4240F3B283002DBFF694
:1009B00042AF4FF000094E463DE7002DA8BF664606
:1009C000C0F24284002CA8BF8146BFF634AF029A21
:1009D0000E9902F1404303F58013194340F05F8400
:1009E000804602463346314602F068F902460B461D
:1009F00002F042FC81460E461DE7504659465246DB
:100A00005B46F1E7002DA4BFD1465E46BFF613AFAB
:100A1000002152460020C3F6F0715B4602F02CFC28
:100A200081460E4607E702230E93BCF1000F3FF408
:100A300028AF3BE7AFF300809C7500883CE4377E2D
:100A4000029B0021B3F5801F0BDA002361460022D0
:100A5000C4F2403302F0E6FA8C466FF03401CDF870
:100A600008C0029A002522F07F43141549F68E0231
:100A700023F47003C0F20302934243F07F57A4F2C1
:100A8000FF340C440F9447F440142F460FDD4BF213
:100A900079620127C0F20B024FF48025934206DDF4
:100AA00000250F9BA4F580142F4601330F9342F2CB
:100AB00070110246C0F60101234601EBC707CDE9DC
:100AC0000823D7E90001CDE90A0110462146DDE9F6
:100AD0000A2302F0F3F8DDE90A2382468B46DDE9BA
:100AE000080102F0EDF80B4600210246C3F6F07152
:100AF000002002F0C1FBCDE90C015046DDE90C23DA
:100B0000594602F08FFACDE906016110DDE90623AE
:100B100041F00051002001F50021CDE904236B18BC
:100B200004900022DDE9040114461D46CDE90201CE
:100B300002F078FA02460B465046594602F0BEF8DB
:100B4000DDE90A2382468B462046294602F0B6F8A4
:100B500002460B46DDE9080102F0B0F802460B46FA
:100B6000DDE9020102F05EFA02460B4650465946A4
:100B700002F0A4F8DDE90C2302F054FA82468B4619
:100B8000DDE9060102460B4602F04CFA02460B462E
:100B900004460D4602F046FAA3A3D3E90023CDE9AB
:100BA00008012046294602F03DFAA1A3D3E900231B
:100BB00002F086F822462B4602F034FA9EA3D3E9CF
:100BC000002302F07DF822462B4602F02BFA9CA36C
:100BD000D3E9002302F074F822462B4602F022FAF1
:100BE00099A3D3E9002302F06BF822462B4602F0CA
:100BF00019FA97A3D3E9002302F062F802460B46E4
:100C0000DDE9080102F00EFADDE9062304460D468F
:100C1000DDE9020102F054F852465B4602F002FAA6
:100C200022462B4602F04CF8CDE90801DDE902012D
:100C300002460B4602F0F6F900220023C4F2080334
:100C4000CDE90A0102F03CF8DDE9082302F038F8AA
:100C50000D4604992B460C46DDE90201224602F0BE
:100C6000E1F922462B46CDE902015046594602F0F1
:100C7000D9F900230022C4F2080382468B4620469D
:100C8000294602F01BF8DDE90A2302F017F80246B4
:100C90000B46DDE9080102F011F8DDE9062302F058
:100CA000C1F902460B465046594602F009F8824601
:100CB0008B4652465B46DDE9020102F001F8049AD8
:100CC000104665A3D3E9002304460D4602F0AAF9B5
:100CD00063A3D3E90023CDE906012046294602F0AB
:100CE000A1F9DDE90223CDE908012046294601F0FA
:100CF000E5FF02460B465046594601F0DFFF5AA376
:100D0000D3E9002302F08EF902460B46DDE9080123
:100D100001F0D6FFD7E9042301F0D2FF82460F98F5
:100D20008B4602F019F952465B4604460D46D7E958
:100D30000801CDE90201DDE9060101F0C1FFDDE9AD
:100D4000022301F0BDFF22462B4601F0B9FF049AB1
:100D50002B461046224604460D4601F0AFFFDDE962
:100D6000022301F0ABFFDDE9062301F0A7FF0246F5
:100D70000B465046594601F0A1FF82468B460E981D
:100D8000431E53EA080340F0BC8100230022CBF647
:100D9000F073CDE904233346002231464846CDE9BD
:100DA000022301F08BFF22462B4602F03BF952460C
:100DB0005B46CDE906013146484602F033F902466A
:100DC0000B46DDE9060101F07BFF22462B468246F9
:100DD0008B46DDE9020102F025F904460D46504636
:100DE000594622462B4601F06BFF4FF6FF7CC4F2BA
:100DF0008F0C614506460F46884640F32B8101F172
:100E00003F4303F5E003034340F0298218A3D3E9ED
:100E100000235046594627F0004901F051FF224671
:100E20002B46CDE9020127E0EF4E454A287ECA3F16
:100E300065DBC9934A86CD3F01411DA96074D13F4E
:100E40004D268F515555D53FFFAB6FDBB66DDB3F60
:100E5000033333333333E33F000000E009C7EE3F91
:100E6000F5015B14E02F3EBEFD033ADC09C7EE3FFF
:100E7000FE822B654715973C3046394601F01EFF30
:100E800002460B46DDE9020102F05CFB002840F05F
:100E9000E6810023C3F6E0739945DCBF4FF0000CF8
:100EA000CDF808C000F3F48000269DA3D3E9002309
:100EB00030463946CDF804C002F0B4F822462B463D
:100EC000804689463046394601F0F8FE02460B4618
:100ED0005046594601F0F2FE93A3D3E9002302F0F5
:100EE000A1F893A3D3E9002304460D4630463946C2
:100EF00002F098F802460B462046294601F0E0FE33
:100F000004460D4622462B464046494601F0D8FE8F
:100F100042464B4682468B4601F0D0FE02460B46C7
:100F20002046294601F0CAFE52465B468046894665
:100F30005046594602F076F87FA3D3E900230446D1
:100F40000D4602F06FF87EA3D3E9002301F0B6FE50
:100F500022462B4602F066F87BA3D3E9002301F07A
:100F6000AFFE22462B4602F05DF879A3D3E90023B9
:100F700001F0A4FE22462B4602F054F876A3D3E9F2
:100F8000002301F09DFE22462B4602F04BF802465C
:100F90000B465046594601F091FE04460D46224646
:100FA0002B465046594602F03DF800224FF0804350
:100FB00006460F462046294601F080FE02460B46B3
:100FC0003046394602F058F942464B4604460D4633
:100FD0005046594602F026F842464B4601F070FE54
:100FE00002460B462046294601F068FE52465B4603
:100FF00001F064FE0B4600210246C3F6F0710020AA
:1010000001F05CFEDDF804C00CEB01040B46B4F506
:10101000801F02460D46A8BF2346C0F25E81DDE96F
:10102000040101F0FFFF81460E4604E4002CFFF6A8
:101030003DAC5046594611B0BDE8F04F00F074B9D0
:1010400000269946C3F6F076FFF7F5BB002DBFF6F4
:10105000B0AC5FE44CF6FF3321F00049C4F29003DA
:1010600099457FF716AF4FF45053C3F66F73CB1803
:10107000034340F01A8122462B4601F01FFE024630
:101080000B465046594602F049FA002840F00D81BF
:101090004FEA29534FF48011A3F2FE334FF6FF7647
:1010A00041FA03F1C0F20F064144002221F07F47CC
:1010B000C1F30A5027F47007A0F2FF3E47F48017EF
:1010C000C0F58260B8F1000F46FA0EF600F1030C8D
:1010D00021EA060347FA0CFCCDF808C0C0F2F980FB
:1010E0002046294601F0EAFD04460D4622465046B8
:1010F00059462B4601F0E4FD029A4FEA025C0F4686
:10110000D2E600210020C3F6F071CDE9040142E6E9
:10111000002DBFF64EAC06F10046FFF78CBB00BFBA
:1011200000000000432EE63FEF39FAFE422EE63F74
:10113000396CA80C615C20BED0A4BE726937663ED3
:10114000F16BD2C541BDBB3E2CDE25AF6A56113FC7
:1011500093BDBE166CC1663F3E5555555555C53FAE
:101160004FF6FE730299C3F6EF7399427FF76EAFA5
:101170000023029AC3F6F0739A423FF7C9AB0023EB
:1011800061460022C3F6F07301F098FD5AA3D3E93B
:10119000002304460D4601F045FF59A3D3E900237F
:1011A00082468B462046294601F03CFF22462B46CC
:1011B000CDE902012046294601F034FF0023002238
:1011C000C3F6D073CDE904012046294601F02AFF79
:1011D00002460B464CA1D1E9000101F06FFD224609
:1011E0002B4601F01FFF0B4600210246C3F6E071BB
:1011F000002001F063FD02460B46DDE9040101F029
:1012000011FF43A3D3E9002301F00CFF02460B4674
:10121000DDE9020101F052FDCDE902015046DDE9B0
:101220000223594601F04CFD52465B46002004461D
:101230000D4601F043FD02460B46DDE9020101F0D7
:101240003DFD82468B469AE500210246C3F6F071C9
:101250000020634602F010F80E46FFF7B3BB2EA342
:10126000D3E90023DDE9040101F0DCFE2AA3D3E980
:10127000002301F0D7FE81460E46FFF7DCBABCF131
:10128000000F22D1C3F58263DA1C47FA02F303FA96
:1012900002F2BA4227D000230E93FFF7F2BA0E9A59
:1012A0008146012A7FF4C7AA35E71DA3D3E90023AD
:1012B000DDE9040101F0B6FE19A3D3E9002301F032
:1012C000B1FE81460E46FFF7B6BA00230E93FFF734
:1012D000EDBA61464942029102E7029A01F070FAC2
:1012E00002460B469BE603F00103C3F102030E9393
:1012F000FFF7C7BAAFF30080000000604715F73F63
:1013000044DF5DF80BAE543E555555555555D53F08
:10131000FE822B654715F73F9C7500883CE4377EBD
:1013200059F3F8C21F6EA5012DE9F8430027B9460D
:10133000C7F6F077C7F6F0790F404F4504460D46E3
:1013400002460B460E46804600F09980002977DD64
:101350000F1500F0828026F07F43A7F2FF3723F4B9
:101360007003FA0743F4801344BF4FEAD8724FEA80
:1013700048084FF0000C48BF02EB430360464FEAB9
:10138000D8727F1002EB430316244FEA48024FF451
:1013900000114518D60F9D424FEA4202DEBFC5EB51
:1013A000030368188C444908013C06EB4303F0D161
:1013B0002026A0464FF000410EE081461B1A9542C0
:1013C00088BF013B521B64184846D50F490852009C
:1013D000013E05EB430315D0984201EB080503DB02
:1013E000954298BF8342F0D105F0004905EB010812
:1013F000B9F1004FE1D1B8F1000FA8BF00F1010928
:10140000DCDADAE7134312D166084FEA6C031CF00A
:10141000010F03F17F5318BF46F0004603F5001398
:10142000344603EB075520462946BDE8F883631C84
:1014300008BF0CF1010CE8D004F001031C19E3E72C
:1014400021F000460643EED041BB0F464FEAD826B6
:10145000153F4FEA4858002EF8D016F4801319D1E2
:1014600076000133F102FBD5C3F10101C3F1200283
:1014700028FA02F27F18164308FA03F86BE701F026
:10148000D1FD02460B462046294601F019FC0446D0
:101490000D46C8E7202201210023E9E702460B465A
:1014A00001F00CFC02460B4601F0E6FE04460D4638
:1014B000B9E700BF2DE9F04720F00045B5F17E5FA8
:1014C0000446064600F0FD8000F3D580B5F17C5F50
:1014D00010DAB5F1485F80F20A814FF2CA21C7F2F3
:1014E000491102F0D7F84FF07E5102F097FB002827
:1014F00040F0C880204601F005FB01464FF07E50C9
:1015000002F0C6F84FF07C5102F0CCF94EF60871AB
:10151000C3F61101044602F0C5F947F60471C3F69B
:101520004F2102F0B7F8214602F0BCF941F2461112
:10153000C3F6245102F0ACF8214602F0B3F940F6AC
:10154000A821C3F64E6102F0A5F8214602F0AAF9DF
:101550004BF29001C3F6A66102F09AF8214602F020
:10156000A1F94AF6AB21C3F62A6102F093F82146AD
:1015700002F098F94CF22E61C3F69D518146204647
:1015800002F090F943F26131C3F6307102F080F855
:10159000214602F087F945F22D71C4F2010102F0F3
:1015A00079F8214602F07EF94DF23911C4F21901A1
:1015B00002F06EF8214602F075F94FF07E5102F00C
:1015C00069F88046204600F04DFB49F69913C3F6B2
:1015D00079739D42074658DC014620F47F6502F08E
:1015E00059F8414625F00F058246484602F00EFAAA
:1015F0000146504602F056F929468046284602F038
:1016000051F90146204602F043F82946044638467F
:1016100002F040F80146204602F0F8F9014602F0D7
:1016200039F801464BF62E50CBF23B3002F030F841
:101630000146404602F02CF829460446284602F0AE
:1016400029F8014640F6DB70C3F6497002F020F835
:101650000146204602F01CF8014640F6DB70C3F656
:10166000497002F015F8002ED4BF00F10044044682
:101670002046BDE8F087014602F00AF8014602F074
:10168000C5F904462046BDE8F0874146484602F0C9
:10169000BDF90146384602F005F9394601F0FAFF76
:1016A000014601F0F7FF4BF62E51C3F23B3101F03A
:1016B000F1FF014640F6DB70C3F6C97001F0E8FFA8
:1016C000D1E740F6DB71C3F6C97102F0EBF84BF6D7
:1016D0002E51CBF23B310546204602F0E3F801469D
:1016E000284601F0D7FF04462046BDE8F0870146B2
:1016F00002F0D8F84EF60871C3F61101054602F063
:10170000D1F847F60471C3F64F2101F0C3FF294613
:1017100002F0C8F841F24611C3F6245101F0B8FFB7
:10172000294602F0BFF840F6A821C3F64E6101F049
:10173000B1FF294602F0B6F84BF29001C3F6A6615C
:1017400001F0A6FF294602F0ADF84AF6AB21C3F638
:101750002A6101F09FFF294602F0A4F84CF22E61A5
:10176000C3F69D510646284602F09CF843F26131CB
:10177000C3F6307101F08CFF294602F093F845F270
:101780002D71C4F2010101F085FF294602F08AF8AB
:101790004DF23911C4F2190101F07AFF294602F025
:1017A00081F84FF07E5101F075FF0146304602F09E
:1017B0002DF90146204602F075F80146204601F059
:1017C00069FF04462046BDE8F08700BFF8B521F068
:1017D000004620F000440346B4F1FF4FD8BFB6F1F5
:1017E000FF4F054645DCB1F17E5F4CD08F1707F007
:1017F000020747EAD0774CB9022F3FD0032F03D11D
:1018000040F6DB73CCF249031846F8BD36B3B6F1A7
:10181000FF4F55D0B4F1FF4F20D0A41BE4153C2C52
:10182000C4BF40F6DB70C3F6C97030DD012F08BFBE
:1018300000F10043E8D0022F33D00346002FE3D05D
:101840004BF62E51C3F2BB3101F024FF40F6DB71A1
:10185000C4F2490101F01CFF0346D5E7002D40F614
:10186000DB73B8BFCBF6C973CEDBC3F6C9731846BA
:10187000F8BD01F00FFF03461846F8BD40F6DB73D4
:10188000C4F24903C0E7BDE8F84001F01DB814F107
:101890003C0FACBF0024012414EAD1741DD00020F9
:1018A000C4E74BF62E51C3F2BB3101F0F3FE014603
:1018B00040F6DB70C4F2490001F0EAFE0346A3E7FC
:1018C000B4F1FF4F10D0022FD8D0032F98D00023AF
:1018D000012F99D14FF0004396E702F097F801F0FD
:1018E00011F900F0F1FFA1E7022F0BD0032F0ED06A
:1018F000012F40F6DB7318BFC3F6497384D1CBF6D2
:10190000497381E74CF6E433C4F216037CE74CF6E6
:10191000E433CCF2160377E740F6D8732DE9F04FA5
:10192000C3F6497320F0004489B09C4206460D4638
:1019300040F388804CF6E333C4F216039C4225DC66
:1019400000284FF47861C3F6C97140F34D8101F06E
:101950009FFE4FF47D6324F00F04C3F6C9739C42CD
:1019600006467ED044F243410127C3F2357101F0AF
:101970008FFE01462860304601F08AFE44F2434162
:10198000C3F2357101F084FE68605FE04FF4786364
:10199000C4F249339C427FDDB4F1FF4F5ADA4FEA7B
:1019A000E459A9F18609A4EBC954204602F040F994
:1019B00001F024FF034601462046059301F068FE2E
:1019C0004FF0874101F06EFF074602F031F901F058
:1019D00015FF014604463846069401F059FE4FF0C3
:1019E000874101F05FFF00210327079002F0EEF826
:1019F00088B10327204600210DF11808013F02F0AD
:101A0000E5F840B158F8044D0021013F204602F0AE
:101A1000DDF80028F6D102230093914B05A8294652
:101A20004A4601933B4600F04DFA002E07460DDA78
:101A30002A6847426B6802F100422A6003F10043C2
:101A40006B6003E00027286000234B60384609B034
:101A5000BDE8F08F0146002701F01AFE686028609B
:101A6000F4E74FF488410127C3F2357101F010FE0D
:101A70004AF20831C2F68561044601F009FE0146CA
:101A80002860204601F004FE4AF20831C2F6856162
:101A900001F0FEFD6860D9E701F034F84FF68411DB
:101AA000C3F62271804601F0FDFE4FF07C5101F03B
:101AB000F1FD02F0BDF8074601F0A0FE4FF4786199
:101AC000C3F6C971834601F0EDFE0146404601F0C0
:101AD000DFFD44F24341C3F235718146584601F0BF
:101AE000E1FE1F2F8246484623DC42F2A013791EF6
:101AF000C0F6010324F0FF0253F821309A4218D0B7
:101B0000514601F0C5FD8046C5F800804146484673
:101B100001F0BEFD514601F0BBFD002E686095DA74
:101B200008F1004800F10040C5F800807F4268607D
:101B30008CE7514601F0ACFDE315C0F3C752804677
:101B40009A1A082AE0DD4FF488415846C3F23571ED
:101B5000039301F0A7FE80464846414601F098FDF8
:101B600004464846214601F093FD414601F090FDB0
:101B70004AF20831C2F685618046584601F092FE6D
:101B8000414601F085FD82462046514601F080FD28
:101B9000039BC0F3C75280469B1A192BDCBF2860F9
:101BA000A146B3DD4FF423415846C2F6856101F0EA
:101BB00079FE80462046414601F06AFD8146204676
:101BC000494601F065FD414601F062FD43F23211E4
:101BD000C2F28D410446584601F064FE214601F0F0
:101BE00057FD824648468BE701F054FD4FF47D6374
:101BF00024F00F04C3F6C9739C42064614D044F285
:101C000043414FF0FF37C3F2357101F043FD014608
:101C10002860304601F03CFD44F24341C3F2357187
:101C200001F038FD686011E74FF488414FF0FF374D
:101C3000C3F2357101F02EFD4AF20831C2F685611A
:101C4000044601F027FD01462860204601F020FDF2
:101C50004AF20831C2F6856101F01CFD6860F5E6C4
:101C60002022010820F000420346B2F1FF4F70B578
:101C7000044637D2A2B300283EDBC415B2F5000FEC
:101C800009D210F400023FD15B0001321902FBD5EA
:101C9000C2F10102A41823F07F437F3C23F4000328
:101CA000E20743F400034FF0807248BF5B00002658
:101CB000601019215B003546AC189C42DEBFC4EBB6
:101CC0000303A518B61852085B000139F4D113B10B
:101CD00006F00103F618761006F17C5606EBC054A8
:101CE000204670BD014601F0DDFD0146204601F0B1
:101CF000D1FC0446204670BD014601F0C9FC0146F6
:101D000001F084FE0446EBE70122C3E72DE9F84326
:101D100020F00046B6F1485F05460F465BDA01F059
:101D200087FF002800F0CA802946284601F0BAFD46
:101D30004DF24E71CAF64751044601F0B3FD47F229
:101D4000F641C3F20F1101F0A5FC214601F0AAFDF6
:101D50004FF27C21C3F2934101F09AFC214601F03D
:101D6000A1FD40F60151C3F2D07101F093FC214670
:101D700001F098FD40F66131C3F6B62101F088FC10
:101D8000214601F08FFD4AF6AB21C3F62A5101F03E
:101D900081FC214601F086FD804620464FF07C51B3
:101DA00001F080FD41460646204601F07BFD3946A4
:101DB0000446284601F076FD0146204601F068FC05
:101DC0000146304601F064FC01464FF07E5001F0C0
:101DD0005FFCBDE8F883014601F064FD4DF24E71F1
:101DE000CAF64751044601F05DFD47F2F641C3F2E1
:101DF0000F1101F04FFC214601F054FD4FF27C2100
:101E0000C3F2934101F044FC214601F04BFD40F642
:101E10000151C3F2D07101F03DFC214601F042FDB9
:101E200040F66131C3F6B62101F032FC214601F0E3
:101E300039FD4AF6AB21C3F62A5101F02BFC2146AD
:101E400001F030FD49F69913C3F699639E4280462E
:101E5000A3DD0023C3F648739E4227DC06F17F46CC
:101E60004FF07E50314601F013FC814620464FF082
:101E70007C5101F017FD314601F00AFC414606464F
:101E8000204601F00FFD39460446284601F00AFDC0
:101E90000146204601F0FCFB0146304601F0F8FB0C
:101EA0000146484601F0F4FBBDE8F8834FF0000915
:101EB0000026C3F63879C3F69066D7E74FF07E5018
:101EC000BDE8F8832DE9F04FDFB0151DD41E58BFD3
:101ED00025460B9342F23854013B0393C0F60104AC
:101EE000689BED1025EAE5750C950646099154F8B6
:101EF0002340EB4302EBC30307930894089A039C27
:101F00002F1BA51815D4699B7D1901354FF00008CA
:101F100003EB870922AC0020002F03DB59F80800EF
:101F200001F06CFC013744F80800AF4208F10408E6
:101F3000F1D1089B002BC0F2DE82089B4AA80B9CC3
:101F400049AD9B000293C7184FEA840B039A002AFD
:101F5000C0F2088222AB4FF0000803EB840A4FF076
:101F6000000956F8080008F104085AF8041D01F0A9
:101F700099FC0146484601F08DFBD8458146F0D1D9
:101F800045F8049F0134BD42E0D1DDF820800EAC5D
:101F9000029AA4180D944FEA88045EA80319B8F1B8
:101FA000000F029453F850AC22DD029A0DAC4AABFC
:101FB0009D18A7184FF06E51504601F073FC01F0C8
:101FC00037FE01F01BFC4FF08741814601F06AFCAF
:101FD0000146504601F05CFB01F02AFE494644F8F8
:101FE000040F55F8040D01F055FBBC428246E1D1C7
:101FF0000799504600F0ECFD4FF07851044601F08F
:1020000051FC00F083FD4FF0824101F04BFC014692
:10201000204601F03DFB044601F00AFE054601F0B2
:10202000EDFB0146204601F033FB079A002A0746E4
:1020300040F37381079B08F1FF320EACC3F1080136
:10204000C3F1070054F8223043FA01F42D1904FAC1
:1020500001F15B1A0EA943FA00FA41F82230BAF1F5
:10206000000F30DD0135B8F1000F40F37981029C9B
:102070000EAB1919002407E022B10124C2F58072C9
:1020800043F8042C8B420AD053F8042B002CF3D0D5
:1020900001248B42C2F1FF0243F8042CF4D1079AC9
:1020A000002A0DDD012A00F04181022A08D108F141
:1020B000FF330EA951F8232002F03F0241F82320FC
:1020C000BAF1020F78D03846002101F07FFD0028D8
:1020D00000F08C80089A08F1FF3082420DDC029CEF
:1020E0000EA900220B190D9C53F8041DA34242EACD
:1020F0000102F9D1002A40F0E781089B0EAC5A1E7C
:1021000054F82230002B40F0F48104EB82020123CA
:1021100052F8041D01330029FAD0434408F10102AA
:102120009A420A9345DC0A9C0C9BC8EB040A0B9C60
:1021300008EB0301029804EB0803039C4FEA8A0AA8
:10214000CDF814A0A21822AC0694551C699C069ADE
:1021500004EB81084AAC24180294002402EB8303A8
:10216000049358F8040F4FF0000901F047FB039A5D
:10217000049B002A185113DB069B4FF0000A03EB67
:10218000850756F80A000AF1040A57F8041D01F001
:1021900089FB0146484601F07DFADA458146F0D1D7
:1021A000059B0434029A01359C4242F8049F029236
:1021B000D7D1DDF82880EEE639464FF07E5001F0A9
:1021C00067FA0746002C3FF47EAF07994FF07E5028
:1021D00000F0FEFC0146384601F05AFA002107469D
:1021E000384601F0F3FC00287FF474AF079B3846B3
:1021F00002955446594200F0EBFC4FF087410546EA
:1022000001F002FD002800F07C814FF06E5128465D
:1022100001F048FB079A0832079201F009FD01F02E
:10222000EDFA4FF08741064601F03CFB0146284697
:1022300001F02EFA01F0FCFC0EAB43F8280030460A
:1022400001F0F6FC08F101080EA941F828004FF052
:102250007E50079900F0BCFCB8F1000F054653DB37
:10226000C8EB88774FEA88060EAB4AA8BF0003EB9D
:102270000609043F86194FF0000B59F80B0001F0D6
:10228000BDFA294601F00EFB4FF06E5146F80B00E7
:10229000284601F007FBABF1040BBB450546ECD12A
:1022A0009D4F08F1010BDDF820A00025CDF80C8032
:1022B0000494BAF1000FC0F20581002DC0F2028132
:1022C0004FF000090024C84601E0A84510DC56F88C
:1022D000091008F1010857F8090009F1040901F093
:1022E000E1FA0146204601F0D5F9C2450446ECDA90
:1022F0005EA9043E01EB850301355D4543F8A04C22
:10230000D7D1DDF80C80049C689A032A43D8DFE813
:1023100012F0C40098009800480011D108F1FF3372
:102320000EAA52F823304FEA232A98E608F1FF3329
:102330000EA850F8232002F07F0240F82320BFE6C9
:102340004FF07C514FF0000A01F05EFC00283FF492
:10235000BAAE0135B8F1000F4FF0020A3FF787AE71
:1023600000249CE64FF00009013445F8049FBD426B
:102370007FF4ECAD09E60020002C5BD0369B00F129
:102380000040099C03F10042099B9860379B226042
:1023900003F100436360029A02F007005FB0BDE8FA
:1023A000F08FB8F1000FE6DD08F1FF3536AF35AA42
:1023B00007EB85052E4656F804B9D6F808A058460E
:1023C0000192514601F066F981465846494601F0AE
:1023D0005FF90146504601F05DF9019AC6F8049094
:1023E0009642B060E7D1B8F1010FC4DD55F804A9F9
:1023F000D5F808905046494601F04CF9064650463B
:10240000314601F045F90146484601F043F9BD4225
:102410006E60A860EAD108F1010805F10806002005
:1024200005EB880555F8041D01F034F9B542F9D1E2
:10243000002CA3D1099C369BA0602360379B63606E
:10244000A9E70020B8F1000F0BDB08F1010536AE5B
:10245000002006EB850555F8041D01F01BF9B54277
:10246000F9D100F1004304B90346099A01463698B0
:10247000136001F00DF9B8F1000F08DD36AD05EB82
:10248000880855F8041F01F005F94545F9D10CB14C
:1024900000F10040099B58607DE7B8F1000F39DB7F
:1024A00008F1010536AE002006EB850555F8041D40
:1024B00001F0F0F8B542F9D10CB100F10040099CEF
:1024C000206068E7002413E70EA9079A0295544696
:1024D00051F82030083A0792D3B901EB80038046C7
:1024E00053F8041D08F1FF38083A0029F8D0079284
:1024F000ADE6012311E60B9A9C0002944FEA820B91
:1025000043E5284601F094FB0EAA42F828009EE617
:1025100080469CE60020CFE7442501082DE9F843DA
:1025200020F00043B3F1485F04460F46904603DABB
:1025300001F07EFB002859D02146204601F0B2F977
:102540002146054601F0AEF94CF6D311C2F62E71C4
:102550000646284601F0A6F942F63471C3F2D721A7
:1025600001F096F8294601F09DF94EF61B71C3F271
:10257000386101F08FF8294601F094F940F60151D5
:10258000C3F6501101F084F8294601F08BF948F6A2
:102590008901C3F6084101F07DF88146B8F1000FCA
:1025A00027D04FF07C51384601F07CF949468046EF
:1025B000304601F077F90146404601F069F82946B6
:1025C00001F070F9394601F063F84AF6AB21C3F621
:1025D0002A610546304601F065F90146284601F0BA
:1025E00059F80146204601F053F804462046BDE85C
:1025F000F8830146284601F055F94AF6AB21C3F6A7
:102600002A6101F045F8314601F04CF901462046B7
:1026100001F040F804462046BDE8F88321F000416F
:10262000704700BF41F0004101F58010C00F7047B6
:1026300050EA010201D102207047D0F1010238BFF7
:102640000022B1F1004F08BF0028F4D021F0004370
:102650004FF6FF71A3F58010C7F6DF71884201D8ED
:1026600004207047B3F5801F01D20320704700207B
:10267000C7F6F070834214BF002002F001007047DB
:102680000020704700210020C7F6F871704700BF96
:10269000C1F30A5C02462DE9F041ACF2FF36CD0FE2
:1026A000132E82B00B4604460F4688463ADC002EB5
:1026B00056DB4FF6FF71C0F20F0141FA06F101EA55
:1026C0000300104329D049080B4053EA02040CD000
:1026D0004FF4802327EA0108132E0CBF4FF000446B
:1026E000002443FA06F648EA060842F270512246F0
:1026F000C0F60101434601EBC505D5E9004520467A
:10270000294600F0DDFA22462B46CDE90001DDE93D
:10271000000100F0D3FA02460B461046194602B0FB
:10272000BDE8F081332E07DDB6F5806FF5D100F0FE
:10273000C7FA02460B46F0E74FF0FF31ACF2134CFC
:1027400021FA0CF10142E8D0490801421FBF4FF0C5
:10275000804320EA010443FA0CFC44EA0C04C4E779
:1027600021F000410143D8D023F07F4042F2705164
:1027700020F47000C0F6010140EA020401EBC5013B
:1027800060424FEA534E0443D1E90067240B3046C0
:1027900004F40024394644EA4E4300F091FA3246EC
:1027A0003B46CDE90001DDE9000100F087FA0F4664
:1027B00021F000410646024641EAC573ADE700BF7D
:1027C000C1F30A532DE9F04104460D4690460646F2
:1027D0000F46C3B921F0004C5CEA000C29D000235D
:1027E0000022C4F2503300F01DFC43F6B043CFF694
:1027F000FF73984504460D4606460F462BDBC1F392
:102800000A53363B05E040F2FF72934218BF094677
:1028100036D0434440F2FE729342C4BF22462B4658
:1028200021DC002B09DD21F0FF4121F4E00141EA28
:10283000035520462946BDE8F08113F1350F26DA0D
:102840004CF25033224698452B460CDC1AA1D1E9B4
:10285000000100F01FFA18A3D3E9002300F0E2FB07
:1028600004460D46E5E716A1D1E9000100F012FA91
:1028700013A3D3E9002300F0D5FB04460D46D8E7A7
:102880002B46024600F01CFA04460D46D1E73633CB
:1028900021F0FF4121F4E001204641EA03550023E5
:1028A00029460022C3F6904300F0BCFB04460D46C7
:1028B000BFE700BFAFF3008059F3F8C21F6EA50158
:1028C0009C7500883CE4377E2DE9F04120F00045FE
:1028D000B5F1A14F044606460EDBB5F1FF4F00F3FC
:1028E000A480002840F6DB74C8BFC3F6C97440F367
:1028F000CF802046BDE8F0814FF6FF73C3F6DF635B
:102900009D4200F3A980B5F1445FC0F295804FF07D
:10291000FF372146204600F0C5FF0146804600F003
:10292000C1FF46F6D711C3F68541054600F0BAFF50
:102930004DF65921C3F64B5100F0ACFE294600F08C
:10294000B1FF46F63531C3F6885100F0A3FE2946A3
:1029500000F0A8FF42F66E61C3F6BA5100F09AFE8D
:10296000294600F09FFF44F62511C3F6126100F0DE
:1029700091FE294600F096FF4AF6AB21C3F6AA6104
:1029800000F088FE414600F08DFF4AF22121CBF68F
:1029900015518046284600F085FF4FF26B11C3F6B3
:1029A0006E5100F075FE294600F07CFF48F29571EB
:1029B000C3F69D5100F06CFE294600F073FF48F607
:1029C0003861C3F6E35100F063FE294600F06AFF68
:1029D0004CF6CD41C3F64C6100F05AFE294600F09A
:1029E00061FF7B1C014656D042F28055404600F004
:1029F00051FEC0F60105214600F054FF05EB8703A8
:102A0000196900F045FE214600F042FE014655F8E6
:102A1000270000F03DFE002EB8BF00F10044FFF695
:102A200068AF04462046BDE8F081014600F032FE62
:102A300004462046BDE8F0814FF2CA21C7F2491191
:102A400000F028FE4FF07E5101F0E8F800283FF436
:102A50005EAF2046BDE8F08100F054F84FF6FF73FA
:102A6000C3F697739D424FF6FF7304461FDCC3F60F
:102A70002F739D423DDC0146002700F00BFE4FF016
:102A80007E5100F005FE4FF08041054620461FE0D4
:102A9000CBF6C9742DE7404600F0FCFD214600F05E
:102AA00001FF0146204600F0F3FD044621E7C4F291
:102AB0001B039D4214DC4FF07F51022700F0E8FD1C
:102AC0004FF07F510546204600F0ECFE4FF07E515E
:102AD00000F0E0FD0146284600F098FF044618E7A4
:102AE00000202146CBF68070032700F08FFF0446BC
:102AF0000FE74FF07E51012700F0CAFD0546204642
:102B0000E4E700BF20F00040704700BFF8B520F0B8
:102B1000004601460446F50D7F3D162D20DC002DB4
:102B2000074625DB4FF6FF73C0F27F0343FA05F635
:102B3000064213D04FF2CA21C7F2491100F0AAFD94
:102B4000002101F06BF840B1002CBEBF4FF4000330
:102B500043FA05F5671927EA060421460846F8BD39
:102B6000B6F1FF4FFAD300F095FD01460846F8BDD7
:102B70004FF2CA21C7F2491100F08CFD002101F08B
:102B80004DF80028E9D0002C01DB0024E5E7002304
:102B9000CBF68073002E18BF1C46DEE730F00040F5
:102BA00001D102207047A0F50003B3F1FE4F01D21E
:102BB000042070474FF6FE73421EC0F27F039A4214
:102BC00001D803207047B0F1FF4358425841704785
:102BD00038B530F00044034602460D4611D0B4F13A
:102BE000FF4F10D2B4F5000F13D3E40D6419FE2C7F
:102BF000C8BF194633DC002C1BDD22F0FF4242EA3D
:102C0000C453184638BD014600F044FD034618463B
:102C100038BD4FF0984100F045FE43F6B042CFF684
:102C2000FF729542034612DBC0F3C7540246193CBB
:102C3000DCE714F1160F20DA4CF2503219469542B7
:102C40000DDC44F26020C0F6A25000F02DF844F2F2
:102C50006021C0F6A25100F025FE0346D1E74FF2F5
:102C6000CA20C7F2491000F01FF84FF2CA21C7F27C
:102C7000491100F017FE0346C3E704F1190022F0E2
:102C8000FF424FF04C5142EAC05000F00BFE0346A9
:102C9000B7E700BF10B421F0004203F0004444EA5B
:102CA000020110BC704700BF01F0004120F000405D
:102CB0000843704781F0004102E000BF83F0004309
:102CC00030B54FEA41044FEA430594EA050F08BFC7
:102CD00090EA020F1FBF54EA000C55EA020C7FEA8B
:102CE000645C7FEA655C00F0E2804FEA5454D4EB08
:102CF0005555B8BF6D420CDD2C4480EA020281EAD2
:102D0000030382EA000083EA010180EA020281EA09
:102D10000303362D88BF30BD11F0004F4FEA01315B
:102D20004FF4801C4CEA113102D0404261EB41016A
:102D300013F0004F4FEA03334CEA133302D05242F0
:102D400063EB430394EA050F00F0A780A4F10104AC
:102D5000D5F1200E0DDB02FA0EFC22FA05F28018E6
:102D600041F1000103FA0EF2801843FA05F35941CC
:102D70000EE0A5F120050EF1200E012A03FA0EFC4B
:102D800028BF4CF0020C43FA05F3C01851EBE37175
:102D900001F0004507D54FF0000EDCF1000C7EEB92
:102DA00000006EEB0101B1F5801F1BD3B1F5001FD0
:102DB0000CD349085FEA30004FEA3C0C04F10104EF
:102DC0004FEA445212F5800F80F09A80BCF1004F18
:102DD00008BF5FEA500C50F1000041EB045141EA9A
:102DE000050130BD5FEA4C0C404141EB010111F49B
:102DF000801FA4F10104E9D191F0000F04BF014646
:102E00000020B1FA81F308BF2033A3F10B03B3F123
:102E100020020CDA0C3208DD02F1140CC2F10C02B3
:102E200001FA0CF021FA02F10CE002F11402D8BF11
:102E3000C2F1200C01FA02F120FA0CFCDCBF41EADD
:102E40000C019040E41AA2BF01EB0451294330BDAC
:102E50006FEA04041F3C1CDA0C340EDC04F1140489
:102E6000C4F1200220FA04F001FA02F340EA030060
:102E700021FA04F345EA030130BDC4F10C04C4F1A6
:102E8000200220FA02F001FA04F340EA0300294686
:102E900030BD21FA04F0294630BD94F0000F83F4D0
:102EA000801306BF81F480110134013D4EE77FEAB3
:102EB000645C18BF7FEA655C29D094EA050F08BFFF
:102EC00090EA020F05D054EA000C04BF19461046E0
:102ED00030BD91EA030F1EBF0021002030BD5FEA24
:102EE000545C05D14000494128BF41F0004130BD4C
:102EF00014F580043CBF01F5801130BD01F00045A0
:102F000045F0FE4141F470014FF0000030BD7FEA12
:102F1000645C1ABF194610467FEA655C1CBF0B460D
:102F2000024650EA013406BF52EA033591EA030F24
:102F300041F4002130BD00BF90F0000F04BF00211C
:102F4000704730B54FF4806404F132044FF000054F
:102F50004FF0000150E700BF90F0000F04BF0021C8
:102F6000704730B54FF4806404F1320410F000452E
:102F700048BF40424FF000013EE700BF42004FEA29
:102F8000E2014FEA31014FEA02701FBF12F07F43A6
:102F900093F07F4F81F06051704792F0000F14BFA3
:102FA00093F07F4F704730B54FF4607401F00045E7
:102FB00021F0004120E700BF50EA010208BF70473E
:102FC00030B54FF000050AE050EA010208BF704733
:102FD00030B511F0004502D5404261EB41014FF49C
:102FE000806404F132045FEA915C3FF4DCAE4FF0A0
:102FF00003025FEADC0C18BF03325FEADC0C18BF87
:10300000033202EBDC02C2F1200300FA03FC20FAD7
:1030100002F001FA03FE40EA0E0021FA02F1144424
:10302000C1E600BF70B54FF0FF0C4CF4E06C1CEA39
:1030300011541DBF1CEA135594EA0C0F95EA0C0FAE
:1030400000F0DEF82C4481EA030621EA4C5123EA21
:103050004C5350EA013518BF52EA033541F4801150
:1030600043F4801338D0A0FB02CE4FF00005E1FB03
:1030700002E506F00042E0FB03E54FF00006E1FB4D
:1030800003569CF0000F18BF4EF0010EA4F1FF0490
:10309000B6F5007F64F5407404D25FEA4E0E6D41D0
:1030A00046EB060642EAC62141EA55514FEAC520E1
:1030B00040EA5E504FEACE2EB4F1FD0C88BFBCF55D
:1030C000E06F1ED8BEF1004F08BF5FEA500E50F10E
:1030D000000041EB045170BD06F0004646EA0101D4
:1030E00040EA020081EA0301B4EB5C04C2BFD4EB06
:1030F0000C0541EA045170BD41F480114FF0000EFF
:10310000013C00F3AB8014F1360FDEBF002001F06C
:10311000004170BDC4F10004203C35DA0C341BDCE6
:1031200004F11404C4F1200500FA05F320FA04F0B8
:1031300001FA05F240EA020001F0004221F00041EC
:1031400010EBD37021FA04F642EB06015EEA430E5F
:1031500008BF20EAD37070BDC4F10C04C4F120058F
:1031600000FA04F320FA05F001FA04F240EA020042
:1031700001F0004110EBD37041F100015EEA430E13
:1031800008BF20EAD37070BDC4F1200500FA05F233
:103190004EEA020E20FA04F301FA05F243EA0203B2
:1031A00021FA04F001F0004121FA04F220EA0200C1
:1031B00000EBD3705EEA430E08BF20EAD37070BD07
:1031C00094F0000F0FD101F00046400041EB0101E7
:1031D00011F4801F08BF013CF7D041EA060195F0C9
:1031E000000F18BF704703F00046520043EB030383
:1031F00013F4801F08BF013DF7D043EA0603704770
:1032000094EA0C0F0CEA135518BF95EA0C0F0CD07A
:1032100050EA410618BF52EA4306D1D181EA0301C0
:1032200001F000414FF0000070BD50EA410606BFBA
:103230001046194652EA430619D094EA0C0F02D1FF
:1032400050EA013613D195EA0C0F05D152EA033644
:103250001CBF104619460AD181EA030101F0004162
:1032600041F0FE4141F470014FF0000070BD41F0AB
:10327000FE4141F4780170BD70B54FF0FF0C4CF485
:10328000E06C1CEA11541DBF1CEA135594EA0C0FA4
:1032900095EA0C0F00F0A7F8A4EB050481EA030EF1
:1032A00052EA03354FEA013100F088804FEA0333D8
:1032B0004FF0805545EA131343EA12634FEA0222A6
:1032C00045EA111545EA10654FEA00260EF0004167
:1032D0009D4208BF964244F1FD0404F5407402D2B9
:1032E0005B084FEA3202B61A65EB03055B084FEA4A
:1032F00032024FF480104FF4002CB6EB020E75EB47
:10330000030E22BFB61A754640EA0C005B084FEA6E
:103310003202B6EB020E75EB030E22BFB61A7546EB
:1033200040EA5C005B084FEA3202B6EB020E75EB36
:10333000030E22BFB61A754640EA9C005B084FEAAE
:103340003202B6EB020E75EB030E22BFB61A7546BB
:1033500040EADC0055EA060E18D04FEA051545EAAA
:1033600016754FEA06164FEAC30343EA52734FEA53
:10337000C2025FEA1C1CC0D111F4801F0BD141EACC
:1033800000014FF000004FF0004CB6E711F4801F31
:1033900004BF01430020B4F1FD0C88BFBCF5E06F11
:1033A0003FF6AFAEB5EB030C04BFB6EB020C5FEA21
:1033B000500C50F1000041EB045170BD0EF0004E76
:1033C0004EEA113114EB5C04C2BFD4EB0C0541EAA8
:1033D000045170BD41F480114FF0000E013C90E6A5
:1033E00045EA060E8DE60CEA135594EA0C0F08BF69
:1033F00095EA0C0F3FF43BAF94EA0C0F0AD150EA68
:1034000001347FF434AF95EA0C0F7FF425AF1046FA
:1034100019462CE795EA0C0F06D152EA03353FF422
:10342000FDAE1046194622E750EA410618BF52EA9F
:1034300043067FF4C5AE50EA41047FF40DAF52EA73
:1034400043057FF4EBAE12E74FF0FF3C06E000BF10
:103450004FF0010C02E000BF4FF0010C4DF804CD1D
:103460004FEA410C7FEA6C5C4FEA430C18BF7FEADD
:103470006C5C1BD001B050EA410C0CBF52EA430C0B
:1034800091EA030F02BF90EA020F0020704710F18B
:10349000000F91EA030F58BF994208BF90422CBF1A
:1034A000D8176FEAE37040F0010070474FEA410C13
:1034B0007FEA6C5C02D150EA013C07D14FEA430C31
:1034C0007FEA6C5CD6D152EA033CD3D05DF8040BA2
:1034D000704700BF8446104662468C4619466346D4
:1034E00000E000BF01B5FFF7B7FF002848BF10F1AB
:1034F000000F01BD4DF808EDFFF7F4FF0CBF0120F0
:1035000000205DF808FB00BF4DF808EDFFF7EAFF6B
:1035100034BF012000205DF808FB00BF4DF808ED26
:10352000FFF7E0FF94BF012000205DF808FB00BF1B
:103530004DF808EDFFF7CEFF94BF012000205DF8A5
:1035400008FB00BF4DF808EDFFF7C4FF34BF0120B2
:1035500000205DF808FB00BF4FEA410212F500129F
:1035600015D211D56FF47873B3EB625212D94FEACA
:10357000C12343F0004343EA505311F0004F23FAB4
:1035800002F018BF404270474FF00000704750EA09
:10359000013005D111F0004008BF6FF000407047C6
:1035A0004FF00000704700BF4A0011D212F5001220
:1035B00011D20DD56FF47873B3EB62520ED44FEA8B
:1035C000C12343F0004343EA505323FA02F070470B
:1035D0004FF00000704750EA013002D14FF0FF3049
:1035E00070474FF0000070474FEA4102B2F1E043EC
:1035F00024BFB3F5001CDCF1FE5C0DD901F0004CDA
:103600004FEAC0024CEA5070B2F1004F40EB830029
:1036100008BF20F00100704711F0804F21D113F155
:103620003872BCBF01F00040704741F480114FEA8E
:103630005252C2F11802C2F1200C10FA0CF320FA17
:1036400002F018BF40F001004FEAC1234FEAD32334
:1036500003FA0CFC40EA0C0023FA02F34FEA43039E
:10366000CCE77FEA625307D150EA01331EBF4FF027
:10367000FE4040F44000704701F0004040F0FE4042
:1036800040F40000704700BF80F0004002E000BF3F
:1036900081F0004142001FBF5FEA410392EA030F3D
:1036A0007FEA226C7FEA236C6AD04FEA1262D2EB87
:1036B0001363C1BFD218414048404140B8BF5B428C
:1036C000192B88BF704710F0004F40F4000020F025
:1036D0007F4018BF404211F0004F41F4000121F03B
:1036E0007F4118BF494292EA030F3FD0A2F1010285
:1036F00041FA03FC10EB0C00C3F1200301FA03F1C3
:1037000000F0004302D5494260EB4000B0F5000FE5
:1037100013D3B0F1807F06D340084FEA310102F1A4
:103720000102FE2A51D2B1F1004F40EBC25008BF56
:1037300020F0010040EA03007047490040EB000020
:1037400010F4000FA2F10102EDD1B0FA80FCACF14F
:10375000080CB2EB0C0200FA0CF0AABF00EBC2504E
:1037600052421843BCBFD0401843704792F0000F3C
:1037700081F4000106BF80F400000132013BB5E78F
:103780004FEA41037FEA226C18BF7FEA236C21D005
:1037900092EA030F04D092F0000F08BF084670476A
:1037A00090EA010F1CBF0020704712F07F4F04D138
:1037B000400028BF40F00040704712F100723CBF4B
:1037C00000F50000704700F0004343F0FE4040F475
:1037D000000070477FEA226216BF08467FEA236333
:1037E0000146420206BF5FEA412390EA010F40F41E
:1037F000800070474FF0000304E000BF10F000436A
:1038000048BF40425FEA000C08BF704743F0964350
:1038100001464FF000001CE050EA010208BF70476B
:103820004FF000030AE000BF50EA010208BF7047F2
:1038300011F0004302D5404261EB41015FEA010C07
:1038400002BF84460146002043F0B64308BFA3F1FF
:103850008053A3F50003BCFA8CF2083AA3EBC253E1
:1038600010DB01FA02FC634400FA02FCC2F1200200
:10387000BCF1004F20FA02F243EB020008BF20F037
:103880000100704702F1200201FA02FCC2F120029D
:1038900050EA4C0021FA02F243EB020008BF20EA92
:1038A000DC7070474FF0FF0C1CEAD0521EBF1CEAC0
:1038B000D15392EA0C0F93EA0C0F6FD01A4480EAAE
:1038C000010C400218BF5FEA41211ED04FF0006397
:1038D00043EA501043EA5111A0FB01310CF00040C3
:1038E000B1F5000F3EBF490041EAD3715B0040EAE9
:1038F000010062F17F02FD2A1DD8B3F1004F40EBB9
:10390000C25008BF20F00100704790F0000F0CF08B
:10391000004C08BF49024CEA502040EA51207F3A4F
:10392000C2BFD2F1FF0340EAC250704740F400002A
:103930004FF00003013A5DDC12F1190FDCBF00F01B
:1039400000407047C2F10002410021FA02F1C2F1C9
:10395000200200FA02FC5FEA310040F1000053EA65
:103960004C0308BF20EADC70704792F0000F00F0B3
:10397000004C02BF400010F4000F013AF9D040EAB9
:103980000C0093F0000F01F0004C02BF490011F44D
:10399000000F013BF9D041EA0C018FE70CEAD1534B
:1039A00092EA0C0F18BF93EA0C0F0AD030F0004CCB
:1039B00018BF31F0004CD8D180EA010000F000407F
:1039C000704790F0000F17BF90F0004F084691F03D
:1039D000000F91F0004F14D092EA0C0F01D1420277
:1039E0000FD193EA0C0F03D14B0218BF084608D140
:1039F00080EA010000F0004040F0FE4040F400008A
:103A0000704740F0FE4040F4400070474FF0FF0C1C
:103A10001CEAD0521EBF1CEAD15392EA0C0F93EA63
:103A20000C0F69D0A2EB030280EA010C49024FEAB5
:103A3000402037D04FF0805343EA111143EA10136E
:103A40000CF000408B4238BF5B0042F17D024FF426
:103A5000000C8B4224BF5B1A40EA0C00B3EB510F01
:103A600024BFA3EB510340EA5C00B3EB910F24BFEA
:103A7000A3EB910340EA9C00B3EBD10F24BFA3EB6F
:103A8000D10340EADC001B0118BF5FEA1C1CE0D137
:103A9000FD2A3FF650AF8B4240EBC25008BF20F0EA
:103AA000010070470CF0004C4CEA50207F32C2BF3E
:103AB000D2F1FF0340EAC250704740F400004FF0DB
:103AC0000003013A37E792F0000F00F0004C02BF0C
:103AD000400010F4000F013AF9D040EA0C0093F0D6
:103AE000000F01F0004C02BF490011F4000F013B30
:103AF000F9D041EA0C0195E70CEAD15392EA0C0F98
:103B000008D142027FF47DAF93EA0C0F7FF470AFCF
:103B1000084676E793EA0C0F04D14B023FF44CAF12
:103B200008466EE730F0004C18BF31F0004CCAD1A7
:103B300030F000427FF45CAF31F000437FF43CAFE3
:103B40005FE700BF4FF0FF3C06E000BF4FF0010C05
:103B500002E000BF4FF0010C4DF804CD4FEA4002E7
:103B60004FEA41037FEA226C18BF7FEA236C11D031
:103B700001B052EA530C18BF90EA010F58BFB2EBE4
:103B8000030088BFC81738BF6FEAE17018BF40F064
:103B9000010070477FEA226C02D15FEA402C05D118
:103BA0007FEA236CE4D15FEA412CE1D05DF8040B9D
:103BB000704700BF844608466146FFE70FB5FFF730
:103BC000C9FF002848BF10F1000F0FBD4DF808EDE8
:103BD000FFF7F4FF0CBF012000205DF808FB00BFD9
:103BE0004DF808EDFFF7EAFF34BF012000205DF833
:103BF00008FB00BF4DF808EDFFF7E0FF94BF012080
:103C000000205DF808FB00BF4DF808EDFFF7D2FF7C
:103C100094BF012000205DF808FB00BF4DF808EDBF
:103C2000FFF7C8FF34BF012000205DF808FB00BF8C
:103C30004FEA4002B2F1FE4F0FD34FF09E03B3EBB9
:103C400012620DD94FEA002343F0004310F0004FF9
:103C500023FA02F018BF404270474FF0000070474F
:103C600012F1610F01D1420205D110F0004008BFEE
:103C70006FF0004070474FF00000704742000ED2D6
:103C8000B2F1FE4F0BD34FF09E03B3EB126209D497
:103C90004FEA002343F0004323FA02F070474FF04D
:103CA0000000704712F1610F01D1420202D14FF0C2
:103CB000FF3070474FF00000704700BF00210A221C
:103CC00000F0AEBB00220A2300F008BB002A18BF98
:103CD000002B2DE9F84F984681468A46DDF828B03A
:103CE00014BF0025012518BF164605D110E004F1C8
:103CF00001050ED0B5420BD274194846640808FB82
:103D000004A73946D8470028F1DA2646B542F3D34E
:103D100000273846BDE8F88F40F20803C2F20003DE
:103D20001868704770B545F2A44645F2A445C0F640
:103D30000106C0F60105761BB61007D0043D00242D
:103D400055F8043F01349847A642F9D145F2A846F8
:103D500045F2A445C0F60106C0F60105761B11F038
:103D600095FBB61008D0043D002455F8043F0134FB
:103D70009847A642F9D170BD70BD00BF032A2DE956
:103D8000F00F09D82AB10023CC5CC454013393420C
:103D9000FAD1BDE8F00F7047830702440ED0441CEF
:103DA0004D1C15F8017C04F0030623460134294616
:103DB000013504F8027C002EF3D100E0034611F037
:103DC00003046DD0D71A0D1B032F2E6819DDC4F123
:103DD000040C4FEAC4081C1D4FEACC0C55F8047FB4
:103DE000C4EB0209234604310434B9F1030F26FA67
:103DF00008FA07FA0CFB3E464BEA0A0744F8087C2F
:103E0000ECDC9A42C5D901330131013211F8014C81
:103E100001330131934203F8024CF7D1B9E70C6842
:103E20004033403143F8404C51F83C4C43F83C4C53
:103E300051F8384C43F8384C51F8344C43F8344C72
:103E400051F8304C43F8304C51F82C4C43F82C4C82
:103E500051F8284C43F8284C51F8244C43F8244C92
:103E600051F8204C43F8204C51F81C4C43F81C4CA2
:103E700051F8184C43F8184C51F8144C43F8144CB2
:103E800051F8104C43F8104C51F80C4C43F80C4CC2
:103E900051F8084C43F8084C51F8044C43F8044CD2
:103EA000D41A3F2CBBDC11E00C681033103143F8FE
:103EB000104C51F80C4C43F80C4C51F8084C43F89A
:103EC000084C51F8044C43F8044CD41A0F2CEBDC8A
:103ED000032C96DD1C1D0D1D55F8047C161B234676
:103EE000294604340435032E44F8087CF4DC88E7C2
:103EF000032AC9B270B408D82AB10346121803F8CD
:103F0000011B9342FBD170BC70478307024409D068
:103F1000441C04F00305234604F8011C0134002D61
:103F2000F7D100E00346D51A01EB01243F2D04EB45
:103F300004442CDD1C604033D51A43F83C4C3F2D23
:103F400043F8384C43F8344C43F8304C43F82C4C8D
:103F500043F8284C43F8244C43F8204C43F81C4CBD
:103F600043F8184C43F8144C43F8104C43F80C4CED
:103F700043F8084C43F8044CDCDC08E01C601033C8
:103F8000D51A43F80C4C43F8084C43F8044C0F2D59
:103F9000F4DC032D08DD1D1D561B45F8044C032ED3
:103FA0002B4605F10405F7DC9A42ACD90133013206
:103FB00003F8011C01339342FAD1A4E7830770B5DB
:103FC000064614D10368A3F1013222EA030313F079
:103FD000803F0CD1031D1A4653F8044BA4F1013560
:103FE00025EA040414F0803FF5D0104600E0304686
:103FF00003782BB1431C184601330478002CFAD106
:1040000000F082F8304670BDC9B2F0B400294BD040
:1040100083070FD00378002B73D0994242D0431C02
:1040200005E013F8012B002A3BD091423AD09A07C1
:104030001846F6D1036841EA0127A3F1013247EAA5
:10404000074722EA030212F0803F1CD17B40A3F114
:10405000013222EA030313F0803F14D1021D02E073
:1040600014F0803F0FD1104652F8043BA3F1013603
:1040700087EA030426EA0303A4F1013513F0803F25
:1040800025EA0404ECD00378002B3AD0994209D0F9
:10409000431C01E0914205D0184613F8012B002A79
:1040A000F8D11046F0BC704781070DD00378002B83
:1040B000F8D0431C02E00278002AF3D013F0030F7B
:1040C000184603F10103F6D10368A3F1013222EA95
:1040D000030313F0803F0AD1021D104652F8041B5F
:1040E000A1F1013424EA010111F0803FF5D00378F9
:1040F000002BD7D0431C184601330278002AFAD18E
:10410000D0E71846CEE700BF80EA0102844612F0ED
:10411000030F4FD111F0030F32D14DF8044D11F0C0
:10412000040F51F8043B0BD0A3F101329A4312F073
:10413000803F04BF4CF8043B51F8043B16D100BF4C
:1041400051F8044BA3F101329A4312F0803FA4F1DD
:1041500001320BD14CF8043BA24312F0803F04BF64
:1041600051F8043B4CF8044BEAD023460CF8013BD1
:1041700013F0FF0F4FEA3323F8D15DF8044B70477B
:1041800011F0010F06D011F8012B0CF8012B002AB9
:1041900008BF704711F0020FBFD031F8022B12F0A8
:1041A000FF0F16BF2CF8022B8CF8002012F47F4F63
:1041B000B3D1704711F8012B0CF8012B002AF9D16B
:1041C000704700BF20F0030110F00300C0F10000B1
:1041D00051F8043B00F1040C4FEACC0C6FF00002E4
:1041E0001CBF22FA0CF213434FF0010C4CEA0C2CCA
:1041F0004CEA0C4CA3EB0C0222EA030212EACC12AA
:1042000004BF51F8043B0430F4D013F0FF0F1FBF7C
:10421000013013F47F4F013013F47F0F18BF0130CA
:10422000704700BFF0B422B340F204030746C2F265
:1042300000031E6802E0D3B1013A18D017F8013B21
:1042400011F8015BF0181C46407800F003000128CB
:1042500006EB050008BF03F120042B46407800F070
:104260000300012808BF05F12003E01AE3D0F0BCE9
:1042700070471046FBE700BF41EA000313F0030F4D
:10428000034670B425D0AAB10C78013A03F8014B6B
:104290004CB11C4672B111F8015F013A04F8015BA0
:1042A0002346002DF6D12AB19A18002103F8011BEC
:1042B0009342FBD170BC70470E4651F8044BA4F1F9
:1042C000013525EA040515F0803F05D1043A43F88D
:1042D000044B032AF0D8D6E73146D4E72DE9F04F56
:1042E00040F20404C2F2000485B099460B46D4F8AB
:1042F0000080029103901C4614F8015B08EB050155
:104300002346497801F00801C9B20029F3D12D2DC7
:104310007BD02B2D05BF24460B460B4614F8015BC2
:1043200039F0100112D1D9F1010038BF0020302D31
:1043300004D058B14FF00A09CB4608E0217801F0CB
:10434000DF01582965D008B14FF00809CB46002B92
:1043500059460CBF6FF000464FF000468DE80C0048
:104360003046002700F09AF930468A46594600F058
:1043700067F8BC469DE80C0016E0303DA94525DDF8
:10438000844594BF0021012151EAD77729D15545B1
:10439000D4BF00210121844518BF002109BB0BFBBC
:1043A0000C5C012714F8015B08EB0501497801F06A
:1043B0000406F6B2002EE0D111F0030106D0012967
:1043C00014BF572137216D1AA945D9DC791C0BD0B0
:1043D000C3B9604612B197B9029B136005B0BDE83E
:1043E000F08F4FF0FF37DDE70399002B0CBF6FF024
:1043F00000404FF0004022230B60002AEED0013C29
:104400000294E9E7CCF1000CE3E714F8015B012327
:1044100086E74FF010096578CB46023497E700BF76
:1044200030B440F20804C2F200040D4613460146BF
:104430002A46206830BCFFF751BF00BF00000000D3
:104440004A1E08BF7047C0F02481884240F216819E
:10445000114200F01781B0FA80F3B1FA81F2A2EBB9
:104460000303C3F11F0304A202EB03134FF0000286
:104470009F4600BFAFF30080B0EBC17F00BF42EBAF
:10448000020228BFA0EBC170B0EB817F00BF42EBFE
:10449000020228BFA0EB8170B0EB417F00BF42EB6E
:1044A000020228BFA0EB4170B0EB017F00BF42EBDE
:1044B000020228BFA0EB0170B0EBC16F00BF42EB5E
:1044C000020228BFA0EBC160B0EB816F00BF42EBDE
:1044D000020228BFA0EB8160B0EB416F00BF42EB4E
:1044E000020228BFA0EB4160B0EB016F00BF42EBBE
:1044F000020228BFA0EB0160B0EBC15F00BF42EB3E
:10450000020228BFA0EBC150B0EB815F00BF42EBBD
:10451000020228BFA0EB8150B0EB415F00BF42EB2D
:10452000020228BFA0EB4150B0EB015F00BF42EB9D
:10453000020228BFA0EB0150B0EBC14F00BF42EB1D
:10454000020228BFA0EBC140B0EB814F00BF42EB9D
:10455000020228BFA0EB8140B0EB414F00BF42EB0D
:10456000020228BFA0EB4140B0EB014F00BF42EB7D
:10457000020228BFA0EB0140B0EBC13F00BF42EBFD
:10458000020228BFA0EBC130B0EB813F00BF42EB7D
:10459000020228BFA0EB8130B0EB413F00BF42EBED
:1045A000020228BFA0EB4130B0EB013F00BF42EB5D
:1045B000020228BFA0EB0130B0EBC12F00BF42EBDD
:1045C000020228BFA0EBC120B0EB812F00BF42EB5D
:1045D000020228BFA0EB8120B0EB412F00BF42EBCD
:1045E000020228BFA0EB4120B0EB012F00BF42EB3D
:1045F000020228BFA0EB0120B0EBC11F00BF42EBBD
:10460000020228BFA0EBC110B0EB811F00BF42EB3C
:10461000020228BFA0EB8110B0EB411F00BF42EBAC
:10462000020228BFA0EB4110B0EB011F00BF42EB1C
:10463000020228BFA0EB0110B0EBC10F00BF42EB9C
:10464000020228BFA0EBC100B0EB810F00BF42EB1C
:10465000020228BFA0EB8100B0EB410F00BF42EB8C
:10466000020228BFA0EB4100B0EB010F00BF42EBFC
:10467000020228BFA0EB0100104670470CBF0120CA
:1046800000207047B1FA81F2C2F11F0220FA02F055
:10469000704708B14FF0FF3000F00EB80029F8D095
:1046A0002DE90340FFF7CCFEBDE8064002FB00F316
:1046B000A1EB0301704700BF704700BF2DE9F04137
:1046C000057890B000350646334818BF01250CF038
:1046D0003DFD324B00240593314BA54206930CBFA0
:1046E000234680230A934FF480730B934FF4806327
:1046F0000CBF4FF001084FF002080C9320230D93DC
:1047000025484FF4005305A90E930794CDF8208057
:1047100009940F940CF096FD1F4801210CF0B1FD97
:1047200001274FF460231F486946029300948DF8D7
:1047300004508DF8057003948DF810800DF064FB23
:10474000184804213A4603230DF0AFFB2DB115485C
:104750003178022203230DF0A8FB124801210DF04D
:1047600080FB104801210DF073FB0E480DF082FB19
:104770000C480DF084FB0028FAD10A480DF083FBA9
:1047800008480DF085FB0028FAD1064801210DF0FC
:1047900083FB10B0BDE8F081080002404C240140CA
:1047A0005C01002000240140024B33F8100080B26D
:1047B000704700BF5C010020704700002E4B2DE9C0
:1047C000F3411B780546002B38D0002426462746A7
:1047D000A0460822532032216B460BF037FD9DF88E
:1047E00001209DF80030013403EB02231BB29DF839
:1047F000032098449DF80230E4B203EB02231BB27D
:10480000FF189DF805209DF80430202C03EB0223AF
:104810001BB21E449DF8073003F07F0301D0002B2C
:10482000D7D1164B98FBF4F897FBF4F796FBF4F608
:10483000A5F800806F80AE801C701AE006226B46DF
:10484000532032210BF002FD9DF801209DF800302D
:1048500003EB02232B809DF803209DF8023003EB2D
:1048600002236B809DF805209DF8043003EB0223A2
:10487000AB80BDE8FC8100BF600100206101002029
:1048800008B5134B53201B782D2108227BB10BF068
:10489000ABFD31210A2253200BF0A6FD2C210C2266
:1048A00053200BF0A1FD53203821902209E00BF09A
:1048B0009BFD31210A2253200BF096FD53202C2121
:1048C0000A220BF091FD034B40F209121A8008BD39
:1048D000600100200801002073B5002402AB0646E9
:1048E0000D4603F8014D5320214601220BF0AEFC8A
:1048F00078B19DF80730E52B0AD13278054B0120BD
:104900001A70054B2B60054B6B60054BAB6000E0EC
:1049100020467CBD6001002081480008BD4700089A
:10492000B94700082C4B70B519882C4B5A89B3F93C
:104930001200891A1A89C0025143B3F91420C9130D
:104940008A1890FBF2F28A18DA61A2F57A6202FB09
:1049500002F1B3F90460B3F90250B3F90E405543C4
:104960007243B3F90C6009134C437143091401EB12
:1049700062320232D988921002F50042B3F9200067
:104980004A43B3F90030E91201EBE42101EB830162
:1049900001FA00F1124B02311B68D20BA3EBA1010B
:1049A0004CF2503343FA00F34B4303D45B00B3FBA8
:1049B000F2F302E0B3FBF2F35B001A12524309492F
:1049C00040F6DE3059435043091401EB204000F615
:1049D000CF6003EB201070BD920100206801002021
:1049E0008C01002043E3FFFF104B07B51B781BB978
:1049F0000F4B1A8801321A80032201AB7720F6216F
:104A00000BF024FC9DF805209DF80430120242EAC8
:104A100003429DF806301A43064BB3F92030C3F128
:104A2000080322FA03F2044B1A600EBD6201002053
:104A300064010020680100208C0100200B4B07B5A9
:104A40001B781BB90A4B1A8801321A80022201AB6B
:104A50007720F6210BF0FAFB9DF805309DF8042035
:104A600043EA0222034B1A800EBD00BF6201002000
:104A70006401002092010020064B002193F82020C1
:104A8000054B9201343219707720F42102F0FC02B8
:104A90000BF0AABC6801002062010020034B002239
:104AA0001A707720F4212E220BF09EBC62010020A8
:104AB00010B54FF480400DF035FB0128044605D1B8
:104AC0004FF480400DF03CFB014B1C7010BD00BF4B
:104AD000620100202DE9F047DFF8BCA18CB09AF804
:104AE00000800546B8F1000F40F0C480634F0226F5
:104AF00010234FF40059384602A94FF480448DF832
:104B00000A608DF80B30ADF808900DF01CFA042304
:104B1000384602A98DF80B30ADF808400DF013FAB5
:104B20000E213046C7F810900DF0A6FA0126082392
:104B300004A804948DF815308DF814808DF8166053
:104B40000DF0B4FA28238DF80C3003A80F238DF84C
:104B50000D308DF80E308DF80F600DF021F9142016
:104B60000BF0DDFC7720D02132460DF107030BF06E
:104B70006DFB9DF80730424C0322552BE3752284D0
:104B800074D1D12132460DF1070377200BF05EFB83
:104B90009DF80730772003F00F021B092276637619
:104BA000162206ABAA210BF051FB9DF818209DF8A8
:104BB000193043EA022323809DF81A209DF81B3008
:104BC00043EA022363809DF81C209DF81D3043EAD0
:104BD0000223A3809DF81E209DF81F3043EA022384
:104BE000E3809DF820209DF8213043EA02232381B1
:104BF0009DF822209DF8233043EA022363819DF82B
:104C000024209DF8253043EA0223A3819DF8262025
:104C10009DF8273043EA0223E3819DF828209DF880
:104C2000293043EA022323829DF82A209DF82B3065
:104C300043EA022363829DF82C209DF82D3043EA3D
:104C40000223A38241F2941245F2E4738AF80060D1
:104C500085E80C000B4BAE60EB600B4B2B610B4BF4
:104C60006B610B4BAB610B4BEB6103E0C7F814902E
:104C7000404600E001200CB0BDE8F0870010014084
:104C8000680100209D4A00083D4A0008794A000852
:104C9000E94900082549000890010020F0B52F4F90
:104CA0002F4B7E891B68360238899E1B86FB0001CC
:104CB000B7F804C0C20942EA41624FEA0C4CCB117A
:104CC00012EB0C04FA8843F1000586FB0223100A5C
:104CD000191240EA0360BB89B7F802C086FB03677C
:104CE0004FEACC3C10EB0C0041F10001F30D43EA1C
:104CF000472303F5FA62B2F5FA6F14DA03FB03F700
:104D000005267743DFF860C07E10BF1062450CDADD
:104D100003F6AC535B43072202FB03660B225343AB
:104D200007EB630701E000273E460E4BA41B65EB33
:104D3000E675D3F800C0C21B61EBE773ACFB020160
:104D40000CFB0311420D42EAC1224B15121B63EB0F
:104D50000503D00B40EA4340F0BD00BF9C0100209A
:104D6000980100209401002024FAFFFF07B5772066
:104D700001AB002103220BF069FA9DF805009DF8B4
:104D80000430000240EA03409DF8063018430EBD8F
:104D900008B5FFF7EBFF08B1014B186008BD00BF75
:104DA0009401002008B5FFF7E1FF08B1014B18603E
:104DB00008BD00BF980100207720482101220BF098
:104DC00013BB7720582101220BF00EBB08B57720CA
:104DD0001E2101220BF008FB41F28830BDE808409B
:104DE0000BF092BBF0B54E4D85B0022303A94FF4F2
:104DF00000568DF80E300446102328468DF80F30EB
:104E0000ADF80C600DF09FF832206E610BF087FB5F
:104E10007720A02101220DF107030BF017FA0028DB
:104E20007CD032200BF07BFBFFF7D0FFFFF7CEFFEB
:104E3000FFF7CCFFFFF7CAFFFFF7C8FF394EA025E9
:104E4000002702227720294602AB02358DF8087030
:104E50008DF809700BF0FAF99DF808209DF80930DB
:104E6000EDB243EA0223B02D26F8023FE9D12E49E4
:104E70000022CD89012305F00F0005F47F45CD8187
:104E8000565A0232002E18BF0023102AF8D173BBE5
:104E9000254E1A4612F0010F4FEA620104D016F8AF
:104EA00011104B40082104E036F8111083EA112359
:104EB000F8E713F4004F18BF83F4C0535B000139C7
:104EC000F7D10132102AE5D1174AC3F30333054362
:104ED0009842D5810DD00AE0013CFFF777FF14F02E
:104EE000FF04F9D132200BF01AFB012016E000205C
:104EF00014E042F21C53236063600123A3600B4B58
:104F00003220E3600A4B23610A4B63610A4BA361C1
:104F10000A4BE3610BF003FB0A24DDE705B0F0BDAB
:104F2000001001409A0100209C010020C34D0008A0
:104F3000A54D0008B94D0008914D00089D4C000892
:104F4000114B10B5114819880DF059F8104C18B1D3
:104F50000BF0BCFA206010E00BF0B8FA236898421E
:104F60000BD9C01AAE280B4B05D90B4A12889042B8
:104F700001D2188001E000221A80084B1868BDE8B1
:104F800010400DF0DDB800BFB2010020000C014060
:104F9000B8010020B4010020B0010020C0010020B1
:104FA000FFF7CEBFFFF7CCBF01287FB5044612D074
:104FB00002D3022828D11BE03F4B4FF480721A80A5
:104FC0003E4A4FF4007313803D4A13603D4B092263
:104FD0001A70172209E0384B384A188002231380D0
:104FE000374A1360374B07221870374B1A705DE051
:104FF0004FF47A700BF093FA22462020322102AB54
:105000000BF024F9044653E001284FF000044FD878
:105010002E4B93F87C31012B03D82D4A45F6C05115
:105020001180033B012B03D8294B4FF230221A8009
:10503000214B10251B882748ADF8043001A9022315
:105040008DF807508DF806300CF07DFF1B4B214882
:105050001B881B4EADF8043004230DEB03018DF8C3
:1050600007300CF070FF174B012019780DF004F891
:1050700030680DF065F833688DF80D500026012575
:1050800002A802938DF80E508DF80C600DF00EF80A
:105090000D4B114A1B7859B203F01F0305FA03F5B3
:1050A0000E4B490942F821501E6001E00124AFE790
:1050B000204604B070BD00BFC4010020B201002032
:1050C000C0010020BD010020BC010020580A0020C2
:1050D000B0010020000C014000E100E0AC01002024
:1050E00010B504460BF00AFA0D4B19683C318842A2
:1050F00014D318600B4B0C481A883A23B2FBF3F315
:1051000023800A4C21880CF080FF0B200BF0FCF967
:10511000054821880CF07BFF012010BD002010BD48
:10512000AC010020B4010020000C0140C4010020AB
:1051300010B504460BF0E2F9074B19686431884258
:1051400008D31860054B01201A883A23B2FBF3F309
:10515000238010BD002010BDAC010020B401002050
:1051600013B504460BF0CAF90E4B1A683C32904254
:1051700016D3186032212020022201AB0BF066F812
:1051800050B19DF805209DF8043043EA02231BB27C
:105190003A2293FBF2F301E04FF6FF73238000E025
:1051A00000201CBDAC01002007B5002202AB03F8B3
:1051B000012D1E200A2101220BF048F828B19DF88C
:1051C0000700B0F14803584258410EBD13B50622FE
:1051D00004466B461E2003210BF038F89DF8002092
:1051E0009DF8013043EA022323809DF802209DF8B8
:1051F000033043EA022363809DF804209DF80530C4
:1052000043EA0223A3801CBD2DE9F04F4FF48053E5
:1052100085B0ADF8043002238DF8063004230DEB81
:10522000030105466E488DF807300CF08CFE3220E5
:105230000BF075F9002111221E200BF0D5F8012189
:1052400040221E200BF0D0F80DF1080964200BF06D
:1052500066F94846FFF7BAFF0024CA46DFF884B172
:10526000DFF87C914FF00A082746264602210122EA
:105270001E200BF0B9F832200BF051F95046FFF721
:10528000A5FFBDF90820BDF90A10BDF90C30A4181E
:105290009142B8BF0A46F6189A42B8BF13465B451A
:1052A0000F440BDBD9F80C30B8F1010883F0100380
:1052B000C9F80C30DAD14FF0010801E04FF00008D6
:1052C0001E20002112220BF08FF8DFF818B1DFF852
:1052D00010A14FF00A09022101221E200BF084F8D0
:1052E00032200BF01CF902A8FFF770FFBDF908206F
:1052F000BDF90A10BDF90C30A41A9142B8BF0A4694
:10530000F61A9A42B8BF13465B45C1EB070709DBA3
:10531000DAF80C30B9F1010983F01003CAF80C3047
:10532000D9D101E04FF00008002170221E200BF0BF
:105330005BF8012120221E200BF056F81E200221CE
:1053400000220BF051F864200BF0E9F8B8F1000FDF
:1053500030D02046FEF752FAFDF710FE02460B460B
:105360001BA1D1E90001FDF787FFFEF73DF920F011
:1053700000443846FEF742FAFDF700FE02460B46AF
:1053800013A1D1E90001FDF777FFFEF72DF920F019
:1053900000473046FEF732FAFDF7F0FD02460B46B5
:1053A0000DA1D1E90001FDF767FFFEF71DF920F01F
:1053B000004003E04FF07E500746044615B12C60D4
:1053C0006F60A86005B0BDE8F08F00BFAFF300804C
:1053D000000008F7FF93D2400000880B004CD1403A
:1053E000000C014001F0FFFF1FB5364C2378BBB91C
:1053F0007A238DF80430344B34481968FEF748F9A5
:105400004FF07C51FEF74EFAFEF738FC01AB8DF8F9
:105410000500FF216D2002220AF078FF01234EE0F3
:10542000012B35D12A4A79238DF80430B2F90030A6
:105430006FF463718B4208DB40F28D318B4206DCE6
:105440000A2193FBF1F35A3302E0002300E0B42376
:105450008DF80530B2F902306FF46372934208DBC5
:1054600040F28D32934206DC0A2293FBF2F35A3368
:1054700002E0002300E0B4238DF80630032201ABE4
:105480006D20FF210AF042FF0E4B02221A7017E036
:10549000022B15D164238DF8043001238DF80530DB
:1054A0000C4B6D205B78FF21002B14BF01230023E0
:1054B0008DF80630032201AB0AF028FF0023237089
:1054C0001FBD00BFC6010020440E00200000344371
:1054D000400600203E0D002007B56B238DF80430F8
:1054E0000A238DF805308DF806306D20FF21032248
:1054F00001AB0AF00BFF0EBD03885B4203804388BB
:105500005B424380704713B50622044601216B4677
:105510001C200AF09BFE9DF801309DF800209DF8AC
:10552000021043EA022242F38D02042392FBF3F2BB
:1055300022809DF8032042EA012242F38D0292FB71
:10554000F3F262809DF804109DF8052042EA0122E2
:1055500042F38D0292FBF3F3A3801CBD13B520230D
:10556000ADF8043004230DEB0301022419488DF833
:1055700007308DF806400CF0E6FC2A2100221C20A2
:105580000AF032FF0E211C2022460AF02DFF0F21C7
:1055900003221C200AF028FF2B2112221C200AF0D3
:1055A00023FF2C211C2022460AF01EFF2D21012260
:1055B0001C200AF019FF2E2100221C200AF014FFE3
:1055C00005221C202A210AF00FFF034B4FF48072A2
:1055D0001A801CBD000801400801002037B50025D5
:1055E00002AB044603F8015D1C200D2101220AF0E4
:1055F0002DFE80B19DF807302A2B01D01A2B09D13E
:10560000054A01202260054A6260054AA260054AF7
:10561000137000E028463EBD5D55000807550008A0
:10562000F9540008C701002083885B4283807047DB
:1056300013B50222044601AB68201B210AF006FEC6
:105640009DF804209DF8053043EA022303F54E53EC
:1056500010334FF48C7293FBF2F3233323801CBD81
:1056600013B5062204461D216B4668200AF0EEFDA4
:105670009DF801309DF800209DF8021043EA0222B7
:1056800012B2042392FBF3F222809DF8032042EA37
:10569000012212B292FBF3F262809DF804109DF891
:1056A000052042EA012212B292FBF3F3A3801CBD53
:1056B00008B519200AF033FF6820152100220AF0EE
:1056C00093FE10B903200AF0C5FF0C4B16211A787F
:1056D000682042F018020AF087FE17210022682095
:1056E0000AF082FE3D21012268200AF07DFE68203A
:1056F0003E210122BDE808400AF076BEFC000020F1
:1057000010B5044619200AF00AFF6820152100226E
:105710000AF06AFE40B1054B01202360044B636030
:10572000044BA360044BE36010BD00BFB1560008FA
:105730006156000829560008315600082A28114BE6
:1057400013D004D80A2814D0142814D10FE0BC2890
:1057500007D0B0F5807F02D062280CD103E0002290
:1057600008E0012206E0022204E0032202E0042213
:1057700000E005221A701A786820162142F01802FB
:105780000AF032BEFC000020044B1A78044B0AB128
:10579000FF2201E04FF400721A807047C801002018
:1057A00008010020038842885B42028043807047E2
:1057B00083885B428380704713B50222044601ABA5
:1057C000682041210AF042FD9DF804209DF8053033
:1057D00043EA02231BB24FF4AA7293FBF2F3253380
:1057E00023801CBD13B50622044643216B46682066
:1057F0000AF02CFD9DF801309DF800209DF8021064
:1058000043EA022212B2042392FBF3F222809DF8B3
:10581000032042EA012212B292FBF3F262809DF869
:1058200004109DF8052042EA012212B292FBF3F324
:10583000A3801CBD13B5062204463B216B4668209D
:105840000AF004FD9DF801309DF800209DF802103B
:1058500043EA022212B2082392FBF3F222809DF85F
:10586000032042EA012212B292FBF3F262809DF819
:1058700004109DF8052042EA012212B292FBF3F3D4
:10588000A3801CBD37B504254FF4005302242948DA
:105890000DEB0501ADF804308DF806408DF807508A
:1058A0000CF051FB6B21802268200AF09DFD052041
:1058B0000AF035FE1921002268200AF095FD6B21BF
:1058C000032268200AF090FD6820372122460AF062
:1058D0008BFD194BB3F862302A2B19D006D80A2B4E
:1058E00012D0142B0ED0052B12D10FE0BC2B11D0EF
:1058F000B3F5807F02D0622B0AD101E000220AE0DA
:10590000224608E02A4606E0052204E0062202E0DC
:10591000032200E001221A2168200AF065FD1B2104
:10592000182268200AF060FD68201C2110220AF06D
:105930005BFD3EBD000C0140580A0020F0B5064654
:1059400085B023200C460AF0EAFD6820752101226B
:105950000DF107030AF07AFC00284BD09DF8077080
:10596000682F46D1062102AB38460A460AF06EFC83
:105970009DF80B309DF80D5003F001035B0005F01E
:10598000010543EA85059DF8093003F001031D4335
:105990000CD0012D01D1184B1AE0022D02D10022AA
:1059A000154B13E005200AF055FE12E00C210122F0
:1059B0000DF1070338460AF049FC9DF8073013F053
:1059C0000F03EFD0042B0C4B02D101221A7000E020
:1059D0001D700A4B01203360094B7360094BB360A3
:1059E000094B2360094B6360094BA360094BE360DB
:1059F00000E0002005B0F0BDC80100208957000874
:105A000035580008A557000885580008E5570008D4
:105A1000B1570008B957000803885B4203808388A8
:105A20005B428380704713B506220446A8216B466B
:105A300068200AF00BFC9DF801309DF800209DF8CD
:105A4000021043EA022212B2042392FBF3F26280B4
:105A50009DF8032042EA012212B292FBF3F2228067
:105A60009DF804109DF8052042EA012212B292FB33
:105A7000F3F3A3801CBD000008B564200AF04FFDBD
:105A800068202321F0220AF0AFFC10B903200AF0AD
:105A9000E1FD05200AF043FD044B68201A7820211F
:105AA00042F00F02BDE808400AF09EBCC901002088
:105AB00013B5044619200AF032FD68200F21012297
:105AC0000DF107030AF0C2FB9DF80730D32B07D175
:105AD000044B01202360044B6360044BA36000E08F
