:020000040800F2
:10000000005000208D2B0008312C000825730008BB
:10001000312C0008312C0008312C000800000000B1
:10002000000000000000000000000000312C00086B
:10003000312C000800000000312C0008CDBA000867
:10004000312C0008312C0008312C0008312C00081C
:10005000312C0008312C0008312C0008111A00083E
:10006000312C0008312C0008312C0008312C0008FC
:10007000312C0008312C00084DBD0008312C00083F
:10008000312C0008312C0008312C0008312C0008DC
:10009000312C0008312C0008312C0008151A0008FA
:1000A000312C0008312C0008312C00089D28000854
:1000B000F5280008012900080D2900080DB70008DF
:1000C000BDBA000811B70008B9BA0008312C000801
:1000D000312C0008312C00083DC00008312C0008EC
:1000E00021150008312C0008312C00080000000008
:1000F0000000000000000000000000000000000000
:0C01000000000000000000005FF808F1A3
:1001100010B5054C237833B9044810B10448AFF347
:1001200000800121217010BD8C040020000000001F
:100130000432010808B5064B1BB106480649AFF367
:1001400000800648016811B1054B03B1984708BD0E
:100150000000000004320108900400208C040020FC
:100160000000000081F0004102E000BF83F0004386
:1001700030B54FEA41044FEA430594EA050F08BF42
:1001800090EA020F1FBF54EA000C55EA020C7FEA06
:10019000645C7FEA655C00F0E2804FEA5454D4EB83
:1001A0005555B8BF6D420CDD2C4480EA020281EA4D
:1001B000030382EA000083EA010180EA020281EA85
:1001C0000303362D88BF30BD11F0004F4FEA0131D7
:1001D0004FF4801C4CEA113102D0404261EB4101E6
:1001E00013F0004F4FEA03334CEA133302D052426C
:1001F00063EB430394EA050F00F0A780A4F1010428
:10020000D5F1200E0DDB02FA0EFC22FA05F2801861
:1002100041F1000103FA0EF2801843FA05F3594147
:100220000EE0A5F120050EF1200E012A03FA0EFCC6
:1002300028BF4CF0020C43FA05F3C01851EBE371F0
:1002400001F0004507D54FF0000EDCF1000C7EEB0D
:1002500000006EEB0101B1F5801F1BD3B1F5001F4B
:100260000CD349085FEA30004FEA3C0C04F101046A
:100270004FEA445212F5800F80F09A80BCF1004F93
:1002800008BF5FEA500C50F1000041EB045141EA15
:10029000050130BD5FEA4C0C404141EB010111F416
:1002A000801FA4F10104E9D191F0000F04BF0146C1
:1002B0000020B1FA81F308BF2033A3F10B03B3F19F
:1002C00020020CDA0C3208DD02F1140CC2F10C022F
:1002D00001FA0CF021FA02F10CE002F11402D8BF8D
:1002E000C2F1200C01FA02F120FA0CFCDCBF41EA59
:1002F0000C019040E41AA2BF01EB0451294330BD28
:100300006FEA04041F3C1CDA0C340EDC04F1140404
:10031000C4F1200220FA04F001FA02F340EA0300DB
:1003200021FA04F345EA030130BDC4F10C04C4F121
:10033000200220FA02F001FA04F340EA0300294601
:1003400030BD21FA04F0294630BD94F0000F83F44B
:10035000801306BF81F480110134013D4EE77FEA2E
:10036000645C18BF7FEA655C29D094EA050F08BF7A
:1003700090EA020F05D054EA000C04BF194610465B
:1003800030BD91EA030F1EBF0021002030BD5FEA9F
:10039000545C05D14000494128BF41F0004130BDC7
:1003A00014F580043CBF01F5801130BD01F000451B
:1003B00045F0FE4141F470014FF0000030BD7FEA8E
:1003C000645C1ABF194610467FEA655C1CBF0B4689
:1003D000024650EA013406BF52EA033591EA030FA0
:1003E00041F4002130BD00BF90F0000F04BF002198
:1003F000704730B54FF4806404F132044FF00005CB
:100400004FF0000150E700BF90F0000F04BF002143
:10041000704730B54FF4806404F1320410F00045A9
:1004200048BF40424FF000013EE700BF42004FEAA4
:10043000E2014FEA31014FEA02701FBF12F07F4321
:1004400093F07F4F81F06051704792F0000F14BF1E
:1004500093F07F4F704730B54FF4607401F0004562
:1004600021F0004120E700BF50EA010208BF7047B9
:1004700030B54FF000050AE050EA010208BF7047AE
:1004800030B511F0004502D5404261EB41014FF417
:10049000806404F132045FEA915C3FF4DCAE4FF01B
:1004A00003025FEADC0C18BF03325FEADC0C18BF02
:1004B000033202EBDC02C2F1200300FA03FC20FA53
:1004C00002F001FA03FE40EA0E0021FA02F11444A0
:1004D000C1E600BF70B54FF0FF0C4CF4E06C1CEAB5
:1004E00011541DBF1CEA135594EA0C0F95EA0C0F2A
:1004F00000F0DEF82C4481EA030621EA4C5123EA9D
:100500004C5350EA013518BF52EA033541F48011CB
:1005100043F4801338D0A0FB02CE4FF00005E1FB7E
:1005200002E506F00042E0FB03E54FF00006E1FBC8
:1005300003569CF0000F18BF4EF0010EA4F1FF040B
:10054000B6F5007F64F5407404D25FEA4E0E6D414B
:1005500046EB060642EAC62141EA55514FEAC5205C
:1005600040EA5E504FEACE2EB4F1FD0C88BFBCF5D8
:10057000E06F1ED8BEF1004F08BF5FEA500E50F189
:10058000000041EB045170BD06F0004646EA01014F
:1005900040EA020081EA0301B4EB5C04C2BFD4EB81
:1005A0000C0541EA045170BD41F480114FF0000E7A
:1005B000013C00F3AB8014F1360FDEBF002001F0E8
:1005C000004170BDC4F10004203C35DA0C341BDC62
:1005D00004F11404C4F1200500FA05F320FA04F034
:1005E00001FA05F240EA020001F0004221F0004168
:1005F00010EBD37021FA04F642EB06015EEA430EDB
:1006000008BF20EAD37070BDC4F10C04C4F120050A
:1006100000FA04F320FA05F001FA04F240EA0200BD
:1006200001F0004110EBD37041F100015EEA430E8E
:1006300008BF20EAD37070BDC4F1200500FA05F2AE
:100640004EEA020E20FA04F301FA05F243EA02032D
:1006500021FA04F001F0004121FA04F220EA02003C
:1006600000EBD3705EEA430E08BF20EAD37070BD82
:1006700094F0000F0FD101F00046400041EB010162
:1006800011F4801F08BF013CF7D041EA060195F044
:10069000000F18BF704703F00046520043EB0303FE
:1006A00013F4801F08BF013DF7D043EA06037047EB
:1006B00094EA0C0F0CEA135518BF95EA0C0F0CD0F6
:1006C00050EA410618BF52EA4306D1D181EA03013C
:1006D00001F000414FF0000070BD50EA410606BF36
:1006E0001046194652EA430619D094EA0C0F02D17B
:1006F00050EA013613D195EA0C0F05D152EA0336C0
:100700001CBF104619460AD181EA030101F00041DD
:1007100041F0FE4141F470014FF0000070BD41F026
:10072000FE4141F4780170BD70B54FF0FF0C4CF400
:10073000E06C1CEA11541DBF1CEA135594EA0C0F1F
:1007400095EA0C0F00F0A7F8A4EB050481EA030E6C
:1007500052EA03354FEA013100F088804FEA033353
:100760004FF0805545EA131343EA12634FEA022221
:1007700045EA111545EA10654FEA00260EF00041E2
:100780009D4208BF964244F1FD0404F5407402D234
:100790005B084FEA3202B61A65EB03055B084FEAC5
:1007A00032024FF480104FF4002CB6EB020E75EBC2
:1007B000030E22BFB61A754640EA0C005B084FEAEA
:1007C0003202B6EB020E75EB030E22BFB61A754667
:1007D00040EA5C005B084FEA3202B6EB020E75EBB2
:1007E000030E22BFB61A754640EA9C005B084FEA2A
:1007F0003202B6EB020E75EB030E22BFB61A754637
:1008000040EADC0055EA060E18D04FEA051545EA25
:1008100016754FEA06164FEAC30343EA52734FEACE
:10082000C2025FEA1C1CC0D111F4801F0BD141EA47
:1008300000014FF000004FF0004CB6E711F4801FAC
:1008400004BF01430020B4F1FD0C88BFBCF5E06F8C
:100850003FF6AFAEB5EB030C04BFB6EB020C5FEA9C
:10086000500C50F1000041EB045170BD0EF0004EF1
:100870004EEA113114EB5C04C2BFD4EB0C0541EA23
:10088000045170BD41F480114FF0000E013C90E620
:1008900045EA060E8DE60CEA135594EA0C0F08BFE4
:1008A00095EA0C0F3FF43BAF94EA0C0F0AD150EAE3
:1008B00001347FF434AF95EA0C0F7FF425AF104676
:1008C00019462CE795EA0C0F06D152EA03353FF49E
:1008D000FDAE1046194622E750EA410618BF52EA1B
:1008E00043067FF4C5AE50EA41047FF40DAF52EAEF
:1008F00043057FF4EBAE12E74FF0FF3C06E000BF8C
:100900004FF0010C02E000BF4FF0010C4DF804CD98
:100910004FEA410C7FEA6C5C4FEA430C18BF7FEA58
:100920006C5C1BD001B050EA410C0CBF52EA430C86
:1009300091EA030F02BF90EA020F0020704710F106
:10094000000F91EA030F58BF994208BF90422CBF95
:10095000D8176FEAE37040F0010070474FEA410C8E
:100960007FEA6C5C02D150EA013C07D14FEA430CAC
:100970007FEA6C5CD6D152EA033CD3D05DF8040B1D
:10098000704700BF8446104662468C46194663464F
:1009900000E000BF01B5FFF7B7FF002848BF10F126
:1009A000000F01BD4DF808EDFFF7F4FF0CBF01206B
:1009B00000205DF808FB00BF4DF808EDFFF7EAFFE7
:1009C00034BF012000205DF808FB00BF4DF808EDA2
:1009D000FFF7E0FF94BF012000205DF808FB00BF97
:1009E0004DF808EDFFF7CEFF94BF012000205DF821
:1009F00008FB00BF4DF808EDFFF7C4FF34BF01202E
:100A000000205DF808FB00BF4FEA410212F500121A
:100A100015D211D56FF47873B3EB625212D94FEA45
:100A2000C12343F0004343EA505311F0004F23FA2F
:100A300002F018BF404270474FF00000704750EA84
:100A4000013005D111F0004008BF6FF00040704741
:100A50004FF00000704700BF4FEA4102B2F1E0439F
:100A600024BFB3F5001CDCF1FE5C0DD901F0004C95
:100A70004FEAC0024CEA5070B2F1004F40EB8300E5
:100A800008BF20F00100704711F0804F21D113F111
:100A90003872BCBF01F00040704741F480114FEA4A
:100AA0005252C2F11802C2F1200C10FA0CF320FAD3
:100AB00002F018BF40F001004FEAC1234FEAD323F0
:100AC00003FA0CFC40EA0C0023FA02F34FEA43035A
:100AD000CCE77FEA625307D150EA01331EBF4FF0E3
:100AE000FE4040F44000704701F0004040F0FE40FE
:100AF00040F40000704700BF80F0004002E000BFFB
:100B000081F0004142001FBF5FEA410392EA030FF8
:100B10007FEA226C7FEA236C6AD04FEA1262D2EB42
:100B20001363C1BFD218414048404140B8BF5B4247
:100B3000192B88BF704710F0004F40F4000020F0E0
:100B40007F4018BF404211F0004F41F4000121F0F6
:100B50007F4118BF494292EA030F3FD0A2F1010240
:100B600041FA03FC10EB0C00C3F1200301FA03F17E
:100B700000F0004302D5494260EB4000B0F5000FA1
:100B800013D3B0F1807F06D340084FEA310102F160
:100B90000102FE2A51D2B1F1004F40EBC25008BF12
:100BA00020F0010040EA03007047490040EB0000DC
:100BB00010F4000FA2F10102EDD1B0FA80FCACF10B
:100BC000080CB2EB0C0200FA0CF0AABF00EBC2500A
:100BD00052421843BCBFD0401843704792F0000FF8
:100BE00081F4000106BF80F400000132013BB5E74B
:100BF0004FEA41037FEA226C18BF7FEA236C21D0C1
:100C000092EA030F04D092F0000F08BF0846704725
:100C100090EA010F1CBF0020704712F07F4F04D1F3
:100C2000400028BF40F00040704712F100723CBF06
:100C300000F50000704700F0004343F0FE4040F430
:100C4000000070477FEA226216BF08467FEA2363EE
:100C50000146420206BF5FEA412390EA010F40F4D9
:100C6000800070474FF0000304E000BF10F0004325
:100C700048BF40425FEA000C08BF704743F096430C
:100C800001464FF000001CE050EA010208BF704727
:100C90004FF000030AE000BF50EA010208BF7047AE
:100CA00011F0004302D5404261EB41015FEA010CC3
:100CB00002BF84460146002043F0B64308BFA3F1BB
:100CC0008053A3F50003BCFA8CF2083AA3EBC2539D
:100CD00010DB01FA02FC634400FA02FCC2F12002BC
:100CE000BCF1004F20FA02F243EB020008BF20F0F3
:100CF0000100704702F1200201FA02FCC2F1200259
:100D000050EA4C0021FA02F243EB020008BF20EA4D
:100D1000DC7070474FF0FF0C1CEAD0521EBF1CEA7B
:100D2000D15392EA0C0F93EA0C0F6FD01A4480EA69
:100D3000010C400218BF5FEA41211ED04FF0006352
:100D400043EA501043EA5111A0FB01310CF000407E
:100D5000B1F5000F3EBF490041EAD3715B0040EAA4
:100D6000010062F17F02FD2A1DD8B3F1004F40EB74
:100D7000C25008BF20F00100704790F0000F0CF047
:100D8000004C08BF49024CEA502040EA51207F3A0B
:100D9000C2BFD2F1FF0340EAC250704740F40000E6
:100DA0004FF00003013A5DDC12F1190FDCBF00F0D7
:100DB00000407047C2F10002410021FA02F1C2F185
:100DC000200200FA02FC5FEA310040F1000053EA21
:100DD0004C0308BF20EADC70704792F0000F00F06F
:100DE000004C02BF400010F4000F013AF9D040EA75
:100DF0000C0093F0000F01F0004C02BF490011F409
:100E0000000F013BF9D041EA0C018FE70CEAD15306
:100E100092EA0C0F18BF93EA0C0F0AD030F0004C86
:100E200018BF31F0004CD8D180EA010000F000403A
:100E3000704790F0000F17BF90F0004F084691F0F8
:100E4000000F91F0004F14D092EA0C0F01D1420232
:100E50000FD193EA0C0F03D14B0218BF084608D1FB
:100E600080EA010000F0004040F0FE4040F4000045
:100E7000704740F0FE4040F4400070474FF0FF0CD8
:100E80001CEAD0521EBF1CEAD15392EA0C0F93EA1F
:100E90000C0F69D0A2EB030280EA010C49024FEA71
:100EA000402037D04FF0805343EA111143EA10132A
:100EB0000CF000408B4238BF5B0042F17D024FF4E2
:100EC000000C8B4224BF5B1A40EA0C00B3EB510FBD
:100ED00024BFA3EB510340EA5C00B3EB910F24BFA6
:100EE000A3EB910340EA9C00B3EBD10F24BFA3EB2B
:100EF000D10340EADC001B0118BF5FEA1C1CE0D1F3
:100F0000FD2A3FF650AF8B4240EBC25008BF20F0A5
:100F1000010070470CF0004C4CEA50207F32C2BFF9
:100F2000D2F1FF0340EAC250704740F400004FF096
:100F30000003013A37E792F0000F00F0004C02BFC7
:100F4000400010F4000F013AF9D040EA0C0093F091
:100F5000000F01F0004C02BF490011F4000F013BEB
:100F6000F9D041EA0C0195E70CEAD15392EA0C0F53
:100F700008D142027FF47DAF93EA0C0F7FF470AF8B
:100F8000084676E793EA0C0F04D14B023FF44CAFCE
:100F900008466EE730F0004C18BF31F0004CCAD163
:100FA00030F000427FF45CAF31F000437FF43CAF9F
:100FB0005FE700BF4FF0FF3C06E000BF4FF0010CC1
:100FC00002E000BF4FF0010C4DF804CD4FEA4002A3
:100FD0004FEA41037FEA226C18BF7FEA236C11D0ED
:100FE00001B052EA530C18BF90EA010F58BFB2EBA0
:100FF000030088BFC81738BF6FEAE17018BF40F020
:10100000010070477FEA226C02D15FEA402C05D1D3
:101010007FEA236CE4D15FEA412CE1D05DF8040B58
:10102000704700BF844608466146FFE70FB5FFF7EB
:10103000C9FF002848BF10F1000F0FBD4DF808EDA3
:10104000FFF7F4FF0CBF012000205DF808FB00BF94
:101050004DF808EDFFF7EAFF34BF012000205DF8EE
:1010600008FB00BF4DF808EDFFF7E0FF94BF01203B
:1010700000205DF808FB00BF4DF808EDFFF7D2FF38
:1010800094BF012000205DF808FB00BF4DF808ED7B
:10109000FFF7C8FF34BF012000205DF808FB00BF48
:1010A0004FEA4002B2F1FE4F0FD34FF09E03B3EB75
:1010B00012620DD94FEA002343F0004310F0004FB5
:1010C00023FA02F018BF404270474FF0000070470B
:1010D00012F1610F01D1420205D110F0004008BFAA
:1010E0006FF0004070474FF00000704742000ED292
:1010F000B2F1FE4F0BD34FF09E03B3EB126209D453
:101100004FEA002343F0004323FA02F070474FF008
:101110000000704712F1610F01D1420202D14FF07D
:10112000FF3070474FF00000704700BF2DE9F041DD
:10113000047890B000340546334818BF01240BF002
:10114000CDFA324B00260093314BB44201930CBFD1
:101150002346802305934FF4807306934FF48063F6
:101160000CBF4FF001084FF00208079320230893AB
:1011700025484FF40053694609930296CDF80C8038
:1011800004960A960BF028FB1F4801210BF042FB46
:1011900001274FF460231F480BA90D930B968DF880
:1011A00030408DF831700E968DF83C800BF0F6F9DA
:1011B000184804213A4603230BF041FA2CB1297850
:1011C0001448022203230BF03AFA124801210BF0D3
:1011D00012FA104801210BF005FA0E480BF014FA30
:1011E0000C480BF016FA0028FAD10A480BF015FA51
:1011F00008480BF017FA0028FAD1064801210BF035
:1012000015FA10B0BDE8F081080002404C240140FE
:10121000A804002000240140024B33F8100080B2E3
:10122000704700BFA8040020704700002D4B2DE937
:10123000F3411B780546002B36D00024A0462646F5
:1012400027460822532032216B460AF015FB9DF8F1
:1012500001209DF80030013403EB02231BB29DF8FE
:101260000320FF189DF80230E4B203EB02231BB207
:10127000F6189DF805209DF80430202C03EB02237E
:101280001BB298449DF8073001D05B06D9D1164BAC
:1012900097FBF4F796FBF4F698FBF4F82F806E803A
:1012A000A5F804801C701AE006226B4653203221F8
:1012B0000AF0E2FA9DF801209DF8003003EB0223CA
:1012C0002B809DF803209DF8023003EB02236B80F6
:1012D0009DF805209DF8043003EB0223AB80BDE8A8
:1012E000FC8100BFAC040020AD04002008B5134B06
:1012F00053201B782D2108227BB10AF087FB312176
:101300000A2253200AF082FB2C210C2253200AF0DF
:101310007DFB53203821902209E00AF077FB312130
:101320000A2253200AF072FB53202C210A220AF0D1
:101330006DFB034B40F209121A8008BDAC0400207B
:101340002800002073B5002402AB06460D4603F8C2
:10135000014D5320214601220AF08EFA78B19DF802
:101360000730E52B0AD13278054B01201A70054B66
:101370002B60054B6B60054BAB6000E020467CBDED
:10138000AC040020ED1200082D12000829120008FC
:101390002D4B70B519882D4B5A89B3F91200891A53
:1013A0001A89C0025143B3F91420C9138A1890FB5B
:1013B000F2F28A18DA61A2F57A6202FB02F1B3F95D
:1013C0000460B3F90250B3F90E4055437243B3F9C8
:1013D0000C6009134C437143091401EB6232023271
:1013E000D988921002F50042B3F920004A43B3F9BC
:1013F0000030E91201EBE42101EB830101FA00F175
:10140000134B02311B68D20BA3EBA1014CF25033FA
:1014100043FA00F34B4303D45B00B3FBF2F302E067
:10142000B3FBF2F35B001A1252430A4940F6DE3076
:1014300059435043091401EB204000F56C600F3014
:1014400003EB201070BD00BFDE040020B4040020B8
:10145000D804002043E3FFFF104B07B51B781BB9EE
:101460000F4B1A8801321A80032201AB7720F62134
:101470000AF002FA9DF805209DF80430120242EAB3
:1014800003429DF806301A43064BB3F92030C3F1EE
:10149000080322FA03F2044B1A600EBDAE040020CA
:1014A000B0040020B4040020D80400200B4B07B582
:1014B0001B781BB90A4B1A8801321A80022201AB31
:1014C0007720F6210AF0D8F99DF805309DF8042020
:1014D00043EA0222034B1A800EBD00BFAE04002077
:1014E000B0040020DE040020064B002193F82020E9
:1014F000054B920134321970D2B27720F4210AF0F0
:1015000085BA00BFB4040020AE040020034B0022C3
:101510001A707720F4212E220AF078BAAE04002047
:1015200010B54FF480400BF0D1F90128044605D1E5
:101530004FF480400BF0D8F9014B1C7010BD00BF78
:10154000AE0400202DE9F047DFF8C0A18CB09AF876
:1015500000900546B9F1000F40F0C580644F0226A7
:1015600010234FF40058384609A94FF480448DF8F1
:1015700026608DF82730ADF824800BF043FA042361
:10158000384609A98DF82730ADF824400BF03AFA17
:101590000E213046C7F810800BF0CEFA0126082342
:1015A00007A807948DF821308DF820908DF82260DF
:1015B0000BF050F928238DF828300AA80F238DF856
:1015C00029308DF82A308DF82B600AF0B5FF1420F1
:1015D0000AF0ADFA7720D02132460DF12F030AF040
:1015E0004BF99DF82F30434C0322552BE375228491
:1015F00075D1D12132460DF12F0377200AF03CF945
:101600009DF82F30772003F00F021B0922766376B6
:10161000162201ABAA210AF02FF99DF804209DF8AB
:101620000530304643EA022323809DF806209DF8CA
:10163000073043EA022363809DF808209DF80930B3
:1016400043EA0223A3809DF80A209DF80B3043EA69
:101650000223E3809DF80C209DF80D3043EA02231D
:1016600023819DF80E209DF80F3043EA0223638109
:101670009DF810209DF8113043EA0223A3819DF8C4
:1016800012209DF8133043EA0223E3819DF81420D1
:101690009DF8153043EA022323829DF816209DF819
:1016A000173043EA022363829DF818209DF8193011
:1016B00043EA0223A38241F2941245F2E4738AF8CA
:1016C000006085E80C000C4BAE60EB600B4B2B61AF
:1016D0000B4B6B610B4BAB610B4BEB6104E0C7F841
:1016E0001480484600E001200CB0BDE8F08700BF40
:1016F00000100140B40400200D150008AD140008CE
:10170000E91400085914000891130008DC040020B3
:101710003249334B48891A6800020B89101A2DE9A7
:10172000F04FA0FB0345C61703FB06558F88E2095F
:1017300042EA45623F04EB1112EB070A43F1000B4A
:10174000CB884F88A0FB034503FB0655220A42EADB
:1017500005628C89FF032B1212EB070843F1000985
:10176000A0FB042304FB0633D20D42EA432202F518
:10177000FA60B0F5FA6F14DA02FB02F305214B436D
:10178000184C59109B10A0420DDA02F55A620C3227
:101790005243072000FB02110B20424303EB62037C
:1017A00001E000231946104AB8EB030469EBE37526
:1017B0001068A0FB042300FB0533540D44EAC32446
:1017C0005D15BAEB01026BEBE173A21A65EB030343
:1017D000D00B40EA4340BDE8F08F00BFE804002092
:1017E000E404002024FAFFFFE004002007B577207E
:1017F00001AB002103220AF03FF89DF805009DF897
:101800000430000240EA03409DF8063018430EBD44
:1018100008B5FFF7EBFF08B1014B186008BD00BF2A
:10182000E004002008B5FFF7E1FF08B1014B1860A4
:1018300008BD00BFE40400207720482101220AF0FF
:10184000E5B87720582101220AF0E0B808B57720E2
:101850001E2101220AF0DAF841F28830BDE8084082
:101860000AF05AB9F7B54D4D022369464FF40056B8
:101870008DF802300446102328468DF80330ADF869
:1018800000600BF0BFF832206E610AF050F977204B
:10189000A02101220DF1070309F0EEFF002867D017
:1018A00032200AF044F9FFF7D1FFFFF7CFFFFFF72F
:1018B000CDFFFFF7CBFFFFF7C9FF394FA02500266B
:1018C00002227720294601AB02358DF804608DF89D
:1018D000056009F0D1FF9DF804209DF80530EDB2B8
:1018E00043EA0223B02D27F8023FE9D12D49002217
:1018F000CE89012306F47F45CD81505A023200285B
:1019000018BF0023102AF8D1002B30D125491A46E0
:1019100012F0010F4FEA620004D011F810004340AA
:10192000082004E031F8100083EA1023F8E713F4EC
:10193000004F18BF83F4C0535B000138F7D1013268
:10194000102AE5D106F00F021649C3F303331543FD
:101950009A42CD810DD00BE0013CE4B2FFF776FF57
:10196000002CF9D132200AF0E2F8012000E000203A
:10197000FEBD42F21C53236063600123A3600A4B47
:101980003220E360094B2361094B6361094BA3617A
:10199000094BE3610AF0CBF80A24DDE700100140AF
:1019A000E6040020E8040020431800082518000879
:1019B0003918000811180008111700080F4B10B54E
:1019C00019880F480BF07BF80E4C18B10AF086F816
:1019D00020600CE00AF082F82368984207D90A4A8E
:1019E000C31A3B21126893FBF1F39BB21380074BA0
:1019F0001868BDE810400AF077BF00BFFC04002063
:101A0000000C01400C05002004050020000500200A
:101A1000FFF7D4BFFFF7D2BF30B52F4B85B02F4AA9
:101A200010B1012817D10CE04FF4807119804FF4E8
:101A3000007313802A4A13602A4B09221A70172256
:101A400007E0188002231380254A1360254B0722E4
:101A50001870254B1A70204B10241B882348ADF8B2
:101A60000C3003A902238DF80F408DF80E300AF0D8
:101A7000C9FF1A4B1D481B8803A9ADF80C3004237D
:101A80008DF80F300AF0BEFF164B154D1978012066
:101A90000BF052F828680AF027FF2B688DF80940F0
:101AA00001930124002301A88DF808308DF80A4025
:101AB0000AF0D0FE0C4B0E4A1B7859B203F01F03FC
:101AC00004FA03F4490942F821400AF01FF8094BCF
:101AD0003C38186005B030BD08050020FC0400202B
:101AE00000050020FF040020FE040020000C01403F
:101AF00000E100E0F804002010B504460AF006F802
:101B00000B4B1A683C32904210D31860094B0A48BC
:101B10001C600A4C21880AF0D8FF0B2009F0FCFF5A
:101B200021880548BDE810400AF0D1BF10BD00BFB4
:101B3000F804002004050020000C014008050020E6
:101B400007B5002202AB03F8012D1E200A21012255
:101B500009F092FE30B19DF80700A0F14803584209
:101B600040EB03000EBD13B5062204466B461E2053
:101B7000032109F081FE9DF800209DF8013043EA21
:101B8000022323809DF802209DF8033043EA0223BC
:101B900063809DF804209DF8053043EA0223A3806A
:101BA0001CBD0000000000002DE9F04F4FF48053F1
:101BB00085B0ADF80C30022303A98DF80E308346B2
:101BC000042369488DF80F300AF01CFF322009F019
:101BD000AEFF002111221E2009F018FF0121402232
:101BE0001E2009F013FF0DF10409642009F09FFF86
:101BF0004846FFF7B8FF0026DFF870A1DFF86881DC
:101C00000A2734463546022101221E2009F0FEFE35
:101C1000322009F08CFF4846FFF7A5FFBDF90420EC
:101C2000BDF90610BDF90830B6189142B8BF0A4692
:101C3000ED189A42B8BF134653450C4409DBD8F857
:101C40000C30013F83F01003C8F80C30DBD10127C2
:101C500000E000271E200021122209F0D7FEDFF845
:101C60000CA1DFF804914FF00A08022101221E2086
:101C700009F0CCFE322009F05AFF01A8FFF773FFEC
:101C8000BDF90420BDF90610BDF90830B61A91421D
:101C9000B8BF0A46ED1A9A42B8BF13465345C1EB86
:101CA000040409DBD9F80C30B8F1010883F0100303
:101CB000C9F80C30D9D100E00027002170221E2085
:101CC00009F0A4FE012120221E2009F09FFE1E2003
:101CD0000221002209F09AFE642009F028FF57B380
:101CE0003046FEF791FB02460B461BA1D1E90001ED
:101CF000FEF71AFDFEF7B0FE20F000462046FEF784
:101D000083FB02460B4614A1D1E90001FEF70CFD4E
:101D1000FEF7A2FE20F000442846FEF775FB0246BF
:101D20000B460FA1D1E90001FEF7FEFCFEF794FE81
:101D300020F0004003E04FF07E5004460646BBF121
:101D4000000F05D0CBF80060CBF80440CBF80800BA
:101D500005B0BDE8F08F00BF000000000094D24045
:101D600000000000004CD140000C014001F0FFFFDA
:101D70001FB5364C2378BBB97A238DF80430344B29
:101D800034481968FEF7BCFE4FF07C51FEF7C2FFE5
:101D9000FFF7ACF901AB8DF80500FF216D200222A1
:101DA00009F0C8FD01234FE0012B37D12A4A7923DE
:101DB0008DF80430B2F900306FF463718B4209DBA7
:101DC00040F28D318B4207DC0A2193FBF1F35A3349
:101DD000DBB202E0002300E0B4238DF80530B2F955
:101DE00002306FF46372934209DB40F28D3293420A
:101DF00007DC0A2293FBF2F35A33DBB202E0002342
:101E000000E0B4238DF80630032201AB6D20FF21E2
:101E100009F090FD0D4B02221A7016E0022B14D12E
:101E200064238DF8043001238DF805300B4B5B786B
:101E3000003318BF01238DF806306D2001ABFF2160
:101E4000032209F077FD002323701FBD1005002039
:101E50002811002000003443980900202A10002097
:101E600007B56B238DF804300A238DF805308DF803
:101E700006306D20FF21032201AB09F05BFD0EBD92
:101E800003885B42038043885B424380704713B5FD
:101E90000622044601216B461C2009F0EDFC9DF84A
:101EA00001309DF800209DF8021043EA022242F31F
:101EB0008D02042392FBF3F222809DF8032042EA74
:101EC000012242F38D0292FBF3F262809DF804102E
:101ED0009DF8052042EA012242F38D0292FBF3F3C2
:101EE000A3801CBD13B52023ADF8043004230DEBF3
:101EF0000301022419488DF807308DF806400AF0D6
:101F000081FD2A2100221C2009F080FD0E211C20C9
:101F1000224609F07BFD0F2103221C2009F076FDEB
:101F20002B2112221C2009F071FD2C211C2022469D
:101F300009F06CFD2D2101221C2009F067FD2E21E6
:101F400000221C2009F062FD05221C202A2109F034
:101F50005DFD034B4FF480721A801CBD00080140E8
:101F60002800002037B5002502AB044603F8015DC8
:101F70001C200D21012209F07FFC80B19DF8073063
:101F80002A2B01D01A2B09D1054A01202260054ACB
:101F90006260054AA260054A137000E028463EBD13
:101FA000E51E00088F1E0008811E00081105002094
:101FB00083885B428380704713B50222044601ABDD
:101FC00068201B2109F058FC9DF804209DF805307D
:101FD00043EA022303F54E5310334FF48C7293FB04
:101FE000F2F3233323801CBD13B5062204461D21C2
:101FF0006B46682009F040FC9DF801309DF80020F8
:102000009DF8021043EA022212B2042392FBF3F27B
:1020100022809DF8032042EA012212B292FBF3F2E1
:1020200062809DF804109DF8052042EA012212B258
:1020300092FBF3F3A3801CBD192008B509F077FDCE
:1020400068201521002209F0E1FC10B9032009F0F5
:1020500007FE0C4B16211A78682042F0180209F08E
:10206000D5FC17210022682009F0D0FC3D21012277
:10207000682009F0CBFC68203E210122BDE8084021
:1020800009F0C4BC0000002010B50446192009F076
:102090004EFD68201521002209F0B8FC40B1054B27
:1020A00001202360044B6360044BA360044BE36096
:1020B00010BD00BF39200008E91F0008B11F00084B
:1020C000B91F00082A28114B13D004D80A2814D0AD
:1020D000142814D10FE0BC2807D0B0F5807F02D0BF
:1020E00062280CD103E0002208E0012206E002226F
:1020F00004E0032202E0042200E005221A701A78AC
:10210000682042F01802162109F080BC000000206F
:10211000044B1A78044B002A0CBF4FF40072FF22C4
:102120001A8070471205002028000020038842888A
:102130005B4202804380704783885B4283807047A4
:1021400013B50222044601AB6820412109F094FB3B
:102150009DF804209DF8053043EA02231BB24FF49A
:10216000AA7293FBF2F3253323801CBD13B506221C
:10217000044643216B46682009F07EFB9DF8013040
:102180009DF800209DF8021043EA022212B20423B7
:1021900092FBF3F222809DF8032042EA012212B260
:1021A00092FBF3F262809DF804109DF8052042EA4C
:1021B000012212B292FBF3F3A3801CBD13B50622D9
:1021C00004463B216B46682009F056FB9DF8013020
:1021D0009DF800209DF8021043EA022212B2082363
:1021E00092FBF3F222809DF8032042EA012212B210
:1021F00092FBF3F262809DF804109DF8052042EAFC
:10220000012212B292FBF3F3A3801CBD37B5042563
:102210004FF40053022429480DEB0501ADF80430BA
:102220008DF806408DF807500AF0ECFB6B218022F8
:10223000682009F0EBFB052009F079FC1921002248
:10224000682009F0E3FB6B210322682009F0DEFB24
:1022500068203721224609F0D9FB194BB3F85230D8
:102260002A2B19D006D80A2B12D0142B0ED0052BEE
:1022700012D10FE0BC2B11D0B3F5807F02D0622BBE
:102280000AD101E000220AE0224608E02A4606E0E0
:10229000052204E0062202E0032200E001221A21C6
:1022A000682009F0B3FB1B211822682009F0AEFB5F
:1022B00068201C21102209F0A9FB3EBD000C014042
:1022C000780D0020F7B5064623200C4609F02FFCB8
:1022D0006820752101220DF1070309F0CDFA0028CD
:1022E0004BD09DF80770682F46D106216B463846C3
:1022F0000A4609F0C1FA9DF803309DF8055003F035
:1023000001035B0005F0010543EA85059DF80130F6
:1023100003F001031D4308D0012D01D1174B1AE032
:10232000022D0ED10022154B13E00C2101220DF1DC
:102330000703384609F0A0FA9DF8073013F00F03A1
:1023400003D1052009F08CFC06E0042B0B4B02D1D5
:1023500001221A7000E01D70094B01203360094B07
:102360007360094BB360094B2360094B6360094BF1
:10237000A360094BE36000E00020FEBD12050020D1
:1023800011210008BD2100082D2100080D220008A0
:102390006D210008392100084121000803885B42B3
:1023A000038083885B428380704713B5062204460E
:1023B000A8216B46682009F05FFA9DF801309DF86E
:1023C00000209DF8021043EA022212B2042392FB7D
:1023D000F3F262809DF8032042EA012212B292FBDE
:1023E000F3F222809DF804109DF8052042EA0122B4
:1023F00012B292FBF3F3A3801CBD0000642008B569
:1024000009F095FB68202321F02209F0FFFA10B9AA
:10241000032009F025FC052009F089FB044B682006
:102420001A78202142F00F02BDE8084009F0EEBA08
:102430001305002013B50446192009F078FB682025
:102440000F2101220DF1070309F016FA9DF807305C
:10245000D32B07D1044B01202360044B6360044B52
:10246000A36000E000201CBDFD230008AB23000892
:102470009D23000836280D4B0AD002D820280DD104
:1024800004E04E2806D05D2808D105E0002204E0D3
:10249000402202E0802200E0C0221A701A786820F0
:1024A00042F00F02202109F0B1BA00BF130500204D
:1024B00030B585B0044601A80D460AF063FE0B4B0B
:1024C000013D1A680A4B2046B2FBF3F3013BADF81D
:1024D000043001A90023ADF80850ADF80A30ADF87A
:1024E00006300AF007FD05B030BD00BF3C000020FB
:1024F00040420F007FB5044601A80D4616460AF07B
:1025000054FE0123ADF808302046002301A9ADF8A0
:102510000450ADF80660ADF80A30ADF80C300AF0A2
:10252000C3FE7FBD2DE9F04F304B14274743000118
:102530001C5885B01D188A4620464FF6FF719346F9
:10254000FFF7B6FF6B6802A805F108090193AD68B3
:102550000AF0ADFA019B282218468DF80B2002A93B
:102560000222ADF808508DF80A200AF04BFA99F8CB
:102570000450002220462946FFF7BCFF20460121D7
:102580000AF01BFE99F80530DFF864808DF80C30F6
:1025900000238DF80D3008EB0706012303A88DF802
:1025A0000E308DF80F3009F0C7FF48F807A086F805
:1025B0000AB00C2D16D8DFE805F0071515150A1519
:1025C00015150D15151510002046022107E02046AF
:1025D000042104E02046082101E0204610210122C8
:1025E0000AF005FE304605B0BDE8F08F6807010827
:1025F0003C050020114A124813881180C91A038033
:1026000089B240F68C2399420E4B02D900221A70EF
:102610007047A1F53A72073A92B240F2DA5082421C
:1026200005D81A78112A9CBF074820F812101A788A
:1026300001321A70054B00221A807047580600209C
:10264000560600201405002016050020EC0B002083
:10265000154B142210B502FB003202F10803DC789E
:1026600064B901229980DA70104B00011A18117BAD
:1026700018580222BDE81040FFF73CBF9C88D98063
:10268000091B89B29C781182094A000122F81410B2
:102690000024DC70054B1A18117B18582246FFF7EE
:1026A00029FF044B1C8010BD3C0500206807010871
:1026B00016050020EC0B002070B50D4602210446E3
:1026C0000AF099FE012820460BD102210AF09EFE55
:1026D00014226BB25343254A2046D6580AF07EFE98
:1026E00027E004210AF087FE01280ED1013520469B
:1026F000EDB204210AF08AFE14226BB253431B4A46
:102700002046D6580AF06DFE13E0082120460AF054
:1027100072FE012811D102352046EDB208210AF0DF
:1027200075FE14226BB25343104A2046D6580AF065
:102730005BFE01462846B04770BD102120460AF0D6
:102740005AFE012810D103351021EDB220460AF0BF
:102750005DFE14226BB25343044A2046D6580AF059
:1027600046FE01462846B04770BD00BF3C0500202C
:102770002DE9F04F474BDFF82081142505FB00358C
:10278000030158F8034087B008EB030607462046CC
:10279000FFF78EFED6F804B006F1080A05A8B66861
:1027A0004FF002090AF083F91823584605A98DF85D
:1027B0001730ADF814608DF816900AF023F901A8CF
:1027C0009AF804600AF0E7FC7023ADF804300123A6
:1027D000ADF806300023ADF808304FF47A73ADF849
:1027E0000A304FF48073ADF80C90ADF810300C2E19
:1027F0002BD8DFE806F0072A2A2A102A2A2A192AC3
:102800002A2A2200204601A90AF0BEFB2046082100
:102810000AF0F6FC19E0204601A90AF0F9FB20466F
:1028200008210AF0F5FC10E0204601A90AF034FC6A
:10283000204608210AF0F6FC07E0204601A90AF02C
:102840006DFC204608210AF0F5FC08EB071898F803
:102850000E301BB1204601210AF0BBFC20460121AD
:102860000AF0ABFC0C2E10D8DFE806F0070F0F0FB4
:10287000090F0F0F0B0F0F0F0D00343404E0383425
:1028800002E03C3400E040346C60284607B0BDE80C
:10289000F08F00BF3C05002068070108022110B539
:1028A00012480AF0A8FD012810480CD102210AF0B4
:1028B000ADFD0F4B0D48D3F8A0400AF08FFD014647
:1028C0000820A04710BD10210AF095FD01280CD169
:1028D000102106480AF09AFD054B0448D3F8B4408D
:1028E0000AF085FD01460920A04710BD002C0140DB
:1028F0003C0500204FF080400021FFF7DDBE0000C6
:1029000001480421FFF7D8BE0004004001480A2115
:10291000FFF7D2BE000800402DE9F84F4278437A15
:102920000446002B14BF0223002302B10133514A95
:10293000DFF8608152F823904F4FDFF85CA100254B
:1029400019F80530FF2B00F09280A27803F00F00F9
:1029500042B1821ED2B2012A04D8484B5A8842F0B2
:102960000C020BE0A27A0AB182427CD0E2783AB142
:10297000042805D1414B5A8842F010025A8072E077
:10298000227932B1052804D13C4B5A8842F020020A
:10299000F4E7627942B1821FD2B2012A04D8374BE0
:1029A0005A8842F0C002E9E7A2794AB1A0F10802D0
:1029B000D2B2012A04D8314B5A8842F44072DDE782
:1029C00003F0F00313F0300F03D02278002A08BF81
:1029D0000023E2793AB1627A2AB9A0F10802D2B2B0
:1029E000012A98BF8023227A32B1627A22B9021F6B
:1029F000D2B2032A98BF8023DA0607D500222049E5
:102A0000FFF790FD1F4B08221A702CE0990608D59D
:102A10001C4E1D493278FFF785FD33780133337042
:102A200021E05A0610D5A189184E97FBF1F189B221
:102A300096F800B0FFF79CFE154B43F82B000BF106
:102A4000010B86F800B00EE01B060CD5E18998F862
:102A5000006097FBF1F189B2FFF78AFE4AF8260081
:102A6000013688F8006001350E2D7FF469AF002033
:102A7000BDE8F88F4808010840420F006A100020A6
:102A8000F5250008540600205126000855060020B0
:102A90005C060020AC0600208C060020044B1B784E
:102AA000834204D9034B53F820305B681980704788
:102AB000550600205C060020044B1B78834204D995
:102AC000034B53F820305B6819807047AC06002038
:102AD0008C060020014B33F81000704716050020CB
:102AE00037B50E4B0E4C93F8623113B1012B04D164
:102AF00001E0402300E0802323802388094DADF8C6
:102B0000043002238DF806302846102301A98DF8E1
:102B1000073009F077FF23886B613EBD780D0020F8
:102B2000AE0600200008014020B9124B1A88124B53
:102B30005A617047114B12491A78B1F86611013287
:102B4000D2B291421A7014D100221A700D4A137831
:102B5000591C1170C3F34403012202FA03F30A4A19
:102B600012681342034A044B128801D01A6170475D
:102B70005A617047AE06002000080140B0060020F0
:102B8000780D0020B1060020140000201A481B49CF
:102B9000026800608A4219D0002103E0184B5B589C
:102BA000435004311748184B42189A42F6D3174A3B
:102BB00002E0002342F8043B154B9A42F9D309F096
:102BC000E7FB0DF077FA04F031FAFEE7114E1248F8
:102BD00030601248016821F07061016041020160BB
:102BE0000F4C182020600F490F4808600F48D0F89C
:102BF00000D0406800470000F04F0020EFBEADDE7F
:102C000028320108000000208C0400208C040020E1
:102C1000FC130020181002400900000004000140CD
:102C2000140C0140000C01404434434400F0FF1FE9
:102C3000FEE70000F8B5194C06462378274683B90D
:102C400008F064FF164D2B683233984209D30123F4
:102C50002370144B4FF480525A6108F057FF2860DC
:102C6000F8BD3B78C3B108F051FF0D4C2368F6184E
:102C7000B04211D3094B00221A700A4B4FF4805214
:102C80001A6108F043FF084B20601A780AB1013A34
:102C90001A70064B01221A70F8BD00BFB206002060
:102CA000B806002000080140CC0A0020B30600202E
:102CB00037B5204D8DF807302B788DF8051002A917
:102CC0008DF806208DF80400CA1812F8042C443A36
:102CD000D2B20A2A9ABF184931F812403224022B84
:102CE00003D814B12046FFF7A5FF2B78022B0BD990
:102CF000124B1D6808F00AFF001B854204D20D4AE2
:102D0000002313700E4A13700E4B1A781946012ACD
:102D100000D06CB9074B1A78022A01D801321A7018
:102D2000094A002313700B70084B4FF480521A614C
:102D30003EBD00BFB506002068080108B8060020A7
:102D4000CC0A0020B3060020B20600200008014093
:102D500070B5434B0446DA7A424B003218BF012269
:102D60001A704FF4007001F0CDFCF8B13E4D052112
:102D700095F8D2003D4B01FB00F21B88934212DD17
:102D80003B4A5278002A66D095F8D350394A401908
:102D9000414301268B4216705DDD022111705AE01D
:102DA000344A022111700BB9324A1370102001F01D
:102DB00089FC60B12A4A304BD17909B9127A22B123
:102DC0002B4AD27A0AB9012200E000221A70294B5C
:102DD0001B78022B02D14C204E211EE0012B07D183
:102DE0004D2153204C220B46BDE87040FFF760BFD9
:102DF000214B1B78012B03D1532001464E2206E0C4
:102E0000184B1B78012B04D15320014602464D2359
:102E1000EAE7042C03D153204D210A460AE0022C94
:102E200003D1532001464D2204E0012C04D153204C
:102E30004D214E224423D7E7104B1B7823B132207B
:102E4000BDE87040FFF7F6BE0D4A13700D4B4FF40E
:102E500080521A6170BD064A5278002AA0D0A2E7BB
:102E6000C6100020B7060020780D0020EC0B0020D3
:102E70002A100020B6060020B4060020CC0A00204C
:102E8000B20600200008014070B5B0FBF2F406461F
:102E900015461CB12046FFF7F7FF014605FB1464F9
:102EA000024B08461B5D00F8013B70BDBC090108E0
:102EB0002DE9F84F037804460130202BFAD0092B76
:102EC000F8D02D2B05D104464FF0000ADFF878B179
:102ED00006E02B2BDFF86CB108BF04464FF0000A68
:102EE0004FF000084FF0000912E00022544B40461A
:102EF0004946FDF7EFFA064628460F46FDF784FAE5
:102F000002460B4630463946FDF732F9804689467F
:102F1000234614F8012BA2F13005E9B20929E4D9BE
:102F20002E2A21D11A460026454F16E0FDF76CFAED
:102F300032463B46FDF7F8FB02460B464046494603
:102F4000FDF716F9002280468946304639463C4B4B
:102F5000FDF7C0FA224606460F465078541C30381A
:102F6000C2B2092A2346E1D91A78652A01D0452A36
:102F70004ED15A782D2A02D10233012505E02B2AA1
:102F800001D0013300E00233002500240A2102E0D1
:102F900001FB0424303C13F8012BA2F13000C0B235
:102FA0000928F5D9B4F59A7F28BF4FF49A74002206
:102FB000244B09E0104619461DA3D3E90023FDF771
:102FC00089FA323C02460B46312CF3D8264609E0FA
:102FD0001046194618A3D3E90023FDF77BFA083CF5
:102FE00002460B46072CF3D806F0070408E010460B
:102FF00019460022124BFDF76DFA013C02460B46C2
:10300000002CF4D135B140464946FDF78DFB05E073
:103010000C4B002240464946FDF75CFA02460B463F
:1030200050465946FDF756FAFDF716FDBDE8F88FF4
:103030009A647EC50E1B514A0000000084D7974158
:10304000000024400000F03F0000F0BFAFF300801C
:10305000F8B5027903460669C468052A45D8DFE851
:1030600002F003030E0E1A259B681A785118A1422C
:1030700003DBB142B4BF0C4634461C70F8BD9B68FC
:10308000B3F900205118A14203DBB142B4BF0C4692
:1030900034461C80F8BD9B681A688918A14203DB7E
:1030A000B142B4BF0C4634461C60F8BD9F68084668
:1030B000FDF7DCFD0D49FDF7E1FE3968FDF722FD66
:1030C00005462046FDF7D2FD044621462846FDF779
:1030D000BFFF40B93046FDF7C9FD044621462846EA
:1030E000FDF7D4FF00B125463D60F8BD00007A44ED
:1030F000014808F023BF00BFE109010838B50748BF
:1031000008F01CFF064D00242B19615905485A6828
:103110000C3409F0F3F89C2CF6D138BD230A0108D1
:103120000C090108390A0108F8B508F0EFFC4FF462
:103130007A73B0FBF3F11E4B1E481A781E4B1F4EDC
:103140001B7809F0DBF801F0D7FA1D4B0746196828
:103150001C4B1D48B1FBF3F109F0D0F80024012508
:1031600056F8241049B105FA04F33B4202D017483F
:1031700009F0C4F80134E4B2F2E7012001F0A2FA48
:1031800038B1134B13481A78134B53F8221009F037
:10319000B5F8124808F0D2FE114B1C8808F090FCDC
:1031A000024610482146BDE8F84009F0A7B800BF24
:1031B00084100020410A010818000020541801085A
:1031C0003C00002040420F007F0A01089D0A0108D0
:1031D000580C0020A10A0108A8090108930E010853
:1031E000180B0020AB0A01082DE9F04107460DF04D
:1031F0000BF9C6B23EB91D4B1D485A791D4B013A19
:1032000053F822102BE038461B4932460DF02CF9BA
:10321000044670B9194808F091FE164D55F824106F
:1032200029B11748013409F069F8E4B2F6E7154806
:1032300006E0DFF84080002558F8254024B9124800
:10324000BDE8F04108F07ABE3846214632460DF01E
:103250000BF9013538B9054B0C485D712146BDE8C5
:10326000F04109F04BB8EDB2E6E700BF780D002061
:10327000CC0A0108C0080108D2160108E00A0108BA
:103280009D0A0108930E0108F30A01080B0B0108BF
:1032900038B50D68044628460DF0B6F80246206899
:1032A0002946BDE838400DF0DFB8000008B50948F0
:1032B00008F044FE002001F02DF8074808F03EFE1B
:1032C0000A2008F034FC054B00201870BDE80840C7
:1032D00008F0E8BC1D0B0108270B0108AA0C002010
:1032E000F0B585B004460DF08FF8082826D12049A6
:1032F0000023E25C08688018407800F00300022890
:1033000008BF203AE2540133082BF2D126460025AB
:1033100016F8017B174839460CF0A0FF28B130465B
:10332000394601350CF09AFF18B1134808F006FE33
:103330001BE0082DECD1204600F05EFF0F4808F09E
:10334000FDFD0F4A0B49002312F8010F04AC2018B1
:103350005C5C0133082B00F80C4CF5D100230948C4
:1033600001A98DF80C3008F0C9FF05B0F0BD00BF11
:10337000580000208C250108360B0108560B010867
:10338000270E00203C0A01082DE9F84305460DF000
:103390003BF8044601F0D0F9074684B92A4808F002
:1033A000CDFD2A4D012655F8041FC9B106FA04F3D4
:1033B0003B4202D0264808F0A1FF0134F3E728463B
:1033C000244922460DF050F860B9234808F0B6FDB4
:1033D0001E4C54F8041F19B1204808F08FFFF8E77D
:1033E0001F4810E02B782D2B04D10135013C4FF004
:1033F000010801E04FF00008DFF85090002659F86E
:10340000047F27B91748BDE8F84308F097BD284660
:10341000394622460DF028F8A0B9012000FA06F03E
:10342000B8F1000F03D001F07FF90F4802E001F07E
:1034300073F90E4808F082FD0D483946BDE8F8439F
:1034400008F05CBF0136DAE76B0B01087C08010865
:103450009D0A0108D21601087E0B0108950B010890
:10346000930E01089B0B0108B50B0108BF0B010867
:103470003C0A010810B50C4808F060FD002130221C
:103480000A480CF07DFE0A4B00241C60094B0A48D8
:103490001C7008F053FD0A2008F049FB2046BDE8E7
:1034A000104008F0FFBB00BFC80B0108BE0600209B
:1034B000FC060020AA0C0020270B010808B50848CC
:1034C00008F03CFD012000F071FF064808F036FDD1
:1034D0000A2008F02CFB0020BDE8084008F0E2BB01
:1034E000EC0B0108290B010808B50C2008F01FFBA4
:1034F000FE2008F00FFD0C2008F019FB802008F0DA
:1035000009FD0C20BDE8084008F011BB08B50C20EF
:1035100008F00DFBFE2008F0FDFC0C2008F007FB76
:10352000012008F0F7FCBDE80840FFF7DDBF000010
:1035300008B50C2008F0FBFAFE2008F0EBFC0C208C
:1035400008F0F5FAC02008F0E5FC0C2008F0EFFACE
:10355000094808F0D3FE0C2008F0E9FAFE2008F034
:10356000D9FC0C2008F0E3FAC02008F0D3FC0C20B2
:10357000BDE8084008F0DBBA070C010808B50C20CC
:1035800008F0D5FAFE2008F0C5FC0C2008F0CFFAB0
:10359000082008F0BFFC0C20BDE8084008F0C7BABE
:1035A00038B505460CF030FFC4B254B9104D214671
:1035B000104855F8042F013408F0A0FE0F2CF6D166
:1035C00038BD28460CF02EFD0E2804460ADC2021CA
:1035D00028460CF043FE0CF025FD074B1C3443F845
:1035E000240038BD05480F21BDE8384008F086BEEC
:1035F000E40D0020170C0108780D0020230C0108B1
:10360000931E222B88BF0A22002810B50C4603DA2D
:103610002D2301F8013B4042FFF736FC00230370E5
:10362000204610BD70B586B005460C4603A80021A3
:103630000C220CF0A5FD28460021FDF727FD20B146
:1036400028462949FDF75EFA03E028462649FDF79A
:1036500057FA2649FDF75EFBFDF722FD054685EA90
:10366000E570A0EBE5700A226946FFF7C9FF002D5F
:10367000B4BF2D25202506AE684606F80C5D0CF07B
:10368000C3FE012807D130238DF80D308DF80E30A0
:103690008DF80F300CE0022805D130238DF80D3065
:1036A0008DF80E3004E0032802D130238DF80D3060
:1036B000694630460CF0ACFD03A80CF0A5FEC51E13
:1036C000EDB22A4603A920460CF0F6FE002363550E
:1036D000204607490CF09CFD03AB591920460CF01D
:1036E00097FD204606B070BD6F12033A00007A4481
:1036F000510E010837B5037904460D46052B34D821
:10370000DFE803F003060A0D1114836819782DE031
:10371000836893F9001029E08368198826E083689C
:10372000B3F9001022E0836819681FE083686946D6
:103730001868FFF777FF0146114808F0DFFDF5B183
:10374000E068FDF793FA6946FFF76CFF01460D4804
:1037500008F0D4FD2069FDF789FA6946FFF762FF9A
:103760000146084808F0CAFD09E00021064808F0B3
:10377000C5FD25B10548E168226908F0BFFD3EBDE1
:10378000A80A0108A70A01084D0C0108490C010804
:103790002DE9F74F80460CF037FE064628B1012888
:1037A0001CD198F800302A2B18D13F4808F0C6FBEE
:1037B00000253E4F2C464FF01808E9593C4808F0C8
:1037C0009DFD08FB04703146FFF794FF0134394832
:1037D00008F0B4FB18358C2CEFD162E040463D2157
:1037E0000CF03CFD00285CD0441C20460CF01AFC78
:1037F00005462046FFF75CFB0027DFF8B0B08146A6
:103800003E46182357F80BA003FB06B4504601931D
:103810000CF0FAFD5146024640460CF025FE019B95
:10382000002834D1E068FDF721FA01464846FDF74B
:1038300023FC002829D02069FDF718FA01464846E4
:10384000FDF710FC002820D02379052B08BF4D463A
:10385000052B0FD8DFE803F003030606090CA36865
:103860001D7007E0A3681D8004E0A3681D6001E0EF
:10387000A3681D605146104808F040FD2046002115
:1038800003B0BDE8F04FFFF735BF0C4804E0013648
:1038900018378C2EB6D10A4803B0BDE8F04F08F0B7
:1038A0004DBB03B0BDE8F08F500C01086C18010847
:1038B000400D0108930E0108650C0108700C010809
:1038C000950C01082DE9F0435D4885B008F016FD20
:1038D0005C4C5D495D4808F011FD5D48FFF760FEF6
:1038E00062795C4B013A5C4853F8221008F006FDFF
:1038F000D4F878010021FDF7A1FB00285AD100255A
:10390000D4F8786100213046FDF798FB00284DD1AE
:10391000013552482946D4F87C91D4F88081D4F8F6
:10392000847108F0EBFC30460021FDF791FB10B1EB
:103930004B4808F0E3FC69463046FFF773FE01464A
:10394000484808F0DBFC48460021FDF781FB10B138
:10395000434808F0D3FC69464846FFF763FE01463A
:10396000404808F0CBFC40460021FDF771FB10B148
:103970003B4808F0C3FC69464046FFF753FE01464A
:10398000384808F0BBFC38460021FDF761FB10B158
:10399000334808F0B3FC69463846FFF743FE01465A
:1039A000314808F0ABFC10340C2DA9D1691C2F480C
:1039B00008F0A4FC00F0C0FE2D4D07462E4656F838
:1039C000041F19B12B4808F099FCF8E70C460126B2
:1039D00055F8041F41B106FA04F33B4202D02648D1
:1039E00008F08CFC0134F3E7244B254A13F8010F4F
:1039F00004AC20188C5C0131082900F8104CF5D17A
:103A0000204C0025204869468DF80850274608F0CC
:103A100075FC18260DE01D4854F8181C08F06EFCC3
:103A200006FB05700021FFF765FE194808F086FACD
:103A3000013518348C2DEED105B0BDE8F08300BF00
:103A4000B20C0108780D0020E1090108E30C01081F
:103A5000CF0E0108C0080108F30C0108FE0C010894
:103A6000150C0108A80A01083C0A0108060D010806
:103A70007C080108180D0108260D0108270E0020FA
:103A80008C2501086C180108330D01083C0D010854
:103A9000930E01082DE9F04389B004460CF0B4FC04
:103AA000C5B2002D75D17A4808F048FA794C04AEB9
:103AB0000027D4F878010021FDF7C0FA38B1DDF80D
:103AC0001480069F079E744C4FF0000942E00135B8
:103AD0007248294646F8047F08F010FCD4F87801B3
:103AE00001A9FFF79FFD01466D4808F007FCD4F8D7
:103AF0007C0101A9FFF796FD0146694808F0FEFB2D
:103B0000D4F8800101A9FFF78DFD0146644808F053
:103B1000F5FBD4F8840101A9FFF784FD0146614853
:103B200008F0ECFB10340C2DC3D1C8E7404654F824
:103B3000101CFCF7E7FF54F80C1C80463846FCF7D5
:103B4000E1FF54F8081C07463046FCF7DBFF09F19B
:103B5000010906461034A945E8DB53480796CDF81D
:103B60001480069708F0EAF9504E514D002405AB39
:103B7000E058504920F00040FDF788FA043400284E
:103B800014BF3046284608F0D9F90C2CEFD14A482A
:103B90006FE02046494904220CF066FC05462046A9
:103BA00005BB20210CF05AFB00286DD0471C38467D
:103BB0000CF02AFC424E5FFA80F856F8044F0CB91C
:103BC000404856E03846214642460CF04DFC38B994
:103BD000284603F005FC3C48214608F08FFB4BE0EB
:103BE0000135EAE70CF01EFA451E0B2D48DC204695
:103BF00020210CF033FB064650B1461C3046FFF73F
:103C000057F9244B012403EB0513C3F8780100E0B6
:103C10000446304620210CF021FB064648B1461CE4
:103C20003046FFF745F91B4B013403EB0513C3F88E
:103C30007C01304620210CF011FB064648B1461CA1
:103C40003046FFF735F9134B013403EB0513C3F886
:103C50008001304620210CF001FB48B10130FFF714
:103C600027F90C4B032C03EB0515C5F8840103D091
:103C7000164808F063F907E01548FFF70BFF03E06B
:103C800014480C2108F03AFB09B0BDE8F08300BFEE
:103C90004E0D0108780D0020F40E0020790D01086A
:103CA0007F0D01083C0A0108830D0108460D01083B
:103CB0004A0D01080AD7233C930E0108920D010812
:103CC000BC080108F30A0108970D0108AA0D0108B4
:103CD000CF0E0108E40D01082DE9F843AD4B1C7827
:103CE000002C40F0A1814FF4165006F029FDFFF79B
:103CF00045FCFE2008F00EF90C2007F018FF0C2000
:103D000008F008F90C2007F012FF7C2008F002F9F7
:103D10000C2007F00CFF9D2008F0FCF8FFF7F6FBE5
:103D20009D4808F0EBFAFFF703FC9C4808F0E6FA20
:103D30004FF4FA6007F0FBFEFFF7E8FB984B994F52
:103D40001C70994B994E1C70994B3C801C703470C0
:103D5000FFF7CAFB3B884FF0180808FB03F3954DAB
:103D60009548E95808F0CAFAFFF7E2FB3B8821467C
:103D700008FB0355914C2846FFF7BCFCA146EBE03D
:103D800007F0ACFE074607F047F908B104F0ACF9BC
:103D90008B4B1A68BA1A002AC0F2DE8007F59C47DE
:103DA00020371F60874B0820DA6882F01002DA6043
:103DB000DA6882F00802DA6000F0A4FC08B904F0C6
:103DC00093F904F0E3F98049804BB1F8CA20B3F9C4
:103DD0000600904217DAB1F8CC10B3F9040088421B
:103DE00040F31B81B3F902308B4240F3168101236B
:103DF000337012E1B3F90220734BB3F8CC309A421E
:103E000001DD0223337000232370337863BB6F4BD3
:103E10006D4AB3F90210B2F8CA20914280F2EF80E5
:103E200001222270EBE0B3F90220674BB3F8CC30EB
:103E30009A4240F3E98002232370E5E0634BB3F933
:103E40000020614BB3F8CA309A4280F2E18003232C
:103E50002370DDE05D4BB3F900205B4BB3F8CC3051
:103E60009A4201DD04232370594B21781B784E4A76
:103E70008B424F4B0CD118780130C0B263281870B8
:103E800003D963201870082300E01123137002E0A7
:103E9000002010701870424A4D4B19701178424B37
:103EA00001311B78C9B2994211704FF0000134BF43
:103EB000217011702278013A032A4DD8DFE802F010
:103EC0000214363E374B3B491B88182201339BB204
:103ED0008C2B08BF002302FB0310007D354D4FF0F3
:103EE00018080028F2D010E02E4B32491B88182207
:103EF000002B08BF8C23013B9BB202FB0310007D0B
:103F00002C4D4FF018080028F2D0264F3B80FFF7C9
:103F1000FDFA3B88284808FB03F3E95808F0EEF95E
:103F2000FFF706FB3B8808FB035511E0082B2846EA
:103F300014BF4FF0FF316FF0040105E0082B284655
:103F400001D0012100E00521FFF782F8FFF7F0FA28
:103F500028460021FFF7CEFB3378002B3FF410AF4B
:103F60004FF4FA7007F0E3FDFFF7D0FA194808F0B4
:103F7000C5F9FFF7DDFA0D4B1B78012B02D0022BA0
:103F800052D12BE0144808F0B9F94FF47A7007F0D9
:103F9000CEFD2DE0AA0C00200C0E0108180E010821
:103FA000EE060020F8060020EF060020BC060020E8
:103FB000BD0600206C180108A80A0108F0060020C0
:103FC000F4060020000C0140780D0020F0100020C5
:103FD00000070020260E0108360E0108134808F0DD
:103FE0008DF94FF47A7007F0A2FD002000F092F9ED
:103FF000FFF7C4FA0020BDE8F84307F053BE99F874
:104000000020002A3FF40FAF2378002B3FF416AFB7
:104010002378002B3FF41EAF26E7054BB3F90410BD
:104020009142FFF6E7AEEEE6BDE8F883420E0108E6
:10403000F01000202DE9F043624B87B01A78002A77
:1040400040F0B68001221A705F4807F077FF5F48A2
:1040500007F074FFACE007F04BFF092801D03F28C0
:104060004CD14FF00008D4F80090594D4746B9F1B3
:10407000000F05D0574829684A460CF0F5F910B9E9
:10408000A84607B92F460C35B542F0D39FB13D681D
:10409000D8F800004F494B4615F803E0C25C724562
:1040A00004D12AB94B4A2021D1540133236002E0C4
:1040B000CA540133F0E723680BB1474519D046488D
:1040C00007F03CFF06E057F80C0B07F037FF09201C
:1040D00007F020FF4745F6D93C4807F02FFF4FF087
:1040E000000906E019F8050007F014FF09F10109BD
:1040F00000E0384D23689945F4D35BE023682BB981
:10410000042803D13348FFF7B5F958E00C2803D150
:10411000324807F013FF2DE0002B2DD00A2801D0E4
:104120000D2829D12E4807F009FF2A4D22680023C7
:10413000AB5404932B4B03A8009325490D220C2369
:1041400003950BF073FF074638B100680CF05CF97B
:1041500001302818BB68984702E0234807F0EEFEBC
:104160001C48002130220CF00BF800232360154B73
:104170001B7823B3154808E07F2809D1D3B1154A2D
:10418000013B002119482360D15407F0D7FE11E00C
:104190002F2B0FD81F280DD97E280BD80BB920281C
:1041A00008D00C4AD0540133236007F0B3FE01E07D
:1041B0000F4C104E07F080FE00287FF44CAF07B084
:1041C000BDE8F083AA0C0020530E0108960E0108EA
:1041D0000C090108BE0600209B0E0108A00E010874
:1041E000930E010891320008AB0E0108CC0E0108B5
:1041F000FC060020A8090108F8B505460446084F4A
:10420000084E09E006480CF029F820B1C01B301810
:10421000631B80F8B030013421780029F2D1F8BD59
:104220008C250108780D00202DE9F84F354C3649D2
:104230004FF40F7220460BF061FF94F82E5094F863
:104240002D00324A002340F6C41103FB03F4193C4D
:104250006C4304F51C6404345C434443013394FB15
:10426000F1F4062B22F8024FEFD1264B0A2193F8E6
:104270002F2093F8306001FB02F8B3F8D850B3F860
:10428000DA70C2F164095442DFF884B05FFA89F948
:10429000C6F1640C7F1BA4B20023924622B2002A0E
:1042A00002DC03DB012102E0494600E0514602FB4B
:1042B00002F04943704390FBF1F161444A430A2103
:1042C00092FBF1F2424412B27A434FF47A7192FBBC
:1042D000F1F2AA1823F80B2002330A34162BA4B2E9
:1042E000DCD1084AB2F8FE10B2F80031994204D38A
:1042F000B2F802318B4228BF0B46A2F8FE30BDE86F
:10430000F88F00BF780D002000FC01081A11002072
:1043100048100020F8B5214B22221A704FF40F727A
:104320005A80BE221A71EF2283F8382200220546F5
:1043300083F83922194603F50F7013F8014B8342B5
:1043400082EA0402F9D381F8392208F0D3FA342042
:1043500008F0E4FA124808F037FB04280ED1104C9C
:104360000E4F104E104BE219D3182046196808F072
:1043700001FB042802D10434B442F3D108F0C6FA98
:10438000FFF752FF25B10F201421012203F058FB43
:1043900000F01CFCBDE8F84000F092BD780D002054
:1043A00000FC01083CFE01080004FEF72DE9F04F77
:1043B000B94B85B01A78222A15D15A88B2F50F7FE9
:1043C00011D11A79BE2A0ED193F83822EF2A0AD1D8
:1043D000B249002213F8014B8B4282EA0402F9D160
:1043E000002A00F05581AE4C4FF009094A46AD490C
:1043F00001A80BF083FE00214FF40F7220460BF052
:10440000BFFE22232370032363712823E3732374E5
:1044100046238C2263742D2332260A2514274FF05D
:104420001E084FF0640AE37622755023372201A953
:1044300084F812A084F8263084F8139084F8286059
:1044400084F82930A275E3754A4684F82DA084F8D3
:104450002E3084F82F60677684F82380A77684F85E
:10446000248084F81C806775E77784F8205084F8EE
:104470002A7004F146000BF041FE6B23A4F8403093
:1044800040F6B833A3812A23A4F85230864B4FF468
:10449000C879E365854B4FF0020B2366844B84F8A3
:1044A00050A06366834B8448A3664B2384F8243171
:1044B000202384F86D30814B84F84FB0A3656E23C0
:1044C00084F8AC302B2384F8AD30212384F8AE304F
:1044D00084F83451A4F85490FFF78EFE0F2384F82B
:1044E000C43084F8C63040F24C43A4F8CA300423E8
:1044F00084F8C23040F27E43A4F8D83003F5487304
:1045000040F26C72A4F8DA304FF47A7340F2DC5166
:104510004FF4FA604FF47F7CA4F8CC20A4F8DE308E
:10452000002201234FF0FF3A84F8C560A4F8C810B8
:1045300084F8CE20A4F8D02084F8DC20A4F8E2602F
:1045400084F8FC30A4F8FE10A4F80201A4F80611C7
:10455000A4F80801A4F80C11A4F80E0184F8103195
:1045600084F8123184F8133184F8163184F8C3507A
:10457000A4F8E090A4F800C1A4F804C1A4F80AC10A
:1045800084F811A184F8145184F81551A4F818C1C5
:10459000A4F81C11A4F822114FF41641A4F81A0132
:1045A000A4F82001C4F848110620454984F83501D3
:1045B0001920C4F8281184F83A614FF07E5184F82C
:1045C000440184F85161C8209626C4F82C11A4F83F
:1045D0004C010021A4F8566184F8D3004FF4AF7663
:1045E0004FF4966084F8253184F8362184F84E2102
:1045F00084F84F2184F8543184F8522184F85331DF
:10460000A4F8D40084F8D620A4F81EC1C4F8301150
:10461000A4F83891A4F83CB184F84551C4F840118D
:10462000A4F85A7184F85081A4F8586184F8D250E3
:1046300084F8D72084F8602184F8642140F2145271
:104640004FF4E130C4F868214FF4E162C4F85C0132
:10465000C4F86C210820643284F8613184F8623136
:1046600084F8743184F86301C4F87021A4F86601F9
:1046700004F1C003C4F8781110349C42FAD1002030
:1046800005B0BDE8F04FFFF745BE05B0BDE8F08FBF
:1046900000287FF4A8AEF8E700FC01083CFE010802
:1046A000780D00201C070108F6287C3FD7A3703F37
:1046B0009A99993ECDCC4C3F9525010803141400DE
:1046C0006666263F034B1B6818420CBF0020012082
:1046D000704700BF04070020024B1A68104318609F
:1046E000704700BF04070020024B1A6822EA00004E
:1046F0001860704704070020014B1868704700BF1E
:1047000004070020034B9B6818420CBF00200120C7
:10471000704700BF780D0020024B9A6810439860E4
:10472000704700BF780D0020024B9A6822EA000013
:1047300098607047780D0020014B9868704700BF63
:10474000780D002000000000194B10B51868FCF728
:104750008DFA1849FCF792FBFBF768FE10A3D3E92A
:104760000023FBF7B7FE10A3D3E90023FBF7DCFF20
:10477000FCF772F920F0004008F0E2FE0E4C002138
:104780002060FCF75BFC234608B10C4A22600C4C0D
:104790000C4819682060FCF771FB606010BD00BF19
:1047A000182D4454FB2109400000000000806640A1
:1047B000280700208096184B000800207DC3E43AAB
:1047C0007C080020B04A663F38B504460C4D0AE02C
:1047D00095F82531012B02D1062007F0A8F914F82D
:1047E000010C07F003FC14F8013B002BF0D107F09B
:1047F00017FC0028FBD01E20BDE8384007F097B911
:10480000780D0020F8B50C46596815461E46FCF791
:1048100081FA2146FCF77EFA2968FCF773F9F668FD
:10482000044606F100473946FCF712FC30B9204631
:104830003146FCF72BFC10B1344600E03C462C60BE
:104840002046F8BD2DE9F8432A4A2B4960B10023E0
:1048500013600B6053604B6093608B60D360CB60E0
:1048600013610B61BDE8F883244B042618685B686C
:10487000086108601361136014E054F8048C54F864
:10488000049B40464946FCF701FC20B144F8089CD3
:1048900044F8048C00270135EDB2B542EDD1013D5D
:1048A000EEB2CFB9164C00250127F6E754F8048C78
:1048B00054F8049B40464946FCF7E8FB20B144F815
:1048C000089C44F8048C00270135EDB2B542EDD1C7
:1048D000013DEEB20FB104E004260A4C0025012789
:1048E000F4E7054A054B92681A60024A92685A60DA
:1048F000BDE8F883A807002084080020601000208D
:1049000088080020AC0700202DE9F0411F4603680D
:1049100005460C461646002B50D02B4B1A68002A31
:104920004CD00A68002A49D05B68002B46D0274B40
:1049300000211868FCF782FB08B1FFF705FFDFF8DC
:1049400088802868D8F80030C01AFCF78FF9D8F8AA
:10495000043005462068C01AFCF788F91B4B19681B
:10496000FCF7D8F9294604462846FCF7D3F9214636
:1049700080462046FCF7CEF901464046FCF7C2F8D7
:1049800009F026F81249FCF7C5F9FCF7AFFB214600
:10499000306005F1004009F019F80E49FCF7BAF94A
:1049A0000D49FCF7AFF8FCF77BFB0028386008DA0C
:1049B00000F50C40A0303860BDE8F0810023336082
:1049C0003B60BDE8F08100BFD81000200008002047
:1049D000014A8E3FA00CB34500A00C4601460020C2
:1049E000F0B503460C4A06460A2511E02E2C04D1E8
:1049F00089B10133DBB2D4186654D45C6843A4F1A6
:104A00003007FFB2092F01D8303800190133DBB26B
:104A1000D45C002CEAD1F0BD990800202DE9F843C0
:104A2000144B0C461E688F68054613493046904665
:104A3000FCF768F801463046FCF720FA61688146C9
:104A40002846FCF75DF83146FCF718FA3946FCF7C2
:104A500057F801464846FCF75DF901463846FCF731
:104A600051F865602061A060D8F80810FCF752F991
:104A7000BDE8F883A80800200361023C154B70B51F
:104A800018680021FCF7DAFA08B1FFF75DFE124B57
:104A90005868D0B11E68C6B1104A5368ABB11568EA
:104AA0009DB1C01AFCF7E2F80D49FCF733F9094B48
:104AB0000C4C1968FCF72EF96060701BFCF7D6F8F7
:104AC0000749FCF727F9206070BD064B00221A60E9
:104AD0005A6070BD00080020E0100020D8100020AF
:104AE000014A8E3FB0080020F8B50368284E294DD2
:104AF00033600B68284C7360FFF726FE311D2B4690
:104B000030462246FFF700FFFFF7B8FF2B68234A25
:104B1000234F1360234AB7F956011360FCF7A6F838
:104B2000214B2249186000230B80214D21491A4650
:104B30000B602B80204B93F90030022B05D0032B08
:104B400006D0012B23D11D4B00E01D4B1A70F8BD80
:104B50001C4B20681E68FCF785F80446B7F958011D
:104B6000FCF784F801462046FCF788F91649FCF763
:104B7000D1F800210446FCF761FA40B97042FCF715
:104B800075F82146FCF77AF9FCF78AFA2880F8BD17
:104B9000E010002060080020E0070020C00700208F
:104BA000780D00206C080020AC080020320700209F
:104BB0002810002024100020740A0020650800201E
:104BC00020100020D80F00209A99993F70B5314CE1
:104BD000314DE07CFCF746F83049FCF74FF928608E
:104BE000607FFCF73FF82D49FCF748F9686094F8BE
:104BF0002700FCF737F82A49FCF740F9294E94F8CA
:104C00003631A860EE60207D274D93B9FCF72AF875
:104C10002649FCF733F92860A07FFCF723F82049E8
:104C2000FCF72CF9686094F82800FCF71BF81B4986
:104C300011E0FCF717F81E49FCF720F92860A07F67
:104C4000FCF710F81549FCF719F9686094F828008A
:104C5000FCF708F81249FCF711F9EE60A8600D4D59
:104C6000144C687DFBF7FEFF1149FCF707F9206043
:104C7000E87FFBF7F7FF0949FCF700F9606095F85A
:104C80002900FBF7EFFF0649FCF7F8F8E660A060A3
:104C900070BD00BF780D0020900700200000C842C2
:104CA00000007A440000FA44E80700200000A04019
:104CB00000002041540700202DE9F843594D0446D7
:104CC000FFF784FF00232B704FF4FA6006F02FFFEC
:104CD00006F004FF544EA8468619544F84E006F0AF
:104CE000FDFEB04200F28580204651492A4607F079
:104CF0002FF997F82531012B03D071D3032B6FD8EF
:104D000037E0DFF8689155F8090007F06DF9C82021
:104D100006F00DFFB4F5164F0DD003D8B4F5964F3D
:104D200010D106E0B4F5614F07D0B4F5E13F09D1E9
:104D300005E0404804E0404802E0404800E04048C8
:104D4000FFF742FD0435142DDDD1204607F04CF964
:104D5000C82006F0ECFEDFF818910025062006F0CA
:104D6000E6FE15F80900013507F040F98C2DF5D164
:104D700036E0DFF8F89055F8090007F035F9C8205B
:104D800006F0D5FE04352F48FFF71EFD142DF2D195
:104D90004FF4614007F028F9C82006F0C8FE2A4801
:104DA000FFF712FDC82006F0C2FE2848FFF70CFDF1
:104DB000C82006F0BCFE2648FFF706FDC82006F016
:104DC000B6FE2448FFF700FDC82006F0B0FE2248DA
:104DD000FFF7FAFCC82006F0AAFE2048FFF7F4FC13
:104DE0004FF47A7006F0A3FE98F80050002D3FF4BF
:104DF00076AF0C4B1B7813B11020FFF76DFC0B4BFB
:104E0000642193F8442193F845015143144A1180D9
:104E1000FBF728FF1349FBF77DFF134B1860BDE834
:104E2000F88300BFB00A002080969800780D00201B
:104E3000055C000840260108622601088426010856
:104E4000A6260108C9260108DD260108F626010864
:104E50000827010818270108282701083827010812
:104E6000CE0700200AD7233C00090020A025010816
:104E7000B425010810B50C4CE37A9BB10B4B1B78A1
:104E8000042B0FD9FFF760FC094A0A4B11685268DE
:104E900019605A60084B1868FCF702F9074B188034
:104EA0000123237310BD00BF2A100020EB10002047
:104EB00028070020BC10002028110020BE07002079
:104EC0002DE9F0470022DFF890A0DFF89090DFF89E
:104ED0009080DFF890C0194E194D1A4C10460023EF
:104EE0004FF0140E0EFB00F177187B60BB600130B1
:104EF0006F187B60BB6042F80A30671842F80930CF
:104F000042F8083042F80C300432022873506B50DB
:104F100063507B60BB60E5D10B4BB3F95601FBF7E7
:104F2000A5FE0A4B0A49186000231A460B80094B5C
:104F300001201A70BDE8F047FFF784BC6807002025
:104F40000408002030080020780D0020AC08002064
:104F50003207002020100020B0080020EC0A0020BA
:104F60003C10002060100020044B1A7A22B9D87936
:104F7000003018BF01207047012070472A10002020
:104F800010B503E020460B49FBF7BAFD0A49044679
:104F9000FCF77CF80028F5D104E020460549FBF732
:104FA000B1FD044620460549FCF752F80028F4D12B
:104FB000204610BD00A00C4700A08C4600A08CC667
:104FC00080EAE073A3EBE0738B4206DB0028CCBFE2
:104FD000C1EB0000081800B27047002070470000C5
:104FE0002DE9F04F984A89B0D37A002B00F09F85C5
:104FF000964B1B78042B40F29A85537803B91373B0
:10500000127B12B90BB1FFF735FF914B4FF07E5178
:105010001C682046FCF71CF808B94FF07E548D4BF5
:1050200000211C608C4B1868FCF708F808B1FFF7EA
:105030008BFB8A4A8A4B14681B681C1B136000F0A8
:105040008680884B0022B4F5C87F1A707FD2012277
:105050001A70A4F15103262B07D92046FBF702FE54
:1050600001468148FBF70AFF00E08048A4F1B50340
:10507000262B98BF7E48E73C262C98BF4FF08140F6
:105080007C49FBF747FE7C4D7C4C0646D4F804B0C7
:105090006868DFF80882C0EB0B00FBF7E7FD3146DC
:1050A000FBF738FE6C4B1968FBF734FE2468814629
:1050B00005902868201AFBF7D9FD3146FBF72AFE38
:1050C000D8F828610746049031464FF07E50FBF730
:1050D00017FD2C606A4C824621683046FBF71AFEA9
:1050E000394603465046D8F82C810193FBF712FE4F
:1050F000019B01461846FBF705FD624F41462060C3
:10510000FBF708FE3968FBF705FE5F4A5F4900239D
:1051100013600860C5F804B06168304602920193DC
:10512000FBF7F8FD494605465046FBF7F3FD0146FF
:105130002846FBF7E7FC41466060FBF7EBFD79682A
:10514000FBF7E8FD5149029A019B4860536006F065
:10515000DDFC434B1B68C01AB0F5FA7F414B01D907
:1051600000221A701B78002B51D0394B444CD3F8D5
:1051700000A0444F444D21685046FBF7CBFD3968F1
:10518000FBF7C8FD2968FBF7BDFCDFF8F090DFF8FE
:10519000FC8028608346D9F80000FBF767FDD8F84B
:1051A0000010FBF7AFFC5946FBF7ACFCFBF778FFB0
:1051B000374E616830605046FBF7ACFD7968FBF70D
:1051C000A9FD6968FBF79EFC68600746D9F80400F2
:1051D000FBF74CFDD8F80410FBF794FC3946FBF7BD
:1051E00091FCFBF75DFF7060206865680146FBF786
:1051F00091FD294604462846FBF78CFD01462046D2
:10520000FBF780FC08F0E4FB224B186016E0FFF788
:1052100057FE1A4D1F4A002313601D4E2A68164C74
:1052200017481A496D6832602260174A03600B60A4
:1052300013607560656043604B605360024B164CB1
:105240001B7B6BBB238039E02A100020EB10002071
:1052500088090020A808002000080020D0070020AE
:10526000FC070020CC07002000007A440000204109
:105270000000A040014A8E3F1C07002028070020A4
:10528000B40F00207C080020D4070020B8080020BC
:10529000D810002068080020B8100020780D0020E9
:1052A000A04806AA07AB011DFFF72EFB069A642350
:1052B000B2FBF3F22280079A92FBF3F39A4A13802F
:1052C000FFF752FE002800F03484984B93F9005009
:1052D000012D05D0C0F22484032D00F3218477E250
:1052E000934B0021D3F840412046FBF7A7FE00284E
:1052F00075D1904B1D70904B1A68904B19688A427B
:105300006DD302F5C23202F528721A608C4B5888B0
:1053100018B9B3F900303BB961E003B213F5E17F8E
:1053200006DBB3F5E17F05DC00B2FBF79FFC02E092
:10533000844800E084482146FBF7ECFC804B824621
:10534000B3F9000010F5E17F05DBB0F5E17F04DC87
:10535000FBF78CFC02E07B4800E07B482146FBF732
:10536000D9FC7A4B7A4DD3F800907A4B8046686826
:105370001F68FBF77BFC494683464046FBF7CAFCA7
:10538000394606465046FBF7C5FC01463046724E8C
:10539000FBF7B8FB7168FBF7BDFC01465846FBF70D
:1053A000B1FBFBF77DFE68602868FBF75FFC4946B0
:1053B00083465046FBF7AEFC394681464046FBF734
:1053C000A9FC01464846FBF79BFB3168FBF7A2FCB2
:1053D00001465846FBF796FBFBF762FE2860204625
:1053E0000021FBF72BFE002840D0514B544E93F880
:1053F000C650B6F902002946FFF7E2FD4D4C28B928
:10540000B6F900002946FFF7DBFD08B10023237041
:105410002478BCB9464D95F83A01FBF727FC4F4B71
:1054200001461868FBF714FE60B14D4B1A684AB983
:105430004149B5F8382109684FF47A7000FB02122F
:105440001A6003E0464B00221A607CB9444B1B688B
:1054500063B1394A12689A4208D3364B01221A7056
:10546000404A3B4B5168126859601A6038483E4BBD
:10547000011D3E4AFFF748FAFFF700FB2C4B93F85B
:105480003661002E40F0FB802A4BDFF8ECB093F839
:1054900000903446B2464F46354A0021A55828466A
:1054A000FBF7CCFD002876D1002F74D1204B4FF0B4
:1054B0000109B3F83C01FBF7D5FB2946FBF7DEFCFD
:1054C00000210546FBF7E2FD00B9B9465FFA89F90C
:1054D000B9F1000F02D105F1004000E0284608F0C4
:1054E00077FA244BD3F800804146FBF7B1FD002842
:1054F00046D1B9F1000F02D105F1004000E0284685
:1055000008F066FA4FF07E51FBF7C0FDB0BBB9F171
:10551000000F01D105F10045284608F059FA8046F0
:105520002EE000BFBC100020C4100020740A002030
:10553000780D002065080020700A00207008002007
:105540007C1000200000E1C30000E143781000203F
:10555000E01000201C1000207C08002068080020BB
:10556000C8070020D810002060080020E0070020B5
:10557000B40F002000090020601000204FF07E587A
:10558000834BB3F90000FBF771FB01464046FBF784
:10559000C1FB80460DE07E4BB3F90000FBF766FBD4
:1055A000804637B17B4BE0587B4B1968FBF7B2FB69
:1055B00000E00020794BE158FBF7A2FA7849054654
:1055C000FBF746FD30B928467649FBF75FFD10B181
:1055D000744D00E0724D744BDFF8F091E550D9F84E
:1055E00000102846FBF796FB704B4FF0140C0CFB99
:1055F0000A3C6F4B6246196803904B462846CDF82B
:1056000008C0FFF7FFF801460398FBF77BFADDF8C7
:1056100008C044F80B00614628464A46FFF7FEF9E9
:1056200064490546FBF714FD30B928466249FBF78B
:105630002DFD10B1604D00E05E4D284654F80B1072
:10564000FBF760FA08F1004949460546FBF700FD03
:1056500030B928464146FBF719FD10B1454600E038
:105660004D46524B5549F258554B0D510434F250AA
:105670001436082C0AF1010A7FF40EAF50E200251F
:10568000DFF818A12C462E46424A434BA75819680A
:105690003846FBF73FFB54F80A10FBF731FADFF806
:1056A0002C81414BD8F80010E0508346FBF732FBC9
:1056B0003E4B4FF0140909FB0639844639465846DB
:1056C000CDF808C0FBF71EFA394B4A461968434625
:1056D000FFF798F8DDF808C001466046FBF712FABC
:1056E000364B4946E05042463846FFF797F9314974
:1056F0000746FBF7ADFC30B938462F49FBF7C6FC2F
:1057000010B12D4F00E02B4F54F80A800021404685
:10571000FBF7BCFC4FF0010920B140462949FBF7DB
:1057200097FC03E040462849FBF7B0FC08B94FF06E
:1057300000095FFA89F303B10027204B3846E1588E
:10574000FBF7E0F9124B0746B3F90090C9F10000EE
:10575000FBF78CFA804641463846FBF779FC40B9A6
:105760004846FBF783FA804641463846FBF78EFCF5
:1057700000B14746114B0136E7500C4B0434EA5850
:105780000F4BEA501435022E7FF47EAFC8E100BF04
:10579000CE070020B008002090070020B40F0020A2
:1057A00000007AC400007A44580800200408002051
:1057B000A80800200000FAC40000FA44601000208D
:1057C0003008002000004842000048C2E8070020DE
:1057D00099489A4C9A4B2246011DFFF795F8FFF71E
:1057E0004DF9984B2468B3F85851974B1A782BB25F
:1057F00012B90322B4FBF2F4944EA34238BF1C4604
:10580000A4B2376820B2FBF731FA3946FBF73EFC09
:1058100060B18F4B8F491868FBF77CFA0146384618
:10582000FBF770F93060FBF73BFC84B2854B24B288
:10583000B3F856B10FFA8BF39C4205DB2DB2AC42A4
:10584000A8BF2C461FFA84FB7D4B01271C68824BA6
:105850001E68A61B3046FBF709FAFFF791FB0021F3
:105860000546FBF713FC20B128467C49FBF7F0FB0B
:1058700003E028467A49FBF709FC00B90027FFB28C
:10588000002F35D03046FAF7BFFD67A3D3E90023D8
:10589000FAF720FE66A3D3E90023FAF745FFFBF7EA
:1058A000DBF807F081FE654B05461868FBF7DAF96F
:1058B00001462846FBF72EFAFBF7F2FB694B1880EE
:1058C000694B00B2984204DB40F6B8339842B8BF47
:1058D0000346E41848F6A04302E0A4F50C44A03CBB
:1058E0009C42FADC02E004F50C44A034002CFADB04
:1058F0005E4B00261C605D4B3546D3F80090374662
:10590000C9F50C502830FAF77FFD47A3D3E90023EF
:10591000FAF7E0FD46A3D3E90023FAF705FFFBF70A
:105920009BF8044607F00CFE0590204607F03CFE6D
:1059300004900FFA8BF0FBF799F905F110036A4612
:105940009958FBF7E7F94A4AA958FBF7D9F84949AA
:105950000446FBF77DFB30B920464749FBF796FB31
:1059600010B1454C00E0434C444B454AEC501168A3
:105970002046FBF7CFF9434B4FF0140808FB0738DC
:10598000334B42468246196820463D4BFEF73AFFAC
:1059900001465046FBF7B6F841468246384A204653
:1059A000FFF73CF801465046FBF7ACF8364B04468F
:1059B000B3F900A0CAF10000FBF758F98046414650
:1059C0002046FBF745FB40B95046FBF74FF98046B0
:1059D00041462046FBF75AFB00B144462B4B0137AA
:1059E000EC50284B0435F258294BF2501436082D50
:1059F0009FD1144B93F85321012A52D10F4A1268B8
:105A0000C82A4ED993F85231012B43D1A9F58C40C5
:105A10005038FBF72BF9FFF7B3FA0E49FBF72EFAD4
:105A20003DE000BFAFF30080182D4454FB21094036
:105A3000000000000094D140E0100020E0070020AA
:105A400060080020780D002020100020AC08002005
:105A5000A80800200000C8426C08002000A08C4567
:105A600000A08CC53207002048F4FFFFC0070020CB
:105A7000B40F002000007AC400007A4458080020C7
:105A80005407002030080020CE07002060100020BE
:105A900004080020642099FBF0F0FBF7E7F8264BA0
:105AA0001860264B264AB3F84C3112689A421BD92B
:105AB000244B01251868244B1B68C01AFBF7D6F845
:105AC000FFF75EFA00210446FBF7E0FA20B120461A
:105AD0001E49FBF7DBFA03E020461D49FBF7B8FA45
